:020000040800F2
:10000000400B00205D2200081B0200081D020008B2
:100010002102000825020008290200080000000053
:100020000000000000000000000000002D02000899
:100030002F0200080000000031020008B94000084B
:10004000772200087722000877220008772200082C
:10005000772200087722000877220008772200081C
:10006000772200087722000877220008772200080C
:1000700077220008772200087722000877220008FC
:1000800077220008772200087722000877220008EC
:1000900077220008772200087722000877220008DC
:1000A0007722000877220008772200085B1D0008ED
:1000B00077220008772200087722000877220008BC
:1000C00077220008772200087722000877220008AC
:1000D0007722000895080008D1090008150B0008D0
:1000E00077220008772200087722000800F002F843
:1000F00000F05FF80AA090E8000C82448344AAF163
:100100000107DA4501D100F054F8AFF2090EBAE860
:100110000F0013F0010F18BFFB1A43F0010318473B
:1001200060500000805000000A444FF0000C10F8AE
:10013000013B13F0070408BF10F8014B1D1108BF65
:1001400010F8015B641E05D010F8016B641E01F805
:10015000016BF9D113F0080F1EBF10F8014BAD1C55
:100160000C1B09D16D1E58BF01F801CBFAD505E073
:1001700014F8016B01F8016B6D1EF9D59142D6D3CD
:10018000704700000023002400250026103A28BFF5
:1001900078C1FBD8520728BF30C148BF0B607047F9
:1001A000642904F06181002070471FB51FBD10B5A0
:1001B00010BD04F053FA1146FFF7F7FF00F008F8FE
:1001C00004F071FA03B4FFF7F2FF03BC00F008FB80
:1001D00010B500F09EF84FF4A06002F05FF803F055
:1001E0002EFF00F04FFA47214FF6FE7001F037FD69
:1001F000472144F61F6000F027F94FF4614000F0FA
:10020000FDFA00F007F900F0FFFC01F0B7FB01F088
:1002100061FE01F06FFE002010BD704700BFFEE7D9
:1002200000BFFEE700BFFEE700BFFEE77047704774
:10023000704700000CB50020019000906C480068E9
:1002400040F480306A49086000BF6948006800F4E3
:10025000003000900198401C0190009818B9019856
:10026000B0F5A06FF1D16248006800F4003010B121
:100270000120009001E0002000900098012843D167
:100280005C48006840F010005A4908600846006861
:1002900020F0030008600846006840F00200086093
:1002A00053484068524948600846406848600846DC
:1002B000406840F4806048600846406820F47C1044
:1002C00048600846406840F4E81048600846006806
:1002D00040F08070086000BF4548006800F0007082
:1002E0000028F9D04248406820F0030040494860A7
:1002F0000846406840F00200486000BF3C48406843
:1003000000F00C000828F9D10CBD10B5FFF792FFE2
:1003100010BD10B53648006840F00100344908604F
:10032000084640683449084031494860084600683A
:10033000324908402E4908600846006820F48020B1
:1003400008600846406820F4FE0048604FF41F0033
:100350008860FFF7DAFF4FF000602949086010BDA0
:1003600010B5002100200022214B5B6803F00C0136
:1003700021B1042906D0082928D107E0214B224CBD
:10038000236027E01F4B204C236023E0184B5B6861
:1003900003F47010164B5B6803F48032022303EB06
:1003A000904022B9194B4343174C23600DE0104B8A
:1003B0005B6803F4003323B1144B4343124C2360B6
:1003C00003E0104B4343104C236003E00D4B0E4CF5
:1003D000236000BF00BF064B5B68C3F303130C4CE4
:1003E000E15C094B1B68CB40074C236010BD00004B
:1003F00000100240002002400000FFF8FFFFF6FE60
:1004000008ED00E000127A000000002000093D0025
:100410000400002008B50121082002F0C9FA0120DB
:10042000ADF8000010208DF8030003208DF80200C5
:100430006946044802F000F80121024802F0A9F8D8
:1004400008BD0000000C014030B589B005460C46DF
:100450000121042002F0B9FA0121082002F0A8FAD3
:100460000121084602F0A4FA18208DF807000320A5
:100470008DF806004FF47070ADF8040001A97D48B6
:1004800001F0DAFFA8B2ADF80C00ADF8084000208A
:10049000ADF80A00ADF80E0002A9774802F046FD5B
:1004A0006020ADF814000020ADF81C000120ADF86C
:1004B000160040F2DC50ADF81A0005A96E4802F0B3
:1004C00072FD05A96C4802F0B0FD05A96A4802F06A
:1004D00044FE4FF47A70ADF81A0005A9664802F0A0
:1004E000F1FD0821644803F0ADF90821624803F0EA
:1004F000B2F90821604803F0BBF908215E4803F017
:10050000C0F901215C4803F06DF901215A4803F05C
:1005100069F809B030BD2DE9F04704460D4616468E
:100520001F4656488089204404B25448C089284454
:1005300005B25248008A304406B25048408A3844D6
:1005400007B24E48007A08B1604204B24B48407A84
:1005500008B1684205B24948807A08B1784207B2CA
:1005600014F5FA7F01DC464806E0B4F5FA7F02DDB7
:100570004FF4FA7000E02046044615F5FA7F01DCDE
:100580003F4806E0B5F5FA7F02DD4FF4FA7000E06F
:100590002846054616F5FA7F01DC394806E0B6F52F
:1005A000FA7F02DD4FF4FA7000E03046064617F598
:1005B000FA7F01DC324806E0B7F5FA7F02DD4FF43E
:1005C000FA7000E0384607462C48807DB8BB2819F1
:1005D00010F5FA7F01DC2A4807E02819B0F5FA7F08
:1005E00002DD4FF4FA7000E028190FFA80F8281B9A
:1005F00010F5FA7F01DC224807E0281BB0F5FA7FEE
:1006000002DD4FF4FA7000E0281B0FFA80F908F2BF
:10061000DC5081B2184803F083FA09F2DC5081B251
:10062000154803F07BFA06F2DC5081B2124803F061
:1006300073FA40F2DC51104803F06CFA18E0FFE75F
:1006400004F2DC5081B20C4803F06AFA05F2DC5087
:1006500081B2094803F062FA06F2DC5081B2064822
:1006600003F05AFA07F2DC5081B2034803F052FA61
:10067000BDE8F087000C01400008004008010020A0
:100680000CFEFFFF00B587B00121042002F090F9B5
:1006900003208DF81A0018208DF81B002020ADF8DB
:1006A000180006A94C4801F0C7FE8020ADF81800DC
:1006B00006A9494801F0C0FE4020ADF8180006A97F
:1006C000454801F0B9FE10208DF81B00ADF8180068
:1006D00006A9414801F0B0FE10213F4801F059FF42
:1006E0003E4802F0C9F90121080302F061F9002136
:1006F0003A4802F08CFA0020ADF804004FF4827002
:10070000ADF806000220ADF80A000120ADF80C009B
:100710000020ADF808004FF40070ADF80E00002086
:10072000ADF81000ADF812000720ADF8140001A9D3
:100730002A4802F0C7F90121284802F068FA07B0F8
:1007400000BD70B50446002507E0681C80B2054670
:100750004FF6FF71884200D105E002211F4802F0E8
:10076000DAFA0028F1D000BF47F6FF7521461B4892
:1007700002F07EFA07E0681C80B205464FF6FF7172
:10078000884200D105E00121144802F0C4FA002893
:10079000F1D000BF114802F06DFAC0B270BD70B563
:1007A00005460E46002400BF04E0285DFFF7C9FFA0
:1007B000601C84B2B442F8DB70BD70B505460E46CD
:1007C000002400BF05E00020FFF7BBFF2855601C98
:1007D00084B2B442F7DB70BD000801400030014034
:1007E00000BF704700BFE34A128802F04002002AAF
:1007F000F9D0C2B2DF4B1B1D1A80704710B586B00E
:100800000446012144F2040002F0D2F84FF40070D3
:10081000ADF8140003208DF8160018208DF817008D
:1008200005A9D54801F008FE4FF48060ADF814002A
:1008300004208DF8170005A9CF4801F0FDFD252003
:100840008DF8000003208DF801008DF802000120D2
:100850008DF80300684601F026FD01940020ADF8F4
:100860000800ADF80A00ADF80C00ADF810000C203F
:10087000ADF80E0001A9BF4803F0D5F9012240F2FE
:100880002551BC4803F067FA0121BA4803F057FA32
:1008900006B010BD10B540F22551B64803F040FB3C
:1008A00048B140F22551B34803F064FBB14803F06E
:1008B000B7FAB249087040F22771AE4803F030FB36
:1008C000C0B1AF4801780078401CAD4A1070AD4807
:1008D000405CA849091D088010460078AA4909789B
:1008E000884207D1A3480C30008820F08000A1493D
:1008F0000C31088010BD70B505460E4600240AE094
:10090000295DA14802780078401C9F4B18709D48D3
:100910008154601CC4B2B442F2DB96480C300088AB
:1009200000F0800028B9012240F22771914803F0BD
:1009300012FA70BD10B586B004460121042002F001
:1009400037F80121480402F040F80420ADF8140003
:1009500003208DF8160018208DF8170005A9864889
:1009600001F06AFD0820ADF8140004208DF817008E
:1009700005A9814801F060FD26208DF800000320C4
:100980008DF8010002208DF8020001208DF803008F
:10099000684601F088FC01940020ADF80800ADF82D
:1009A0000A00ADF80C00ADF810000C20ADF80E00F8
:1009B00001A9764803F037F9012240F22551734826
:1009C00003F0C9F90121714803F0B9F906B010BD6F
:1009D00010B540F225516D4803F0A2FA40B140F243
:1009E00025516A4803F0C6FA684803F019FAC4B200
:1009F00040F22771654803F093FAC0B1644801786A
:100A00000078401C624A10706248405C5F49091DD2
:100A100008801046007860490978884207D15B4811
:100A20000C30008820F0800058490C31088010BD3F
:100A300070B505460E4600240AE0295D5648027846
:100A40000078401C544B187052488154601CC4B24A
:100A5000B442F2DB4D480C30008800F0800028B929
:100A6000012240F22771494803F075F970BD10B5B5
:100A700086B004460121082001F09AFF0121880474
:100A800001F0A3FF4FF48060ADF8140003208DF84F
:100A9000160018208DF8170005A9404801F0CCFC7D
:100AA0004FF40060ADF8140004208DF8170005A97C
:100AB0003A4801F0C1FC27208DF8000003208DF892
:100AC000010001208DF802008DF80300684601F056
:100AD000EAFB01940020ADF808004FF40050ADF897
:100AE0000A00C010ADF80C000020ADF81000042082
:100AF000ADF80E0001A92A4803F095F8012240F252
:100B00002551274803F027F90121254803F017F95B
:100B100006B010BD10B540F22551214803F000FA8F
:100B200058B140F225511E4803F024FA1C4803F046
:100B300077F9C4B2204600F072FF10BD70B50446CC
:100B40000D46002610E0A15D154803F065F900BFD1
:100B50004021134803F0CEF90128F9D14021104873
:100B600003F0D5F9701CC6B2281EA5F10101CDB263
:100B7000E9D170BD00380140000801401A00002092
:100B8000180000208C0100201900002000440040C3
:100B90001B0000208C0200201C000020000C0140E3
:100BA0000048004010B5044624B110215B4801F014
:100BB000F2FC03E01021594801F0EBFC10BD70B5C8
:100BC00004460E4615460120FFF7ECFF44F0800076
:100BD000FFF7B7FD31462846FFF7EFFD0020FFF78E
:100BE000E1FF70BD70B505460C460120FFF7DAFF46
:100BF0002846FFF7A6FD06462046FFF7A2FD002087
:100C0000FFF7D0FF304670BD08B580216B20FFF79D
:100C1000E9FF0A2003F00AFA01216B20FFF7E2FF47
:100C20000A2003F003FA6A4601217520FFF7C7FF87
:100C30009DF80000122801D0002008BD0321682083
:100C4000FFF7D0FF0A2003F0F1F901216A20FFF736
:100C5000C9FF0A2003F0EAF940217020FFF7C2FF24
:100C60000A2003F0E3F900216C20FFF7BBFF0A2004
:100C700003F0DCF900211920FFF7B4FF0A2003F08C
:100C8000D5F904211A20FFF7ADFF0A2003F0CEF9B1
:100C900018211B20FFF7A6FF0A2003F0C7F9102137
:100CA0001C20FFF79FFF0A2003F0C0F904211D203C
:100CB000FFF798FF0A2003F0B9F900211E20FFF783
:100CC00091FF0A2003F0B2F900212320FFF78AFFE9
:100CD0000A2003F0ABF900213720FFF783FF0A2039
:100CE00003F0A4F900213820FFF77CFF0A2003F06D
:100CF0009DF90B4A01217520FFF761FF0848007834
:100D0000122801D1012098E7002096E710B504468B
:100D100022460E213B20FFF752FF10BD0008014084
:100D20001D0000202DE9FF410024002500260020A1
:100D3000FE4948618861C861002730E06846FFF7D6
:100D4000E5FF9DF809009DF8081040EA012000B277
:100D5000F64908809DF80B009DF80A1040EA012032
:100D6000404200B2F14948809DF80D009DF80C10FA
:100D700040EA0120404200B2EC4988800846B0F9C0
:100D8000000004440846B0F9020005440846B0F9E2
:100D900004000644022003F049F9781C87B2C82FEA
:100DA000CCDB204603F00CFE8046E14903F0F6FC64
:100DB000DE494861284603F003FE8046DC4903F023
:100DC000EDFCDA498861304603F0FAFD8046D849E7
:100DD00003F0E4FCD549C861002004B0BDE8F0810F
:100DE0007FB56846FFF792FF9DF801009DF800105F
:100DF00040EA012000B2CD49C8809DF803009DF86B
:100E0000021040EA0120404200B2C84908819DF822
:100E100005009DF8041040EA0120404200B2C34999
:100E200048819DF809009DF8081040EA012000B2B1
:100E3000BE4908809DF80B009DF80A1040EA012089
:100E4000404200B2B94948809DF80D009DF80C1051
:100E500040EA0120404200B2B44988809DF8070072
:100E60009DF8061040EA012000B2B0498885B1F92A
:100E7000000003F0A5FD0446AC484169204603F09C
:100E800007FFAC490863A949B1F9020003F098FDD6
:100E90000446A6488169204603F0FAFEA549486346
:100EA000A249B1F9040003F08BFD04469F48C169D3
:100EB000204603F0EDFE9F4988639C49B1F9060086
:100EC00003F07EFD05469948016A284603F0E0FEDE
:100ED0000446994903F0D4FD984908639349B1F950
:100EE000080003F06DFD05469048416A284603F06E
:100EF000CFFE0446924903F0C3FD904948638B49F5
:100F0000B1F90A0003F05CFD05468848816A28466D
:100F100003F0BEFE0446884903F0B2FD87498863AA
:100F20000324ABE0611C01EB4101824A52F821002D
:100F3000844903F0A5FD054604EB44017D4A52F8BF
:100F40002100814903F09CFD0646294603F0B8FBC9
:100F500004EB4401774A42F82100611C01EB410196
:100F600002EB81014868774903F08AFD054604EBEE
:100F70004401704A02EB81014868734903F080FD27
:100F80000646294603F09CFB04EB4401694A02EB48
:100F900081014860611C01EB410102EB810188681D
:100FA000684903F06DFD054604EB4401614A02EB1C
:100FB00081018868644903F063FD0646294603F011
:100FC0007FFB04EB44015B4A02EB81018860611CFA
:100FD00001EB4101594A52F821005A4903F050FDF2
:100FE000054604EB4401554A52F82100564903F0E6
:100FF00047FD0646294603F063FB04EB44014F4AD4
:1010000042F82100611C01EB410102EB81014868BB
:101010004C4903F035FD054604EB4401474A02EB19
:1010200081014868484903F02BFD0646294603F034
:1010300047FB04EB4401414A02EB81014860611C1B
:1010400001EB410102EB810188683E4903F018FD84
:10105000054604EB4401394A02EB810188683A49AC
:1010600003F00EFD0646294603F02AFB04EB44017B
:10107000324A02EB81018860601E44B2002CBFF648
:1010800051AF2C490868314903F0FAFC0446304955
:1010900003F0F6FC2F490861264948682B4903F004
:1010A000EFFC04462A4903F0EBFC2A494861214938
:1010B0008868264903F0E4FC0446254903F0E0FC77
:1010C000244988611D490868234903F0D9FC214956
:1010D000C8611A494868204903F0D2FC1D490862DA
:1010E000164988681C4903F0CBFC1A4948627FBD49
:1010F00001B5A0B01748406A06901648406A0590AE
:10110000069903F0BDFC08901248006A049011484B
:10111000006A0390049903F0B3FC06900D48C0697F
:1011200004900C48C0690390049917E02000002047
:1011300000004843A4030020E3DF7F3FE0030020DA
:1011400029D07F3FAE47613E14AE473FE2007A3D73
:101150004DF38E3C500000206FF51C3B03F090FCDB
:101160000590069903F0ACFA0790089903F0A8FAE5
:10117000099002F0B9FF1E9000211E9803F0D0FBE9
:1011800001D1002004E04FF07E501E9903F006FBD1
:101190001D90FE48C069014609901E9803F070FC3E
:1011A0001090FA48006A014609901E9803F068FC06
:1011B0001190F648406A014609901E9803F060FCC1
:1011C0001290F24840680990F04800680890099928
:1011D00003F056FC1B90ED4880680990EB480068CE
:1011E0000890099903F04CFC1A90E848406809906F
:1011F000E64840680890099903F042FC1990E348DA
:10120000C0680990E14840680890099903F038FCEB
:101210001890DE4880680990DC4880680890099939
:1012200003F02EFC1790D948C0680990D748806811
:101230000890099903F024FC1690D448C0680990DE
:10124000D248C0680890099903F01AFC1590CF485D
:1012500080680990CD4840680890099903F010FC17
:101260001490CA48C0680990C84800680890099955
:1012700003F006FC13904FF08040159903F000FC3A
:1012800008904FF08040179903F0FAFB07900899F7
:1012900003F016FA4FF07E51099003F0EEFCBB49C3
:1012A00048634FF08040139903F0EAFB09904FF038
:1012B0008040149903F0E4FB0890099903F0E8FCDE
:1012C000B24988634FF080401A9903F0D9FB099026
:1012D0004FF08040189903F0D3FB0890099903F070
:1012E000EFF9AA49C8634FF08040139903F0C8FB97
:1012F00009904FF08040149903F0C2FB08900999BF
:1013000003F0DEF9A14908644FF08040159903F01D
:10131000B7FB08904FF08040199903F0B1FB07909C
:10132000089903F0CDF94FF07E51099003F0A5FC28
:101330000146964841644FF080401B9903F0A0FBA2
:1013400009904FF08040169903F09AFB0890099994
:1013500003F09EFC01468D4881644FF080401A994D
:1013600003F08EFB09904FF08040189903F088FB42
:101370000890099903F08CFC854908608349C8648A
:101380004FF080401B9903F07BFB09904FF08040A9
:10139000169903F075FB0890099903F091F901463D
:1013A0007B484160794801654FF08040179903F010
:1013B00067FB08904FF08040199903F061FB07909C
:1013C000089903F07DF94FF07E51099003F055FC28
:1013D00001466F4881606D484165129807906C48DE
:1013E00040680690079903F04BFB099068488068B5
:1013F000079011980690079903F042FB089009990D
:1014000003F046FC0D901298079061480068069022
:10141000079903F035FB09905D48806807901098A4
:101420000690079903F02CFB0890099903F030FC13
:1014300080F000400E901098079055484068069044
:10144000079903F01DFB0990514800680790119817
:101450000690079903F014FB0890099903F018FC13
:1014600080F000400F9000201F9041E049491D98F6
:1014700003F0D2FB04D348491D9803F0CDFA03D200
:1014800000200F900E900D900DA91F9851F820008C
:101490004249069003F0C0FA01D840480EE00DA979
:1014A0001F9851F820003E49069003F0B5FB01D289
:1014B0003B4803E00DA91F9851F820000146079012
:1014C000209803F0DDFA3749089003F0D9FA36493D
:1014D00009901F9851F8200001460890099803F0E0
:1014E000EFF8314A1F9942F821001F98401C1F90C5
:1014F0001F980328BADB2C48006805900D980490CB
:10150000059903F0DDF82949069003F0B9FA079030
:101510001E48006901460690079803F0D1F808902C
:10152000209903F0ADFA4FF08041099003F036F9AD
:101530000A901D48406805900E980490059903F0A4
:10154000BFF81A49069003F09BFA07900F484069CC
:1015500001460690079803F0B3F80890209903F02D
:101560008FFA4FF08041099003F018F90B900E4864
:10157000806805900F980490059903F0A1F80B4935
:10158000069003F07DFA0790004811E0500000201B
:101590008C0300209A99294100001041CDCCCCBD8C
:1015A000CDCCCC3D0AD7233C98030020CDCC4C3E7B
:1015B000806901460690079803F082F80890209908
:1015C00003F05EFA4FF08041099003F0E7F80C90C9
:1015D0000C980790F248C0680690079903F050FAFB
:1015E00009900B980590EE4880680490059903F0E7
:1015F00047FA07900A980490E948406803900499D4
:1016000003F03EFA0590E64800680146049005980C
:1016100003F033FB0690079903F03AFB0890099911
:1016200003F036FBDE4908600B9807900846C06857
:101630000690079903F024FA09900C980590D84871
:1016400080680490059903F01BFA07900A980490AB
:10165000D34800680390049903F012FA0590D0482B
:10166000406801460490059803F02AF8069007990F
:1016700003F026F80890099903F00AFBC84948606E
:101680000A9807900846C0680690079903F0F8F991
:1016900009900C980490C24840680390049903F0A4
:1016A000EFF906900B980490BD48006803900499E8
:1016B00003F0E6F90590069903F0EAFA0790B848B6
:1016C000806801460690079802F0FAFF0890099991
:1016D00002F0F6FFB24988600A98069008468068D2
:1016E0000590069903F0CCF908900B980490AC484B
:1016F00040680390049903F0C3F906900C98049095
:10170000A74800680390049903F0BAF90590069978
:1017100002F0D6FF0790089903F0BAFA0990A048A2
:10172000C06801460890099802F0CAFF9C49C86049
:101730000846C06806900846C0680590069903F000
:101740009FF90890964880680490954880680390B7
:10175000049903F095F906909148406802909048EA
:1017600040680190029903F08BF904908C4800685E
:1017700002908B4800680190029903F081F9039070
:10178000049902F09DFF0590069902F099FF0790D9
:10179000089902F095FF099002F0A6FC1C90804881
:1017A000006809901C9903F06BF97D4908600846B0
:1017B000406809901C9903F063F97949486008462C
:1017C000806809901C9903F05BF9754988600846A8
:1017D000C06809901C9903F053F97149C86021B0A1
:1017E00000BD70B56E4AD16CD06C03F049F9054666
:1017F0004FF07E5103F041FA0446002103F00CF94A
:1018000001D800201CE0664AD16CD06C03F038F996
:1018100005464FF07E5103F030FA04464FF07E51FA
:1018200003F0FAF902D24FF07E5009E05C4AD16C25
:10183000D06C03F025F904464FF07E5103F01DFAF9
:101840005849086058498868584903F0E5F905D3B4
:1018500055498868564903F0DFF827D25148006897
:1018600002F078FC05464E49C86C294602F088FC17
:1018700080F000444F49204603F002F9484988654A
:101880000A46516D106D02F07BFC0446494903F095
:10189000F7F84349C8650A46516B106C02F070FCBA
:1018A0000446444903F0ECF83D49086670BD10B5A4
:1018B0004FF07E523A4B1A6000225A609A60DA600A
:1018C000DA611A625A62002010E000210AE0002367
:1018D00000EB4004324A343202EB840242F82130F9
:1018E0004A1CD1B20329F2DB421CD0B20328ECDB44
:1018F00010BD1FB5002430480078A5283DD100BF99
:1019000036E06846FFF702FA9DF801009DF80010E6
:1019100040EA012000B22949C8809DF803009DF8E3
:10192000021040EA0120404200B2244908819DF89B
:1019300005009DF8041040EA0120404200B21F4912
:1019400048810846B0F90A30B0F90820B0F906100D
:101950001BA002F049FD1D48006808B9012000E005
:1019600000201A490860142002F060FB601CC4B219
:10197000322CC6DB0020104908701FBD10B50020B6
:1019800012490860FFF793FFFFF7CCF901201049D7
:10199000C1F880014FF47A7002F048FB10BD0000DE
:1019A00050000020B40000208C030020CDCC4C3D22
:1019B000CDCC4CBD333365421A00002020000020FE
:1019C00025642025642025640A00000080812142CE
:1019D000008021420020F9490880704770B500243A
:1019E00014E0F74931F91410A1F57A7002F0E8FF1C
:1019F0000646F44903F044F8054602F0C5FF01B27B
:101A0000EF48323020F81410601CC4B2082CE8DB18
:101A10000020EB4981F85200FFF7DCFF70BD38B5BC
:101A20000546E9A000680090E8484068E74908607A
:101A300002F0D3FAE5494860084640680968401A50
:101A400040F6C411884202D90020E1490870E048FC
:101A500001780078401CDE4A1070DE48455410467C
:101A6000007819287ED1182011460870D9480078CE
:101A70000F2878D1D748007E38B1D648007ED64AA4
:101A800012781DF802108842F3D10020D049087066
:101A9000D0484078CF49897801F0070140EA012019
:101AA000C7490880CB48C0788006400DC94989786D
:101AB00040EAE100C2494880C6484079C007400D6D
:101AC000C449097940EA8100C249C97840EAA110B5
:101AD000BB498880BF4880790007400DBD494979DE
:101AE00040EA6100B649C880BA48C0794006400D56
:101AF000B849897940EA2110B1490881B548407A4E
:101B00008007400DB349097A40EA4100B149C979DB
:101B100040EAE110AA494881AE48807AC006400DEB
:101B2000AC49497A40EAA100A5498881A948C07A10
:101B3000C000A849897A40EA6110A149C881A54836
:101B4000007BA449497B01F0070140EA01209C4940
:101B50000882A048807B8006400D9E49497B40EA70
:101B6000E10001E06AE05FE0954948829948007C25
:101B7000C007400D9749C97B40EA81009549897BA0
:101B800040EAA1108E4988829248407C0007400DAF
:101B90009049097C40EA61008949C8828D48807C6F
:101BA0004006400D8B49497C40EA21108449088356
:101BB0008848007D8007400D8649C97C40EA410085
:101BC0008449897C40EAE1107D4948838148407D11
:101BD000C006400D7F49097D40EAA100784988830D
:101BE0007C48807DC0007B49497D40EA6110744992
:101BF000C8837848C07D81F8300077480078401C61
:101C0000754908700878C11700EB91718910A0EB35
:101C10008101714A11706A4890F8300000F00800A4
:101C200060B9FFF7DBFE09E0002405E06949601CAC
:101C3000085C0855601CC4B2182CF7DB38BD5F493E
:101C40000988B1F5FA7F05DA5C49098801445B4AE5
:101C5000118003E001215A4A82F85210704730B5D2
:101C600089B005460C460121C80200F0A1FE012101
:101C7000042000F09DFE28208DF8070003208DF839
:101C800006004FF48070ADF8040001A9534800F03D
:101C9000D3FBA8B2ADF80C00ADF808400020ADF8B9
:101CA0000A00ADF80E0002A94D4801F03FF90020EE
:101CB000ADF81400ADF81C00ADF81600ADF81A0030
:101CC0000120ADF8180005A9454801F0C2FB01222A
:101CD0000221434801F0A1FC1B208DF820000120C7
:101CE0008DF8230002208DF8210000208DF82200BD
:101CF00008A800F0D8FA0121394801F073FC09B0B6
:101D000030BD0021374A22F81010704700B5034655
:101D100041F28830834203D90020334908701AE029
:101D2000B3F5487F17D940F69800834213D22E4866
:101D30000078082800DD00BD214820302A4A1278AA
:101D400020F8123028480078FFF7DBFF264800789B
:101D5000401C2549087000BFEDE770B5204801F030
:101D6000EBFE044621480068A04206D94FF6FF70FA
:101D700020441E490968451A02E01C480068251ADB
:101D80001A4804602846FFF7C1FF0221144801F0F9
:101D900003FF70BD014600203CE0124A32F81020DB
:101DA000B2F5FA7F24DD064A92F8532001238340DE
:101DB0001A43034B83F853202AE00000B8000020A8
:101DC0001C0400202FDD243F04142434BC00002018
:101DD000C400002080040020C5000020000801404D
:101DE000002C014070040020CC000020C80000201E
:101DF0002A4A32F810200A44284B23F81020284A97
:101E000092F85320012383409A43254B83F85320B3
:101E1000421CD0B20828C0DB704700203BE02049BC
:101E200091F8531001228240114071B1022806D16D
:101E30004FF60C621A49323121F8102029E00022B5
:101E40001749323121F8102023E01549203131F8AB
:101E50001010A1F2DC510AB21149323121F81020E0
:101E600031F9101011F5FA7F01DC0E490DE00C4933
:101E7000323131F91010B1F5FA7F02DD4FF4FA7109
:101E800003E00749323131F91010054A323222F8A5
:101E90001010411CC8B20828C1DB70477004002034
:101EA0001C0400200CFEFFFF10B5FEF799FF2A4826
:101EB000FFF71EF9FFF795FC10BD7047704710B58E
:101EC00000F052F81420FFF765FFFFF7A6FF00F0BF
:101ED000F6F810BD10B5002409E002F0F3F804EBA9
:101EE00044011E4A02EB81014860601CC4B2042C0C
:101EF000F3DB10BD2FE0002423E002F0E3F81849E3
:101F0000086004EB4400154901EB80004068144967
:101F10000968081A04EB4401104A02EB8101097AAE
:101F200088420CD304EB440152F8210080470C484E
:101F3000006804EB4401094A02EB81014860601C1F
:101F4000C4B2042CD9DB0748006808B9012000E0BE
:101F5000002004490860CEE76F12833AD0000020C9
:101F6000000100208081214210B58CB030221DA1DB
:101F7000684602F0B5FA6C462648806D2060254818
:101F8000C06D60602348006EA06022480069E06078
:101F90002048406920611F48806960611E49B1F98D
:101FA000320002F00DFDA0611B49B1F9340002F0CE
:101FB00007FDE0611849B1F9360002F001FD206229
:101FC0001549B1F9380002F0FBFC60621249B1F921
:101FD0003A0002F0F5FCA06230216846FEF78BFC67
:101FE0000CB010BD00000000000000000000000068
:101FF00000000000000000000000000000000000E1
:1020000000000000000000000000000000000000D0
:102010000000807F500000201C0400202DE9F041CA
:102020004349C87D02F0E4FC07464249B1F9320059
:1020300002F0C6FC8046404902F0B0FB0646394635
:1020400002F01EFD04463A49087E02F0D1FC074624
:102050003849B1F9340002F0B3FC8046364902F049
:102060009DFB0646394602F00BFD05463348437892
:102070002A462146324800F075F83249886802F055
:1020800083FC06B23049886802F07EFC07B229481A
:10209000B0F93830B0F9362031463846FEF73BFA11
:1020A000BDE8F08110B5234CB4F93830B4F93620CE
:1020B000B4F93410B4F93200FEF72DFA10BD10B5A2
:1020C0001C48B0F93A00B0F5967F03DD00201B49AB
:1020D000087002E0012019490870164890F8530072
:1020E000012802DD0020154908701248B0F93600B9
:1020F00010F5C87F03DD01201049487002E0002080
:102100000E4948700D48007830B1012809D00228E6
:102110000AD003280AD108E000F018F8FFF7C2FF40
:1021200004E0FFF77BFF01E000E000BF00BF10BD4F
:10213000080100201C0400200000FA4304010020D4
:102140000AD7A33CCC040020BC0400200020364960
:10215000086048608860C8603449086048608860EA
:10216000C86070472DE9FE4F06460F4615461C46CF
:102170002F49488B02F03CFC83462E4902F080FC3C
:1021800080462D4902F07CFC81462949888B02F06B
:102190002FFC8346274902F073FC8046264902F053
:1021A0006FFC824625482049CDE90104009124486E
:1021B000244B3946C26D304602F08EF81F481B4949
:1021C000CDE9010400911E481F4B2946826D30461F
:1021D00002F082F8144988681C4902F01DFC01D8FD
:1021E0001A4809E010498868194902F015FD01D222
:1021F000174801E00C488068164988600B498868D8
:10220000124902F009FC01D8104809E00749886822
:102210000F4902F001FD01D20D4801E0034880683A
:102220000D498860BDE8FE8FBC040020CC0400206E
:1022300008010020E2007A3D4DF38E3C0000484347
:102240005000002050010020600100200000FAC36F
:102250000000FA439C040020AC0400200948804799
:1022600009480047FEE7FEE7FEE7FEE7FEE7FEE778
:10227000FEE7FEE7FEE7FEE704480549054A064B90
:102280007047000013030008ED000008400500201F
:10229000400B002040070020400700203149014347
:1022A000314A1160704770B5002100230F22C478B5
:1022B00004B32D4C246804F4E064C4F5E064210AFE
:1022C000C1F10403CA40447804FA03F1847814404D
:1022D00021430901254C0678A155047804F01F0517
:1022E0000124AC4005786D11AD0005F1E025C5F87D
:1022F000004109E0047804F01F050124AC401C4DA6
:102300000678761145F8264070BD1A4A0A40024305
:10231000154B1B1F1A60704739B1134A121D126802
:102320000243114B1B1D1A6006E00F4A121D126872
:1023300082430D4B1B1D1A607047042808D14FF0D3
:10234000E021096941F004014FF0E022116107E04A
:102350004FF0E021096921F004014FF0E022116102
:10236000704700000000FA050CED00E000E400E01A
:1023700080E100E080FFFF1F10B50446CC48844296
:1023800008D10121042000F02DFB0021042000F0E1
:1023900029FB46E0C748844208D10121082000F00B
:1023A00021FB0021082000F01DFB3AE0C2488442D6
:1023B00008D10121102000F015FB0021102000F0B1
:1023C00011FB2EE0BD48844208D10121202000F0FD
:1023D00009FB0021202000F005FB22E0B8488442E0
:1023E00008D10121402000F0FDFA0021402000F03A
:1023F000F9FA16E0B348844208D10121802000F0A8
:10240000F1FA0021802000F0EDFA0AE0AE488442A3
:1024100007D10121801500F0E5FA0021A01500F098
:10242000E1FA10BD10B50121084600F0DBFA0021E9
:10243000012000F0D7FA10BD2DE9F0410246002539
:102440000026002000230024002791F803C00CF090
:102450000F0591F803C00CF0100CBCF1000F03D075
:1024600091F802C04CEA050591F800C0BCF1000FDC
:1024700031D0146800202BE04FF0010C0CFA00F36F
:10248000B1F800C00CEA03069E4220D183004FF051
:102490000F0C0CFA03F7BC4305FA03FC4CEA0404E6
:1024A00091F803C0BCF1280F06D14FF0010C0CFAD3
:1024B00000FCC2F814C00AE091F803C0BCF1480F58
:1024C00005D14FF0010C0CFA00FCC2F810C0401C02
:1024D0000828D1D31460B1F800C0BCF1FF0F34DD7F
:1024E000546800202EE000F1080C4FF0010808FAB3
:1024F0000CF3B1F800C00CEA03069E4221D1830020
:102500004FF00F0C0CFA03F7BC4305FA03FC4CEA3E
:10251000040491F803C0BCF1280F05D100F1080CA8
:1025200008FA0CF8C2F8148091F803C0BCF1480F07
:1025300007D100F1080C4FF0010808FA0CF8C2F8B6
:102540001080401C0828CED35460BDE8F0814FF6BF
:10255000FF710180022181700421C1707047024621
:10256000002093680B400BB1012000E00020704771
:102570000146886880B2704702460020D3680B404D
:102580000BB1012000E0002070470146C86880B20E
:10259000704701617047416170470AB1016100E015
:1025A00041617047C16070474FF480320A438261D5
:1025B0008161826182698269704702460020434BD3
:1025C00018684FF68073184040EA021008433F4BEA
:1025D000186070473E49C8617047F0B50A4600234D
:1025E00000240021002500F00046B6F1004F02D182
:1025F000364EF16901E0354E7168C0F3034583B290
:1026000000F44016B6F5401F08D121F070612F4E3E
:10261000766826F070662D4F7E6012E000F480161A
:10262000B6F5801F06D1032606FA05F4A14341F052
:10263000706106E0460D360103FA06F6B14341F03B
:10264000706122B1460D360103FA06F6314300F0FF
:102650000046B6F1004F02D11C4EF16101E01B4E65
:102660007160F0BD30B500228B071C0F0F2303FAF9
:1026700004F2164B08338C1053F824309343134C58
:1026800008348D1044F8253023468C1053F824303C
:102690008C07240F00FA04F423430C4C08348D10EB
:1026A00044F8253030BD0A49DC310860704700002D
:1026B00000080140000C01400010014000140140DE
:1026C00000180140001C01400020014000000140B2
:1026D00000002042DF48006840F00100DD4908604A
:1026E00008464068DC490840DA4948600846006806
:1026F000DA490840D74908600846006820F480207D
:1027000008600846406820F4FE0048604FF41F004F
:1027100088607047CF49096821F48031CD4A116043
:102720001146096821F480211160B0F5803F03D083
:10273000B0F5802F0ED106E0C649096841F480311A
:10274000C44A116007E0C349096841F4A021C14AA5
:10275000116000E000BF00BF704710B501460022C5
:10276000002300204A11012A02D1BA4C236806E056
:10277000022A02D1B74C236A01E0B64C636A01F029
:102780001F02012494401C400CB1012000E00020F5
:1027900010BD38B5002000900024002500BF312076
:1027A000FFF7DBFF05460098401C00900098B0F54D
:1027B000A06F01D0002DF2D03120FFF7CEFF08B17D
:1027C000012400E00024204638BD01460020A14A33
:1027D000106820F0F80040EAC10010607047A0497E
:1027E00008607047024600209A4B586820F47C101D
:1027F00042EA01031843974B5860704798490866AE
:10280000704701460020934A506820F003000843B7
:10281000506070478F48406800F00C0070470146D8
:1028200000208C4A506820F0F00008435060704748
:1028300001460020874A506820F4E0600843506059
:10284000704701460020834A506820F4605040EAF7
:10285000C1005060704729B17E4A527A02437D4BD5
:102860005A7204E07B4A527A82437A4B5A7270471A
:102870007B49D8310860704701460020754A50688E
:1028800020F440400843506070470021714A2032D4
:102890001170704A82F82010012802D004280AD151
:1028A00004E001216B4A2032117005E00521694ADC
:1028B0002032117000E000BF00BF70476949086016
:1028C00070476449096A0143624A11627047654969
:1028D00044390860704730B50021002200240023ED
:1028E0005C4D6D6805F00C0121B1042905D0082963
:1028F00023D105E05C4D056022E05B4D05601FE0E3
:10290000544D6D6805F47012524D6D6805F48034B5
:10291000022505EB92421CB9544D554305600BE06E
:102920004C4D6D6805F400351DB1504D55430560A3
:1029300002E04D4D5543056002E04B4D056000BF80
:1029400000BF444D6D6805F0F0010909484D6B5C0E
:102950000568DD4045603F4D6D6805F4E061090A9A
:10296000434D6B5C4568DD4085603A4D6D6805F40C
:102970006051C90A3E4D6B5C4568DD40C560354D10
:102980006D6805F44041890B3A4D6B5CC568B5FB39
:10299000F3F5056130BD29B12E4A526902432D4B32
:1029A0005A6104E02B4A526982432A4B5A617047AC
:1029B00029B1284A92690243264B9A6104E0254ACC
:1029C00092698243234B9A61704729B1214AD269A7
:1029D0000243204BDA6104E01E4AD26982431D4B58
:1029E000DA61704729B11B4AD2680243194BDA6099
:1029F00004E0184AD2688243164BDA60704729B166
:102A0000144A12690243134B1A6104E0114A126915
:102A10008243104B1A617047124940390860704771
:102A20000F49C86470470B49C87170470948406A2C
:102A300040F0807007494862704701460020054A0F
:102A400092680A400AB1012000E000207047014965
:102A500088727047001002400000FFF8FFFFF6FE8A
:102A6000000042428004424200127A0000093D0008
:102A7000700100208001002010B50446BE48844249
:102A800008D101218014FFF7ADFF0021A014FFF74A
:102A9000A9FF16E0B948844208D101210014FFF7CC
:102AA000AEFF00212014FFF7AAFF0AE0B4488442D9
:102AB00007D10121C013FFF7A2FF0021E013FFF7A8
:102AC0009EFF10BD10B50022028802F441520B880F
:102AD0004C8823438C882343CC8823430C8923438D
:102AE0004C8923438C892343CC8923431A43028096
:102AF000838B4FF2FF74234083830B8A038210BDC4
:102B00002DE9F04F85B005460C464FF0000902272D
:102B10004FF000084FF0010B0026B246A88B4FF291
:102B200040010840A88302202884B5F81C90A068C2
:102B3000022801D100BF38E0A08810B94FF0010B86
:102B400001E04FF0020B8D48854200D100E000BF4C
:102B50006846FFF7C0FEDDF800A0E088B0F5007F12
:102B60000AD14FEA1A2000EB80004000A168B0FBB8
:102B7000F1F0401D86B20BE04FEA4B10BAFBF0F0CB
:102B800000EB80004000A168B0FBF1F0401D86B270
:102B90000A20B6FBF0F606F00108A6EB0800C0F329
:102BA0004F074FF6FF7000EA0828022F01DBFF2FC6
:102BB00002DD02274FF00008E08840EA08003843B1
:102BC0002884A088A1890843618808432188084394
:102BD00040F4006040EA0909A5F81C9005B0BDE882
:102BE000F08F0021018041808180C180018141817D
:102BF0008181C181072101827047002101804180CC
:102C00008180C1800221816000218181704721B1D2
:102C1000028842F04002028004E002884FF6BF734F
:102C20001A400280704721B1828B42F48062828315
:102C300004E0828B4FF6FF331A408283704730B531
:102C4000002400230C110125A540ABB21AB18588E0
:102C50001D43858002E085889D43858030BD1AB183
:102C600083880B43838002E083888B438380704793
:102C7000818170470146888970474FF6FF62914213
:102C800004D0028842F48072028004E002884FF689
:102C9000FF631A400280704721B1828842F004022B
:102CA000828004E082884FF6FB731A40828070476E
:102CB00002884FF2FF731A40028002880A430280A2
:102CC0007047018841F480510180704721B102882A
:102CD00042F40052028004E002884DF6FF731A406D
:102CE0000280704702460020012901D0108B00E0CD
:102CF000908A70470146088A7047B1F5804F04D129
:102D0000028842F48042028004E002884BF6FF739E
:102D10001A40028070470246002013890B400BB115
:102D2000012000E000207047CA4302817047F0B5DF
:102D30000246002000240023002501F00F07012691
:102D4000BE40B4B20B1101269E40B3B2968806EA8B
:102D500003051689264016B10DB1012000E00020C0
:102D6000F0BD10B5002201F00F040123A3409AB278
:102D7000D343038110BD0000003001400038004003
:102D8000003C004010B50446FE48844208D10121B1
:102D9000C014FFF727FE0021E014FFF723FEC4E074
:102DA000B4F1804F08D101210846FFF728FE002129
:102DB0000120FFF724FEB8E0F348844208D1012146
:102DC0000220FFF71CFE00210220FFF718FEACE0F6
:102DD000EE48844208D101210420FFF710FE0021B3
:102DE0000420FFF70CFEA0E0E948844208D101214D
:102DF0000820FFF704FE00210820FFF700FE94E002
:102E0000E448844208D101211020FFF7F8FD002199
:102E10001020FFF7F4FD88E0DF48844208D101214B
:102E20002020FFF7ECFD00212020FFF7E8FD7CE0EB
:102E3000DA48844208D101214014FFF7D3FD002174
:102E40006014FFF7CFFD70E0D548844209D101211D
:102E5000C804FFF7C7FD00214FF40020FFF7C2FDB3
:102E600063E0D048844209D101210805FFF7BAFD8B
:102E700000214FF48010FFF7B5FD56E0CA488442A8
:102E800009D101214805FFF7ADFD00214FF40010E5
:102E9000FFF7A8FD49E0C548844208D10121402040
:102EA000FFF7ADFD00214020FFF7A9FD3DE0C04840
:102EB000844208D101218020FFF7A1FD002180205C
:102EC000FFF79DFD31E0BB48844208D10121801508
:102ED000FFF795FD0021A015FFF791FD25E0B6480D
:102EE000844209D101210804FFF77CFD00214FF441
:102EF0008030FFF777FD18E0B048844209D1012106
:102F00004804FFF76FFD00214FF40030FFF76AFD22
:102F10000BE0AB48844208D101218804FFF762FD31
:102F200000214FF48020FFF75DFD10BD00220288D4
:102F3000944B98420ED0994B98420BD0B0F1804FF1
:102F400008D0914B984205D0904B984202D0904BBC
:102F5000984204D14FF68F731A404B881A438D4B19
:102F6000984207D08C4B984204D04FF6FF431A404A
:102F7000CB881A4302808B8883850B880385814B1D
:102F800098420BD0854B984208D08B4B984205D085
:102F90008A4B984202D08A4B984201D10B7A038621
:102FA00001238382704770B5002400220023058C22
:102FB0004FF6FE7635400584028C8388048B4FF6ED
:102FC0008F752C40B51E2C400D882C43751E2A4051
:102FD0000D892A434D882A436A4DA8420BD06F4D74
:102FE000A84208D0744DA84205D0744DA84202D022
:102FF000734DA84213D14FF6F7752A404D892A43E5
:103000004FF6FB752A408D882A434FF6FF652B400B
:103010004FF6FF552B408D892B43CD892B43838061
:103020000483CD888586028470BD70B5002400229B
:103030000023058C4FF6EF7635400584028C83889B
:10304000048B48F6FF752C404FF6FF452C400D8849
:103050004FF6FF7606EA05252C434FF6DF752A402A
:103060000D8906EA05152A434D8806EA05152A4307
:10307000444DA84202D0494DA8421DD14FF67F755C
:103080002A404D894FF6FF7606EA05152A434FF68A
:10309000BF752A408D8806EA05152A434FF6FF358D
:1030A0002B404FF2FF752B408D8906EA85052B4397
:1030B000CD8906EA85052B4383800483CD88058767
:1030C000028470BD70B5002400220023058C4FF6E9
:1030D000FF6635400584028C8388848B4FF68F759C
:1030E0002C404FF6FC752C400D882C434FF6FF55B5
:1030F0002A400D894FF6FF7606EA05252A434D88BA
:1031000006EA05252A431F4DA84202D0234DA842B6
:103110001DD14FF2FF752A404D894FF6FF7606EA22
:1031200005252A434FF6FF352A408D8806EA0525F6
:103130002A434EF6FF752B404DF6FF752B408D89C7
:1031400006EA05152B43CD8906EA05152B43838036
:103150008483CD888587028470BD70B500220023EA
:103160000024058C4EF6FF7635400584038C848858
:10317000828B48F6FF752A404FF6FF452A400D889E
:1031800020E00000002C0140000400400008004046
:10319000000C0040001000400014004000340140CA
:1031A000004C014000500140005401400018004014
:1031B000001C00400020004000400140004401404D
:1031C000004801404FF6FF7606EA05252A434DF6F2
:1031D000FF752B400D8906EA05352B434D8806EA1D
:1031E00005352B43FA4DA84202D0FA4DA84208D12A
:1031F0004BF6FF752C408D894FF6FF7606EA851554
:103200002C4384808283CD88A0F84050038470BD15
:10321000828B4FF2FF331A408283828B4FF6FF730B
:1032200003EA01231A4382837047F0B50C46154622
:10323000002200210026078C4EF6FF7C07EA0C07CF
:103240000784828B018C4FF6FF7707EA043640F63D
:10325000FF473A404FF6FF7707EA05273A434FF614
:10326000FF7707EA03373A43D94FB8420ED0D94F18
:10327000B8420BD0B0F1804F08D0D74FB84205D03C
:10328000D64FB84202D0D64FB84206D14DF6FF779E
:10329000394046F48057394305E047F6FF57394037
:1032A00044F48057394382830184F0BD828B4FF60A
:1032B000F3731A408283828B0A4382837047F0B58E
:1032C0000C461546002200210026078C4FF6FF6CA5
:1032D00007EA0C070784828B018C4FF6FF7707EA19
:1032E00004264FF60C773A404FF6FF7707EA0317AC
:1032F0002F433A43B64FB8420ED0B64FB8420BD028
:10330000B0F1804F08D0B44FB84205D0B34FB842A7
:1033100002D0B34FB84206D14FF6FF57394046F4BA
:103320008077394305E04FF2FF57394044F4807706
:10333000394382830184F0BD028B4FF2FF331A4080
:103340000283028B4FF6FF7303EA01231A430283C1
:103350007047F0B50C461546002200210026078C68
:103360004FF6EF7C07EA0C070784028B018C4FF6BF
:10337000FF7707EA041640F6FF473A404FF6FF771B
:1033800007EA03373A434FF6FF7707EA05273A4340
:103390008F4FB8420ED08F4FB8420BD0B0F1804F54
:1033A00008D08D4FB84205D08C4FB84202D08C4F18
:1033B000B84206D14FF6DF77394046F0100739435F
:1033C00005E04FF65F77394044F010073943028338
:1033D0000184F0BD028B4FF6F3731A400283028B17
:1033E0000A4302837047F0B50C46154600220021BF
:1033F000068C4FF6FE773E400684028B018C4FF61A
:103400000C7632407E1C06EA03162E433243704E81
:10341000B0420ED06F4EB0420BD0B0F1804F08D00A
:103420006D4EB04205D06D4EB04202D06C4EB042EF
:1034300006D14FF6FD76314044F00106314305E0F8
:103440004FF6F576314044F00106314302830184A2
:10345000F0BD70B505460C465D4885420ED05D480E
:1034600085420BD0B5F1804F08D05B48854205D02E
:103470005A48854202D05A48854200D100E000BF38
:10348000208850B92389A28861882846FFF7ABFFBE
:10349000E1882846FFF79EFF25E0208804280AD10E
:1034A0002389A28861882846FFF753FFE1882846D0
:1034B000FFF742FF17E0208808280AD12389A28855
:1034C00061882846FFF7FBFEE1882846FFF7EEFEFD
:1034D00009E02389A28861882846FFF7A6FEE188D3
:1034E0002846FFF795FE70BD2DE9F04105460C46D4
:1034F00000260127608808B9022600E00026A0887F
:10350000012801D1022700E001272088A0B92389E2
:10351000A28861882846FFF766FFE1882846FFF702
:1035200059FF23893A4631462846FFF712FFE188C2
:103530002846FFF701FF13E02389A2886188284607
:10354000FFF707FFE1882846FFF7F6FE23893A4692
:1035500031462846FFF747FFE1882846FFF73AFF44
:10356000BDE8F0810A884B881A438B881A43CB88C0
:103570001A430B891A434B891A438B891A43A0F8C3
:10358000442070474FF6FF71818000210180C18087
:103590004180017270470021018041808180C1809B
:1035A000018141818181C181704700210180418079
:1035B000012181800021C1800181704700210180AB
:1035C00041808180C18001814181818170470000FB
:1035D000002C01400034014000040040000800407D
:1035E000000C004021B1028842F00102028004E098
:1035F00002884FF6FE731A400280704731B1B0F86E
:10360000442042F40042A0F8442005E0B0F84420F1
:10361000C2F30E02A0F8442070471AB183890B430D
:10362000838102E083898B43838170478182704765
:1036300041EA0203A0F8483070471AB183890B436E
:10364000838102E083898B438381704701894FF630
:10365000F8721140018170470A46002101894FF636
:103660008F73194011430181704730B504460D46F0
:1036700029462046FFF7F0FF208940F0070020810F
:1036800030BD2DE9F04104460D4616461F46602D1B
:1036900006D13B46012231462046FFF75AFE05E09F
:1036A0003B46012231462046FFF79DFE2946204633
:1036B000FFF7D2FF208940F007002081BDE8F081AC
:1036C00030B50C4600210189C9B24FF6FF7505EAF5
:1036D0000325154325432943018130BD2DE9F041E0
:1036E00005460E4617469846002443463A4631465C
:1036F0002846FFF7E5FF2C894FF6F870044044F0A8
:1037000007044FF68F70044044F070042C81BDE82C
:10371000F081F0B504460D4616461F463B4632463C
:1037200029462046FFF7CCFF208940F480402081C5
:10373000F0BD0185828270470A46002101884FF65C
:103740008F731940114301807047F0B50C46154640
:103750001E460021002200230189028B038C4FF6B4
:10376000F877394021434FF6FC473A4040F20117C1
:103770003A434FF6DD773B404FF6FF7707EA0617EF
:103780002F433B43018102830384F0BD0A4600219D
:10379000018B4FF68F7319401143018370470A461E
:1037A0000021018B48F6FF7319404FF6FF7303EABF
:1037B00002231943018370470A460021818B4FF68B
:1037C0008F7319401143818370470A460021818B12
:1037D00048F6FF7319404FF6FF7303EA02231943BB
:1037E0008183704721B1028842F08002028004E0A8
:1037F00002884FF67F731A400280704721B1828899
:1038000042F00402828004E082884FF6FB731A4083
:103810008280704721B1828842F00802828004E0F1
:1038200082884FF6F7731A408280704721B18288F0
:1038300042F00102828004E082884FF6FE731A4053
:10384000828070470A460021018B4FF6F7731940BA
:103850001143018370470A460021018B4FF2FF7329
:1038600019404FF6FF7303EA02231943018370479F
:103870000A460021818B4FF6F7731940114381836B
:1038800070470A460021818B4FF2FF7319404FF6B3
:10389000FF7303EA02231943818370470A4600211C
:1038A000018B4FF6FB7319401143018370470A46A1
:1038B0000021018B4FF6FF3319404FF6FF7303EAE7
:1038C00002231943018370470A460021818B4FF67A
:1038D000FB7319401143818370470A460021818B95
:1038E0004FF6FF3319404FF6FF7303EA02231943E3
:1038F000818370470A460021018B4FF67F73194080
:103900001143018370470A460021018BC1F30E0168
:103910004FF6FF7303EA02231943018370470A46F7
:103920000021818B4FF67F731940114381837047CB
:103930000A460021818BC1F30E014FF6FF7303EAA3
:1039400002231943818370470A460021018C4FF6F8
:10395000FD7319401143018470470A460021018C10
:103960004FF6F77319401143018470470A4600214E
:10397000018C4FF6DF7319404FF6FF7303EA021311
:103980001943018470470A460021018C4FF67F736A
:1039900019404FF6FF7303EA02131943018470477D
:1039A0000A460021018C4FF6FF5319404FF6FF7372
:1039B00003EA02231943018470470A460021018C5F
:1039C0004FF2FF7319404FF6FF7303EA02231943C6
:1039D000018470470A460021018C4DF6FF7319409F
:1039E0004FF6FF7303EA023319430184704730B581
:1039F000002301248C40A3B2048C9C430484048CD7
:103A000002FA01F5ADB22C43048430BD30B5002379
:103A100004248C40A3B2048C9C430484048C02FADA
:103A200001F5ADB22C43048430BD70B503460020CF
:103A300000241846183001258D40ACB21D8CA543DA
:103A40001D8409B1082909D100EB6100056825F042
:103A5000700505600568154305600EE00D1FC5F390
:103A60004E052844056825F4E045056005684FF6D5
:103A7000FF7606EA02263543056070BD21B1028853
:103A800042F00202028004E002884FF6FD731A4001
:103A90000280704721B1028842F00402028004E0F3
:103AA00002884FF6FB731A400280704721B182886A
:103AB00042F08002828004E082884FF67F731A40D1
:103AC0008280704702884FF6F7731A40028002889E
:103AD0000A430280704782884FF68F731A408280B3
:103AE00082880A438280704702894FF6F8731A4031
:103AF000028102890A430281704702894FF67F736F
:103B00001A40028102890A4302817047818470470A
:103B1000818570478186704701877047818770472C
:103B2000A0F84010704702884FF6FF431A40028009
:103B300002880A43028070470146888E704701461A
:103B4000088F70470146888F70470146B1F84000E2
:103B500070470146888C70470146088D70470246C1
:103B60000020138A0B400BB1012000E000207047B9
:103B7000CA430282704730B5024600200023002469
:103B8000158A05EA0103958905EA010413B10CB110
:103B9000012000E0002030BDCA43028270470000CF
:103BA00010B50446FB48844209D101218803FEF781
:103BB00019FF00214FF48040FEF714FF32E0F64871
:103BC000844209D101214804FEF719FF00214FF476
:103BD0000030FEF714FF25E0F048844209D10121AE
:103BE0008804FEF70CFF00214FF48020FEF707FF4A
:103BF00018E0EB48844209D10121C804FEF7FFFE1A
:103C000000214FF40020FEF7FAFE0BE0E548844265
:103C100008D101210805FEF7F2FE00214FF48010C3
:103C2000FEF7EDFE10BD2DE9F04786B005460E46C5
:103C30000024A24600BFA1460027B08900B100BF02
:103C40002F462C8A4CF6FF700440F08804432C82E7
:103C5000AC894EF6F3100440B0883189084371896D
:103C600008430443AC81AC8A4FF6FF400440B0895E
:103C70000443AC8201A8FEF72EFEC648874202D15B
:103C8000DDF810A001E0DDF80CA0A88900F40040E8
:103C900040B10AEBCA0000EB0A1031684900B0FBE2
:103CA000F1F807E00AEBCA0000EB0A10316889005E
:103CB000B0FBF1F86420B8FBF0F0040120096421A6
:103CC00001FB1089A88900F4004040B1322000EBCC
:103CD000C900B0FBF1F000F00700044308E0322017
:103CE00000EB09106421B0FBF1F000F00F00044379
:103CF0002C8106B0BDE8F0874FF416510160002119
:103D00008180C18001810C21418100218181704726
:103D100010B502460020108A4FF2FF0318400B88AE
:103D20004C8823438C882343CC8823431843108238
:103D300010BD0021018041808180C180704721B188
:103D4000828942F40052828104E082894DF6FF7339
:103D50001A4082817047F0B50346002400260025F2
:103D6000002040F66A17B94200D100BF1846C1F3DF
:103D7000421401F01F06012707FA06F5012C01D1B4
:103D80000C3004E0022C01D1103000E014301AB1E4
:103D900007682F43076002E00768AF430760F0BD84
:103DA0001AB1838A0B43838202E0838A8B43838226
:103DB0007047028A4FF6F0731A400282028A0A4361
:103DC0000282704782894FF2FF731A408281828992
:103DD0000A438281704721B1828942F002028281C6
:103DE00004E082894FF6FD731A4082817047028A8F
:103DF0004FF6DF731A400282028A0A43028270473A
:103E000021B1028A42F48042028204E0028A4BF627
:103E1000FF731A4002827047C1F308028280704724
:103E200001468888C0F308007047818941F001018C
:103E300081817047028BD2B20283028B42EA012257
:103E400002837047028B02F47F420283028B0A4393
:103E50000283704721B1828A42F02002828204E00C
:103E6000828A4FF6DF731A408282704721B1828ABC
:103E700042F01002828204E0828A4FF6EF731A4009
:103E80008282704721B1828A42F00802828204E075
:103E9000828A4FF6F7731A408282704721B1828975
:103EA00042F40042828103E08289C2F30E028281E1
:103EB000704721B1828A42F40062828204E0828AE1
:103EC0004FF2FF731A4082827047828A4FF6FB736B
:103ED0001A408282828A0A438282704721B1828A92
:103EE00042F00202828204E0828A4FF6FD731A4099
:103EF0008282704702460020B1F5007F00D100BFEA
:103F000013880B400BB1012000E00020704701F442
:103F10000072B2F5007F00D100BFCA430280704733
:103F200070B50246002400230025002040F66A16E2
:103F3000B14200D100BFC1F3421501F01F030126B9
:103F400006FA03F3012D02D19689334006E0022DD3
:103F500002D1168A334001E0968A33400C120126C2
:103F600006FA04F41688344013B10CB1012000E0C5
:103F7000002070BD10B50022002340F66A14A14253
:103F800000D100BF0A1201249440A3B2DC43048094
:103F900010BD0000003801400044004000480040CF
:103FA000004C00400050004010B56FF00400FEF7D8
:103FB000C4F9464800684649B0FBF1F0454908702D
:103FC0000846007800EB4001C1EBC0104FF6FF71CE
:103FD00001EAC0004049088010BD00BF3F4A116897
:103FE0004FF0E02252694FF0E0239B69D21A4FF460
:103FF0007A735A434FF0E0235B69B2FBF3F201EBB3
:104000004103C3EBC11302EBC300344A126891426F
:10401000E4D1704730B50446FFF7DFFF054600BF27
:10402000FFF7DBFF401BA042FAD330BD2B4A1168DB
:1040300000BF2A4A1268521A8242FAD3704770B5FA
:10404000224800682249B0FBF1F022490870084676
:10405000007800EB4001C1EBC0104FF6FF7101EAA0
:10406000C0001D49088008460188B1F1807F00D357
:104070001DE021F07F40401E4FF0E02250615017BC
:104080000F22002807DA13071D0E154B00F00F044E
:10409000241F1D5503E013071C0E124B1C5400BFB8
:1040A00000204FF0E02290610720106100BF6FF008
:1040B0000400FEF742F970BD08480068401C07493B
:1040C0000860704705480068704700000000002045
:1040D00000127A008401002086010020880100205F
:1040E00018ED00E000E400E02DE9F04704464FF051
:1040F0007C51204600F0C4FC814625462E46B3483C
:10410000A0EB660635462946484600F0B9FC8246D3
:10411000294600F0B5FC80464FF07F5100F0ADFD20
:104120000746294600F0ACFC05462946484600F003
:10413000A7FC8246294600F0A3FC80464FF07F5141
:1041400000F09BFD0746294600F09AFC05462846EC
:10415000BDE8F08770B504462046FFF7C5FF054669
:10416000214600F08DFC70BD10B5044600212046AC
:1041700000F052FD01D8204610BD84F00040FBE75E
:104180002DE9FE4F824688460021504600F0C8FBCC
:1041900006D10021404600F0C3FB01D1002498E085
:1041A0005046FFF7E1FF01904046FFF7DDFF029028
:1041B000DDE9010100F030FC05D2DDE9010100F08C
:1041C000EDFA074604E0DDE9011000F0E7FA0746E2
:1041D0007F49384600F020FC01D23D462BE04FF0ED
:1041E0008741384600F04CFC83464FF07C5100F08C
:1041F0004FFD8146484600F0C7FB0646304600F0BA
:10420000DFFB8346494600F038FD8146714850F88F
:104210002650024652F826100346721C53F822001C
:1042200000F036FD4946009000F02AFC83462946FE
:1042300000F046FA0546DDE9011000F0EDFC20D261
:104240000021404600F0E8FC09D80021504600F06B
:10425000E3FC01D82C463CE085F0004439E05E4C9C
:104260000021504600F0D8FC05D82946204600F031
:104270000FFD04462DE02146284600F009FD0446C6
:1042800027E00021504600F0C7FC11D8534C002114
:10429000404600F0C1FC05D82946204600F0F8FC55
:1042A000044616E02946204600F00AFA044610E0CB
:1042B0004B4C0021404600F0AFFC05D82946204673
:1042C00000F0FEF9044604E02946204600F0E0FC38
:1042D00004462046BDE8FE8F2DE9F04F89B08146A7
:1042E0000F4692461D46DDE912480021484600F07F
:1042F00017FB01D1002004E049464FF07E5000F04A
:104300004DFA07905146384600F0C2FC064630464A
:10431000616800F0BDFC0690079900F0B1FB834690
:104320003846216800F0B4FC0690079900F0A8FB1D
:1043300008903146A86800F0A3FB4946059000F0BC
:104340009FFB0690E16800F0BBF9E060149800F074
:104350004FFB069088F000400490E16800F05CFCA0
:1043600002D888F0004007E04146E06800F054FCC5
:1043700001D2404600E0E0680590069900F080FB1D
:10438000E060A968E06800F07BFB0690E9680898A7
:1043900000F076FB04905846696800F071FB0290CB
:1043A0003046296800F06CFB0190029900F088F912
:1043B0000390049900F084F90590069900F080F9C3
:1043C000A0606660276009B0BDE8F08FDF59375FF5
:1043D0008180803B7C4D0008DB0F4940DB0FC93FEB
:1043E000DB0FC9BF704700000FB4044910B503AA22
:1043F000029800F005F910BC5DF814FB14000020D1
:104400002DE9F0410E460446002020622046E16876
:10441000884730B3252805D0D4E901219047206A88
:10442000401CF2E7E168204600278847050018D0C5
:10443000A5F14100192802D820354FF40067324613
:10444000294620462760FBF7ABFE40B1012804D087
:10445000F61D26F007060836D8E7361DD6E72846AB
:10446000DAE7206ABDE8F0812DE9F0410646002434
:1044700010687529314616A510D0AFF300800028CA
:1044800002DA404213A507E031688A0701D512A578
:1044900002E0490704D511A5012401E0AFF3008033
:1044A00000210A2206F1240709E0B0FBF2FCB0FB70
:1044B000F2F302FB1C00303078541846491C0028E7
:1044C000F3D123462A463046BDE8F04100F03EB81D
:1044D000000000002D0000002B0000002000000064
:1044E00010B5203AC0F00B80B1E81850203AA0E88F
:1044F0001850B1E81850A0E81850BFF4F5AF5FEAC3
:10450000027C24BFB1E81850A0E8185044BF18C975
:1045100018C0BDE810405FEA827C24BF51F8043B1C
:1045200040F8043B08BF7047D20728BF31F8023B70
:1045300048BF11F8012B28BF20F8023B48BF00F804
:10454000012B704770477047704770472DE9F0475F
:104550000D4699469246044600F1240801688806F3
:1045600004D5E06921F01001216000E00120A8429B
:1045700001DD471B00E00027A1697A1902EB090061
:10458000081AA0612078C00602D42046AFF300804C
:10459000002608E0D4E901211AF806009047206AB5
:1045A000401C761C20624E45F4DB2078C0060AD5FC
:1045B0002046AFF3008006E0D4E901213020904787
:1045C000206A401C2062381EA7F10107F4DC07E0D6
:1045D000D4E9012118F805009047206A401C2062A8
:1045E000281EA5F10105F3DC2046AFF300802078FA
:1045F000000602D50220BDE8F0870120FBE700009D
:10460000074B70B50D467B4400F011F80446284670
:1046100000F020F810B14FF0FF3070BD204670BDA3
:10462000DBC1FFFF01694A1C02610878704700B5D1
:104630008FB0CDE901310021059105497944CDE9DB
:10464000031011466846FFF7DBFE0FB000BD000007
:10465000E5FFFFFF007B00F080007047754600F02B
:104660002BF8AE4605006946534620F00700854604
:1046700018B020B5FDF700FEBDE820404FF0000661
:104680004FF000074FF000084FF0000B21F007013A
:10469000AC46ACE8C009ACE8C009ACE8C009ACE87D
:1046A000C0098D46704710B50446AFF30080204620
:1046B000BDE81040FBF786BD00487047DC040020D1
:1046C00090EA010F48BF81F0004100F1E882421AF0
:1046D0003CBF801A89184FEAD0524FF07F4C1CEA39
:1046E000410FA2EBD15318BF9CEA026F00F03B8050
:1046F0004FF0004C4CEA00204CEA012121FA03FC67
:1047000010EB0C0C1ED202F1FF325FEA1C2040EBD2
:10471000C25038BF70471CF07F0F4FEA400C18BFE3
:10472000BCF17F4F38BF7047C3F12003994008BFE9
:1047300020F00100BCF17F4F38BF7047A0F1C040AE
:1047400000F065BA4FEA3C00000A40EBC25028BFB7
:104750001CF0FF0F4FEA400CE6D018BFBCF17F4FB2
:1047600038BF7047EAE79CEA026F05D010EA5C0F99
:1047700008BF00F00040704710B500F002FA00BF1B
:1047800064FBBE3E401058BFC0F14040491058BFC6
:10479000C1F140418142EFF3008070474FF47F0C3C
:1047A0001CEAD0121EBF1CEAD11392EA0C0F93EA46
:1047B0000C0F00F0858090EA010F48BF42F4807230
:1047C00040F4000C41F400002CF07F4120F07F40C9
:1047D00000B58142A2EB03020FF2081CACEB504E75
:1047E000C0F100009EF800E04FEA4E0E00FB0EFC08
:1047F00038BF49004FEA2C1C02F5FA020CFB0EF3FD
:104800004FEACE1E4FEA112C4FEAC1210EEB635E38
:1048100042EB22420EFB0CFC4FEA1C5300FB03113F
:104820004FEA112C4FEA01310EFB0CFC4FEADC4C35
:1048300000FB0C11C14228BF09184CEB03335DF893
:1048400004EB10EB410143EBC250B2F57C0F38BFD3
:10485000704729D512F0F00F1CBF00F1C04000F0E6
:1048600000407047008182838485868788898B8C8D
:104870008D8E8F919293959697999A9C9D9FA0A2C9
:10488000A3A5A7A8AAACAEB0B2B3B5B7B9BCBEC019
:10489000C2C5C7C9CCCED1D4D7D9DCDFE2E6E9ECBA
:1048A000F0F3F7FAFE0000004FEA400C0CF1807CB8
:1048B000BCF17E4F28BF7047B0F1C04000F0A7B9EF
:1048C00090EA010F0CEAD11348BF42F480726245AE
:1048D00038BF634507D213F47F0F16D080EA01007A
:1048E00000F00040704710B500F04BF9097EFC3E27
:1048F00000F005B880EA010000F00040704780EA4F
:10490000010000F0004000F082B912F47F0F04BFF4
:104910000248704780EA010000F079B90000C07FCA
:1049200050EA010C00F113801CF5000F58BFBCF5D4
:10493000000F01D48842704707D710F5000F58BF09
:1049400011F5000F15D488427047894270471CF555
:10495000000F04D5BCF5000FF7D5814270474FF02A
:10496000807C1CEB400F38BF1CEB410F01D2814211
:10497000704710B500F005F9922449004FF000503F
:104980004FF08051FFF7FEBE41000B0ED3F19E02A7
:1049900008D950F400034FEA032323FA02F048BF7A
:1049A0004042704710B500F0ECF800BF49922480F7
:1049B000002070476FF0004282EA2000704700003C
:1049C00010F0004148BF4042B0FA80F310FA03F201
:1049D000C3F19D030BD051EAC35101EB12205306E2
:1049E00038BF704700F1010008BF20F00100704798
:1049F000B0FA80F310FA03F2C3F19D030AD0D9058F
:104A000001EB1220530638BF704700F1010008BFC8
:104A100020F001007047000050EA010C00F1138003
:104A20001CF5000F58BFBCF5000F01D48842704739
:104A300007D710F5000F58BF11F5000F15D48842A5
:104A40007047894270471CF5000F04D5BCF5000F74
:104A5000F7D5814270474FF0807C1CEB400F38BF88
:104A60001CEB410F01D28142704710B500F089F86C
:104A7000922449004FF000504FF08051FFF782BE62
:104A80004FF47F0C1CEAD0121EBF1CEAD11392EA2D
:104A90000C0F93EA0C0F00F0478090EA010F48BF1B
:104AA00042F480724FF0004C4CEA00204CEA0121A5
:104AB00002EB0302A0FB0113A2F50002002918BFBC
:104AC00043F001035B0028BF4FEA330342EB22426D
:104AD0005FEA132C4CEBC2502EBFBCEB436FB2F518
:104AE0007C0F70474FEA036CBCF1004F08BF20F009
:104AF0000100B2F57C0F38BF70470BD582F0FF0282
:104B000012F5803FC8BF704700F1C040D8BF00F029
:104B10000040704700F5000C5FEA4C0C48BF70473E
:104B2000B0F1C04000F073B890EA010F0CEAD11365
:104B300048BF42F48072624538BF634504D280EAC0
:104B4000010000F00040704710B500F01AF800BFF7
:104B50008900013E00F007B800F009B85FEA410C97
:104B60005FEA1C6C08D080EA010000F050B85FEAF0
:104B7000400C5FEA1C6CF6D14FF00040A0F58000BD
:104B800070470EF1020E2EF0030E5EF8044B244225
:104B900004D44FEA4102B2F17F4F11D84FEA4003EB
:104BA000B3F17F4F0CD80ED14FEAD07CB2F17F4FDA
:104BB0000CEB4C0C0CF1020C08BF4CEBD17C04E06C
:104BC0004FF0080C01E04FEAD17C0CEB4C0324FAC7
:104BD00003F404F00704B4F1040C06D20EEB840CC9
:104BE000BDE810404CF0010C6047DFE80CF007080E
:104BF00002024FF00040A0F5800010BD08464200C0
:104C000018BFD2F1807288BF00F0004010BDFF21B4
:104C100041EAD050C005704751EA000C00F1138002
:104C20001CF5000F58BFBCF5000F01D4814270473E
:104C300007D711F5000F58BF10F5000F15D48142AA
:104C40007047894270471CF5000F04D5BCF5000F72
:104C5000F7D5884270474FF0807C1CEB410F38BF7E
:104C60001CEB400F01D28842704780EA010081EAC4
:104C7000000180EA0100FFF7F8BE80F0004090EAF2
:104C8000010F7FF524AD81F0004100F008B800006D
:104C900090EA010F48BF81F000413FF518AD421A7C
:104CA00004D882F00042A0EB020011444FEAD05237
:104CB0004FF07F4C1CEA410FA2EBD15318BF9CEA86
:104CC000026F4AD04FF0004C4CEA00204CEA012120
:104CD00021FA03FCB0EB0C0C0FD412F0FE0F36D00F
:104CE0005FEA4C001DD5001240EBC25038BF704740
:104CF0001CF03F0F18BF70470BE0A2F101025FEA02
:104D00001C2040EBC25038BF70471CF07F0F18BF0B
:104D10007047C3F12003994014BF401E20F00100EA
:104D2000704780084FEA122308BF7047B0FA80FC32
:104D3000A2EB0C02CCF1280C60FA0CF093EA122FD3
:104D400004BF00EBC25070474FEAC3707047130AAC
:104D50005FEADC1008BF7047F6E79CEA026F04D0F8
:104D600010EA5C0F08BF0020704710B5FFF709FF7D
:104D700040DFF63E81F00040704700000000000078
:104D80005680803BD37F003C77BE403CCF7D803C4B
:104D90005B9BA03CA6B7C03C6ED2E03CB775003D23
:104DA0003581103D918B203DAB94303D609C403D62
:104DB00092A2503D25A7603DF1A9703D6F55803D01
:104DC000E354883D4753903D8C50983D9F4CA03D07
:104DD0007247A83DF740B03D1B39B83DD22FC03DCA
:104DE0000C25C83DB218D03DC60AD83D2DFBDF3D8D
:104DF000D9E9E73DB0D6EF3DBEC1F73DDBAAFF3DA7
:104E000004C9033E95BB073E20AD0B3E979D0F3E68
:104E1000F58C133E397B173E56681B3E3E541F3EB1
:104E2000F83E233E7728273EB4102B3EA1F72E3EB6
:104E300045DD323E93C1363E7DA43A3E0A863E3E73
:104E40002766423ED844463E12224A3EC7FD4D3EAA
:104E5000FED7513EAFB0553EC687593E4B5D5D3ED5
:104E60003731613E7C03653E1AD4683E0AA36C3E2E
:104E70004770703EC83B743E8805783E86CD7B3EC9
:104E8000B5937F3E0EAC813E538D833EAE6D853E25
:104E9000164D873E8D2B893E0F098B3E99E58C3E42
:104EA0002BC18E3EC19B903E5475923EE94D943E7F
:104EB0007B25963E07FC973E8BD1993E02A69B3EF2
:104EC0006F799D3ECD4B9F3E1C1DA13E57EDA23EEE
:104ED0007FBCA43E8D8AA63E8457A83E6223AA3E8C
:104EE00023EEAB3EC2B7AD3E4580AF3EA447B13ED8
:104EF000E20DB33EF9D2B43EE996B63EB159B83EA2
:104F00004F1BBA3EC2DBBB3E079BBD3E1E59BF3E98
:104F10000416C13EBCD1C23E3F8CC43E8E45C63E47
:104F2000A4FDC73E89B4C93E336ACB3EA41ECD3E24
:104F3000DAD1CE3ED583D03E9434D23E18E4D33E6F
:104F40005A92D53E603FD73E21EBD83EA395DA3E3C
:104F5000E33EDC3EE1E6DD3E9A8DDF3E0D33E13E91
:104F60003AD7E23E227AE43EC51BE63E1BBCE73E52
:104F70002F5BE93EF7F8EA3E7695EC3EA930EE3E2F
:104F800093CAEF3E3563F13E86FAF23E8F90F43ECF
:104F90004925F63EB9B8F73EDA4AF93EAFDBFA3EAC
:104FA000386BFC3E71F9FD3E5A86FF3EFC88003F9F
:104FB000234E013FA212023F7BD6023FAC99033F32
:104FC000365C043F171E053F51DF053FE39F063F58
:104FD000CE5F073F121F083FADDD083FA29B093F90
:104FE000EF580A3F94150B3F93D10B3FE98C0C3FD0
:104FF0009A470D3FA2010E3F03BB0E3FBF730F3F09
:10500000D32B103F41E3103F089A113F2A50123F23
:10501000A405133F79BA133FA86E143F3322153FFE
:1050200018D5153F5787163FF138173FE7E9173F67
:10503000389A183FE749193FEFF8193F55A71A3F2B
:1050400018551B3F37021C3FB3AE1C3F8E5A1D3F05
:10505000C4051E3F5AB01E3F4E5A1F3FA103203FBA
:1050600052AC203F6354213FD3FB213FA4A2223FF7
:10507000D548233F67EE233F5A93243FAD37253F62
:1050800063DB253F7A7E263FF420273FD2C2273FAD
:105090001364283FB704293FBFA4293F2C442A3F6B
:1050A000FEE22A3F33812B3FD11E2C3FD2BB2C3F47
:1050B0003C582D3F0CF42D3F438F2E3FE1292F3FCD
:1050C000E9C32F3F595D303F33F6303F758E313F96
:1050D0002126323F39BD323FBB53333FA9E9333F2D
:1050E000027F343FC713353FF9A7353F993B363F21
:1050F000A6CE363F2161373F0BF3373F6484383FFC
:105100002E15393F65A5393F0F353A3F2AC43A3F3E
:10511000B4523B3FB3E03B3F226E3C3F06FB3C3F7B
:105120005D873D3F26133E3F679E3E3F1A293F3F26
:1051300044B33F3FE43C403FF9C5403F864E413FCA
:1051400089D6413F065E423FFAE4423F676B433FE8
:105150004FF1433FB076443F8CFB443FE27F453FF5
:10516000B403463F0187463FCB09473F138C473F77
:10517000D70D483F198F483FDD0F493FDD0F493FAD
:10518000A0510008000000208C0100002801000848
:10519000205200088C010020B4090000840100089E
:1051A0001184A24A0400092C01020304060708091D
:1051B000600D2B18B5C241021B42ED9EB7C2037CA5
:1051C000803F13A91E3A08CC315ABB0C32055ABD98
:1051D0000C320A5ABF0C02141429397113323213DB
:1051E0004132C5580258021B7A43E472401908E95B
:1051F00010200FE040295C8F3D3333333F295C0F93
:105200003D1EA040CDCC4C08113E3FCDCCCC3C63E4
:105210002C020304043808060708090204068C411E
:04000005080000ED02
:00000001FF
