:020000040800F2
:1000000028A90020290300081D3200081F2100082C
:1000100019320008190A00083B5E000800000000C1
:10002000000000000000000000000000690200085D
:10003000211F000800000000C50200084D53000801
:100040004303000843030008430300084303000878
:100050004303000843030008430300084303000868
:100060004303000843030008430300084303000858
:100070004303000843030008430300084303000848
:100080004303000843030008430300084303000838
:100090004303000843030008430300084303000828
:1000A000430300084303000843030008895700087E
:1000B0004303000843030008430300084303000808
:1000C00043030008430300084303000843030008F8
:1000D00043030008895B000843030008F95B00083C
:1000E00043030008430300084303000843030008D8
:1000F00043030008430300084303000843030008C8
:1001000043030008430300084303000843030008B7
:10011000430300085D5B0008430300084303000835
:100120004303000843030008430300084303000897
:100130004303000843030008430300084303000887
:100140004303000843030008430300084303000877
:100150004303000843030008430300084303000867
:100160004303000843030008430300084303000857
:100170004303000843030008430300084303000847
:10018000430300084303000800F002F800F05CF8A5
:100190000AA090E8000C82448344AAF10107DA45E2
:1001A00001D100F051F8AFF2090EBAE80F0013F0D8
:1001B000010F18BFFB1A43F0010318472C940000ED
:1001C0004C9400000A444FF0000C10F8013B13F06F
:1001D000070408BF10F8014B1D1108BF10F8015BA0
:1001E000641E05D010F8016B641E01F8016BF9D193
:1001F00013F0080F1EBF10F8014BAD1C0C1B09D1EA
:100200006D1E58BF01F801CBFAD505E014F8016B5B
:1002100001F8016B6D1EF9D59142D6D370470000ED
:100220000023002400250026103A28BF78C1FBD8FF
:10023000520728BF30C148BF0B6070471FB508F098
:10024000C6FF1FBD10B510BD00F0F6F91146FFF74F
:10025000F5FF06F0EFF800F014FA03B4FFF7F2FF31
:1002600003BC05F0ECFD00002C4B19680868B0E8F1
:10027000F04F80F30988BFF36F8F4FF0000080F3D9
:10028000118870470000000008480068006880F38B
:1002900008884FF0000080F3148862B661B6BFF39F
:1002A0004F8FBFF36F8F00DF00BF00BF08ED00E08E
:1002B000DFF80C00016841F470010160704700BF75
:1002C00088ED00E0EFF30980BFF36F8F134B1A68DE
:1002D0001EF0100F08BF20ED108A20E9F04F1060CB
:1002E00009B44FF0500080F31188BFF34F8FBFF374
:1002F0006F8F07F0C1FB4FF0000080F3118809BC3D
:1003000019680868B0E8F04F1EF0100F08BFB0EC95
:10031000108A80F30988BFF36F8F704704060020AE
:10032000EFF30580704700000948804709480047FF
:10033000FEE7FEE7FEE7FEE7FEE7FEE7FEE7FEE795
:10034000FEE7FEE704480549054A064B70470000F2
:100350006D530008890100082887002028A9002083
:100360002889002028890020704710B54C1084EAA5
:10037000530404D54042C1F1000138BF491E1B425D
:1003800004D55242C3F1000338BF5B1E00F089F868
:1003900014F0804F04D04042C1F1000138BF491E23
:1003A00014F0004F04D05242C3F1000338BF5B1E6B
:1003B00010BD032A40F2308010F0030C00F01580CD
:1003C00011F8013BBCF1020F624498BF11F801CB58
:1003D00000F8013B38BF11F8013BA2F1040298BFBD
:1003E00000F801CB38BF00F8013B11F0030300F027
:1003F000CF80083AC0F0088051F8043B083A51F821
:1004000004CBA0E80810F5E7121D5CBF51F8043BCF
:1004100040F8043BAFF30080D20724BF11F8013B42
:1004200011F801CB48BF11F8012B24BF00F8013BA4
:1004300000F801CB48BF00F8012B704702F0FF0322
:1004400043EA032242EA024200F0D6B84FF000022B
:1004500000B5134694469646203922BFA0E80C50BA
:10046000A0E80C50B1F12001BFF4F7AF090728BF95
:10047000A0E80C5048BF0CC05DF804EB890028BF11
:1004800040F8042B08BF704748BF20F8022B11F03A
:10049000804F18BF00F8012B7047704770477047B6
:1004A000704753EA020C00F069802DE9F04B4FF0E1
:1004B0000006002B1FBFB3FA83F503FA05F424FAF4
:1004C00005F65E4012BF1643B2FA82F502FA05F451
:1004D000C5F120051EBF22FA05FC44EA0C042035B4
:1004E00056EA044C4FEA144418BF641C4FF000084D
:1004F0004FF00009904271EB030C39D3002919BF6A
:10050000B1FA81F701FA07F6B0FA80F700FA07F6B8
:10051000C7F120071EBF20FA07FC46EA0C06203769
:10052000B6FBF4FCA7EB0507103F07F01F0BCBF160
:1005300020060CFA0BFB2CFA06F644BFB346002645
:10054000202FA4BF5E464FF0000B5BEA060C08BFED
:100550004FF0010B19EB0B09ABFB027C48EB0608D3
:10056000C01B06FB02CC0BFB03CC71EB0C01C1E7FB
:100570000B46024641464846BDE8F08B13B54FF0A6
:1005800000004FF00001AFF30080BDE81C40704751
:1005900010B5203AC0F00B80B1E81850203AA0E81E
:1005A0001850B1E81850A0E81850BFF4F5AF5FEA52
:1005B000027C24BFB1E81850A0E8185044BF18C905
:1005C00018C0BDE810405FEA827C24BF51F8043BAC
:1005D00040F8043B08BF7047D20728BF31F8023B00
:1005E00048BF11F8012B28BF20F8023B48BF00F894
:1005F000012B70474FF000020429C0F0128010F068
:10060000030C3FF425AFCCF1040CBCF1020F18BF72
:1006100000F8012BA8BF20F8022BA1EB0C01FFF77B
:1006200017BF5FEAC17C24BF00F8012B00F8012B43
:1006300048BF00F8012B7047754600F02BF8AE4616
:1006400005006946534620F00700854618B020B5DE
:10065000FFF778FEBDE820404FF000064FF000079E
:100660004FF000084FF0000B21F00701AC46ACE85A
:10067000C009ACE8C009ACE8C009ACE8C0098D46C7
:10068000704710B50446AFF300802046BDE8104027
:10069000FFF7E3BD00487047C486002010B52DED7C
:1006A000048BA0B0F0EE408AB0EE609AB0EE418AC2
:1006B0000446002201A98548006807F07FFC9DEDF3
:1006C0001E0AB0EE401A2246DFED811A81498248A7
:1006D000F0EE490AB0EE680A06F070F89DED1D0ACA
:1006E000B0EE401A2246DFED7A1A7C497C48F0EEE3
:1006F000480AB0EE680A06F061F8764890ED030A01
:10070000DFED780AB4EEE00AF1EE10FA02D89FEDC0
:10071000750A0FE06F4890ED030ADFED730AB4EE3F
:10072000E00AF1EE10FA02DD9FED6F0A02E069487F
:1007300090ED030A674880ED030A684890ED030ACC
:10074000DFED680AB4EEE00AF1EE10FA02D89FED90
:10075000650A0FE0614890ED030ADFED630AB4EE2D
:10076000E00AF1EE10FA02DD9FED5F0A02E05B485D
:1007700090ED030A594880ED030A564890ED030AAC
:10078000DFED5A0A20EE200A80ED030A534890ED6F
:10079000030ADFED560A20EE200A80ED030A9DEDE4
:1007A000060AB0EE401A4B4890ED030AF0EE400AFC
:1007B0002246F7EE001A4E494E48B0EE680A05F0A0
:1007C000FDFF9DED050AB0EE401A444890ED030A86
:1007D000F0EE400A2246F7EE001A47494748B0EECD
:1007E000680A05F0EBFF424890ED030ADFED440A8A
:1007F00060EE200A4348B0F9120000EE100AB8EE8D
:10080000C00A20EE800ADFED400A80EE201A384848
:1008100080ED031A384890ED030ADFED390A60EEE7
:10082000200A3848B0F9140000EE100AB8EEC00AE9
:1008300020EE800ADFED340A80EE201A2E4880ED8B
:10084000031A2B4890ED030ADFED260AB4EEE00A06
:10085000F1EE10FA02D89FED230A0FE0244890ED44
:10086000030ADFED210AB4EEE00AF1EE10FA02DD30
:100870009FED1D0A02E01E4890ED030A1C4880ED22
:10088000030A1D4890ED030ADFED160AB4EEE00AF4
:10089000F1EE10FA02D89FED130A0FE0164890ED22
:1008A000030ADFED110AB4EEE00AF1EE10FA02DD00
:1008B0009FED0D0A02E0104890ED030A0E4880ED0E
:1008C000030A20B0BDEC048B10BD0000C000002066
:1008D00000004843EC0700205001002010080020D1
:1008E000640100200000FAC30000FA435D8A2B3C3B
:1008F000A407002028010020C80700203C01002098
:100900003333E542BE0500200000484200B59FB0E9
:10091000002269463948006807F050FB9FED380A0D
:10092000384880ED000A9FED360A80ED020A9FEDFF
:10093000340A80ED030A9FED320A80ED010A9FED33
:10094000300A314880ED000A9FED2D0A80ED020A41
:100950009FED2B0A80ED030A9FED290A80ED010A25
:100960009FED270A294880ED000A9FED250A80EDBA
:10097000020A9FED230A80ED030A9FED210A80ED14
:10098000040A9FED1F0A80ED010A9FED1D0A204811
:1009900080ED000A9FED1A0A80ED020A9FED180A09
:1009A00080ED030A9FED160A80ED040A9FED140AFC
:1009B00080ED010A9DED000A164880ED000A9DEDCC
:1009C000010A80ED010A9DED020A80ED020A9DED0B
:1009D000030A80ED030A9FED0A0A80ED0C0A9FEDE1
:1009E000080A80ED0D0A9FED060A80ED0E0A9FEDC4
:1009F000040A80ED0F0A1FB000BD0000C0000020F7
:100A000000000000EC07002010080020A4070020D0
:100A1000C8070020E800002000BFFEE72DE9F041F4
:100A200005460E46174600F055FAA02000F01CFAC5
:100A3000384600F019FA00F04DFAA12000F014FA3F
:100A4000002405E0012000F0E1F92855601CC4B243
:100A5000B442F7DB00F05CFABDE8F08170B5054602
:100A60000C4600F037FAA02000F0FEF9204600F016
:100A7000FBF9284600F0F8F900F04AFA70BD2DE9BC
:100A8000F04105460E461746002409E03A19D1B256
:100A9000285DFFF7E3FF052005F01CFB601CC4B2D6
:100AA000B442F3DBBDE8F08108B56A460121F320CA
:100AB00005F0EAFA9DF8000000F0090000909DF8AA
:100AC000000008B9002008BD0120FCE710B52DED9D
:100AD000028B84B003AA0121F92005F0D5FA02AAFD
:100AE0000121F82005F0D0FA01AA0121F72005F034
:100AF000CBFA9DF8040000039DF8081040EA0110AD
:100B00009DF80C1040EA2114204605F0D5F900EEBE
:100B1000100AB8EE400ADFED060A80EE201AB0EEA9
:100B2000418AB0EE480A04B0BDEC028B10BD000053
:100B3000000080431CB5834A0121D02005F0A4FAAF
:100B400001AA0121882005F09FFA6A460121892027
:100B500005F09AFA9DF804009DF8001000EB0120C2
:100B60007949088001AA01218A2005F08DFA6A4698
:100B700001218B2005F088FA9DF804009DF80010F3
:100B800000EB012000B27049488001AA01218C20AD
:100B900005F07AFA6A4601218D2005F075FA9DF874
:100BA00004009DF8001000EB012000B26649888027
:100BB00001AA01218E2005F067FA6A4601218F20E3
:100BC00005F062FA9DF804009DF8001000EB01208A
:100BD0005D49C88001AA0121902005F055FA6A46B6
:100BE0000121912005F050FA9DF804009DF80010B5
:100BF00000EB012000B25449088101AA0121922092
:100C000005F042FA6A460121932005F03DFA9DF86D
:100C100004009DF8001000EB012000B24A49488111
:100C200001AA0121942005F02FFA6A46012195209E
:100C300005F02AFA9DF804009DF8001000EB012051
:100C400000B24149888101AA0121962005F01CFAD1
:100C50006A460121972005F017FA9DF804009DF8D7
:100C6000001000EB012000B23749C88101AA012120
:100C7000982005F009FA6A460121992005F004FA46
:100C80009DF804009DF8001000EB012000B22E49F1
:100C9000088201AA01219A2005F0F6F96A4601218D
:100CA0009B2005F0F1F99DF804009DF8001000EB81
:100CB000012000B22449488201AA01219C2005F0AC
:100CC000E3F96A4601219D2005F0DEF99DF8040054
:100CD0009DF8001000EB012000B21B49888201AA98
:100CE00001219E2005F0D0F96A4601219F2005F0E0
:100CF000CBF99DF804009DF8001000EB012000B234
:100D00001149C8820A2005F0E5F9B621E02005F076
:100D1000CEF90A2005F0DEF95721F42005F0C7F9D5
:100D20000A2005F0D7F91021F52005F0C0F90A20B6
:100D300005F0D0F903480078582801D100201CBDE7
:100D40000120FCE7B8010020200B002010B5802115
:100D50000C4801F0D7F900F06FFB4FF4807109489F
:100D600001F0D0F9022005F0C1F98021054801F019
:100D7000CBF9052005F0BAF98021024801F0C2F94B
:100D800010BD0000000802401CB50121042002F043
:100D9000A3FB4FF4C070009001208DF804000320E5
:100DA0008DF8050000208DF8060001208DF8070061
:100DB0006946064801F032F98021044801F0A4F99F
:100DC0004FF48071014801F09FF91CBD00080240FA
:100DD00010B580210C4801F095F900F02DFB4FF47F
:100DE0008071094801F090F9022005F07FF9802117
:100DF000054801F089F9052005F078F980210248BD
:100E000001F080F910BD00000008024070B50546F1
:100E1000002400F0F9FA002619E08021114801F0C1
:100E200071F9022005F062F980210E4801F06CF999
:100E30006006040E4FF480710A4801F05AF908B1B7
:100E4000601CC4B2012005F051F9701CC6B2082E16
:100E5000E3DB15B9FFF7BCFF01E0FFF777FF2046A2
:100E600070BD00000008024070B5044600F0E4FACE
:100E70008021174801F046F9002523E004F08000A6
:100E8000002805DD4FF48071114801F03DF904E0C0
:100E90004FF480710E4801F035F96006040E02200F
:100EA00005F024F980210A4801F02EF9022005F00E
:100EB0001DF98021064801F025F9022005F016F9F8
:100EC000681CC5B2082DD9DB00F040F870BD0000E9
:100ED0000008024010B500F0AFFA4FF480710B48E3
:100EE00001F012F98021094801F00EF9052005F002
:100EF000FDF84FF48071054801F004F9062005F073
:100F0000F5F88021014801F0FDF810BD000802400D
:100F100010B500F091FA80210B4801F0F3F84FF47E
:100F20008071094801F0EEF88021074801F0ECF8E3
:100F3000062005F0DBF84FF48071034801F0E4F877
:100F4000062005F0D3F810BD0008024010B50024BB
:100F500000F05AFA4FF48071114801F0D5F80120E1
:100F600005F0C4F880210E4801F0CEF8012005F00C
:100F7000BDF807E0601CC4B2FA2C03DDFFF7C8FF20
:100F8000012010BD4FF48071054801F0B2F800282F
:100F9000F0D18021024801F0B5F80020F1E700000F
:100FA0000008024008B580216B2005F0ECF90A200A
:100FB00005F090F801216B2005F0E5F90A2005F015
:100FC00089F86A460121752005F0CAF99DF80000EC
:100FD000122801D0002008BD0321682005F0D3F9B4
:100FE0000A2005F077F801216A2005F0CCF90A20E3
:100FF00005F070F84021702005F0C5F90A2005F0D1
:1010000069F800216C2005F0BEF90A2005F062F8AD
:101010000021192005F0B7F90A2005F05BF804213A
:101020001A2005F0B0F90A2005F054F818211B2009
:1010300005F0A9F90A2005F04DF810211C2005F053
:10104000A2F90A2005F046F804211D2005F09BF9BD
:101050000A2005F03FF800211E2005F094F90A202F
:1010600005F038F80021232005F08DF90A2005F05D
:1010700031F80021372005F086F90A2005F02AF81A
:101080000021382005F07FF90A2005F023F8064AF0
:101090000121752005F064F903480078122801D178
:1010A000002098E7012096E7B501002010B504461E
:1010B00022460E213B2005F053F910BD1CB501213D
:1010C000042002F009FA4FF40050009001208DF83E
:1010D000040003208DF8050000208DF80600012093
:1010E0008DF807006946024800F098FF1CBD00001B
:1010F0000008024010B50446012C04D14103054804
:1011000001F000F804E04FF40051024800F0FCFF49
:1011100010BD00000008024000B58BB001A800F02F
:10112000F5FF08A804F010FD03A804F0B8FC0121A5
:10113000062002F0E1F90121022002F0CDF94FF47E
:101140007470019002208DF8080003208DF80900CA
:1011500000208DF80A0001208DF80B0001A94C48F1
:1011600000F05CFF02220421494800F09FFF0222A8
:101170000621474800F09AFF02220721444800F068
:1011800095FF02220821424800F090FF0222092127
:101190003F4800F08BFF44F6206009905320ADF8E3
:1011A00020000020ADF82800ADF8220008A9394839
:1011B00004F088FC44F6206009905320ADF820002C
:1011C0000020ADF82800ADF8220008A9324804F04C
:1011D00079FC6020ADF80C000020ADF8180001206B
:1011E000ADF80E0040F2DC50059003A92A4804F047
:1011F0000BFB0821284804F045FB0120ADF80E0048
:101200004FF47A70059003A9234804F045FB0821A8
:10121000214804F093FB0120ADF80E0040F2DC50B1
:10122000059003A91C4804F097FB08211A4804F014
:10123000E3FB0120ADF80E0040F2DC50059003A95D
:10124000154804F0E3FB0821134804F01BFC0120BF
:10125000ADF80E0040F2DC50059003A90D4804F0F3
:10126000D3FA08210B4804F00DFB01210A4804F0D1
:10127000ADFA0121084804F0B8FA0121054804F04C
:10128000A5FA0121034804F0B0FA0BB000BD00003C
:101290000004024000040040000800402DE9F0472F
:1012A00004460D4616461F4654484089204404B261
:1012B00052488089284405B25048C089304406B25B
:1012C0004E48008A384407B24C48808808B16042D2
:1012D00004B24A48C08808B1684205B2474800894C
:1012E00008B1784207B214F5FA7F01DC444806E001
:1012F000B4F5FA7F02DD4FF4FA7000E020460446B0
:1013000015F5FA7F01DC3E4806E0B5F5FA7F02DD0F
:101310004FF4FA7000E02846054616F5FA7F01DC26
:10132000374806E0B6F5FA7F02DD4FF4FA7000E0C8
:101330003046064617F5FA7F01DC314806E0B7F57E
:10134000FA7F02DD4FF4FA7000E0384607462B487A
:10135000408BB8BB281910F5FA7F01DC284807E05C
:101360002819B0F5FA7F02DD4FF4FA7000E0281971
:101370000FFA80F8281B10F5FA7F01DC204807E0FF
:10138000281BB0F5FA7F02DD4FF4FA7000E0281B4D
:101390000FFA80F908F2DC5081B21A4804F08FFB92
:1013A00009F2DC5081B2174804F087FB06F2DC50EA
:1013B00081B2144804F07FFB40F2DC51114804F084
:1013C00078FB18E0FFE704F2DC5081B20D4804F02E
:1013D00076FB04F2DC5081B20A4804F06EFB06F2A0
:1013E000DC5081B2074804F066FB05F2DC5081B2A4
:1013F000044804F05EFBBDE8F0870000BE05002055
:101400000CFEFFFF000800401CB54FF480700090F8
:1014100000208DF8040003208DF8050000208DF8D1
:10142000060001208DF807006946024800F0F6FD2D
:101430001CBD0000000802401CB54FF480700090F5
:1014400001208DF8040003208DF8050000208DF8A0
:10145000060001208DF807006946024800F0DEFD15
:101460001CBD00000008024000B587B001210846FD
:1014700002F032F802208DF8180003208DF81900D0
:1014800000208DF81A0001208DF81B002020059007
:1014900005A92E4800F0C2FD8020059005A92B4823
:1014A00000F0BCFD4020059005A9284800F0B6FDDD
:1014B00005221146254800F0F9FD052206212348A2
:1014C00000F0F4FD05220721204800F0EFFD012087
:1014D0008DF818001020059005A91C4800F09EFD0D
:1014E00010211A4800F010FE194803F02BFD0121CD
:1014F000080302F021F80021154803F017FD002031
:10150000ADF800004FF48270ADF802000220ADF893
:1015100006000120ADF808000020ADF804004FF4EB
:101520000070ADF80A000020ADF80C00ADF80E0018
:101530000720ADF810006946054803F069FD012158
:10154000034803F0F3FC07B000BD000000000240B8
:101550000030014070B50446002507E0681C80B2E9
:1015600005464FF6FF71884200D105E00221104880
:1015700003F040FD0028F1D000BF47F6FF7521467B
:101580000B4803F043FD07E0681C80B205464FF6A8
:10159000FF71884200D105E00121054803F02AFDD2
:1015A0000028F1D000BF024803F02DFDC0B270BD8D
:1015B0000030014070B505460E46002400BF05E02E
:1015C0000020FFF7C7FF2855601C84B2B442F7DB48
:1015D00070BD000000B587B00121022001F07CFF42
:1015E00002208DF8180003208DF8190000208DF8D6
:1015F0001A0001208DF81B004003059005A92F4813
:1016000000F00CFD4FF40040059005A92B4800F0B8
:1016100005FD4FF48040059005A9284800F0FEFC28
:1016200005220D21254800F041FD05220E21234809
:1016300000F03CFD05220F21204800F037FD01207D
:101640008DF818000003059005A91C4800F0E6FC81
:101650004FF48051194800F057FD194803F072FC0F
:101660000121880301F048FF0021154803F05EFCCA
:101670000020ADF800004FF48270ADF802000220A7
:10168000ADF806000120ADF808000020ADF8040018
:101690004FF40070ADF80A000020ADF80C00ADF872
:1016A0000E000720ADF810006946054803F0B0FCB5
:1016B0000121034803F03AFC07B000BD00040240DA
:1016C0000038004070B50446002507E0681C80B271
:1016D00005464FF6FF71884200D105E0022110480F
:1016E00003F088FC0028F1D000BF47F6FF752146C3
:1016F0000B4803F08BFC07E0681C80B205464FF6F0
:10170000FF71884200D105E00121054803F072FC19
:101710000028F1D000BF024803F075FCC0B270BDD4
:101720000038004070B505460E46002400BF05E0B5
:101730000020FFF7C7FF2855601C84B2B442F7DBD6
:1017400070BD000010B588B004460121080501F005
:10175000D3FE0121042001F0BFFE0121082001F089
:10176000BBFE35208DF80C0000208DF80D008DF8A3
:101770000E0001208DF80F0003A801F051FD082292
:101780000C21264800F092FC08220221244800F097
:101790008DFC4FF48050019002208DF808008DF8E8
:1017A000090000208DF80A0001208DF80B0001A926
:1017B0001A4800F033FC0420019002208DF8080044
:1017C0008DF8090001208DF80A0000208DF80B002B
:1017D00001A9134800F022FC04940020ADF8140085
:1017E0004FF40050ADF81600C010ADF818000020FE
:1017F000ADF81C000420ADF81A0004A9094804F053
:10180000ADFA012240F22551064804F082FA012186
:10181000044804F048FA08B010BD00000008024077
:10182000000C02400050004010B58AB0044601216F
:10183000102001F081FE0121084601F04DFE252017
:101840008DF80C0000208DF80D008DF80E000120A1
:101850008DF80F0003A801F0E3FC4FF40070019035
:1018600002208DF808008DF8090000208DF80A008C
:1018700001208DF80B0001A9254800F0CFFB4FF4A3
:101880008060019002208DF808008DF80900012089
:101890008DF80A0000208DF80B0001A91C4800F00B
:1018A000BDFB072209211A4800F000FC07220A218B
:1018B000174800F0FBFB06940020ADF81C00ADF8C3
:1018C0001E00ADF82000ADF824000C20ADF8220079
:1018D0000020ADF81000ADF812004FF40070ADF824
:1018E00014000020ADF8160006A90A4804F036FAE4
:1018F00004A9084804F0C7F9012240F2255105481F
:1019000004F007FA0121034804F0CDF90AB010BD34
:10191000000002400010014070B505460E4600244C
:101920000AE0295D0B4802780078401C094B1870CA
:1019300009488154601CC4B2B442F2DB0748808974
:1019400000F0800028B9012240F22771034804F01A
:10195000E0F970BDB1010020200900200010014015
:1019600030B593B005460024AB222146641C0BA879
:10197000425411222146641C4254FF222146641C19
:101980004254FE48425D2146641C0BA84254072D78
:101990007ED2DFE805F004C4FDFCFBFAF9000D225D
:1019A0002046611CCCB20BA90A5400222046611CBF
:1019B000CCB20BA90A54F24890ED070ADFEDF10A08
:1019C00020EE200ABDEEC00A10EE100A00B20A9006
:1019D0009DF828202046611CCCB20BA90A549DF822
:1019E00029202046611CCCB20BA90A54E44890ED92
:1019F000080ADFEDE40A20EE200ABDEEC00A10EE70
:101A0000100A00B20A909DF828202046611CCCB232
:101A10000BA90A549DF829202046611CCCB20BA9C1
:101A20000A54D74890ED090ADFEDD60A20EE200AC5
:101A3000BDEEC00A10EE100A00B20A909DF82820F0
:101A40002046611CCCB20BA90A549DF829202046DF
:101A5000611CCCB20BA90A54C94890ED040ADFED11
:101A6000C90A20EE200ABDEEC00A10EE100A00B22C
:101A70000A909DF828202046611CCCB20BA90A547C
:101A80009DF829202046611CCCB20BA90A5400E025
:101A90002DE2BB4890ED050ADFEDBA0A20EE200AE0
:101AA000BDEEC00A10EE100A00B20A909DF8282080
:101AB0002046611CCCB20BA90A549DF8292020466F
:101AC000611CCCB20BA90A54AD4890ED060ADFEDBB
:101AD000AD0A20EE200ABDEEC00A10EE100A00B2D8
:101AE0000A909DF828202046611CCCB20BA90A540C
:101AF0009DF829202046611CCCB20BA90A54012272
:101B00002046611CCCB20BA90A5421460BA801F057
:101B100001FAA01CC1B20BA8FFF7FEFEE7E1082204
:101B20002046611CCCB20BA90A5400222046611C3D
:101B3000CCB20BA90A5401222046611CCCB20BA9DD
:101B40000A548F4890ED1D0ADFED8E0A20EE200A20
:101B5000BDEEC00A10EE100A00B20A909DF82820CF
:101B60002046611CCCB20BA90A549DF829202046BE
:101B7000611CCCB20BA90A54814890ED1C0ADFED20
:101B8000810A20EE200A04E01DE11BE1A3E0A1E0B0
:101B90003EE0BDEEC00A10EE100A00B20A909DF8B9
:101BA00028202046611CCCB20BA90A549DF829209C
:101BB0002046611CCCB20BA90A54714890ED1E0A54
:101BC000DFED700A20EE200ABDEEC00A10EE100A0A
:101BD00000B20A909DF828202046611CCCB20BA9C7
:101BE0000A549DF829202046611CCCB20BA90A5446
:101BF00000222046611CCCB20BA90A5421460BA836
:101C000001F088F9A01CC1B20BA8FFF785FE6EE1B8
:101C100009222046611CCCB20BA90A54002220469E
:101C2000611CCCB20BA90A54574890ED020ABDEED4
:101C3000C00A8DED080A9DF820202046611CCCB218
:101C40000BA90A549DF821202046611CCCB20BA997
:101C50000A549DF822202046611CCCB20BA90A54DC
:101C60009DF823202046611CCCB20BA90A5446489B
:101C700090ED000ABDEEC00A8DED080A9DF8202007
:101C80002046611CCCB20BA90A549DF821202046A5
:101C9000611CCCB20BA90A549DF822202046611C7D
:101CA000CCB20BA90A549DF823202046611CCCB26B
:101CB0000BA90A5401222046611CCCB20BA90A547C
:101CC00021460BA801F026F9A01CC1B20BA8FFF712
:101CD00023FE0CE10BE1002205A92C48006806F068
:101CE0006DF908222046611CCCB20BA90A540022CF
:101CF0002046611CCCB20BA90A54BDF8160000F2B4
:101D0000DC5080B209909DF824202046611CCCB2A2
:101D10000BA90A549DF825202046611CCCB20BA9C2
:101D20000A54BDF8180000F2DC5080B209909DF80A
:101D300024202046611CCCB20BA90A549DF8252012
:101D40002046611CCCB20BA90A54BDF81A0000F25F
:101D5000DC5080B209909DF824202046611CCCB252
:101D60000BA90A549DF825202046611CCCB20BA972
:101D70000A54BDF81C0000F2DC5009E07E0100208E
:101D8000440000200000C842C8080020780100205C
:101D900080B209909DF824202046611CCCB20BA98A
:101DA0000A549DF825202046611CCCB20BA90A5488
:101DB00021460BA801F0AEF8A01CC1B20BA8FFF79A
:101DC000ABFD94E093E0002269464A48006806F0C3
:101DD000F5F80C222046611CCCB20BA90A54002253
:101DE0002046611CCCB20BA90A54BDF8000000F2D9
:101DF000DC5000B20A909DF828202046611CCCB22D
:101E00000BA90A549DF829202046611CCCB20BA9CD
:101E10000A54BDF8020000F2DC5000B20A909DF8AE
:101E200028202046611CCCB20BA90A549DF8292019
:101E30002046611CCCB20BA90A54BDF8040000F284
:101E4000DC5000B20A909DF828202046611CCCB2DC
:101E50000BA90A549DF829202046611CCCB20BA97D
:101E60000A54BDF8060000F2DC5000B20A909DF85A
:101E700028202046611CCCB20BA90A549DF82920C9
:101E80002046611CCCB20BA90A54BDF8080000F230
:101E9000DC5000B20A909DF828202046611CCCB28C
:101EA0000BA90A549DF829202046611CCCB20BA92D
:101EB0000A54BDF80A0000F2DC5000B20A909DF806
:101EC00028202046611CCCB20BA90A549DF8292079
:101ED0002046611CCCB20BA90A5421460BA801F084
:101EE00019F8A01CC1B20BA8FFF716FD00BF00BF78
:101EF00013B030BDCC0000201420084948701421D4
:101F00000648C17132214173C821C1741421417640
:101F1000C821C177142180F8251070473E080020A1
:101F20007047000010B504462748B0F93A00B0F5F4
:101F3000967F03DD0020254908700CE02248B0F9A7
:101F40003A0010F1C80F03DD01202049087002E0BB
:101F500002201E4908701D4800781D4909788842F2
:101F600005D0FEF7D3FC19480078194908701648C7
:101F700090F85200002802DD012014490870124830
:101F8000B0F9360010F5C87F03DD01200F49487015
:101F900002E000200D4948700C48007830B101285B
:101FA00007D0022809D003280CD10AE001F012F969
:101FB00008E0204603F044F904E0204603F0BCF8B2
:101FC00000E000BF00BF10BD24070020340800203F
:101FD0007D01002010B50E48007880B901200C4921
:101FE000087000220A2105F05BFE0A490860002300
:101FF0001A4609490748006805F0F4FE06E0022386
:10200000002205490348006805F0ECFE10BD000001
:102010007C0100207801002034080020F0B50A4639
:1020200000210023002400BF3DE0012505FA01F353
:10203000156805EA03049C4234D105684F00032665
:10204000BE40B543056015794E00B540066835437E
:1020500005601579012D02D01579022D16D18568FC
:102060004F000326BE40B543856055794E00B5400C
:10207000866835438560456801268E40B5434560D6
:10208000456896798E40B6B235434560C5684F00C5
:102090000326BE40B543C560D5794E00B540C6683D
:1020A0003543C560491C1029BFD3F0BDF0B50023EE
:1020B00000244D07ED0E02FA05F3CE1000F12005C5
:1020C00055F826504E07F70E0F26BE40B543CF10E9
:1020D00000F1200646F82750CE1000F1200555F8F3
:1020E000265045EA0304CE1000F1200545F82640AD
:1020F000F0BD0246002013690B400BB1012000E047
:102100000020704741837047018370474FF6FF718D
:1021100001600021017141718171C171704700BF7F
:10212000FEE7000010B52DED028B04460CB900202F
:1021300003E04FF47A7090FBF4F000EE100AF8EE32
:10214000C08AB1EE040A88EE808A624890ED000AE7
:10215000BDEEC00A604880ED000A6048D0ED0F0A6D
:102160005F4890ED000AB8EEC00A70EEC00A90ED2C
:10217000000AB8EEC00A9FED5B1A01EE200ABDEE20
:10218000C00A80ED000A58480078401C5649087083
:1021900008460078052190FBF1F201FB120052493C
:1021A00008700846007830BB4B4800684F49096802
:1021B000401A00EE100AB8EEC00A20EE080ABDEE82
:1021C000C00A4B4880ED000A00684A490968401A75
:1021D00000EE100AB8EEC00A20EE080ABDEEC00AF2
:1021E000454880ED000A3C48006840490860404886
:1021F0000068404908609FED410A414880ED020AAD
:10220000374890ED000AB8EEC00A3D4880ED000A5C
:10221000394890ED000AB8EEC00A394880ED010A4D
:102220009FED380A80ED030A00EE904AF8EE600A4E
:102230009FED351A60EE810AB0EE600A04F0B5F841
:102240009FED320A324880ED020A2D4890ED060AD1
:102250002F4880ED000A264890ED000AB8EEC00A2B
:102260002B4880ED010A9FED270A80ED030A00EE5E
:10227000904AF8EE600A9FED241A60EE810AB0EEF3
:10228000600A03F0FDFFB5EE000A224880ED020A65
:102290001F4890ED050A1F4880ED000A0D4890ED9B
:1022A000000A1C4880ED010A00EE904AF8EE600A30
:1022B0009FED151A60EE810AB0EE600A03F0E0FFB0
:1022C000144890ED050A034880ED020ABDEC028B2C
:1022D00010BD0000C8080020940100204400002028
:1022E000A0010020295C8F3DA80100208C01002066
:1022F00098010020900100209C010020CDCCCC3D15
:10230000D40800200000C8426F12833A9A99193FFE
:10231000F00800200809002010B52DED0E8B8AB0C2
:10232000F0EE408AFE48D0ED070A60EEA00A90ED7C
:10233000081AD0ED081A41EE210A90ED091AD0EDE5
:10234000091A41EE210AB0EE600A04F00FFAB0EE6D
:10235000409AB5EEC09AF1EE10FA02D19FEDF10A63
:1023600003E0F7EE000A80EE890AB0EE40EAEC489E
:1023700090ED070A20EE090A8DED070A90ED080A94
:1023800020EE090A8DED080A90ED090A20EE090AEF
:102390008DED090A90ED000AD0ED010A60EE209A59
:1023A00090ED000AD0ED020A20EE20AA90ED010A7D
:1023B00060EE00AA90ED010AD0ED030A20EE20BAEB
:1023C00090ED020A60EE00BA90ED020AD0ED030A29
:1023D00020EE20CA90ED030A60EE00CA90ED010ADB
:1023E000D0ED020A20EE20DA90ED000AD0ED030ACB
:1023F00060EE20DAB0EE000A2BEE800AF0EE000A62
:1024000000EEAC0AF7EE000A30EEC00A80ED130AC7
:10241000B0EE000A2DEE000AF0EE000A00EEED0A22
:1024200080ED140AB0EE000A2BEE000AF0EE000A6E
:1024300000EE8A0A80ED150AB0EE000A2DEE000AC1
:10244000F0EE000A00EEAD0A80ED160AB0EE000ACA
:102450002AEE800AF0EE000A00EEAC0AF7EE000A5F
:1024600030EEC00A80ED170AB0EE000A2CEE000A2A
:10247000F0EE000A00EEE90A80ED180AB0EE000A5C
:102480002BEE000AF0EE000A00EECA0AA64880ED24
:10249000000AA34880ED190AB0EE000A2CEE000AEB
:1024A000F0EE000A00EEA90A9F4880ED010A9C4860
:1024B00080ED1A0AB0EE000A2AEE800AF0EE000A59
:1024C00000EEAB0AF7EE000A30EEC00A964880ED47
:1024D000020A934880ED1B0A90ED070ADFED930A8C
:1024E00020EE200A9048D0ED000A9FED911A01EEEF
:1024F000600ABDEEC00AB8EEC00A894880ED0A0A3B
:1025000090ED080ADFED890A20EE200A8648D0ED1A
:10251000010A9FED871A01EE600ABDEEC00AB8EE0F
:10252000C00A7F4880ED0B0A90ED090ADFED7F0AB3
:1025300020EE200A7C48D0ED020A9FED7D1A01EEC4
:10254000600ABDEEC00AB8EEC00A754880ED0C0AFC
:1025500000202AE0002100EE101A00BF19E000EB75
:1025600040036F4A4C3202EB830202EB810292ED90
:10257000001A6B4A283202EB8102D2ED001AF8EE03
:10258000C00A41EE810AFDEEE00AB0EE600A4A1C84
:10259000D1B20329E3DBF8EEC00A6149343101EB23
:1025A0008001C1ED000A411CC8B20328D2DB9DEDB9
:1025B000080A5D48D0ED020A20EE200AD0ED010A9B
:1025C0009DED091A00EEC10A8DED040A9DED070A82
:1025D000D0ED020A20EE200AD0ED000A9DED091A86
:1025E00010EE810A8DED050A9DED080AD0ED000A76
:1025F00020EE200AD0ED010A9DED071A10EE810AA7
:102600008DED060A002449E09FED4A0AB4EEC0EAC7
:10261000F1EE10FA06DCB2EE020AB4EEC0EAF1EE18
:1026200010FA07D29FED3F0A8DED060A8DED050ADF
:102630008DED040A404800EB840090ED000A04A8E8
:1026400000EB8400D0ED000A9FED3C1AF4EEC10AC5
:10265000F1EE10FA02D8DFED390A13E004A800EB1E
:102660008400D0ED000A9FED361AF4EEC10AF1EEB7
:1026700010FA02DDDFED320A04E004A800EB84006A
:10268000D0ED000A60EEA80A9FED2E1A00EE810A36
:10269000294800EB840080ED000A641C032CB3DBA6
:1026A0009DED040A2448D0ED000A70EE200A1C4873
:1026B00090ED040A9FED241A00EE810A20EE280A0C
:1026C000F0EE000A80EE201A8DED011A9DED050A4C
:1026D0001948D0ED010A70EE200A114890ED050A64
:1026E0009FED191A00EE810A20EE280AF0EE000A8A
:1026F00080EE201A8DED021A9DED060A0E48D0EDEF
:10270000020A70EE200A064890ED060A9FED0E1AA6
:1027100000EE810A20EE280AF0EE000A16E0000022
:102720004400002000000000940600200000C84281
:10273000004075449A992941A0060020CDCCCCBD1B
:10274000CDCCCC3D0AD7233CCDCC4C3E80EE201ADC
:102750008DED031A90ED000AD0ED010A9DED011AEE
:1027600000EEC10AD0ED020A9DED021A00EEC10A88
:10277000D0ED030A9DED031A00EEC10A80ED000AB8
:1027800090ED010AD0ED000A9DED011A00EE810ADC
:10279000D0ED020A9DED031A00EE810AD0ED030A86
:1027A0009DED021A00EEC10A80ED010A90ED000ACB
:1027B000DDED020A20EE200AD0ED010A9DED031A9C
:1027C00000EEC10AD0ED020A30EE200AD0ED030A75
:1027D0009DED011A00EE810A80ED020A90ED000ADB
:1027E000DDED030A20EE200AD0ED010A9DED021A6C
:1027F00000EE810AD0ED020A9DED011A00EEC10A39
:10280000D0ED030A30EE200A80ED030AD0ED000A75
:1028100060EEA00A90ED011AD0ED011A41EE210AF6
:1028200090ED021AD0ED021A41EE210A90ED031A42
:10283000D0ED031A41EE210AB0EE600A03F096FFD4
:10284000B0EE408A1248D0ED000AB0EE480A20EE01
:10285000800A80ED000AD0ED010AB0EE480A20EEB1
:10286000800A80ED010AD0ED020AB0EE480A20EE9F
:10287000800A80ED020AD0ED030AB0EE480A20EE8D
:10288000800A80ED030A0AB0BDEC0E8B10BD00007B
:102890004400002010B50E48007880B901200C4992
:1028A000087000227C2105F0FBF90A49086000232A
:1028B0001A4609490748006805F094FA06E0022321
:1028C000002205490348006805F08CFA10BD00009D
:1028D000C8000020C0000020440000201FB568464A
:1028E000FEF7E4FB9DF801009DF8001040EA01208E
:1028F00000B2CB49C8809DF803009DF8021040EA61
:102900000120404200B2C64908819DF805009DF8AB
:10291000041040EA0120404200B2C14948819DF8BC
:1029200009009DF8081040EA012000B2BC49088067
:102930009DF80B009DF80A1040EA0120404200B2C9
:10294000B74948809DF80D009DF80C1040EA012021
:10295000404200B2B24988809DF807009DF80610F9
:1029600040EA012000B2AE4988850846B0F900006F
:1029700000EE100AB8EEC00A0846D0ED050A30EEA7
:10298000600AA84880ED0C0A0846B0F9020000EE83
:10299000100AB8EEC00A0846D0ED060A30EE600A0A
:1029A000A04880ED0D0A0846B0F9040000EE100AB8
:1029B000B8EEC00A0846D0ED070A30EE600A994822
:1029C00080ED0E0A0846B0F9060000EE100AB8EED7
:1029D000C00A0846D0ED080A30EE600ADFED920A20
:1029E00020EE200A914880ED0C0A0846B0F9080054
:1029F00000EE100AB8EEC00A0846D0ED090A30EE23
:102A0000600ADFED8B0A20EE200A884880ED0D0A6F
:102A10000846B0F90A0000EE100AB8EEC00A0846EF
:102A2000D0ED0A0A30EE600ADFED820A20EE200ABD
:102A30007E4880ED0E0A0320A5E000EB4001794AB4
:102A400002EB810191ED000ADFED7B0A20EE200A06
:102A5000411C01EB410102EB8101D1ED000A9FED28
:102A6000771A00EE810A00EB400102EB810181ED53
:102A7000000A00EB400102EB810191ED010ADFED5C
:102A80006E0A20EE200A411C01EB410102EB81019C
:102A9000D1ED010A9FED691A00EE810A00EB4001B9
:102AA00002EB810181ED010A00EB400102EB8101A3
:102AB00091ED020ADFED600A20EE200A411C01EBD5
:102AC000410102EB8101D1ED020A9FED5C1A00EE9B
:102AD000810A00EB400102EB810181ED020A00EB6B
:102AE0004001524A02EB810191ED000ADFED520AEA
:102AF00020EE200A411C01EB410102EB8101D1EDE6
:102B0000000A9FED4E1A00EE810A00EB400102EB35
:102B1000810181ED000A00EB400102EB810191EDA2
:102B2000010ADFED450A20EE200A411C01EB4101BC
:102B300002EB8101D1ED010A9FED401A00EE810AFE
:102B400000EB400102EB810181ED010A00EB400145
:102B500002EB810191ED020ADFED370A20EE200A37
:102B6000411C01EB410102EB8101D1ED020A9FED15
:102B7000331A00EE810A00EB400102EB810181ED86
:102B8000020A411E48B20028BFF657AF254890ED13
:102B9000000ADFED2B0A20EE200ADFED2A0A20EEE4
:102BA000200A294880ED040A1E4890ED010ADFED55
:102BB000240A20EE200ADFED230A20EE200A224814
:102BC00080ED050A174890ED020ADFED1D0A20EEA0
:102BD000200ADFED1C0A20EE200A1B4880ED060AC1
:102BE000124890ED000ADFED190A20EE200A16487F
:102BF00080ED070A0D4890ED010ADFED140A20EE82
:102C0000200A114880ED080A084890ED020ADFED1D
:102C10000F0A20EE200A0C4880ED090A1FBD0000B3
:102C200014000020AC060020DFC17F3FE806002032
:102C3000F3CC7F3FE624803F14AE473FAE47613E72
:102C4000E2007A3D4DF38E3C440000206FF51C3BC2
:102C500010B500F0B5F800F0EDF84FF47A7003F01D
:102C600039FA10BD10B52DED028B4C48D0ED190A84
:102C700090ED191AB7EE000A00EEC10AB5EEC00ACF
:102C8000F1EE10FA02D89FED460A1BE04348D0ED62
:102C9000190A90ED191AB7EE000A00EEC10AF7EE14
:102CA000000AB4EEE00AF1EE10FA02DDB7EE000A17
:102CB00008E03A48D0ED190A90ED191AB7EE000A6B
:102CC00000EEC10A374880ED000A374890ED020A4D
:102CD000DFED360AB4EEE00AF1EE10FA08DC90ED12
:102CE000020ADFED330AB4EEE00AF1EE10FA51D237
:102CF0003048B0F9000000EE100AB8EEC00ADFED6F
:102D00002E0A80EE208A254890ED1B1AF0EE410A2B
:102D100090ED1A1AB0EE410A03F0F4F9DFED270A3C
:102D200010EE208A1D4880ED1C8A2248B0F902006E
:102D300000EE100AB8EEC00ADFED1F0AC0EE208ACE
:102D4000184890ED000A03F007FDB0EE408A1348E2
:102D5000D0ED190AB0EE600AF0EE480A03F0D2F99D
:102D6000B1EE400ADFED150A50EE208A0B48C0EDA7
:102D70001D8A90ED131AF0EE410A90ED161AB0EE8E
:102D8000410A03F0BFF9DFED0D0A20EE200A0348E7
:102D900080ED1E0ABDEC028B10BD00004400002037
:102DA00000000000C400002094060020CDCC4C3D63
:102DB000CDCC4CBDBE0500200000C8423333654277
:102DC000B7EE000A194A82ED000A9FED190A82ED5A
:102DD000010A9FED170A82ED020A9FED150A82EDA6
:102DE000030A9FED130A82ED070A9FED110A82ED97
:102DF000080A9FED0F0A82ED090A002013E0002166
:102E00000DE09FED0B0A00EB4003084A4C3202EB49
:102E1000830202EB810282ED000A4A1CD1B203292F
:102E2000EFDB421CD0B20328E9DB704744000020EE
:102E3000000000002DE9FF410024002500269FED41
:102E4000320A324880ED050A9FED2F0A80ED060A0E
:102E50009FED2D0A80ED070A002730E06846FEF757
:102E600025F99DF809009DF8081040EA012000B2FC
:102E7000264908809DF80B009DF80A1040EA0120C1
:102E8000404200B2214948809DF80D009DF80C1089
:102E900040EA0120404200B21C4988800846B0F94F
:102EA000000004440846B0F9020005440846B0F9A1
:102EB00004000644022003F00DF9781C87B2C82FE5
:102EC000CCDB00EE104AB8EEC00ADFED110A80EE4E
:102ED000201A0E4880ED051A00EE105AB8EEC00A0E
:102EE000DFED0B0A80EE201A80ED061A00EE106A64
:102EF000B8EEC00ADFED060A80EE201A80ED071A50
:102F0000002004B0BDE8F0810000000014000020A3
:102F10000000484370B500220023002400BF06E0F3
:102F2000855C1D44EBB2E518ECB2551CEAB28A424E
:102F3000F6DB0D464E1CF1B243550D464E1CF1B268
:102F4000445570BD70B506464FF0FF35002413E0C0
:102F5000B5F1FF3F0ED104EB44002B4911F81000EE
:102F6000012807D1002004EB4401274A02F8110090
:102F700065B203E0601CC4B2052CE9DB00BFE8B217
:102F800002F028FA4FF0FF35002436E004EB44004D
:102F90001E4911F8100020BB04EB440001EB400077
:102FA0008078304404EB4401184A02EB41018870F8
:102FB00004EB4400114601EB4000807804EB44012F
:102FC00002EB41014978884215DB002004EB440103
:102FD00002EB41018870012004EB440102F811006A
:102FE00009E0B5F1FF3F06D1002004EB4401074A98
:102FF00002F8110065B2601CC4B2072CC6DBE8B24F
:10300000FEF7AEFC70BD0000680800203E080020FE
:1030100030B52DED028B81B005462B48C078E028F5
:1030200027D12948807918B901202849887446E0B9
:1030300025488079012802D1244908703FE02248C0
:103040008079022808D10120204988711E48B0F8F3
:1030500007101E48418132E01B48807903282ED199
:1030600001201A4908731848B0F807101748018260
:1030700025E01548C078E12821D1012013490876C0
:1030800011488189114881830F48C488007A8DF8DE
:1030900000000D48407A8DF801000B48807A8DF8C9
:1030A00002000948C07A8DF803009DED000AB0EED9
:1030B000408AE0B2B0EE480A00F0F8F800BF01B074
:1030C000BDEC028B30BD000086080020680800209F
:1030D00070B504463C48007870B9AB2C08D13A482A
:1030E00001780078401C384A1070384844546AE02F
:1030F00000203549087066E033480078032810D175
:10310000E02C01D0E12C08D12F4801780078401C38
:103110002D4A10702D48445455E000202A4908706B
:1031200051E029480078042810D127480178007818
:10313000401C254A107025484454254804700078E6
:103140001E2840DD0020114608703CE01E48017832
:103150001F480078C01D81422DD11B48017800789E
:10316000401C194A107019484454002500260020BC
:1031700007E01649095C2944CDB27119CEB2411C51
:10318000C8B213490978891D8842F2DB0F491048FB
:103190000078801D085CA84209D10D480078C01D48
:1031A000085CB04203D10A480078FFF731FF0020E5
:1031B0000549087007E0044801780078401C024A7D
:1031C00010700248445470BD8A0100208608002017
:1031D0008B01002010B50E48408E0E4948800C48E7
:1031E000818E0C4881800A48C18E0A48C1800848F7
:1031F000018F084801810446B4F90830B4F906206B
:10320000B4F90410B4F90200FEF748F810BD00004C
:10321000240700203408002000BFFEE770470000AC
:1032200070B5002100230F22C4781CB3174C24680A
:1032300004F4E064C4F5E064C4F30721C1F10404BC
:10324000E3B20A4144789C40E1B2847814402143BF
:103250000C07210E0E4C05786155047804F01F050B
:103260000124AC4005786D11AD0005F1E025C5F8ED
:10327000004109E0047804F01F050124AC40054D2D
:103280000678761145F8264070BD00000CED00E090
:1032900000E400E080E100E002490143024A1160DD
:1032A000704700000000FA050CED00E024490978A1
:1032B000491C234A117011460978172904DB0021A3
:1032C000117001211F4A11701F4931F9101000EED1
:1032D000901AF8EEE00AF4EE400AF1EE10FA00D18E
:1032E000704700EB400101EBC001184A02EB81017D
:1032F000B1F9021000EE901AF8EEE00AF4EEC00AFE
:10330000F1EE10FA0EDC00EB400101EBC00132F9E6
:10331000211000EE901AF8EEE00AF4EEC00AF1EE89
:1033200010FA00D2DCE7FDEEC00A10EE901A09B2E6
:10333000054A22F810100121054A117000BFCFE79D
:1033400000060020FF050020BE050020CA01002065
:10335000FE05002070B50025002240210B48FDF736
:103360005DFB002405E00948005D2844C5B2601CEF
:10337000C4B23F2CF7DB054890F83F00A84204D1C7
:103380002E2202490248FDF714F870BD380B0020C8
:10339000BE05002070B500252E220B490B48FDF715
:1033A00008F8002405E00948005D2844C5B2601C07
:1033B000C4B23F2CF7DB054880F83F500022402183
:1033C000FDF75DFB70BD0000BE050020380B00203E
:1033D00010B504461048007801281BD10F4800782A
:1033E00018B900200C49087014E00D480088B0F5A9
:1033F000FA7F05DA0A48008820440949088009E074
:10340000002007490880FFF7C5FF00200249087027
:103410000249087010BD0000FF050020FE050020D5
:103420000206002010B50446204600F005F82046AC
:10343000FEF778FE10BD000010B52DED028B04469E
:10344000FDF732FB40BBFDF741FBF0EE408A9FEDFC
:103450001C0A30EE680ADFED1B0A80EE208A9FED21
:103460001A0A28EE000A20EE080A20EE080ADFED0C
:10347000140A70EEE80AB2EE021A01EE200A1348AE
:1034800080ED000A124890ED010A1048D0ED000AC4
:1034900030EEC00A80ED000A0D4890ED000AD0ED34
:1034A000000A0A4890ED001A71EE600A9FED091AB1
:1034B00001EE200A064880ED000ABDEC028B10BD2B
:1034C00080E6C54700007A4485EB513FA401002007
:1034D000C80800204260E53B29B1064A1268024351
:1034E000044B1A6004E0034A12688243014B1A60DD
:1034F000704700003038024029B1064A1268024382
:10350000044B1A6004E0034A12688243014B1A60BC
:10351000704700004038024029B1064A1268024351
:10352000044B1A6004E0034A12688243014B1A609C
:10353000704700002038024029B1064A1268024351
:10354000044B1A6004E0034A12688243014B1A607C
:10355000704700004438024029B1064A126802430D
:10356000044B1A6004E0034A12688243014B1A605C
:103570007047000024380240F0B5002100220024EA
:10358000022500260223324F3F6807F00C0121B1CB
:10359000042905D0082937D105E02E4F076036E011
:1035A0002D4F076033E02A4F3F1F3F68C7F3805617
:1035B000274F3F1F3F6807F03F036EB1264FB7FB11
:1035C000F3F7DFF88CC0ACF1040CDCF800C0CCF3EE
:1035D000881C07FB0CF40CE01E4FB7FBF3F7DFF879
:1035E00070C0ACF1040CDCF800C0CCF3881C07FB05
:1035F0000CF4174F3F1F3F68C7F301477F1C7D0046
:10360000B4FBF5F7076002E0124F076000BF00BF90
:103610000F4F3F6807F0F0010909104F7A5C076807
:10362000D74047600A4F3F6807F4E051890A0B4FC3
:103630007A5C4768D7408760054F3F6807F4604170
:10364000490B064F7A5C4768D740C760F0BD000061
:10365000083802400024F40000127A00840600209A
:1036600010B50E48007880B901200C49087000227E
:10367000202104F015FB0A49086000231A46094975
:103680000748006804F0AEFB06E00223002205496B
:103690000348006804F0A6FB10BD0000D200002023
:1036A000CC0000205607002010B50248FEF74AF86B
:1036B00010BD0000A086010000B50346184600F0CA
:1036C000B9F900F09BF900BD00B5034641F288301E
:1036D000834203D900200F49087019E0B3F5487FF1
:1036E00016D940F69800834212D20A48007808287A
:1036F00000DD00BD0848074A127820F8123005485E
:10370000007800F00BF803480078401C014908706D
:1037100000BFEEE7E4000020440700200021024A39
:1037200022F81010704700007807002000B5002232
:103730004AE02A4830F91200A0F57A7000EE100A2B
:10374000B8EEC00ADFED260A20EE200ABDEEC00A60
:1037500010EE100A01B22148323020F8121030F970
:10376000120010F5FA7F01DC1E480DE01B483230D4
:1037700030F91200B0F5FA7F02DD4FF4FA7003E081
:103780001648323030F912001449323121F8120053
:10379000022A17D1084630F9120000F5FA7000EE3F
:1037A000100AB8EEC00ADFED100A20EE200ABDEEC6
:1037B000C00A10EE100AA0F5FA7001B207483230C4
:1037C00020F81210501CC2B2082AB2DB00200349B4
:1037D00081F8520000F042F900BD000024070020EB
:1037E0002FDD243F0CFEFFFF9A99193F18B50446C0
:1037F0007DA0006800907D4801780078401C7B4ADD
:1038000010707B4844541046007819287ED1182047
:1038100011460870764800780F2878D17448007EE9
:1038200038B17348017E734A12781DF80200814254
:10383000F3D100206D4908706D4840786C49897853
:1038400001F0070140EA01206B4908806848C07810
:103850008006400D6649897840EAE1006649488063
:1038600063484079C007400D6149097940EA810009
:103870005F49C97840EAA1105F4988805C48807937
:103880000007400D5A49497940EA61005A49C88009
:103890005748C0794006400D5549897940EA2110C2
:1038A000554908815248407A8007400D5049097AAD
:1038B00040EA41004E49C97940EAE1104E49488149
:1038C0004B48807AC006400D4949497A40EAA10038
:1038D000494988814648C07AC0004549897A40EA0A
:1038E00061104549C8814248007B4149497B01F04C
:1038F000070140EA0120404908823D48807B80065C
:10390000400D3B49497B40EAE10001E06AE05FE0AD
:10391000394948823648007CC007400D3449C97B8C
:1039200040EA81003249897B40EAA110324988820D
:103930002F48407C0007400D2D49097C40EA61007A
:103940002D49C8822A48807C4006400D2849497C80
:1039500040EA2110284908832548007D8007400D52
:103960002349C97C40EA41002149897C40EAE110B1
:10397000214948831E48407DC006400D1C49097DF1
:1039800040EAA1001C4988831948807DC00018497D
:10399000497D40EA61101849C8831548C07D81F807
:1039A000300014480078401C124908700878C1178C
:1039B00000EB91718910A0EB81010E4A11700E4845
:1039C00090F8300000F0080060B9FFF7AFFE09E0A2
:1039D000002305E00649581C085CC854581CC3B2B3
:1039E000182BF7DB18BD000004142434DC00002081
:1039F00088070020DD000020240700200C4991F8F2
:103A00005210002913DD00200FE0022806D14FF6E6
:103A10000C620749323121F8102004E000220449E9
:103A2000323121F81020411CC8B20828EDDB704764
:103A30002407002007490988B1F5FA6F05DA05491E
:103A400009880144034A118003E00121024A82F8F7
:103A500052107047D00000202407002000200149A8
:103A600008807047D000002071B52DED040B2DEDBE
:103A7000108BD1B0B0EE40AAB0EE60FA05464021FE
:103A800040A8FCF7E3FC002208A9FE48006804F007
:103A900095FAFD4890ED000A80ED080A90ED010AC4
:103AA00080ED090A90ED020A80ED0A0A90ED030A02
:103AB00080ED0B0A90ED090AB1EE400A80ED090A8B
:103AC00090ED0A0AB1EE400A80ED0A0A90ED0B0A69
:103AD000B1EE400A80ED0B0A9DED080AD0ED080A10
:103AE00020EE200A8DED400A9DED080AD0ED090A6E
:103AF00020EE200A8DED410A9DED080AD0ED0A0A5C
:103B000020EE200A8DED420A9DED080AD0ED0B0A49
:103B100020EE200A8DED430A9DED090AD0ED080A3A
:103B200020EE200A8DED440A9DED090AD0ED090A28
:103B300020EE200A8DED450A9DED090AD0ED0A0A16
:103B400020EE200A8DED460A9DED090AD0ED0B0A04
:103B500020EE200A8DED470A9DED0A0AD0ED080AF5
:103B600020EE200A8DED480A9DED0A0AD0ED090AE3
:103B700020EE200A8DED490A9DED0A0AD0ED0A0AD1
:103B800020EE200A8DED4A0A9DED0A0AD0ED0B0ABF
:103B900020EE200A8DED4B0A9DED0B0AD0ED080AB0
:103BA00020EE200A8DED4C0A9DED0B0AD0ED090A9E
:103BB00020EE200A8DED4D0A9DED0B0AD0ED0A0A8C
:103BC00020EE200A8DED4E0A9DED0B0AD0ED0B0A7A
:103BD00020EE200A8DED4F0A9DED400ADDED450AED
:103BE00030EE600ADDED4A0A30EE600ADDED4F0A84
:103BF00030EE600AF0EE409A9DED440ADDED410A98
:103C000030EE200ADDED4B0A30EE200ADDED4E0AE3
:103C100030EE600AF0EE408A9DED480ADDED420A82
:103C200030EE200ADDED4D0A30EE200ADDED470AC8
:103C300030EE600AB0EE408A9DED4C0ADDED430A9D
:103C400030EE200ADDED460A30EE200ADDED490AAD
:103C500030EE600AB0EE409A28EE080A8DED3D0A7B
:103C600029EE090A8DED390A28EE880A8DED3B0A06
:103C700029EE890A8DED3A0A9DED3D1AF0EE001A03
:103C800061EE211A9DED391AB0EE002A42EE011ABA
:103C9000B7EE001A31EE611AF0EE410A9DED3B1AC3
:103CA000F0EE001A61EE211A9DED3A1AB0EE002AEC
:103CB00042EE011AB0EE610A02F024FADFED730A57
:103CC00020EE200A8DED270A9DED270AF0EE000A6E
:103CD00080EE201A8DED271A9DED270ADFED6C0A84
:103CE00020EE200ADFED6B0A80EE201A8DED271AF8
:103CF000279805F0FBF9CDE906019DED060B02F0D2
:103D000089FCF0EE409A9FED640AF0EE408A9FED48
:103D1000620AB0EE408A279805F0E8F9CDE904017F
:103D20009DED040B02F0DEFC8DED060B9DED060B08
:103D300051EC100B04F076FE09EE100A524890ED9B
:103D4000000A20EE290A8DED400A90ED010A20EECE
:103D5000290A8DED410A90ED020A20EE290A8DED27
:103D6000420A90ED030A20EE290A8DED430A90EDF8
:103D7000000A20EE280A8DED440A90ED010A20EE9B
:103D8000280A8DED450A90ED020A20EE280A8DEDF5
:103D9000460A90ED030A20EE280A8DED470A90EDC1
:103DA000000A20EE080A8DED480A90ED010A20EE87
:103DB000080A8DED490A90ED020A20EE080A8DED01
:103DC0004A0A90ED030A20EE080A8DED4B0A90EDA9
:103DD000000A20EE090A8DED4C0A90ED010A20EE52
:103DE000090A8DED4D0A90ED020A20EE090A8DEDCB
:103DF0004E0A90ED030A20EE090A8DED4F0A9DED63
:103E0000400ADDED450A30EE600ADDED4A0A30EE8B
:103E1000600ADDED4F0A30EE600A80ED000A9DED8C
:103E2000440ADDED410A30EE200ADDED4B0A30EEAA
:103E3000200ADDED4E0A30EE600A80ED010A9DEDAC
:103E4000480ADDED420A30EE200ADDED4D0A30EE83
:103E5000200ADDED470A30EE600A80ED020A9DED92
:103E60004C0ADDED430A30EE200ADDED460A30EE65
:103E7000200ADDED490A30EE600A80ED030AD0ED3C
:103E80000C0A0BE0C0000020E8000020333365423C
:103E9000DB0F4940000034430000000090ED0C0AA5
:103EA0003FEE400ABBEE0E1AB4EEC10AF1EE10FA74
:103EB00002D8BBEE0E0A13E0FE4890ED0C0A3FEE6E
:103EC000400AB3EE0E1AB4EEC10AF1EE10FA02DDAA
:103ED000B3EE0E0A04E0F74890ED0C0A3FEE400AFC
:103EE00030EE800AF34880ED0C0AD0ED0D0A90ED1B
:103EF0000D1A9DED630AB1EE400A30EE410ABBEEA9
:103F00000E1AB4EEC10AF1EE10FA02D8BBEE0E0A98
:103F10001BE0E84890ED0D1A9DED630AB1EE400AF2
:103F200030EE410AB3EE0E1AB4EEC10AF1EE10FA09
:103F300002DDB3EE0E0A08E0DE4890ED0D1A9DEDAD
:103F4000630AB1EE400A30EE410A30EE800AD948E9
:103F500080ED0D0A90ED0C0A20EE0A0AB0EE40CA80
:103F600090ED0D0A20EE0A0AF0EE40CAB0EE000A0B
:103F7000CCEE000AB0EE60CAB0EE000ACCEE800AC9
:103F8000F0EE60CA1FED3E0A2CEE000A5FED3F0A1C
:103F900080EE201AB0EE41CA1FED430A2CEE800AD3
:103FA0005FED440A80EE201AF0EE41CA1CEE100AC2
:103FB00005F09CF8CDE906019DED060B02F02AFB09
:103FC000F0EE40FA1CEE900A05F090F8CDE90601FB
:103FD0009DED060B02F01EFB2FEE800A8DED400AD0
:103FE0001CEE900A05F082F8CDE900019DED000B72
:103FF00002F078FB8DED040B1CEE100A05F076F84C
:10400000CDE900019DED000B02F004FB10EE106AFB
:10401000304605F06BF8CDE902019DED040B53EC41
:10402000102B9DED020B51EC100B04F035FECDE989
:1040300006019DED060B51EC100B04F0F3FC4190D2
:104040001FED6B0A8DED420A1FED6D0A8DED430ADF
:104050001FED6F0A8DED440A1FED710A8DED450AC3
:104060001FED730A8DED460A1FED750A8DED470AA7
:104070001CEE900A05F03AF8CDE900019DED000B29
:1040800002F0C8FA10EE106A304605F02FF8CDE9BC
:1040900004011CEE100A05F029F8CDE900019DEDA0
:1040A000000B02F01FFB8DED020B9DED040B53EC9A
:1040B000102B9DED020B51EC100B04F0EDFDCDE942
:1040C00006019DED060B51EC100B04F0ABFC489083
:1040D0001CEE900A05F00AF8CDE900019DED000BF9
:1040E00002F000FB8DED040B1CEE100A04F0FEFF45
:1040F000CDE900019DED000B02F0F4FA8DED020B0D
:104100009DED040B53EC102B9DED020B51EC100BAD
:1041100004F0C2FDCDE906019DED060B51EC100B3C
:1041200004F080FC40A948621FEDA50A8DED4A0A03
:104130001FEDA70A8DED4B0A1FEDA90A8DED4C0A64
:104140001FEDAB0A8DED4D0A1FEDAD0A8DED4E0A48
:104150001FEDAF0A8DED4F0A9DED400ADDED450ADA
:1041600030EE600ADDED4A0A30EE600ADDED4F0AFE
:1041700030EE600AF0EE409A9DED440ADDED410A12
:1041800030EE200ADDED4B0A30EE200ADDED4E0A5E
:1041900030EE600AF0EE408A9DED480ADDED420AFD
:1041A00030EE200ADDED4D0A30EE200ADDED470A43
:1041B00030EE600AB0EE408A9DED4C0ADDED430A18
:1041C00030EE200ADDED460A30EE200ADDED490A28
:1041D00030EE600AB0EE409A28EEA80A8DED3E0A55
:1041E00028EE080A8DED3D0A69EEA80ACDED3F0ADA
:1041F00069EE88AA28EE89BA28EE090A8DED3C0AF4
:104200003BEE2A0AF0EE000A20EE200A8DED2F0A7E
:104210009DED3C0ADDED3F0A30EE200AF0EE000A8B
:1042200020EE200A8DED300A9DED3E0AF0EE000AE8
:1042300060EE200A9DED3D0AB0EE001A41EE000A44
:10424000B7EE000A30EE600A8DED310A002427E057
:104250009DED2F0A04EB44011BA800EB8100D0ED7B
:10426000000A20EE200ADDED300A04EB44011BA811
:1042700000EB810090ED011A00EE810ADDED310ABC
:1042800004EB44011BA800EB810090ED021A00EE44
:10429000810A32A800EB840080ED000A601CC4B2E1
:1042A000032CD5DB9DED1D0A8DED350A9DED200A11
:1042B00002E00000E80000208DED360A9DED230AA3
:1042C0008DED370A9DED360ADDED340A20EE200A29
:1042D000DDED370A9DED331A00EEC10A8DED2C0A93
:1042E0009DED370ADDED320A20EE200ADDED350ABC
:1042F0009DED341A00EEC10A8DED2D0A9DED350AB3
:10430000DDED330A20EE200ADDED360A9DED321A8E
:1043100000EEC10A8DED2E0ADDED2C0A60EEA00A3A
:104320009DED2D1ADDED2D1A41EE210A9DED2E1A7F
:10433000DDED2E1A41EE210AB0EE600A02F016FA07
:104340008DED2B0ADDED2C0A9DED2B0A20EE800A67
:104350008DED2C0ADDED2D0A9DED2B0A20EE800A55
:104360008DED2D0ADDED2E0A9DED2B0A20EE800A43
:104370008DED2E0A9DED350ADDED320A30EE200A74
:104380008DED350A9DED360ADDED330A30EE200A5B
:104390008DED360A9DED370ADDED340A30EE200A48
:1043A0008DED370A9DED350AF0EE000A80EE201AF9
:1043B0008DED351A9DED360AF0EE000A80EE201ADA
:1043C0008DED361A9DED370AF0EE000A80EE201AC8
:1043D0008DED371ADDED350A60EEA00A9DED361A37
:1043E000DDED361A41EE210A9DED371ADDED371A63
:1043F00041EE210AB0EE600A02F0AEF98DED2A0A14
:10440000DDED320A60EEA00A9DED331ADDED331AC0
:1044100041EE210A9DED341ADDED341A41EE210AF8
:10442000B0EE600A02F098F98DED290A9DED370A89
:10443000DDED340A20EE201A9DED2A0ADDED290A71
:1044400020EE200AC1EE000A9DED350A9DED321ADC
:1044500020EE010A9DED361ADDED331A01EE210A38
:1044600070EE80BAF7EE000A4BEEEB0AB0EE600A8F
:1044700002F072F98DED280AF0EE6B9ADDED2C0A50
:104480009DED280A20EE800AF0EE408ADDED2D0A2F
:104490009DED280A20EE800AB0EE408ADDED2E0A5E
:1044A0009DED280A20EE800AB0EE409AFE4890ED7D
:1044B000000A20EE290A8DED400A90ED010A20EE57
:1044C000290A8DED410A90ED020A20EE290A8DEDB0
:1044D000420A90ED030A20EE290A8DED430A90ED81
:1044E000000A20EE280A8DED440A90ED010A20EE24
:1044F000280A8DED450A90ED020A20EE280A8DED7E
:10450000460A90ED030A20EE280A8DED470A90ED49
:10451000000A20EE080A8DED480A90ED010A20EE0F
:10452000080A8DED490A90ED020A20EE080A8DED89
:104530004A0A90ED030A20EE080A8DED4B0A90ED31
:10454000000A20EE090A8DED4C0A90ED010A20EEDA
:10455000090A8DED4D0A90ED020A20EE090A8DED53
:104560004E0A90ED030A20EE090A8DED4F0A9DEDEB
:10457000400ADDED450A30EE600ADDED4A0A30EE14
:10458000600ADDED4F0A30EE600A80ED000A9DED15
:10459000440ADDED410A30EE200ADDED4B0A30EE33
:1045A000200ADDED4E0A30EE600A80ED010A9DED35
:1045B000480ADDED420A30EE200ADDED4D0A30EE0C
:1045C000200ADDED470A30EE600A80ED020A9DED1B
:1045D0004C0ADDED430A30EE200ADDED460A30EEEE
:1045E000200ADDED490A30EE600A80ED030A9DEDF8
:1045F000260AB1EE400ADFEDAD0A20EE200ADFED1B
:10460000AC0A80EE201A11EE106A304604F06EFDFE
:10461000CDE906019DED060B01F0FCFFF0EE409A9E
:104620009FEDA40AF0EE408A9FEDA20AB0EE408A08
:104630009DED260AF1EE400A9FED9C0A20EE800ACD
:10464000DFED9B0A80EE201A11EE106A304604F06E
:104650004DFDCDE904019DED040B02F043F88DED15
:10466000060B9DED060B51EC100B04F0DBF909EE87
:10467000100A8D4890ED000A20EE290A8DED400ABF
:1046800090ED010A20EE290A8DED410A90ED020A13
:1046900020EE290A8DED420A90ED030A20EE290A48
:1046A0008DED430A90ED000A20EE280A8DED440AB4
:1046B00090ED010A20EE280A8DED450A90ED020AE0
:1046C00020EE280A8DED460A90ED030A20EE280A16
:1046D0008DED470A90ED000A20EE080A8DED480A9C
:1046E00090ED010A20EE080A8DED490A90ED020ACC
:1046F00020EE080A8DED4A0A90ED030A20EE080A22
:104700008DED4B0A90ED000A20EE090A8DED4C0A62
:1047100090ED010A20EE090A8DED4D0A90ED020A96
:1047200020EE090A8DED4E0A90ED030A20EE090AEB
:104730008DED4F0A9DED400ADDED450A30EE600A31
:10474000DDED4A0A30EE600ADDED4F0A30EE60DA48
:104750009DED440ADDED410A30EE200ADDED4B0A05
:1047600030EE200ADDED4E0A70EE60DA9DED480A6B
:10477000DDED420A30EE200ADDED4D0A30EE200A72
:10478000DDED470A30EE60EA9DED4C0ADDED430AAF
:1047900030EE200ADDED460A30EE200ADDED490A52
:1047A00070EE60EA9DED080A20EE290A8DED400AC0
:1047B0009DED090A20EE290A8DED410A9DED0A0AB8
:1047C00020EE290A8DED420A9DED0B0A20EE290A02
:1047D0008DED430A9DED080A20EE280A8DED440A6E
:1047E0009DED090A20EE280A8DED450A9DED0A0A85
:1047F00020EE280A8DED460A9DED0B0A20EE280AD0
:104800008DED470A9DED080A20EE080A8DED480A55
:104810009DED090A20EE080A8DED490A9DED0A0A70
:1048200020EE080A8DED4A0A9DED0B0A20EE080ADB
:104830008DED4B0A9DED080A20EE090A8DED4C0A1C
:104840009DED090A20EE090A8DED4D0A9DED0A0A3B
:1048500020EE090A8DED4E0A9DED0B0A20EE090AA5
:104860008DED4F0A9DED400ADDED450A30EE600A00
:10487000DDED4A0A30EE600ADDED4F0A30EE600AE7
:104880008DED080A9DED440ADDED410A30EE200A67
:10489000DDED4B0A30EE200ADDED4E0A30EE600A07
:1048A0008DED090A08E00000E8000020DB0F494018
:1048B0000000B443000000009DED480ADDED420A0F
:1048C00030EE200ADDED4D0A30EE200ADDED470A1C
:1048D00030EE600A8DED0A0A9DED4C0ADDED430ACB
:1048E00030EE200ADDED460A30EE200ADDED490A01
:1048F00030EE600A8DED0B0A9DED090AB1EE400A1B
:104900008DED090A9DED0A0AB1EE400A8DED0A0A05
:104910009DED0B0AB1EE400A8DED0B0A9DED080AE4
:1049200020EE0D0A8DED400A9DED090A20EE0D0ADC
:104930008DED410A9DED0A0A20EE0D0A8DED420A29
:104940009DED0B0A20EE0D0A8DED430A9DED080A40
:1049500020EE2D0A8DED440A9DED090A20EE2D0A68
:104960008DED450A9DED0A0A20EE2D0A8DED460AD1
:104970009DED0B0A20EE2D0A8DED470A9DED080AEC
:1049800020EE0E0A8DED480A9DED090A20EE0E0A72
:104990008DED490A9DED0A0A20EE0E0A8DED4A0AB8
:1049A0009DED0B0A20EE0E0A8DED4B0A9DED080AD7
:1049B00020EE2E0A8DED4C0A9DED090A20EE2E0AFE
:1049C0008DED4D0A9DED0A0A20EE2E0A8DED4E0A60
:1049D0009DED0B0A20EE2E0A8DED4F0A9DED400A4B
:1049E000DDED450A30EE600ADDED4A0A30EE600A80
:1049F000DDED4F0A30EE600A80ED040A9DED440AB9
:104A0000DDED410A30EE200ADDED4B0A30EE200AE2
:104A1000DDED4E0A30EE600A80ED050A9DED480A94
:104A2000DDED420A30EE200ADDED4D0A30EE200ABF
:104A3000DDED470A30EE600A80ED060A9DED4C0A76
:104A4000DDED430A30EE200ADDED460A30EE200AA5
:104A5000DDED490A30EE600A80ED070A90ED040AA8
:104A6000D0ED050A20EE200A8DED3F0A90ED040AF4
:104A7000D0ED060A20EE200AF0EE40AA90ED050ADD
:104A800020EE000A8DED3E0A90ED050AD0ED070AF2
:104A900020EE200AB0EE40BA90ED060A20EE000AA1
:104AA0008DED3D0A90ED060AD0ED070A20EE200AB2
:104AB0008DED3C0AB0EE000A6BEE000AB0EE000A83
:104AC00040EE6A0AB0EE000A2BEE000AB0EE001AC1
:104AD00001EE6A0AB7EE001A00EEC01AB5EEC01A6F
:104AE000F1EE10FA02D81FED8D0A31E0B0EE000AA7
:104AF0006BEE000AB0EE000A40EE6A0AB0EE000A61
:104B00002BEE000AB0EE001A01EE6A0AB7EE001AA8
:104B100000EEC01AB7EE000AB4EEC01AF1EE10FAB9
:104B200002DDB7EE000A13E0B0EE000A6BEE000AF9
:104B3000B0EE000A40EE6A0AB0EE000A2BEE001A50
:104B4000B0EE000A00EE6A1AB7EE000A00EEC10AE3
:104B50008DED380A9DED3E1AF0EE001A61EE211A35
:104B60009DED3D1AB0EE002A42EE011AB7EE001A92
:104B700031EE611AF0EE410A9DED3C1AF0EE001A9A
:104B800061EE211A9DED3F1AB0EE002A42EE011AA5
:104B9000B0EE610A01F0B6FADFEDD20A20EE200A8B
:104BA000D14880ED0E0A9DED380A01F0D5FDF0EEFA
:104BB00040FAF0EE000A6BEE200AB0EE001A41EE69
:104BC0006A0AB0EE600AF0EE6F0A01F09BFAB1EEED
:104BD000400ADFEDC40A20EE200AC34880ED0F0A28
:104BE000D0ED0E0AC148B0F92200404200EE100A92
:104BF000B8EEC00A20EE0A0AF4EEC00AF1EE10FA8E
:104C00000AD8BA48B0F92200404200EE100AB8EEC5
:104C1000C00A20EE0A0A1DE0B348D0ED0E0AB348E0
:104C2000B0F9220000EE100AB8EEC00A20EE0A0A1F
:104C3000F4EEC00AF1EE10FA09DDAC48B0F922003A
:104C400000EE100AB8EEC00A20EE0A0A02E0A648FA
:104C500090ED0E0AA44880ED0E0AD0ED0F0AA3488D
:104C6000B0F92000404200EE100AB8EEC00A20EE73
:104C70000A0AF4EEC00AF1EE10FA0AD89B48B0F91D
:104C80002000404200EE100AB8EEC00A20EE0A0AE8
:104C90001DE09548D0ED0F0A9448B0F9200000EED1
:104CA000100AB8EEC00A20EE0A0AF4EEC00AF1EECD
:104CB00010FA09DD8D48B0F9200000EE100AB8EEB8
:104CC000C00A20EE0A0A02E0874890ED0F0A8648E3
:104CD00080ED0F0A90ED0F0AF0EE400A2A46DFED54
:104CE000841A844984489FED851AB0EE4A0A01F07F
:104CF00065FD7D4890ED0E0AF0EE400A2A46DFED94
:104D00007C1A7F497F489FED7D1AB0EE4A0A01F078
:104D100055FD784890ED030ADFED7B0AB4EEE00A1A
:104D2000F1EE10FA02D89FED780A0FE0714890ED8D
:104D3000030ADFED760AB4EEE00AF1EE10FA02DDC6
:104D40009FED720A02E06B4890ED030A694880ED1E
:104D5000030A6B4890ED030ADFED6B0AB4EEE00A3C
:104D6000F1EE10FA02D89FED680A0FE0644890ED6A
:104D7000030ADFED660AB4EEE00AF1EE10FA02DD96
:104D80009FED620A02E05E4890ED030A5C4880ED08
:104D9000030A584890ED030ADFED5D0A20EE200A71
:104DA00080ED030A564890ED030ADFED590A20EE24
:104DB000200A80ED030A9DED0D0AB0EE401A4D4821
:104DC00090ED030AF0EE400A2A46F7EE001A514928
:104DD0005148B0EE4A0A01F0F1FC9DED0C0AB0EE2C
:104DE000401A474890ED030AF0EE400A2A46F7EED3
:104DF000001A4A494A48B0EE4A0A01F0DFFC454829
:104E000090ED030ADFED470A60EE200A3748B0F95B
:104E1000160000EE100AB8EEC00A20EE800ADFEDA0
:104E2000420A80EE201A3B4880ED031A3B4890ED81
:104E3000030ADFED3C0A60EE200A2C48B0F91800A6
:104E400000EE100AB8EEC00A20EE800ADFED360A46
:104E500080EE201A314880ED031A2E4890ED030AA7
:104E6000DFED290AB4EEE00AF1EE10FA02D89FED68
:104E7000260A0FE0274890ED030ADFED240AB4EE7E
:104E8000E00AF1EE10FA02DD9FED200A02E021486F
:104E900090ED030A1F4880ED030A204890ED030AB5
:104EA000DFED190AB4EEE00AF1EE10FA02D89FED38
:104EB000160A0FE0194890ED030ADFED140AB4EE6C
:104EC000E00AF1EE10FA02DD9FED100A02E013484D
:104ED00090ED030A114880ED030A51B0BDEC108B30
:104EE00005B070BD33336542E8000020BE050020E8
:104EF00000004843EC0700205001002000000000A3
:104F000010080020640100200000FAC30000FA43EA
:104F10005D8A2B3CA407002028010020C807002040
:104F20003C0100203333E5420000484221B10288B1
:104F300042F04002028004E002884FF6BF731A403C
:104F40000280704710B504462448844208D10121EC
:104F50008014FEF701FB0021A014FEF7FDFA3CE0EF
:104F60001F48844208D101210014FEF7D5FA002120
:104F70002014FEF7D1FA30E01A48844208D101210A
:104F8000C013FEF7C9FA0021E013FEF7C5FA24E0CA
:104F90001548844208D101214014FEF7DDFA0021B2
:104FA0006014FEF7D9FA18E01048844209D10121B3
:104FB0000805FEF7D1FA00214FF48010FEF7CCFA75
:104FC0000BE00B48844208D101214805FEF7C4FAE2
:104FD00000214FF40010FEF7BFFA10BD0030014071
:104FE00000380040003C00400034014000500140C7
:104FF000005401400246002013890B400BB10120F0
:1050000000E0002070470146888970478181704721
:1050100010B50022028802F441520B884C882343C9
:105020008C882343CC8823430C8923434C89234316
:105030008C892343CC8923431A430280838B4FF20C
:10504000FF74234083830B8A038210BD0CB50020BC
:10505000019000903448006840F480303249086084
:1050600000BF3148006800F4003000900198401CF7
:105070000190009818B90198B0F5A04FF1D12A48D5
:10508000006800F4003010B10120009001E0002021
:1050900000900098012846D123484030006840F035
:1050A00080502149403108602048006840F4404069
:1050B0001E4908601C48083000681B490831086018
:1050C0000846006840F4004008600846006840F464
:1050D000A05008601648091F0860081F006840F0CB
:1050E0008070091F086000BF0F48006800F0007062
:1050F0000028F9D040F205700E4908600A480830CF
:10510000006820F00300084908310860084600687C
:1051100040F00200086000BF03480830006800F05B
:105120000C000828F8D10CBD003802400070004087
:1051300008544007003C024070B52DED028B044638
:105140003748B0F9320000EE900AF8EEE00AB0EE0F
:10515000600AB3EE041ADFED330A01F0A7FA9FEDFF
:10516000321AC0EE010A3148B0F9200000EE100AF0
:10517000B8EEC00A20EE800AB0EE408A2848B0F9A6
:10518000340000EE900AF8EEE00AB0EE600AB3EEEA
:10519000041ADFED240A01F089FA9FED231AC0EE0C
:1051A000010A2248B0F9220000EE100AB8EEC00A47
:1051B00020EE800AF0EE408A1D494878B0EE681A69
:1051C000F0EE480A9FED1B0AFEF74EFC1A4890EDE0
:1051D000030ABDEEC00A10EE100A00B2144948805E
:1051E000164890ED030ABDEEC00A10EE100A01B297
:1051F0000F4881800A48C18E0D48C1800848018F40
:105200000B4801810546B5F90830B5F90620B5F916
:105210000410B5F90200FCF741F8BDEC028B70BD3B
:1052200024070020000000000000FA43BE05002013
:10523000340800200AD7A33CA4070020C807002098
:1052400070B52DED028B04462F48B0F9320000EE08
:10525000100AB8EEC00A9FED2D1AC0EE010A2C48C4
:10526000B0F91C0000EE100AB8EEC00A20EE800A69
:10527000B0EE408A2448B0F9340000EE100AB8EECF
:10528000C00A9FED221AC0EE010A2148B0F91E00A3
:1052900000EE100AB8EEC00A20EE800AF0EE408A56
:1052A0001C494878B0EE681AF0EE480A9FED1A0AD9
:1052B000FBF7F4F9194890ED030ABDEEC00A10EEB1
:1052C000100A00B213494880154890ED030ABDEE5C
:1052D000C00A10EE100A01B20E4881800A48C18E41
:1052E0000C48C1800848018F0A4801810546B5F97C
:1052F0000830B5F90620B5F90410B5F90200FBF73E
:10530000CDFFBDEC028B70BD240700200000FA43E6
:10531000BE050020340800200AD7A33CA4070020C3
:10532000C8070020042808D14FF0E021096941F0A6
:1053300004014FF0E022116107E04FF0E02109691C
:1053400021F004014FF0E0221161704710B50548CB
:105350000068401C034908600348007808B102F067
:1053600085FC10BDC4010020C801002010B51548FF
:10537000006840F47000134908601348006840F06A
:1053800001001149086000200F49083108600E48EB
:1053900000680E4908400C4908600D48091D086066
:1053A000081F006820F48020091F086000200649BB
:1053B0000C310860FFF74AFE4FF000600149803968
:1053C000086010BD88ED00E000380240FFFFF6FEE7
:1053D0001030002430B593B005460024AB2221469E
:1053E000641C03A8425411222146641C4254FF222B
:1053F0002146641C4254E048425D2146641C03A8D7
:105400004254052D2FD2DFE805F0032F7DF5F4007F
:1054100003222046611CCCB203A90A540022204674
:10542000611CCCB203A90A5401222046611CCCB2F3
:1054300003A90A54172002909DF808202046611CF9
:10544000CCB203A90A549DF809202046611CCCB2B5
:1054500003A90A54214603A8FDF75CFDA01CC1B2B4
:1054600003A8FCF759FA83E106222046611CCCB25E
:1054700003A90A5400222046611CCCB203A90A5495
:10548000BE48408901909DF804202046611CCCB2A2
:1054900003A90A549DF805202046611CCCB203A93B
:1054A0000A54B748BDF8041030F9110000EE100A94
:1054B000B8EEC00A8DED000A9DF800202046611C60
:1054C000CCB203A90A549DF801202046611CCCB23D
:1054D00003A90A549DF802202046611CCCB203A9FE
:1054E0000A549DF803202046611CCCB203A90A543B
:1054F000214603A8FDF70EFDA01CC1B203A8FCF7CE
:105500000BFA35E132222046611CCCB203A90A54C1
:1055100000222046611CCCB203A90A549748008A95
:1055200001909DF804202046611CCCB203A90A54C6
:105530009DF805202046611CCCB203A90A54BDF891
:10554000040000EB400101EBC0008E4901EB80003C
:10555000B0F9020000EE100AB8EEC00A8DED000AA4
:105560009DF800202046611CCCB203A90A549DF886
:1055700001202046611CCCB203A90A549DF80220E8
:105580002046611CCCB203A90A549DF80320204692
:10559000611CCCB203A90A54BDF8040000EB400121
:1055A00001EBC000774931F9200000EE100AB8EE97
:1055B000C00A8DED000A9DF800202046611CCCB287
:1055C00003A90A549DF801202046611CCCB203A90E
:1055D0000A549DF802202046611CCCB203A90A544B
:1055E0009DF803202046611CCCB203A90A54002078
:1055F00013E090E033E0BDF8041001EB410202EB50
:10560000C101604A02EB8101091D0B5C2146621C4D
:10561000D4B203AA5354411CC8B21428EBDB0020B7
:1056200011E0BDF8041001EB410202EBC101554A43
:1056300002EB810118310B5C2146621CD4B203AA33
:105640005354411CC8B21428EBDB214603A8FDF7D4
:1056500061FCA01CC1B203A8FCF75EF988E0092236
:105660002046611CCCB203A90A5400222146601CCA
:10567000C4B203A8425411222046611CCCB203A933
:105680000A54002002909DF808202046611CCCB2EC
:1056900003A90A549DF809202046611CCCB203A935
:1056A0000A54002002909DF808202046611CCCB2CC
:1056B00003A90A549DF809202046611CCCB203A915
:1056C0000A54002002909DF808202046611CCCB2AC
:1056D00003A90A549DF809202046611CCCB203A9F5
:1056E0000A54002002909DF808202046611CCCB28C
:1056F00003A90A549DF809202046611CCCB203A9D5
:105700000A54214603A8FDF705FCA01CC1B203A85A
:10571000FCF702F92CE003222146601CC4B203A866
:10572000425400222146601CC4B203A84254E12224
:105730002046611CCCB203A90A541048808B01900A
:105740009DF804202046611CCCB203A90A549DF8A0
:1057500005202046611CCCB203A90A54214603A8A7
:10576000FDF7D8FBA01CC1B203A8FCF7D5F800BF19
:1057700000BF13B030BD0000850100206808002084
:10578000BE050020CA01002070B50E4800F039F8AF
:1057900004460D480068A04206D94FF6FF70204429
:1057A00009490968451A02E007480068251A0648B1
:1057B00004602846FDF788FF0221024800F012F835
:1057C00070BD000000000140E000002021B102880F
:1057D00042F08002028004E002884FF67F731A4094
:1057E00002807047CA430282704721B1028842F0AA
:1057F0000102028004E002884FF6FE731A40028024
:1058000070470146486B704770B5002400220023A2
:10581000058C4FF6FE7635400584028C8388048B18
:105820004FF68F752C40B51E2C400D882C43751EED
:105830002A408D892A434D882A43104DA84202D020
:105840000F4DA84213D14FF6F7752A40CD892A4350
:105850004FF6FB752A408D882A434FF6FF652B4093
:105860004FF6FF552B400D8A2B434D8A2B438380E7
:1058700004838D684563028470BD00000000014010
:10588000000401400A460021018B4FF6F7731940CE
:10589000114301837047000070B5002400220023EB
:1058A000058C4FF6EF7635400584028C8388048B97
:1058B00048F6FF752C404FF6FF452C400D884FF6FB
:1058C000FF7606EA05252C434FF6DF752A408D89C1
:1058D00006EA05152A434D8806EA05152A43154DA3
:1058E000A84202D0144DA8421DD14FF67F752A4020
:1058F000CD894FF6FF7606EA05152A434FF6BF75A8
:105900002A408D8806EA05152A434FF6FF352B40BD
:105910004FF2FF752B400D8A06EA85052B434D8A11
:1059200006EA85052B43838004838D6885630284A2
:1059300070BD000000000140000401400A46002143
:10594000018B4FF2FF7319404FF6FF7303EA0223F6
:10595000194301837047000070B500240022002322
:10596000058C4FF6FF6635400584028C8388848B56
:105970004FF68F752C404FF6FC752C400D882C434C
:105980004FF6FF552A408D894FF6FF7606EA05252A
:105990002A434D8806EA05252A43154DA84202D020
:1059A000144DA8421DD14FF2FF752A40CD894FF604
:1059B000FF7606EA05252A434FF6FF352A408D88F3
:1059C00006EA05252A434EF6FF752B404DF6FF7576
:1059D0002B400D8A06EA05152B434D8A06EA05156C
:1059E0002B43838084838D68C563028470BD00006F
:1059F00000000140000401400A460021818B4FF65F
:105A0000F7731940114381837047000070B500227D
:105A100000230024058C4EF6FF7635400584038C68
:105A20008488828B48F6FF752A404FF6FF452A404E
:105A30000D884FF6FF7606EA05252A434DF6FF75D9
:105A40002B408D8906EA05352B434D8806EA05353E
:105A50002B430A4DA84202D0094DA84208D14BF66B
:105A6000FF752C400D8A4FF6FF7606EA85152C430C
:105A7000848082838D680564038470BD00000140CA
:105A8000000401400A460021818B4FF2FF73194048
:105A90004FF6FF7303EA0223194381837047002105
:105AA00001804180818081608181C1810182418248
:105AB00070474163704781637047C16370470164F9
:105AC0007047000000220288184B98420ED0184BF5
:105AD00098420BD0B0F1804F08D0164B984205D0B9
