:020000040800F2
:10000000A0AB002029030008053C0008072B0008CE
:10001000013C0008190A00083B6E000800000000BF
:10002000000000000000000000000000690200085D
:10003000A528000800000000C5020008256000088F
:100040004303000843030008430300084303000878
:100050004303000843030008430300084303000868
:100060004303000843030008430300084303000858
:100070004303000843030008430300084303000848
:100080004303000843030008430300084303000838
:100090004303000843030008430300084303000828
:1000A0004303000843030008430300088167000876
:1000B0004303000843030008430300084303000808
:1000C00043030008430300084303000843030008F8
:1000D00043030008816B000843030008F16B00082C
:1000E00043030008430300084303000843030008D8
:1000F00043030008430300084303000843030008C8
:1001000043030008430300084303000843030008B7
:1001100043030008556B000843030008430300082D
:100120004303000843030008430300084303000897
:100130004303000843030008430300084303000887
:100140004303000843030008430300084303000877
:100150004303000843030008430300084303000867
:100160004303000843030008430300084303000857
:100170004303000843030008430300084303000847
:10018000430300084303000800F002F800F05CF8A5
:100190000AA090E8000C82448344AAF10107DA45E2
:1001A00001D100F051F8AFF2090EBAE80F0013F0D8
:1001B000010F18BFFB1A43F00103184734A40000D5
:1001C00054A400000A444FF0000C10F8013B13F057
:1001D000070408BF10F8014B1D1108BF10F8015BA0
:1001E000641E05D010F8016B641E01F8016BF9D193
:1001F00013F0080F1EBF10F8014BAD1C0C1B09D1EA
:100200006D1E58BF01F801CBFAD505E014F8016B5B
:1002100001F8016B6D1EF9D59142D6D370470000ED
:100220000023002400250026103A28BF78C1FBD8FF
:10023000520728BF30C148BF0B6070471FB509F097
:10024000CAFF1FBD10B510BD00F0F6F91146FFF74B
:10025000F5FF07F0EFF800F014FA03B4FFF7F2FF30
:1002600003BC06F0ECFD00002C4B19680868B0E8F0
:10027000F04F80F30988BFF36F8F4FF0000080F3D9
:10028000118870470000000008480068006880F38B
:1002900008884FF0000080F3148862B661B6BFF39F
:1002A0004F8FBFF36F8F00DF00BF00BF08ED00E08E
:1002B000DFF80C00016841F470010160704700BF75
:1002C00088ED00E0EFF30980BFF36F8F134B1A68DE
:1002D0001EF0100F08BF20ED108A20E9F04F1060CB
:1002E00009B44FF0500080F31188BFF34F8FBFF374
:1002F0006F8F08F0C5FB4FF0000080F3118809BC38
:1003000019680868B0E8F04F1EF0100F08BFB0EC95
:10031000108A80F30988BFF36F8F70479006002022
:10032000EFF30580704700000948804709480047FF
:10033000FEE7FEE7FEE7FEE7FEE7FEE7FEE7FEE795
:10034000FEE7FEE704480549054A064B70470000F2
:100350004560000889010008A0890020A0AB0020AA
:10036000A08B0020A08B0020704710B54C1084EAB1
:10037000530404D54042C1F1000138BF491E1B425D
:1003800004D55242C3F1000338BF5B1E00F089F868
:1003900014F0804F04D04042C1F1000138BF491E23
:1003A00014F0004F04D05242C3F1000338BF5B1E6B
:1003B00010BD032A40F2308010F0030C00F01580CD
:1003C00011F8013BBCF1020F624498BF11F801CB58
:1003D00000F8013B38BF11F8013BA2F1040298BFBD
:1003E00000F801CB38BF00F8013B11F0030300F027
:1003F000CF80083AC0F0088051F8043B083A51F821
:1004000004CBA0E80810F5E7121D5CBF51F8043BCF
:1004100040F8043BAFF30080D20724BF11F8013B42
:1004200011F801CB48BF11F8012B24BF00F8013BA4
:1004300000F801CB48BF00F8012B704702F0FF0322
:1004400043EA032242EA024200F0D6B84FF000022B
:1004500000B5134694469646203922BFA0E80C50BA
:10046000A0E80C50B1F12001BFF4F7AF090728BF95
:10047000A0E80C5048BF0CC05DF804EB890028BF11
:1004800040F8042B08BF704748BF20F8022B11F03A
:10049000804F18BF00F8012B7047704770477047B6
:1004A000704753EA020C00F069802DE9F04B4FF0E1
:1004B0000006002B1FBFB3FA83F503FA05F424FAF4
:1004C00005F65E4012BF1643B2FA82F502FA05F451
:1004D000C5F120051EBF22FA05FC44EA0C042035B4
:1004E00056EA044C4FEA144418BF641C4FF000084D
:1004F0004FF00009904271EB030C39D3002919BF6A
:10050000B1FA81F701FA07F6B0FA80F700FA07F6B8
:10051000C7F120071EBF20FA07FC46EA0C06203769
:10052000B6FBF4FCA7EB0507103F07F01F0BCBF160
:1005300020060CFA0BFB2CFA06F644BFB346002645
:10054000202FA4BF5E464FF0000B5BEA060C08BFED
:100550004FF0010B19EB0B09ABFB027C48EB0608D3
:10056000C01B06FB02CC0BFB03CC71EB0C01C1E7FB
:100570000B46024641464846BDE8F08B13B54FF0A6
:1005800000004FF00001AFF30080BDE81C40704751
:1005900010B5203AC0F00B80B1E81850203AA0E81E
:1005A0001850B1E81850A0E81850BFF4F5AF5FEA52
:1005B000027C24BFB1E81850A0E8185044BF18C905
:1005C00018C0BDE810405FEA827C24BF51F8043BAC
:1005D00040F8043B08BF7047D20728BF31F8023B00
:1005E00048BF11F8012B28BF20F8023B48BF00F894
:1005F000012B70474FF000020429C0F0128010F068
:10060000030C3FF425AFCCF1040CBCF1020F18BF72
:1006100000F8012BA8BF20F8022BA1EB0C01FFF77B
:1006200017BF5FEAC17C24BF00F8012B00F8012B43
:1006300048BF00F8012B7047754600F02BF8AE4616
:1006400005006946534620F00700854618B020B5DE
:10065000FFF778FEBDE820404FF000064FF000079E
:100660004FF000084FF0000B21F00701AC46ACE85A
:10067000C009ACE8C009ACE8C009ACE8C0098D46C7
:10068000704710B50446AFF300802046BDE8104027
:10069000FFF7E3BD004870473C89002010B52DED01
:1006A000048BA0B0F0EE408AB0EE609AB0EE418AC2
:1006B0000446002201A98548006808F083FC9DEDEE
:1006C0001E0AB0EE401A2246DFED811A81498248A7
:1006D000F0EE490AB0EE680A07F074F89DED1D0AC5
:1006E000B0EE401A2246DFED7A1A7C497C48F0EEE3
:1006F000480AB0EE680A07F065F8764890ED030AFC
:10070000DFED780AB4EEE00AF1EE10FA02D89FEDC0
:10071000750A0FE06F4890ED030ADFED730AB4EE3F
:10072000E00AF1EE10FA02DD9FED6F0A02E069487F
:1007300090ED030A674880ED030A684890ED030ACC
:10074000DFED680AB4EEE00AF1EE10FA02D89FED90
:10075000650A0FE0614890ED030ADFED630AB4EE2D
:10076000E00AF1EE10FA02DD9FED5F0A02E05B485D
:1007700090ED030A594880ED030A564890ED030AAC
:10078000DFED5A0A20EE200A80ED030A534890ED6F
:10079000030ADFED560A20EE200A80ED030A9DEDE4
:1007A000060AB0EE401A4B4890ED030AF0EE400AFC
:1007B0002246F7EE001A4E494E48B0EE680A07F09E
:1007C00001F89DED050AB0EE401A444890ED030A89
:1007D000F0EE400A2246F7EE001A47494748B0EECD
:1007E000680A06F0EFFF424890ED030ADFED440A85
:1007F00060EE200A4348B0F9120000EE100AB8EE8D
:10080000C00A20EE800ADFED400A80EE201A384848
:1008100080ED031A384890ED030ADFED390A60EEE7
:10082000200A3848B0F9140000EE100AB8EEC00AE9
:1008300020EE800ADFED340A80EE201A2E4880ED8B
:10084000031A2B4890ED030ADFED260AB4EEE00A06
:10085000F1EE10FA02D89FED230A0FE0244890ED44
:10086000030ADFED210AB4EEE00AF1EE10FA02DD30
:100870009FED1D0A02E01E4890ED030A1C4880ED22
:10088000030A1D4890ED030ADFED160AB4EEE00AF4
:10089000F1EE10FA02D89FED130A0FE0164890ED22
:1008A000030ADFED110AB4EEE00AF1EE10FA02DD00
:1008B0009FED0D0A02E0104890ED030A0E4880ED0E
:1008C000030A20B0BDEC048B10BD0000C000002066
:1008D0000000484378080020500100209C080020B8
:1008E000640100200000FAC30000FA435D8A2B3C3B
:1008F0003008002028010020540800203C0100207E
:100900003333E5424A0600200000484200B59FB05C
:10091000002269463948006808F054FB9FED380A08
:10092000384880ED000A9FED360A80ED020A9FEDFF
:10093000340A80ED030A9FED320A80ED010A9FED33
:10094000300A314880ED000A9FED2D0A80ED020A41
:100950009FED2B0A80ED030A9FED290A80ED010A25
:100960009FED270A294880ED000A9FED250A80EDBA
:10097000020A9FED230A80ED030A9FED210A80ED14
:10098000040A9FED1F0A80ED010A9FED1D0A204811
:1009900080ED000A9FED1A0A80ED020A9FED180A09
:1009A00080ED030A9FED160A80ED040A9FED140AFC
:1009B00080ED010A9DED000A164880ED000A9DEDCC
:1009C000010A80ED010A9DED020A80ED020A9DED0B
:1009D000030A80ED030A9FED0A0A80ED0C0A9FEDE1
:1009E000080A80ED0D0A9FED060A80ED0E0A9FEDC4
:1009F000040A80ED0F0A1FB000BD0000C0000020F7
:100A000000000000780800209C080020300800202A
:100A100054080020E800002000BFFEE72DE9F04167
:100A200005460E46174600F091FCA02000F058FC49
:100A3000384600F055FC00F089FCA12000F050FC85
:100A4000002405E0012000F01DFC2855601CC4B204
:100A5000B442F7DB00F098FCBDE8F08170B50546C4
:100A60000C4600F073FCA02000F03AFC204600F099
:100A700037FC284600F034FC00F086FC70BD2DE900
:100A8000F04105460E461746002409E03A19D1B256
:100A9000285DFFF7E3FF052006F01CFB601CC4B2D5
:100AA000B442F3DBBDE8F08108B56A460121F320CA
:100AB00006F0EAFA9DF8000000F0090000909DF8A9
:100AC000000008B9002008BD0120FCE710B52DED9D
:100AD000028B84B003AA0121F92006F0D5FA02AAFC
:100AE0000121F82006F0D0FA01AA0121F72006F032
:100AF000CBFA9DF8040000039DF8081040EA0110AD
:100B00009DF80C1040EA2114204606F0D5F900EEBD
:100B1000100AB8EE400ADFED060A80EE201AB0EEA9
:100B2000418AB0EE480A04B0BDEC028B10BD000053
:100B3000000080431CB5834A0121D02006F0A4FAAE
:100B400001AA0121882006F09FFA6A460121892026
:100B500006F09AFA9DF804009DF8001000EB0120C1
:100B60007949088001AA01218A2006F08DFA6A4697
:100B700001218B2006F088FA9DF804009DF80010F2
:100B800000EB012000B27049488001AA01218C20AD
:100B900006F07AFA6A4601218D2006F075FA9DF872
:100BA00004009DF8001000EB012000B26649888027
:100BB00001AA01218E2006F067FA6A4601218F20E2
:100BC00006F062FA9DF804009DF8001000EB012089
:100BD0005D49C88001AA0121902006F055FA6A46B5
:100BE0000121912006F050FA9DF804009DF80010B4
:100BF00000EB012000B25449088101AA0121922092
:100C000006F042FA6A460121932006F03DFA9DF86B
:100C100004009DF8001000EB012000B24A49488111
:100C200001AA0121942006F02FFA6A46012195209D
:100C300006F02AFA9DF804009DF8001000EB012050
:100C400000B24149888101AA0121962006F01CFAD0
:100C50006A460121972006F017FA9DF804009DF8D6
:100C6000001000EB012000B23749C88101AA012120
:100C7000982006F009FA6A460121992006F004FA44
:100C80009DF804009DF8001000EB012000B22E49F1
:100C9000088201AA01219A2006F0F6F96A4601218C
:100CA0009B2006F0F1F99DF804009DF8001000EB80
:100CB000012000B22449488201AA01219C2006F0AB
:100CC000E3F96A4601219D2006F0DEF99DF8040053
:100CD0009DF8001000EB012000B21B49888201AA98
:100CE00001219E2006F0D0F96A4601219F2006F0DE
:100CF000CBF99DF804009DF8001000EB012000B234
:100D00001149C8820A2006F0E5F9B621E02006F074
:100D1000CEF90A2006F0DEF95721F42006F0C7F9D3
:100D20000A2006F0D7F91021F52006F0C0F90A20B4
:100D300006F0D0F903480078582801D100201CBDE6
:100D40000120FCE73C020020180D002008B5CC492A
:100D50000968491CCA4A1160CA49C97ECA4A117445
:100D6000C849497F5174C749897F8DF80010C5492A
:100D7000C97F8DF80110C34991F820108DF8021039
:100D8000C04991F821108DF803109DED000AB8EECE
:100D9000C00ADFEDBE0A80EE201A114681ED051A69
:100DA000B84991F822108DF80010B64991F8231037
:100DB0008DF80110B34991F824108DF80210B14953
:100DC00091F825108DF803109DED000AB8EEC00AC9
:100DD000DFEDAE0A80EE201A114681ED061AA94910
:100DE00091F82A108DF80010A64991F82B108DF873
:100DF0000110A44991F82C108DF80210A14991F826
:100E00002D108DF803109DED000AB8EEC00A1146B2
:100E100081ED070A91ED070AF2EE040A80EE201A2E
:100E200081ED071A974991F82E108DF80010954919
:100E300091F82F108DF80110924991F830108DF82B
:100E40000210904991F831108DF803109DED000AC1
:100E5000B8EE400A114681ED080A91ED080AF2EE5B
:100E6000040A80EE201A81ED081A864991F83210A2
:100E70008DF80010834991F833108DF801108149E5
:100E800091F834108DF802107E4991F835108DF8E4
:100E900003109DED000AB8EE400A114681ED090AE3
:100EA00091ED090AF2EE040A80EE201A81ED091A8A
:100EB000744991F836108DF80010724991F8371086
:100EC0008DF801106F4991F838108DF802106D49B6
:100ED00091F839108DF803109DED000AB8EEC00AA4
:100EE000114681ED0A0A91ED0A0AF2EE040A80EE3B
:100EF000201A81ED0A1A634991F83A108DF8001012
:100F0000604991F83B108DF801105E4991F83C1052
:100F10008DF802105B4991F83D108DF803109DED9E
:100F2000000AB8EEC00A114681ED0B0A91ED0B0ADA
:100F3000F2EE040A80EE201A81ED0B1A514991F865
:100F400042108DF800104F4991F843108DF80110B0
:100F50004C4991F844108DF802104A4991F8451017
:100F60008DF803109DED000AB8EEC00A114681ED20
:100F70000C0A91ED0C0AF2EE040A80EE201A81EDC3
:100F80000C1A404991F846108DF800103D4991F82F
:100F900047108DF801103B4991F848108DF8021068
:100FA000384991F849108DF803109DED000AB8EE0C
:100FB000C00ADFED370A80EE201A114681ED0E1AC5
:100FC000304991F84A108DF800102E4991F84B10D5
:100FD0008DF801102B4991F84C108DF80210294919
:100FE00091F84D108DF803109DED000AB8EE400AFF
:100FF000114681ED0D0A91ED0D0AF2EE040A80EE24
:10100000201A81ED0D1A1F4991F84E108DF800102D
:101010001C4991F84F108DF801101A4991F85010A1
:101020008DF80210174991F851108DF803109DEDBD
:10103000000AB8EE400ADFED160A80EE201A1146CB
:1010400081ED0F1A0F4991F852108DF800100D49DB
:1010500091F853108DF8011000218DF802108DF8D1
:101060000310BDF8001000EE101AB8EE400ADFEDD4
:10107000090A80EE201A114681ED101A08BD000001
:1010800044020020300D0020880A00208096184B72
:101090000050C3470000C84230B5044646480078B7
:1010A00070B9B52C08D1444801780078401C424AF8
:1010B0001070424844547DE000203F49087079E0B8
:1010C0003D48007801280ED1622C08D13A480178B9
:1010D0000078401C384A1070384844546AE00020B8
:1010E0003549087066E03448007802280ED1012C9A
:1010F00008D1314801780078401C2F4A10702F48E1
:10110000445457E000202C49087053E02A480078E6
:1011100003280ED1072C08D1274801780078401CFD
:10112000254A10702548445444E0002022490870A4
:1011300040E021480078042810D11F480178007849
:10114000401C1D4A10701D4844541D48047000780E
:1011500064282FDD0020114608702BE01648017826
:1011600017480078C01D81421CD10025022005E0EF
:101170001249095C2944CDB2411CC8B21049097812
:10118000891D8842F4DB0D490D480078801D085CFC
:10119000A84203D10A480078FFF7D8FD002006498D
:1011A000087007E0044801780078401C024A10707B
:1011B0000248445430BD000048020020300D002099
:1011C0004902002010B580210C4801F08FFC00F08E
:1011D0006FFB4FF48071094801F088FC022005F094
:1011E00085FF8021054801F083FC052005F07EFF86
:1011F0008021024801F07AFC10BD00000008024086
:101200001CB50121042002F063FE4FF4C070009071
:1012100001208DF8040003208DF8050000208DF8D2
:10122000060001208DF807006946064801F0EAFB38
:101230008021044801F05CFC4FF48071014801F00A
:1012400057FC1CBD0008024010B580210C4801F07D
:101250004DFC00F02DFB4FF48071094801F048FC73
:10126000022005F043FF8021054801F041FC0520E4
:1012700005F03CFF8021024801F038FC10BD000061
:101280000008024070B50546002400F0F9FA002677
:1012900019E08021114801F029FC022005F026FF09
:1012A00080210E4801F024FC6006040E4FF480718A
:1012B0000A4801F012FC08B1601CC4B2012005F01C
:1012C00015FF701CC6B2082EE3DB15B9FFF7BCFF93
:1012D00001E0FFF777FF204670BD000000080240E4
:1012E00070B5044600F0E4FA8021174801F0FEFBD7
:1012F000002523E004F08000002805DD4FF4807114
:10130000114801F0F5FB04E04FF480710E4801F044
:10131000EDFB6006040E022005F0E8FE80210A487D
:1013200001F0E6FB022005F0E1FE8021064801F015
:10133000DDFB022005F0DAFE681CC5B2082DD9DB02
:1013400000F040F870BD00000008024010B500F049
:10135000AFFA4FF480710B4801F0CAFB80210948B5
:1013600001F0C6FB052005F0C1FE4FF48071054871
:1013700001F0BCFB062005F0B9FE8021014801F018
:10138000B5FB10BD0008024010B500F091FA8021B5
:101390000B4801F0ABFB4FF48071094801F0A6FB4C
:1013A0008021074801F0A4FB062005F09FFE4FF4C2
:1013B0008071034801F09CFB062005F097FE10BDEC
:1013C0000008024010B5002400F05AFA4FF4807172
:1013D000114801F08DFB012005F088FE80210E48A8
:1013E00001F086FB012005F081FE07E0601CC4B21D
:1013F000FA2C03DDFFF7C8FF012010BD4FF4807108
:10140000054801F06AFB0028F0D18021024801F074
:101410006DFB0020F1E700000008024008B58021C4
:101420006B2005F0B0FF0A2005F054FE01216B206F
:1014300005F0A9FF0A2005F04DFE6A46012175203E
:1014400005F08EFF9DF80000122801D0002008BD95
:101450000321682005F097FF0A2005F03BFE0121DB
:101460006A2005F090FF0A2005F034FE402170202C
:1014700005F089FF0A2005F02DFE00216C2005F003
:1014800082FF0A2005F026FE0021192005F07BFFCF
:101490000A2005F01FFE04211A2005F074FF0A201F
:1014A00005F018FE18211B2005F06DFF0A2005F03D
:1014B00011FE10211C2005F066FF0A2005F00AFE2F
:1014C00004211D2005F05FFF0A2005F003FE002126
:1014D0001E2005F058FF0A2005F0FCFD0021232006
:1014E00005F051FF0A2005F0F5FD0021372005F039
:1014F0004AFF0A2005F0EEFD0021382005F043FFE9
:101500000A2005F0E7FD064A0121752005F028FFB5
:1015100003480078122801D1002098E7012096E7BF
:101520003902002010B5044622460E213B2005F06A
:1015300017FF10BD1CB50121042002F0C9FC4FF4B7
:101540000050009001208DF8040003208DF8050064
:1015500000208DF8060001208DF80700694602483A
:1015600001F050FA1CBD00000008024010B504460E
:10157000012C04D14103054801F0B8FA04E04FF40E
:101580000051024801F0B4FA10BD0000000802400A
:1015900000B58BB001A801F0ADFA08A805F0D0FAAB
:1015A00003A805F078FA0121062002F0A1FC012130
:1015B000022002F08DFC4FF47470019002208DF82F
:1015C000080003208DF8090000208DF80A00012092
:1015D0008DF80B0001A94C4801F014FA02220421F5
:1015E000494801F057FA02220621474801F052FA11
:1015F00002220721444801F04DFA02220821424804
:1016000001F048FA022209213F4801F043FA44F66A
:10161000206009905320ADF820000020ADF828008C
:10162000ADF8220008A9394805F048FA44F62060D0
:1016300009905320ADF820000020ADF82800ADF847
:10164000220008A9324805F039FA6020ADF80C00F4
:101650000020ADF818000120ADF80E0040F2DC507B
:10166000059003A92A4805F0CBF80821284805F081
:1016700005F90120ADF80E004FF47A70059003A92A
:10168000234805F005F90821214805F053F9012008
:10169000ADF80E0040F2DC50059003A91C4805F09F
:1016A00057F908211A4805F0A3F90120ADF80E00FA
:1016B00040F2DC50059003A9154805F0A3F9082174
:1016C000134805F0DBF90120ADF80E0040F2DC50C4
:1016D000059003A90D4805F093F808210B4805F083
:1016E000CDF801210A4805F06DF80121084805F000
:1016F00078F80121054805F065F80121034805F057
:1017000070F80BB000BD000000040240000400406F
:10171000000800402DE9F04704460D4616461F46D6
:1017200054484089204404B252488089284405B274
:101730005048C089304406B24E48008A384407B247
:101740004C48808808B1604204B24A48C08808B159
:10175000684205B24748008908B1784207B214F5DB
:10176000FA7F01DC444806E0B4F5FA7F02DD4FF46D
:10177000FA7000E02046044615F5FA7F01DC3E4889
:1017800006E0B5F5FA7F02DD4FF4FA7000E0284676
:10179000054616F5FA7F01DC374806E0B6F5FA7F14
:1017A00002DD4FF4FA7000E03046064617F5FA7F86
:1017B00001DC314806E0B7F5FA7F02DD4FF4FA703C
:1017C00000E0384607462B48408BB8BB281910F577
:1017D000FA7F01DC284807E02819B0F5FA7F02DD1E
:1017E0004FF4FA7000E028190FFA80F8281B10F562
:1017F000FA7F01DC204807E0281BB0F5FA7F02DD04
:101800004FF4FA7000E0281B0FFA80F908F2DC5060
:1018100081B21A4805F04FF909F2DC5081B217483D
:1018200005F047F906F2DC5081B2144805F03FF9A3
:1018300040F2DC51114805F038F918E0FFE704F2F6
:10184000DC5081B20D4805F036F904F2DC5081B26B
:101850000A4805F02EF906F2DC5081B2074805F07F
:1018600026F905F2DC5081B2044805F01EF9BDE806
:10187000F08700004A0600200CFEFFFF0008004031
:101880001CB54FF48070009000208DF804000320F8
:101890008DF8050000208DF8060001208DF8070066
:1018A0006946024801F0AEF81CBD00000008024085
:1018B0001CB54FF48070009001208DF804000320C7
:1018C0008DF8050000208DF8060001208DF8070036
:1018D0006946024801F096F81CBD0000000802406D
:1018E00000B587B00121084602F0F2FA02208DF817
:1018F000180003208DF8190000208DF81A0001202F
:101900008DF81B002020059005A92E4801F07AF8DB
:101910008020059005A92B4801F074F8402005901F
:1019200005A9284801F06EF805221146254801F066
:10193000B1F805220621234801F0ACF80522072161
:10194000204801F0A7F801208DF81800102005901C
:1019500005A91C4801F056F810211A4801F0C8F8F2
:10196000194804F03BF90121080302F0E1FA0021D3
:10197000154804F027F90020ADF800004FF48270FC
:10198000ADF802000220ADF806000120ADF8080015
:101990000020ADF804004FF40070ADF80A000020FC
:1019A000ADF80C00ADF80E000720ADF81000694648
:1019B000054804F079F90121034804F003F907B060
:1019C00000BD0000000002400030014070B5044638
:1019D000002507E0681C80B205464FF6FF7188427B
:1019E00000D105E00221104804F050F90028F1D0A0
:1019F00000BF47F6FF7521460B4804F053F907E096
:101A0000681C80B205464FF6FF71884200D105E0A0
:101A10000121054804F03AF90028F1D000BF02483E
:101A200004F03DF9C0B270BD0030014070B505460C
:101A30000E46002400BF05E00020FFF7C7FF285531
:101A4000601C84B2B442F7DB70BD000000B587B003
:101A50000121022002F03CFA02208DF81800032038
:101A60008DF8190000208DF81A0001208DF81B0058
:101A70004003059005A92F4800F0C4FF4FF4004033
:101A8000059005A92B4800F0BDFF4FF4804005905C
:101A900005A9284800F0B6FF05220D21254800F0D1
:101AA000F9FF05220E21234800F0F4FF05220F2143
:101AB000204800F0EFFF01208DF81800000305908A
:101AC00005A91C4800F09EFF4FF48051194801F011
:101AD0000FF8194804F082F80121880302F008FA8F
:101AE0000021154804F06EF80020ADF800004FF416
:101AF0008270ADF802000220ADF806000120ADF8BA
:101B000008000020ADF804004FF40070ADF80A00A2
:101B10000020ADF80C00ADF80E000720ADF8100065
:101B20006946054804F0C0F80121034804F04AF86A
:101B300007B000BD000402400038004070B5044604
:101B4000002507E0681C80B205464FF6FF71884209
:101B500000D105E00221104804F098F80028F1D0E7
:101B600000BF47F6FF7521460B4804F09BF807E0DD
:101B7000681C80B205464FF6FF71884200D105E02F
:101B80000121054804F082F80028F1D000BF024886
:101B900004F085F8C0B270BD0038004070B505464D
:101BA0000E46002400BF05E00020FFF7C7FF2855C0
:101BB000601C84B2B442F7DB70BD000010B588B081
:101BC00004460121080502F093F90121042002F0E6
:101BD0007FF90121082002F07BF935208DF80C00F7
:101BE00000208DF80D008DF80E0001208DF80F00FB
:101BF00003A802F009F808220C21264800F04AFF49
:101C000008220221244800F045FF4FF48050019043
:101C100002208DF808008DF8090000208DF80A00D8
:101C200001208DF80B0001A91A4800F0EBFE0420FA
:101C3000019002208DF808008DF8090001208DF830
:101C40000A0000208DF80B0001A9134800F0DAFE0D
:101C500004940020ADF814004FF40050ADF81600C5
:101C6000C010ADF818000020ADF81C000420ADF83D
:101C70001A0004A9094805F071F8012240F2255123
:101C8000064805F046F80121044805F00CF808B0B4
:101C900010BD000000080240000C0240005000404F
:101CA00010B58AB004460121102002F041F901214B
:101CB000084602F00DF925208DF80C0000208DF863
:101CC0000D008DF80E0001208DF80F0003A801F023
:101CD0009BFF4FF40070019002208DF808008DF8F2
:101CE000090000208DF80A0001208DF80B0001A9E1
:101CF000254800F087FE4FF48060019002208DF8A7
:101D000008008DF8090001208DF80A0000208DF8E8
:101D10000B0001A91C4800F075FE072209211A4892
:101D200000F0B8FE07220A21174800F0B3FE06941F
:101D30000020ADF81C00ADF81E00ADF82000ADF895
:101D400024000C20ADF822000020ADF81000ADF802
:101D500012004FF40070ADF814000020ADF816002A
:101D600006A90A4804F0FAFF04A9084804F08BFF0A
:101D7000012240F22551054804F0CBFF0121034820
:101D800004F091FF0AB010BD0000024000100140B5
:101D900070B505460E4600240AE0295D0B4802781E
:101DA0000078401C094B187009488154601CC4B26B
:101DB000B442F2DB0748808900F0800028B9012294
:101DC00040F22771034804F0A4FF70BD35020020E3
:101DD000180B00200010014010B58AB00446012104
:101DE000880402F085F80121082002F071F827200C
:101DF0008DF80C0000208DF80D008DF80E000120EC
:101E00008DF80F0003A801F0FFFE4FF480700190E1
:101E100002208DF808008DF8090000208DF80A00D6
:101E200001208DF80B0001A9254800F0EBFD4FF4CF
:101E30000070019002208DF808008DF80900012043
:101E40008DF80A0000208DF80B0001A91C4800F055
:101E5000D9FD072208211A4800F01CFE072209219B
:101E6000174800F017FE06940020ADF81C00ADF8EE
:101E70001E00ADF82000ADF824000C20ADF82200C3
:101E80000020ADF81000ADF812004FF40070ADF86E
:101E900014000020ADF8160006A90A4804F05EFF01
:101EA00004A9084804F0EFFE012240F2255105483C
:101EB00004F02FFF0121034804F0F5FE0AB010BD25
:101EC000000C02400048004030B595B005460024A3
:101ED000AB222146641C0DA8425411222146641CE9
:101EE0004254FF222146641C4254FE48425D214672
:101EF000641C0DA84254082D7ED2DFE805F004C40E
:101F0000FEFDFCFBFAF90D222046611CCCB20DA9A6
:101F10000A5400222046611CCCB20DA90A54F24892
:101F200090ED070ADFEDF10A20EE200ABDEEC00AAF
:101F300010EE100A00B20C909DF830202046611C73
:101F4000CCB20DA90A549DF831202046611CCCB2B8
:101F50000DA90A54E44890ED080ADFEDE40A20EEEA
:101F6000200ABDEEC00A10EE100A00B20C909DF8D7
:101F700030202046611CCCB20DA90A549DF83120B6
:101F80002046611CCCB20DA90A54D74890ED090A2D
:101F9000DFEDD60A20EE200ABDEEC00A10EE100AD0
:101FA00000B20C909DF830202046611CCCB20DA9E7
:101FB0000A549DF831202046611CCCB20DA90A5468
:101FC000C94890ED040ADFEDC90A20EE200ABDEEF3
:101FD000C00A10EE100A00B20C909DF83020204686
:101FE000611CCCB20DA90A549DF831202046611C19
:101FF000CCB20DA90A5400E0FCE2BB4890ED050A02
:10200000DFEDBA0A20EE200ABDEEC00A10EE100A7B
:1020100000B20C909DF830202046611CCCB20DA976
:102020000A549DF831202046611CCCB20DA90A54F7
:10203000AD4890ED060ADFEDAD0A20EE200ABDEEB8
:10204000C00A10EE100A00B20C909DF83020204615
:10205000611CCCB20DA90A549DF831202046611CA8
:10206000CCB20DA90A5401222046611CCCB20DA9A4
:102070000A5421460DA801F041FCA01CC1B20DA8D4
:10208000FFF786FEF5E308222046611CCCB20DA9BD
:102090000A5400222046611CCCB20DA90A54012228
:1020A0002046611CCCB20DA90A548F4890ED1D0A40
:1020B000DFED8E0A20EE200ABDEEC00A10EE100AF7
:1020C00000B20C909DF830202046611CCCB20DA9C6
:1020D0000A549DF831202046611CCCB20DA90A5447
:1020E000814890ED1C0ADFED810A20EE200A05E010
:1020F0001EE380E27AE10DE1A1E03EE0BDEEC00A20
:1021000010EE100A00B20C909DF830202046611CA1
:10211000CCB20DA90A549DF831202046611CCCB2E6
:102120000DA90A54704890ED1E0ADFED700A20EEEA
:10213000200ABDEEC00A10EE100A00B20C909DF805
:1021400030202046611CCCB20DA90A549DF83120E4
:102150002046611CCCB20DA90A5400222046611C05
:10216000CCB20DA90A5421460DA801F0C7FBA01C52
:10217000C1B20DA8FFF70CFE7BE309222046611CCB
:10218000CCB20DA90A5400222046611CCCB20DA984
:102190000A54574890ED020ABDEEC00A8DED0A0AB6
:1021A0009DF828202046611CCCB20DA90A549DF848
:1021B00029202046611CCCB20DA90A549DF82A2082
:1021C0002046611CCCB20DA90A549DF82B20204654
:1021D000611CCCB20DA90A54454890ED000ABDEE31
:1021E000C00A8DED0A0A9DF828202046611CCCB259
:1021F0000DA90A549DF829202046611CCCB20DA9D6
:102200000A549DF82A202046611CCCB20DA90A541C
:102210009DF82B202046611CCCB20DA90A54012246
:102220002046611CCCB20DA90A5421460DA801F02C
:1022300065FBA01CC1B20DA8FFF7AAFD19E300229F
:1022400002A92C48006806F0BDFE06222046611C4B
:10225000CCB20DA90A5400222046611CCCB20DA9B3
:102260000A549DED050ADFED210A20EE200ABDEE9D
:10227000C00A10EE100A00B20C909DF830202046E3
:10228000611CCCB20DA90A549DF831202046611C76
:10229000CCB20DA90A549DED060ADFED140A20EE1A
:1022A000200ABDEEC00A10EE100A00B20C909DF894
:1022B00030202046611CCCB20DA90A549DF8312073
:1022C0002046611CCCB20DA90A5400200C909DF848
:1022D00030202046611CCCB20DA90A549DF8312053
:1022E000204609E07E010020440000200000C84292
:1022F000880A002078010020611CCCB20DA90A5484
:1023000021460DA801F0FAFAA01CC1B20DA8FFF7F2
:102310003FFDAEE2002202A9FE48006806F052FE30
:1023200008222046611CCCB20DA90A540022204686
:10233000611CCCB20DA90A54BDF81C0000F2DC509F
:1023400080B20B909DF82C202046611CCCB20DA9C8
:102350000A549DF82D202046611CCCB20DA90A54C8
:10236000BDF81E0000F2DC5080B20B909DF82C20CE
:102370002046611CCCB20DA90A549DF82D202046A0
:10238000611CCCB20DA90A54BDF8200000F2DC504B
:1023900080B20B909DF82C202046611CCCB20DA978
:1023A0000A549DF82D202046611CCCB20DA90A5478
:1023B000BDF8220000F2DC5080B20B909DF82C207A
:1023C0002046611CCCB20DA90A549DF82D20204650
:1023D000611CCCB20DA90A5421460DA801F08EFA59
:1023E000A01CC1B20DA8FFF7D3FC42E21722204681
:1023F000611CCCB20DA90A5400222046611CCCB24B
:102400000DA90A54C448027C2046611CCCB20DA917
:102410000A54C148427C2146601CC4B20DA84254F3
:10242000BD4890ED050ADFEDBD0A20EE200ABDEEA5
:10243000C00A8DED0A0A9DF828202046611CCCB206
:102440000DA90A549DF829202046611CCCB20DA983
:102450000A549DF82A202046611CCCB20DA90A54CA
:102460009DF82B202046611CCCB20DA90A54AA4825
:1024700090ED060ADFEDA90A20EE200ABDEEC00AA3
:102480008DED0A0A9DF828202046611CCCB20DA9CA
:102490000A549DF829202046611CCCB20DA90A548B
:1024A0009DF82A202046611CCCB20DA90A549DF843
:1024B0002B202046611CCCB20DA90A54964890ED01
:1024C000070ABDEEC00A8DED0A0A9DF828202046B5
:1024D000611CCCB20DA90A549DF829202046611C2C
:1024E000CCB20DA90A549DF82A202046611CCCB21A
:1024F0000DA90A549DF82B202046611CCCB20DA9D1
:102500000A54854890ED0A0ABDEEC00A10EE100A82
:1025100000B20C909DF830202046611CCCB20DA971
:102520000A549DF831202046611CCCB20DA90A54F2
:10253000794890ED0B0ABDEEC00A10EE100A00B209
:102540000C909DF830202046611CCCB20DA90A5495
:102550009DF831202046611CCCB20DA90A546E486A
:1025600090ED030ABDEEC00A10EE100A00B20C9006
:102570009DF830202046611CCCB20DA90A549DF86C
:1025800031202046611CCCB20DA90A54624890ED5E
:10259000100A5FEDAA0A20EE200ABCEEC00A10EE77
:1025A000100AC2B22046611CCCB20DA90A545A4886
:1025B00090ED0D0ABCEEC00A10EE100AC2B2214620
:1025C000601CC4B20DA84254534890ED080ABCEEFA
:1025D000C00A10EE100AC2B22046611CCCB20DA98E
:1025E0000A5421460DA801F089F9A01CC1B20DA81A
:1025F000FFF7CEFB3DE1002201A94948006806F043
:10260000E1FC0C222046611CCCB20DA90A54002228
:102610002046611CCCB20DA90A54BDF8040000F29A
:10262000DC5000B20C909DF830202046611CCCB2EA
:102630000DA90A549DF831202046611CCCB20DA989
:102640000A54BDF8060000F2DC5000B20C909DF870
:1026500030202046611CCCB20DA90A549DF83120CF
:102660002046611CCCB20DA90A54BDF8080000F246
:10267000DC5000B20C909DF830202046611CCCB29A
:102680000DA90A549DF831202046611CCCB20DA939
:102690000A54BDF80A0000F2DC5000B20C909DF81C
:1026A00030202046611CCCB20DA90A549DF831207F
:1026B0002046611CCCB20DA90A54BDF80C0000F2F2
:1026C000DC5000B20C909DF830202046611CCCB24A
:1026D0000DA90A549DF831202046611CCCB20DA9E9
:1026E0000A54BDF80E0000F2DC5000B20C909DF8C8
:1026F00030202046611CCCB20DA90A549DF831202F
:102700002046611CCCB20DA90A5421460DA801F047
:10271000F5F807E078010020880A00208096184B21
:10272000CC000020A01CC1B20DA8FFF731FBA0E037
:1027300011222046611CCCB20DA90A540022214668
:10274000601CC4B20DA842544B4890ED000A8DEDB8
:10275000090A9DF824202046611CCCB20DA90A5418
:102760009DF825202046611CCCB20DA90A549DF885
:1027700026202046611CCCB20DA90A549DF82720C2
:102780002146601CC4B20DA842543B4890ED010A9A
:102790008DED090A9DF824202046611CCCB20DA9BC
:1027A0000A549DF825202046611CCCB20DA90A547C
:1027B0009DF826202046611CCCB20DA90A549DF834
:1027C00027202046611CCCB20DA90A542A4890ED5E
:1027D000020A8DED090A9DF824202046611CCCB226
:1027E0000DA90A549DF825202046611CCCB20DA9E4
:1027F0000A549DF826202146601CC4B20DA84254FC
:102800009DF827202146601CC4B20DA842541A48E6
:1028100090ED030A8DED090A9DF824202046611CE5
:10282000CCB20DA90A549DF825202046611CCCB2DB
:102830000DA90A549DF826202046611CCCB20DA992
:102840000A549DF827202046611CCCB20DA90A54D9
:102850000948027C2046611CCCB20DA90A542146CD
:102860000DA801F04BF8A01CC1B20DA8FFF790FA1B
:1028700000BF00BF15B030BD6C090020142008490E
:10288000487014210648C17132214173C1744176E8
:102890006421C177322180F8251080F82B10704711
:1028A000DC0800207047000010B504463F48B0F92E
:1028B0003A00B0F5967F03DD00203D4908701CE02A
:1028C0003A48B0F93A0010F1C80F03DD0120384949
:1028D000087012E03548B0F93C00B0F5967F03DD92
:1028E00002203349087008E03048B0F93C0010F18C
:1028F000C80F02DD03202E4908702D4800782D49AD
:102900000978884205D0FEF701F82948007829495E
:102910000870264890F85200002802DD0120244962
:1029200008702248B0F9360010F5C87F03DD012099
:102930001F49487002E000201D4948701C488078FB
:10294000C0B91D48007C002814DD1B48407C0628C7
:1029500010DD01F065FA012015498870164890EDE8
:10296000050A084680ED010A134890ED060A08465C
:1029700080ED020A0E48007830B1012807D0022805
:1029800009D003280FD10AE001F018F90BE0204626
:1029900003F0B2FA07E0204603F01AFA03E02046FB
:1029A00001F05EFD00BF00BF10BD0000B0070020B9
:1029B000C00800207D010020880A002010B50E48C4
:1029C000007880B901200C49087000221C2106F013
:1029D0006BF90A49086000231A460949074800684C
:1029E00006F004FA06E002230022054903480068C5
:1029F00006F0FCF910BD00007C01002078010020E9
:102A0000C0080020F0B50A4600210023002400BFC2
:102A10003DE0012505FA01F3156805EA03049C422F
:102A200034D105684F000326BE40B54305601579D3
:102A30004E00B5400668354305601579012D02D07A
:102A40001579022D16D185684F000326BE40B54387
:102A5000856055794E00B540866835438560456888
:102A600001268E40B5434560456896798E40B6B2E2
:102A700035434560C5684F000326BE40B543C56079
:102A8000D5794E00B540C6683543C560491C10294C
:102A9000BFD3F0BDF0B5002300244D07ED0E02FAC0
:102AA00005F3CE1000F1200555F826504E07F70E1D
:102AB0000F26BE40B543CF1000F1200646F8275040
:102AC000CE1000F1200555F8265045EA0304CE103B
:102AD00000F1200545F82640F0BD024600201369AC
:102AE0000B400BB1012000E000207047418370478C
:102AF000018370474FF6FF71016000210171417140
:102B00008171C171704700BFFEE7000010B52DED67
:102B1000028B04460CB9002003E04FF47A7090FB5E
:102B2000F4F000EE100AF8EEC08AB1EE040A88EE66
:102B3000808A624890ED000ABDEEC00A604880EDD0
:102B4000000A6048D0ED0F0A5F4890ED000AB8EE29
:102B5000C00A70EEC00A90ED000AB8EEC00A9FED00
:102B60005B1A01EE200ABDEEC00A80ED000A58484B
:102B70000078401C5649087008460078052190FBF3
:102B8000F1F201FB1200524908700846007830BB90
:102B90004B4800684F490968401A00EE100AB8EE29
:102BA000C00A20EE080ABDEEC00A4B4880ED000ABC
:102BB00000684A490968401A00EE100AB8EEC00AD7
:102BC00020EE080ABDEEC00A454880ED000A3C48E8
:102BD00000684049086040480068404908609FED2F
:102BE000410A414880ED020A374890ED000AB8EEEC
:102BF000C00A3D4880ED000A394890ED000AB8EE61
:102C0000C00A394880ED010A9FED380A80ED030AB9
:102C100000EE904AF8EE600A9FED351A60EE810AE8
:102C2000B0EE600A04F0C1FB9FED320A324880ED3D
:102C3000020A2D4890ED060A2F4880ED000A26482A
:102C400090ED000AB8EEC00A2B4880ED010A9FED16
:102C5000270A80ED030A00EE904AF8EE600A9FED25
:102C6000241A60EE810AB0EE600A04F009FBB5EEAA
:102C7000000A224880ED020A1F4890ED050A1F480D
:102C800080ED000A0D4890ED000A1C4880ED010A15
:102C900000EE904AF8EE600A9FED151A60EE810A88
:102CA000B0EE600A04F0ECFA144890ED050A03480F
:102CB00080ED020ABDEC028B10BD0000880A0020E6
:102CC000180200204400002024020020295C8F3DCF
:102CD0002C020020100200201C0200201402002000
:102CE00020020020CDCCCC3DCC0A00200000C84200
:102CF0006F12833A9A99193FE80A0020000B0020CE
:102D000010B52DED0E8B8AB0F0EE408AFE48D0ED66
:102D1000070A60EEA00A90ED081AD0ED081A41EEFD
:102D2000210A90ED091AD0ED091A41EE210AB0EE00
:102D3000600A04F01FFDB0EE409AB5EEC09AF1EEC5
:102D400010FA02D19FEDF10A03E0F7EE000A80EEDF
:102D5000890AB0EE40EAEC4890ED070A20EE090A35
:102D60008DED070A90ED080A20EE090A8DED080A9C
:102D700090ED090A20EE090A8DED090A90ED000A8E
:102D8000D0ED010A60EE209A90ED000AD0ED020A23
:102D900020EE20AA90ED010A60EE00AA90ED010A53
:102DA000D0ED030A20EE20BA90ED020A60EE00BAE0
:102DB00090ED020AD0ED030A20EE20CA90ED030A3E
:102DC00060EE00CA90ED010AD0ED020A20EE20DA92
:102DD00090ED000AD0ED030A60EE20DAB0EE000AB2
:102DE0002BEE800AF0EE000A00EEAC0AF7EE000AC5
:102DF00030EEC00A80ED130AB0EE000A2DEE000A94
:102E0000F0EE000A00EEED0A80ED140AB0EE000AC2
:102E10002BEE000AF0EE000A00EE8A0A80ED150A99
:102E2000B0EE000A2DEE000AF0EE000A00EEAD0A48
:102E300080ED160AB0EE000A2AEE800AF0EE000AD3
:102E400000EEAC0AF7EE000A30EEC00A80ED170A79
:102E5000B0EE000A2CEE000AF0EE000A00EEE90ADD
:102E600080ED180AB0EE000A2BEE000AF0EE000A20
:102E700000EECA0AA64880ED000AA34880ED190AB0
:102E8000B0EE000A2CEE000AF0EE000A00EEA90AED
:102E90009F4880ED010A9C4880ED1A0AB0EE000AB6
:102EA0002AEE800AF0EE000A00EEAB0AF7EE000A06
:102EB00030EEC00A964880ED020A934880ED1B0A66
:102EC00090ED070ADFED930A20EE200A9048D0ED3E
:102ED000000A9FED911A01EE600ABDEEC00AB8EE3D
:102EE000C00A894880ED0A0A90ED080ADFED890AD8
:102EF00020EE200A8648D0ED010A9FED871A01EEE8
:102F0000600ABDEEC00AB8EEC00A7F4880ED0B0A29
:102F100090ED090ADFED7F0A20EE200A7C48D0ED13
:102F2000020A9FED7D1A01EE600ABDEEC00AB8EEFE
:102F3000C00A754880ED0C0A00202AE0002100EE4E
:102F4000101A00BF19E000EB40036F4A4C3202EB4D
:102F5000830202EB810292ED001A6B4A283202EBE7
:102F60008102D2ED001AF8EEC00A41EE810AFDEEB0
:102F7000E00AB0EE600A4A1CD1B20329E3DBF8EEA6
:102F8000C00A6149343101EB8001C1ED000A411CE6
:102F9000C8B20328D2DB9DED080A5D48D0ED020AD5
:102FA00020EE200AD0ED010A9DED091A00EEC10ABB
:102FB0008DED040A9DED070AD0ED020A20EE200AED
:102FC000D0ED000A9DED091A10EE810A8DED050A7B
:102FD0009DED080AD0ED000A20EE200AD0ED010A8E
:102FE0009DED071A10EE810A8DED060A002449E0D6
:102FF0009FED4A0AB4EEC0EAF1EE10FA06DCB2EE3A
:10300000020AB4EEC0EAF1EE10FA07D29FED3F0AD1
:103010008DED060A8DED050A8DED040A404800EBA2
:10302000840090ED000A04A800EB8400D0ED000AB3
:103030009FED3C1AF4EEC10AF1EE10FA02D8DFED72
:10304000390A13E004A800EB8400D0ED000A9FEDDC
:10305000361AF4EEC10AF1EE10FA02DDDFED320AA3
:1030600004E004A800EB8400D0ED000A60EEA80A9A
:103070009FED2E1A00EE810A294800EB840080EDB6
:10308000000A641C032CB3DB9DED040A2448D0ED38
:10309000000A70EE200A1C4890ED040A9FED241AE5
:1030A00000EE810A20EE280AF0EE000A80EE201AD7
:1030B0008DED011A9DED050A1948D0ED010A70EE5B
:1030C000200A114890ED050A9FED191A00EE810AB9
:1030D00020EE280AF0EE000A80EE201A8DED021A8A
:1030E0009DED060A0E48D0ED020A70EE200A064851
:1030F00090ED060A9FED0E1A00EE810A20EE280AD6
:10310000F0EE000A16E0000044000020000000007D
:10311000200700200000C842004075449A992941C8
:103120002C070020CDCCCCBDCDCCCC3D0AD7233C48
:10313000CDCC4C3E80EE201A8DED031A90ED000AA6
:10314000D0ED010A9DED011A00EEC10AD0ED020A90
:103150009DED021A00EEC10AD0ED030A9DED031A9F
:1031600000EEC10A80ED000A90ED010AD0ED000AE0
:103170009DED011A00EE810AD0ED020A9DED031AC1
:1031800000EE810AD0ED030A9DED021A00EEC10A9D
:1031900080ED010A90ED000ADDED020A20EE200A22
:1031A000D0ED010A9DED031A00EEC10AD0ED020A2E
:1031B00030EE200AD0ED030A9DED011A00EE810ADF
:1031C00080ED020A90ED000ADDED030A20EE200AF0
:1031D000D0ED010A9DED021A00EE810AD0ED020A3F
:1031E0009DED011A00EEC10AD0ED030A30EE200A6F
:1031F00080ED030AD0ED000A60EEA00A90ED011AFE
:10320000D0ED011A41EE210A90ED021AD0ED021A1A
:1032100041EE210A90ED031AD0ED031A41EE210A86
:10322000B0EE600A04F0A6FAB0EE408A1248D0ED83
:10323000000AB0EE480A20EE800A80ED000AD0EDC8
:10324000010AB0EE480A20EE800A80ED010AD0EDB6
:10325000020AB0EE480A20EE800A80ED020AD0EDA4
:10326000030AB0EE480A20EE800A80ED030A0AB095
:10327000BDEC0E8B10BD00004400002010B50E48C0
:10328000007880B901200C49087000227C2105F0EB
:103290000BFD0A49086000231A46094907480068DF
:1032A00005F0A4FD06E0022300220549034800685A
:1032B00005F09CFD10BD0000C8000020C0000020EB
:1032C000440000201FB56846FEF72CF99DF8010068
:1032D0009DF8001040EA012000B2CB49C8809DF85B
:1032E00003009DF8021040EA0120404200B2C649A6
:1032F00008819DF805009DF8041040EA0120404235
:1033000000B2C14948819DF809009DF8081040EAC3
:10331000012000B2BC4908809DF80B009DF80A10FE
:1033200040EA0120404200B2B74948809DF80D00B4
:103330009DF80C1040EA0120404200B2B24988805A
:103340009DF807009DF8061040EA012000B2AE4942
:1033500088850846B0F9000000EE100AB8EEC00AF1
:103360000846D0ED050A30EE600AA84880ED0C0A48
:103370000846B0F9020000EE100AB8EEC00A08468E
:10338000D0ED060A30EE600AA04880ED0D0A08462E
:10339000B0F9040000EE100AB8EEC00A0846D0EDFD
:1033A000070A30EE600A994880ED0E0A0846B0F927
:1033B000060000EE100AB8EEC00A0846D0ED080A72
:1033C00030EE600ADFED920A20EE200A914880ED8F
:1033D0000C0A0846B0F9080000EE100AB8EEC00A60
:1033E0000846D0ED090A30EE600ADFED8B0A20EEC8
:1033F000200A884880ED0D0A0846B0F90A0000EE60
:10340000100AB8EEC00A0846D0ED0A0A30EE600A8B
:10341000DFED820A20EE200A7E4880ED0E0A0320AE
:10342000A5E000EB4001794A02EB810191ED000A31
:10343000DFED7B0A20EE200A411C01EB410102EB8B
:103440008101D1ED000A9FED771A00EE810A00EBB1
:10345000400102EB810181ED000A00EB400102EB2B
:10346000810191ED010ADFED6E0A20EE200A411C78
:1034700001EB410102EB8101D1ED010A9FED691AD7
:1034800000EE810A00EB400102EB810181ED010AAF
:1034900000EB400102EB810191ED020ADFED600AD1
:1034A00020EE200A411C01EB410102EB8101D1ED2C
:1034B000020A9FED5C1A00EE810A00EB400102EB6C
:1034C000810181ED020A00EB4001524A02EB8101C9
:1034D00091ED000ADFED520A20EE200A411C01EBBB
:1034E000410102EB8101D1ED000A9FED4E1A00EE81
:1034F000810A00EB400102EB810181ED000A00EB43
:10350000400102EB810191ED010ADFED450A20EE59
:10351000200A411C01EB410102EB8101D1ED010ABE
:103520009FED401A00EE810A00EB400102EB8101A1
:1035300081ED010A00EB400102EB810191ED020AED
:10354000DFED370A20EE200A411C01EB410102EBBE
:103550008101D1ED020A9FED331A00EE810A00EBE2
:10356000400102EB810181ED020A411E48B20028B0
:10357000BFF657AF254890ED000ADFED2B0A20EE8D
:10358000200ADFED2A0A20EE200A294880ED040AED
:103590001E4890ED010ADFED240A20EE200ADFED3F
:1035A000230A20EE200A224880ED050A174890EDF4
:1035B000020ADFED1D0A20EE200ADFED1C0A20EED4
:1035C000200A1B4880ED060A124890ED000ADFED44
:1035D000190A20EE200A164880ED070A0D4890EDE2
:1035E000010ADFED140A20EE200A114880ED080AD6
:1035F000084890ED020ADFED0F0A20EE200A0C4881
:1036000080ED090A1FBD00001400002038070020CB
:10361000DFC17F3F74070020F3CC7F3FE624803F6B
:1036200014AE473FAE47613EE2007A3D4DF38E3C1B
:10363000440000206FF51C3B10B500F0B5F800F019
:10364000EDF84FF47A7003F045FD10BD10B52DED87
:10365000028B4C48D0ED190A90ED191AB7EE000A0A
:1036600000EEC10AB5EEC00AF1EE10FA02D89FEDE5
:10367000460A1BE04348D0ED190A90ED191AB7EE3F
:10368000000A00EEC10AF7EE000AB4EEE00AF1EE1D
:1036900010FA02DDB7EE000A08E03A48D0ED190A48
:1036A00090ED191AB7EE000A00EEC10A374880ED16
:1036B000000A374890ED020ADFED360AB4EEE00A60
:1036C000F1EE10FA08DC90ED020ADFED330AB4EEF9
:1036D000E00AF1EE10FA51D23048B0F9000000EEE5
:1036E000100AB8EEC00ADFED2E0A80EE208A2548C7
:1036F00090ED1B1AF0EE410A90ED1A1AB0EE410A55
:1037000003F000FDDFED270A10EE208A1D4880ED52
:103710001C8A2248B0F9020000EE100AB8EEC00A76
:10372000DFED1F0AC0EE208A184890ED000A04F071
:1037300017F8B0EE408A1348D0ED190AB0EE600ACF
:10374000F0EE480A03F0DEFCB1EE400ADFED150AA8
:1037500050EE208A0B48C0ED1D8A90ED131AF0EE52
:10376000410A90ED161AB0EE410A03F0CBFCDFEDF2
:103770000D0A20EE200A034880ED1E0ABDEC028BE4
:1037800010BD00004400002000000000C400002024
:1037900020070020CDCC4C3DCDCC4CBD4A060020AE
:1037A0000000C84233336542B7EE000A194A82ED81
:1037B000000A9FED190A82ED010A9FED170A82EDBA
:1037C000020A9FED150A82ED030A9FED130A82EDAE
:1037D000070A9FED110A82ED080A9FED0F0A82ED9C
:1037E000090A002013E000210DE09FED0B0A00EB19
:1037F0004003084A4C3202EB830202EB810282ED65
:10380000000A4A1CD1B20329EFDB421CD0B20328C4
:10381000E9DB704744000020000000002DE9FF4173
:103820000024002500269FED320A324880ED050A6B
:103830009FED2F0A80ED060A9FED2D0A80ED070A05
:10384000002730E06846FDF76DFE9DF809009DF801
:10385000081040EA012000B2264908809DF80B00BC
:103860009DF80A1040EA0120404200B221494880F8
:103870009DF80D009DF80C1040EA0120404200B276
:103880001C4988800846B0F9000004440846B0F995
:10389000020005440846B0F904000644022003F083
:1038A00019FC781C87B2C82FCCDB00EE104AB8EEAA
:1038B000C00ADFED110A80EE201A0E4880ED051ACD
:1038C00000EE105AB8EEC00ADFED0B0A80EE201AA7
:1038D00080ED061A00EE106AB8EEC00ADFED060AA7
:1038E00080EE201A80ED071A002004B0BDE8F081B8
:1038F00000000000140000200000484370B50022C2
:103900000023002400BF06E0855C1D44EBB2E518EF
:10391000ECB2551CEAB28A42F6DB0D464E1CF1B2FF
:1039200043550D464E1CF1B2445570BD70B5064668
:103930004FF0FF35002413E0B5F1FF3F0ED104EB4B
:1039400044002B4911F81000012807D1002004EB96
:103950004401274A02F8110065B203E0601CC4B2BA
:10396000052CE9DB00BFE8B202F030FD4FF0FF3577
:10397000002436E004EB44001E4911F8100020BB7F
:1039800004EB440001EB40008078304404EB440138
:10399000184A02EB4101887004EB4400114601EB28
:1039A0004000807804EB440102EB410149788842F1
:1039B00015DB002004EB440102EB4101887001207B
:1039C00004EB440102F8110009E0B5F1FF3F06D114
:1039D000002004EB4401074A02F8110065B2601CA4
:1039E000C4B2082CC6DBE8B2FEF76EFA70BD000068
:1039F0000C090020DC08002030B52DED028B81B0D1
:103A000005462B48C078E02827D12948807918B985
:103A100001202849887446E025488079012802D190
:103A2000244908703FE022488079022808D101200B
:103A3000204988711E48B0F807101E48418132E0C5
:103A40001B48807903282ED101201A490873184891
:103A5000B0F807101748018225E01548C078E12822
:103A600021D10120134908761148818911488183A9
:103A70000F48C488007A8DF800000D48407A8DF810
:103A800001000B48807A8DF802000948C07A8DF851
:103A900003009DED000AB0EE408AE0B2B0EE480AA5
:103AA00000F0F8F800BF01B0BDEC028B30BD0000A3
:103AB0002A0900200C09002070B504463C48007813
:103AC00070B9AB2C08D13A4801780078401C384ACC
:103AD0001070384844546AE000203549087066E0A8
:103AE00033480078032810D1E02C01D0E12C08D114
:103AF0002F4801780078401C2D4A10702D484454FE
:103B000055E000202A49087051E02948007804282F
:103B100010D1274801780078401C254A10702548AC
:103B200044542548047000781E2840DD00201146CA
:103B300008703CE01E4801781F480078C01D814293
:103B40002DD11B4801780078401C194A1070194883
:103B5000445400250026002007E01649095C29444A
:103B6000CDB27119CEB2411CC8B213490978891D72
:103B70008842F2DB0F4910480078801D085CA8429B
:103B800009D10D480078C01D085CB04203D10A4835
:103B90000078FFF731FF00200549087007E004486E
:103BA00001780078401C024A10700248445470BDED
:103BB0008B0100202A0900208C01002010B50E483E
:103BC000408E0E4988820C48818E0C48C1820A487A
:103BD000C18E0A4801830848018F08484183044682
:103BE000B4F91A30B4F91820B4F91610B4F9140065
:103BF000FDF790FD10BD0000B0070020C0080020B8
:103C000000BFFEE77047000070B5002100230F22BF
:103C1000C4781CB3174C246804F4E064C4F5E06471
:103C2000C4F30721C1F10404E3B20A4144789C4083
:103C3000E1B28478144021430C07210E0E4C057824
:103C40006155047804F01F050124AC4005786D111E
:103C5000AD0005F1E025C5F8004109E0047804F065
:103C60001F050124AC40054D0678761145F8264025
:103C700070BD00000CED00E000E400E080E100E039
:103C800002490143024A1160704700000000FA0532
:103C90000CED00E024490978491C234A11701146B3
:103CA0000978172904DB0021117001211F4A1170C6
:103CB0001F4931F9101000EE901AF8EEE00AF4EE08
:103CC000400AF1EE10FA00D1704700EB400101EB21
:103CD000C001184A02EB8101B1F9021000EE901AFE
:103CE000F8EEE00AF4EEC00AF1EE10FA0EDC00EB9A
:103CF000400101EBC00132F9211000EE901AF8EEFC
:103D0000E00AF4EEC00AF1EE10FA00D2DCE7FDEEB4
:103D1000C00A10EE901A09B2054A22F810100121CB
:103D2000054A117000BFCFE78C0600208B060020EB
:103D30004A060020560200208A06002070B50025A1
:103D4000002240210B48FCF769FE002405E00948E9
:103D5000005D2844C5B2601CC4B23F2CF7DB0548A7
:103D600090F83F00A84204D12E2202490248FCF7F5
:103D700020FB70BDB00D00204A06002070B5002564
:103D80002E220B490B48FCF714FB002405E00948E0
:103D9000005D2844C5B2601CC4B23F2CF7DB054867
:103DA00080F83F5000224021FCF769FE70BD000002
:103DB0004A060020B00D002010B5044610480078D7
:103DC00001281BD10F48007818B900200C49087051
:103DD00014E00D480088B0F5FA7F05DA0A4800883B
:103DE00020440949088009E0002007490880FFF7BE
:103DF000C5FF0020024908700249087010BD00008C
:103E00008B0600208A0600208E06002010B504468E
:103E1000204600F00DF82046FEF778FE10BD0000A9
:103E2000024890ED000A80ED010A7047880A0020E0
:103E300010B52DED028B0446FCF736FE40BBFCF7B7
:103E400045FEF0EE408A9FED1C0A30EE680ADFED79
:103E50001B0A80EE208A9FED1A0A28EE000A20EE47
:103E6000080A20EE080ADFED140A70EEE80AB2EE46
:103E7000021A01EE200A134880ED000A124890ED64
:103E8000010A1048D0ED000A30EEC00A80ED000AA9
:103E90000D4890ED000AD0ED000A0A4890ED001A96
:103EA00071EE600A9FED091A01EE200A064880EDC6
:103EB000000ABDEC028B10BD80E6C54700007A44C5
:103EC00085EB513F28020020880A00204260E53B34
:103ED00029B1064A12680243044B1A6004E0034AFF
:103EE00012688243014B1A6070470000303802406C
:103EF00029B1064A12680243044B1A6004E0034ADF
:103F000012688243014B1A6070470000403802403B
:103F100029B1064A12680243044B1A6004E0034ABE
:103F200012688243014B1A6070470000203802403B
:103F300029B1064A12680243044B1A6004E0034A9E
:103F400012688243014B1A607047000044380240F7
:103F500029B1064A12680243044B1A6004E0034A7E
:103F600012688243014B1A607047000024380240F7
:103F7000F0B5002100220024022500260223324F42
:103F80003F6807F00C0121B1042905D0082937D179
:103F900005E02E4F076036E02D4F076033E02A4FD3
:103FA0003F1F3F68C7F38056274F3F1F3F6807F00A
:103FB0003F036EB1264FB7FBF3F7DFF88CC0ACF1CF
:103FC000040CDCF800C0CCF3881C07FB0CF40CE0FC
:103FD0001E4FB7FBF3F7DFF870C0ACF1040CDCF850
:103FE00000C0CCF3881C07FB0CF4174F3F1F3F6841
:103FF000C7F301477F1C7D00B4FBF5F7076002E0C3
:10400000124F076000BF00BF0F4F3F6807F0F0017D
:104010000909104F7A5C0768D74047600A4F3F682C
:1040200007F4E051890A0B4F7A5C4768D7408760F4
:10403000054F3F6807F46041490B064F7A5C4768BB
:10404000D740C760F0BD0000083802400024F400EB
:1040500000127A001007002010B50E48007880B9D1
:1040600001200C4908700022202104F01DFE0A499D
:10407000086000231A4609490748006804F0B6FEA4
:1040800006E00223002205490348006804F0AEFE62
:1040900010BD0000D2000020CC000020E20700206C
:1040A00010B50248FDF78AFD10BD0000A086010092
:1040B00000B50346184600F0B9F900F09BF900BDC1
:1040C00000B5034641F28830834203D900200F49EE
:1040D000087019E0B3F5487F16D940F6980083427E
:1040E00012D20A480078082800DD00BD0848074AB7
:1040F000127820F812300548007800F00BF80348D9
:104100000078401C0149087000BFEEE7E400002081
:10411000D00700200021024A22F81010704700004A
:104120000408002000B500224AE02A4830F91200B5
:10413000A0F57A7000EE100AB8EEC00ADFED260A8C
:1041400020EE200ABDEEC00A10EE100A01B221488E
:10415000323020F8121030F9120010F5FA7F01DC2D
:104160001E480DE01B48323030F91200B0F5FA7FDE
:1041700002DD4FF4FA7003E01648323030F91200D5
:104180001449323121F81200022A17D1084630F9B9
:10419000120000F5FA7000EE100AB8EEC00ADFED6A
:1041A000100A20EE200ABDEEC00A10EE100AA0F59B
:1041B000FA7001B20748323020F81210501CC2B217
:1041C000082AB2DB0020034981F8520000F042F9CE
:1041D00000BD0000B00700202FDD243F0CFEFFFFD4
:1041E0009A99193F18B504467DA0006800907D4853
:1041F00001780078401C7B4A10707B48445410467C
:10420000007819287ED11820114608707648007869
:104210000F2878D17448007E38B17348017E734A04
:1042200012781DF802008142F3D100206D49087018
:104230006D4840786C49897801F0070140EA012017
:104240006B4908806848C0788006400D66498978C7
:1042500040EAE1006649488063484079C007400D64
:104260006149097940EA81005F49C97840EAA110B3
:104270005F4988805C4880790007400D5A49497938
:1042800040EA61005A49C8805748C0794006400D4D
:104290005549897940EA2110554908815248407AA8
:1042A0008007400D5049097A40EA41004E49C979DA
:1042B00040EAE1104E4948814B48807AC006400DE3
:1042C0004949497A40EAA100494988814648C07A6B
:1042D000C0004549897A40EA61104549C881424891
:1042E000007B4149497B01F0070140EA0120404938
:1042F00008823D48807B8006400D3B49497B40EA6F
:10430000E10001E06AE05FE0394948823648007C1C
:10431000C007400D3449C97B40EA81003249897B9E
:1043200040EAA110324988822F48407C0007400DA6
:104330002D49097C40EA61002D49C8822A48807CC9
:104340004006400D2849497C40EA2110284908834D
:104350002548007D8007400D2349C97C40EA410083
:104360002149897C40EAE110214948831E48407D6B
:10437000C006400D1C49097D40EAA1001C49888304
:104380001948807DC0001849497D40EA61101849EC
:10439000C8831548C07D81F8300014480078401C5F
:1043A000124908700878C11700EB91718910A0EBD1
:1043B00081010E4A11700E4890F8300000F008009C
:1043C00060B9FFF7AFFE09E0002305E00649581C7D
:1043D000085CC854581CC3B2182BF7DB18BD00008A
:1043E00004142434DC00002014080020DD00002028
:1043F000B00700200C4991F85210002913DD00206D
:104400000FE0022806D14FF60C620749323121F83D
:10441000102004E000220449323121F81020411C10
:10442000C8B20828EDDB7047B007002007490988AB
:10443000B1F5FA6F05DA054909880144034A11808C
:1044400003E00121024A82F852107047D000002098
:10445000B00700200020014908807047D0000020EC
:1044600070B52DED048B04469FED3F0AB0EE408AF7
:104470009FED3D0AF0EE408A9FED3B0AB0EE409A78
:104480003A488078012828D100EE104AB8EE400A58
:10449000DFED370A80EE201AF0EE419AB0EE690A9D
:1044A00001F004FE334890ED0B0AB0EE408A90ED27
:1044B0000A0ADFED2F0A30EE200AB0EE409A2B48B0
:1044C00090ED021AF0EE410A90ED011AB0EE410AA9
:1044D000204601F03BFAF0EE408A2448C0ED038A02
:1044E00080ED048A00EE104AB8EE400ADFED200AA3
:1044F00080EE201AF0EE419A01464878B0EE481A54
:10450000F0EE680AB0EE690AFCF7C8F81A4890EDB8
:10451000030ABDEEC00A10EE100A00B213498882E9
:10452000164890ED030ABDEEC00A10EE100A01B263
:104530000E48C182BDEEC90A10EE100A01B20B4846
:1045400001830F48018F094841830546B5F91A30A8
:10455000B5F91820B5F91610B5F91400FDF7DAF819
:10456000BDEC048B70BD000000000000C0080020FE
:1045700000007A4480090020300800205408002000
:10458000B007002071B52DED040B2DED108BD1B0CF
:10459000F0EE60EAB0EE41FA0546402140A8FBF794
:1045A00055FF002208A9FE48006804F00BFDFD48F5
:1045B00090ED000A80ED080A90ED010A80ED090AED
:1045C00090ED020A80ED0A0A90ED030A80ED0B0AD5
:1045D00090ED090AB1EE400A80ED090A90ED0A0A51
:1045E000B1EE400A80ED0A0A90ED0B0AB1EE400AE6
:1045F00080ED0B0A9DED080AD0ED080A20EE200A96
:104600008DED400A9DED080AD0ED090A20EE200A42
:104610008DED410A9DED080AD0ED0A0A20EE200A30
:104620008DED420A9DED080AD0ED0B0A20EE200A1E
:104630008DED430A9DED090AD0ED080A20EE200A0F
:104640008DED440A9DED090AD0ED090A20EE200AFD
:104650008DED450A9DED090AD0ED0A0A20EE200AEB
:104660008DED460A9DED090AD0ED0B0A20EE200AD9
:104670008DED470A9DED0A0AD0ED080A20EE200ACA
:104680008DED480A9DED0A0AD0ED090A20EE200AB8
:104690008DED490A9DED0A0AD0ED0A0A20EE200AA6
:1046A0008DED4A0A9DED0A0AD0ED0B0A20EE200A94
:1046B0008DED4B0A9DED0B0AD0ED080A20EE200A85
:1046C0008DED4C0A9DED0B0AD0ED090A20EE200A73
:1046D0008DED4D0A9DED0B0AD0ED0A0A20EE200A61
:1046E0008DED4E0A9DED0B0AD0ED0B0A20EE200A4F
:1046F0008DED4F0A9DED400ADDED450A30EE600A72
:10470000DDED4A0A30EE600ADDED4F0A30EE600A58
:10471000F0EE409A9DED440ADDED410A30EE200AAC
:10472000DDED4B0A30EE200ADDED4E0A30EE600A78
:10473000F0EE408A9DED480ADDED420A30EE200A97
:10474000DDED4D0A30EE200ADDED470A30EE600A5D
:10475000B0EE408A9DED4C0ADDED430A30EE200AB2
:10476000DDED460A30EE200ADDED490A30EE600A42
:10477000B0EE409A28EE080A8DED3D0A29EE090AAE
:104780008DED390A28EE880A8DED3B0A29EE890A5B
:104790008DED3A0A9DED3D1AF0EE001A61EE211AF8
:1047A0009DED391AB0EE002A42EE011AB7EE001A5A
:1047B00031EE611AF0EE410A9DED3B1AF0EE001A5F
:1047C00061EE211A9DED3A1AB0EE002A42EE011A6E
:1047D000B0EE610A02F096FCDFED730A20EE200ACB
:1047E0008DED270A9DED270AF0EE000A80EE201AD3
:1047F0008DED271A9DED270ADFED6C0A20EE200AC9
:10480000DFED6B0A80EE201A8DED271A279805F050
:1048100071FCCDE906019DED060B02F0FFFEF0EE06
:10482000409A9FED640AF0EE408A9FED620AB0EE76
:10483000408A279805F05EFCCDE904019DED040B4C
:1048400002F054FF8DED060B9DED060B51EC100BA5
:1048500005F0ECF809EE100A524890ED000A20EE3F
:10486000290A8DED400A90ED010A20EE290A8DED0E
:10487000410A90ED020A20EE290A8DED420A90EDE0
:10488000030A20EE290A8DED430A90ED000A20EE7E
:10489000280A8DED440A90ED010A20EE280A8DEDDC
:1048A000450A90ED020A20EE280A8DED460A90EDA9
:1048B000030A20EE280A8DED470A90ED000A20EE4B
:1048C000080A8DED480A90ED010A20EE080A8DEDE8
:1048D000490A90ED020A20EE080A8DED4A0A90ED91
:1048E000030A20EE080A8DED4B0A90ED000A20EE37
:1048F000090A8DED4C0A90ED010A20EE090A8DEDB2
:104900004D0A90ED020A20EE090A8DED4E0A90ED57
:10491000030A20EE090A8DED4F0A9DED400ADDEDF8
:10492000450A30EE600ADDED4A0A30EE600ADDED40
:104930004F0A30EE600A80ED000A9DED440ADDED7D
:10494000410A30EE200ADDED4B0A30EE200ADDEDA3
:104950004E0A30EE600A80ED010A9DED480ADDED59
:10496000420A30EE200ADDED4D0A30EE200ADDED80
:10497000470A30EE600A80ED020A9DED4C0ADDED3B
:10498000430A30EE200ADDED460A30EE200ADDED66
:10499000490A30EE600A80ED030AD0ED0C0A0BE004
:1049A000C0000020E800002033336542DB0F49409F
:1049B000000034430000000090ED0C0A3EEEC00AF7
:1049C000BBEE0E1AB4EEC10AF1EE10FA02D8BBEE3D
:1049D0000E0A13E0FE4890ED0C0A3EEEC00AB3EE5C
:1049E0000E1AB4EEC10AF1EE10FA02DDB3EE0E0AB1
:1049F00004E0F74890ED0C0A3EEEC00A30EE800A63
:104A0000F34880ED0C0AD0ED0D0A90ED0D0AB1EEE1
:104A10004F1A31EE400ABBEE0E1AB4EEC10AF1EEA7
:104A200010FA02D8BBEE0E0A17E0E94890ED0D0A25
:104A3000B1EE4F1A31EE400AB3EE0E1AB4EEC10ACF
:104A4000F1EE10FA02DDB3EE0E0A06E0E04890ED5A
:104A50000D0AB1EE4F1A31EE400A30EE800ADC4802
:104A600080ED0D0AD0ED0C0A9DED610A20EE800A62
:104A7000F0EE40BAD0ED0D0A9DED610A20EE800AFD
:104A8000B0EE40CAB0EE000ACBEE800AF0EE60BA9B
:104A9000B0EE000ACCEE000AB0EE60CA1FED3D0A8F
:104AA0002BEE800A5FED3E0A80EE201AF0EE41BA4E
:104AB0001FED420A2CEE000A5FED430A80EE201A39
:104AC000B0EE41CA1BEE900A05F014FBCDE90601D9
:104AD0009DED060B02F0A2FDF0EE40FA1CEE100A6E
:104AE00005F008FBCDE906019DED060B02F096FDF1
:104AF0002FEE800A8DED400A1CEE100A05F0FAFA3E
:104B0000CDE900019DED000B02F0F0FD8DED040BF1
:104B10001BEE900A05F0EEFACDE900019DED000BC9
:104B200002F07CFD10EE106A304605F0E3FACDE9A4
:104B300002019DED040B53EC102B9DED020B51EC8B
:104B4000100B05F0ADF8CDE906019DED060B51EC1B
:104B5000100B04F06BFF41901FED6A0A8DED420AC5
:104B60001FED6C0A8DED430A1FED6E0A8DED440AB0
:104B70001FED700A8DED450A1FED720A8DED460A94
:104B80001FED740A8DED470A1CEE100A05F0B2FA0B
:104B9000CDE900019DED000B02F040FD10EE106A22
:104BA000304605F0A7FACDE904011BEE900A05F0A6
:104BB000A1FACDE900019DED000B02F097FD8DED0E
:104BC000020B9DED040B53EC102B9DED020B51ECF1
:104BD000100B05F065F8CDE906019DED060B51ECD3
:104BE000100B04F023FF48901CEE100A05F082FA27
:104BF000CDE900019DED000B02F078FD8DED040B79
:104C00001BEE900A05F076FACDE900019DED000B50
:104C100002F06CFD8DED020B9DED040B53EC102B9F
:104C20009DED020B51EC100B05F03AF8CDE90601B1
:104C30009DED060B51EC100B04F0F8FE40A9486204
:104C40001FEDA40A8DED4A0A1FEDA60A8DED4B0A51
:104C50001FEDA80A8DED4C0A1FEDAA0A8DED4D0A35
:104C60001FEDAC0A8DED4E0A1FEDAE0A8DED4F0A19
:104C70009DED400ADDED450A30EE600ADDED4A0AA1
:104C800030EE600ADDED4F0A30EE600AF0EE409A39
:104C90009DED440ADDED410A30EE200ADDED4B0AC0
:104CA00030EE200ADDED4E0A30EE600AF0EE408A6A
:104CB0009DED480ADDED420A30EE200ADDED4D0A99
:104CC00030EE200ADDED470A30EE600AB0EE408A91
:104CD0009DED4C0ADDED430A30EE200ADDED460A7B
:104CE00030EE200ADDED490A30EE600AB0EE409A5F
:104CF00028EEA80A8DED3E0A28EE080A8DED3D0A41
:104D000069EEA80ACDED3F0A29EE88AA68EE89AAC5
:104D100028EE090A8DED3C0A3AEE8A0AF0EE000A06
:104D200020EE200A8DED2F0A9DED3C0ADDED3F0AB5
:104D300030EE200AF0EE000A20EE200A8DED300A57
:104D40009DED3E0AF0EE000A60EE200A9DED3D0A60
:104D5000B0EE001A41EE000AB7EE000A30EE600A2B
:104D60008DED310A002427E09DED2F0A04EB44016C
:104D70001BA800EB8100D0ED000A20EE200ADDED3B
:104D8000300A04EB44011BA800EB810090ED011AEE
:104D900000EE810ADDED310A04EB44011BA800EBB3
:104DA000810090ED021A00EE810A32A800EB840027
:104DB00080ED000A601CC4B2032CD5DB9DED1D0AFA
:104DC0008DED350A9DED200A8DED360A02E00000DA
:104DD000E80000209DED230A8DED370A9DED360A8F
:104DE000DDED340A20EE200ADDED370A9DED331AA1
:104DF00000EEC10A8DED2C0A9DED370ADDED320A79
:104E000020EE200ADDED350A9DED341A00EEC10AD0
:104E10008DED2D0A9DED350ADDED330A20EE200AD9
:104E2000DDED360A9DED321A00EEC10A8DED2E0A37
:104E3000DDED2C0A60EEA00A9DED2D1ADDED2D1A98
:104E400041EE210A9DED2E1ADDED2E1A41EE210ACA
:104E5000B0EE600A02F08EFC8DED2B0ADDED2C0A1F
:104E60009DED2B0A20EE800A8DED2C0ADDED2D0A3A
:104E70009DED2B0A20EE800A8DED2D0ADDED2E0A28
:104E80009DED2B0A20EE800A8DED2E0A9DED350A50
:104E9000DDED320A30EE200A8DED350A9DED360A41
:104EA000DDED330A30EE200A8DED360A9DED370A2E
:104EB000DDED340A30EE200A8DED370A9DED350A1E
:104EC000F0EE000A80EE201A8DED351A9DED360ABF
:104ED000F0EE000A80EE201A8DED361A9DED370AAD
:104EE000F0EE000A80EE201A8DED371ADDED350A5E
:104EF00060EEA00A9DED361ADDED361A41EE210A6C
:104F00009DED371ADDED371A41EE210AB0EE600A49
:104F100002F026FC8DED2A0ADDED320A60EEA00AD1
:104F20009DED331ADDED331A41EE210A9DED341A61
:104F3000DDED341A41EE210AB0EE600A02F010FCF9
:104F40008DED290A9DED370ADDED340A20EE201A99
:104F50009DED2A0ADDED290A20EE200AC1EE000AA5
:104F60009DED350A9DED321A20EE010A9DED361AAF
:104F7000DDED331A01EE210A30EE80BAF7EE000AB9
:104F80004BEE4B0AB0EE600A02F0EAFB8DED280A08
:104F9000F0EE4B9ADDED2C0A9DED280A20EE800AFA
:104FA000F0EE408ADDED2D0A9DED280A20EE800A04
:104FB000B0EE408ADDED2E0A9DED280A20EE800A33
:104FC000B0EE409AFE4890ED000A20EE290A8DEDE1
:104FD000400A90ED010A20EE290A8DED410A90ED7C
:104FE000020A20EE290A8DED420A90ED030A20EE16
:104FF000290A8DED430A90ED000A20EE280A8DED76
:10500000440A90ED010A20EE280A8DED450A90ED44
:10501000020A20EE280A8DED460A90ED030A20EEE2
:10502000280A8DED470A90ED000A20EE080A8DED62
:10503000480A90ED010A20EE080A8DED490A90ED2C
:10504000020A20EE080A8DED4A0A90ED030A20EECE
:10505000080A8DED4B0A90ED000A20EE090A8DED4D
:105060004C0A90ED010A20EE090A8DED4D0A90EDF3
:10507000020A20EE090A8DED4E0A90ED030A20EE99
:10508000090A8DED4F0A9DED400ADDED450A30EE2F
:10509000600ADDED4A0A30EE600ADDED4F0A30EEBF
:1050A000600A80ED000A9DED440ADDED410A30EE14
:1050B000200ADDED4B0A30EE200ADDED4E0A30EE1F
:1050C000600A80ED010A9DED480ADDED420A30EEEE
:1050D000200ADDED4D0A30EE200ADDED470A30EE04
:1050E000600A80ED020A9DED4C0ADDED430A30EEC8
:1050F000200ADDED460A30EE200ADDED490A30EEE9
:10510000600A80ED030A9DED260AB1EE400ADFED4C
:10511000AD0A20EE200ADFEDAC0A80EE201A11EE77
:10512000106A304604F0E6FFCDE906019DED060B5E
:1051300002F074FAF0EE409A9FEDA40AF0EE408A75
:105140009FEDA20AB0EE408A9DED260AF1EE400ADC
:105150009FED9C0A20EE800ADFED9B0A80EE201A6C
:1051600011EE106A304604F0C5FFCDE904019DED53
:10517000040B02F0BBFA8DED060B9DED060B51EC16
:10518000100B04F053FC09EE100A8D4890ED000A54
:1051900020EE290A8DED400A90ED010A20EE290A41
:1051A0008DED410A90ED020A20EE290A8DED420AAA
:1051B00090ED030A20EE290A8DED430A90ED000AD6
:1051C00020EE280A8DED440A90ED010A20EE280A0F
:1051D0008DED450A90ED020A20EE280A8DED460A73
:1051E00090ED030A20EE280A8DED470A90ED000AA3
:1051F00020EE080A8DED480A90ED010A20EE080A1B
:105200008DED490A90ED020A20EE080A8DED4A0A5A
:1052100090ED030A20EE080A8DED4B0A90ED000A8E
:1052200020EE090A8DED4C0A90ED010A20EE090AE4
:105230008DED4D0A90ED020A20EE090A8DED4E0A21
:1052400090ED030A20EE090A8DED4F0A9DED400A0C
:10525000DDED450A30EE600ADDED4A0A30EE600A07
:10526000DDED4F0A70EE60CA9DED440ADDED410AA6
:1052700030EE200ADDED4B0A30EE200ADDED4E0A5D
:1052800030EE60DA9DED480ADDED420A30EE200A8C
:10529000DDED4D0A30EE200ADDED470A70EE60DAF2
:1052A0009DED4C0ADDED430A30EE200ADDED460AA5
:1052B00030EE200ADDED490A30EE60EA9DED080A85
:1052C00020EE290A8DED400A9DED090A20EE290AFB
:1052D0008DED410A9DED0A0A20EE290A8DED420A64
:1052E0009DED0B0A20EE290A8DED430A9DED080A7B
:1052F00020EE280A8DED440A9DED090A20EE280AC9
:105300008DED450A9DED0A0A20EE280A8DED460A2C
:105310009DED0B0A20EE280A8DED470A9DED080A47
:1053200020EE080A8DED480A9DED090A20EE080AD4
:105330008DED490A9DED0A0A20EE080A8DED4A0A14
:105340009DED0B0A20EE080A8DED4B0A9DED080A33
:1053500020EE090A8DED4C0A9DED090A20EE090A9E
:105360008DED4D0A9DED0A0A20EE090A8DED4E0ADB
:105370009DED0B0A20EE090A8DED4F0A9DED400AC6
:10538000DDED450A30EE600ADDED4A0A30EE600AD6
:10539000DDED4F0A30EE600A8DED080A9DED440AFE
:1053A000DDED410A30EE200ADDED4B0A30EE200A39
:1053B000DDED4E0A30EE600A8DED090A08E00000CE
:1053C000E8000020DB0F49400000B443000000006B
:1053D0009DED480ADDED420A30EE200ADDED4D0A72
:1053E00030EE200ADDED470A30EE600A8DED0A0A44
:1053F0009DED4C0ADDED430A30EE200ADDED460A54
:1054000030EE200ADDED490A30EE600A8DED0B0A20
:105410009DED090AB1EE400A8DED090A9DED0A0ADB
:10542000B1EE400A8DED0A0A9DED0B0AB1EE400A7D
:105430008DED0B0A9DED080A20EE2C0A8DED400A39
:105440009DED090A20EE2C0A8DED410A9DED0A0A18
:1054500020EE2C0A8DED420A9DED0B0A20EE2C0A5F
:105460008DED430A9DED080A20EE0D0A8DED440AEC
:105470009DED090A20EE0D0A8DED450A9DED0A0A03
:1054800020EE0D0A8DED460A9DED0B0A20EE0D0A69
:105490008DED470A9DED080A20EE2D0A8DED480A94
:1054A0009DED090A20EE2D0A8DED490A9DED0A0AAF
:1054B00020EE2D0A8DED4A0A9DED0B0A20EE2D0AF5
:1054C0008DED4B0A9DED080A20EE0E0A8DED4C0A7B
:1054D0009DED090A20EE0E0A8DED4D0A9DED0A0A9A
:1054E00020EE0E0A8DED4E0A9DED0B0A20EE0E0AFF
:1054F0008DED4F0A9DED400ADDED450A30EE600A64
:10550000DDED4A0A30EE600ADDED4F0A30EE600A4A
:1055100080ED040A9DED440ADDED410A30EE200ADB
:10552000DDED4B0A30EE200ADDED4E0A30EE600A6A
:1055300080ED050A9DED480ADDED420A30EE200AB5
:10554000DDED4D0A30EE200ADDED470A30EE600A4F
:1055500080ED060A9DED4C0ADDED430A30EE200A8F
:10556000DDED460A30EE200ADDED490A30EE600A34
:1055700080ED070A90ED040AD0ED050A20EE200A1E
:105580008DED3F0A90ED040AD0ED060A20EE200AC8
:10559000B0EE40AA90ED050A20EE000A8DED3E0A1D
:1055A00090ED050AD0ED070A20EE200AF0EE40AAA1
:1055B00090ED060A20EE000A8DED3D0A90ED060AF8
:1055C000D0ED070A20EE200A8DED3C0AB0EE000A6D
:1055D0006AEE800AB0EE000A40EE4A0AB0EE000A17
:1055E0002AEE800AB0EE001A01EE4A0AB7EE001A5F
:1055F00000EEC01AB5EEC01AF1EE10FA02D81FED97
:105600008D0A31E0B0EE000A6AEE800AB0EE000AC0
:1056100040EE4A0AB0EE000A2AEE800AB0EE001A06
:1056200001EE4A0AB7EE001A00EEC01AB7EE000A01
:10563000B4EEC01AF1EE10FA02DDB7EE000A13E084
:10564000B0EE000A2AEE801AB0EE000A00EE4A1A06
:10565000B0EE000A6AEE800AB0EE000A40EE4A0A96
:10566000B7EE000A01EE600A8DED380A9DED3E1A94
:10567000F0EE001A61EE211A9DED3D1AB0EE002AFF
:1056800042EE011AB7EE001A31EE611AF0EE410A4D
:105690009DED3C1AF0EE001A61EE211A9DED3F1AC5
:1056A000B0EE002A42EE011AB0EE610A01F02AFDC6
:1056B000DFED950A20EE200A944880ED0E0A9DED5C
:1056C000380A02F04DF8F0EE40FAF0EE000A6AEE09
:1056D000A00AB0EE001A41EE4A0AB0EE600AF0EEFF
:1056E0006F0A01F00FFDB1EE400ADFED870A20EEF0
:1056F000200A864880ED0F0A90ED0F0AF0EE400A6E
:105700002A46DFED831A834983481FEDD01A9DEDA9
:10571000610A02F057F87D4890ED0E0AF0EE400A5B
:105720002A46DFED7B1A7D497D481FEDD81A9DED95
:10573000610A02F047F8774890ED030ADFED790A35
:10574000B4EEE00AF1EE10FA02D89FED760A0FE00F
:10575000704890ED030ADFED740AB4EEE00AF1EE52
:1057600010FA02DD9FED700A02E06A4890ED030A2C
:10577000684880ED030A694890ED030ADFED690A85
:10578000B4EEE00AF1EE10FA02D89FED660A0FE0DF
:10579000624890ED030ADFED640AB4EEE00AF1EE30
:1057A00010FA02DD9FED600A02E05C4890ED030A0A
:1057B0005A4880ED030A574890ED030ADFED5B0A73
:1057C00020EE200A80ED030A544890ED030ADFED35
:1057D000570A20EE200A80ED030A9DED0D0AB0EE77
:1057E000401A4C4890ED030AF0EE400A2A46F7EEC4
:1057F000001A4F494F489DED610A01F0E3FF9DED0E
:105800000C0AB0EE401A454890ED030AF0EE400A4B
:105810002A46F7EE001A484948489DED610A01F012
:10582000D1FF434890ED030ADFED450A60EE200A00
:105830004448B0F9160000EE100AB8EEC00A20EE97
:10584000800ADFED410A80EE201A394880ED031A04
:10585000394890ED030ADFED3A0A60EE200A394834
:10586000B0F9180000EE100AB8EEC00A20EE800A67
:10587000DFED350A80EE201A2F4880ED031A2C4800
:1058800090ED030ADFED270AB4EEE00AF1EE10FA1C
:1058900002D89FED240A0FE0254890ED030ADFEDC2
:1058A000220AB4EEE00AF1EE10FA02DD9FED1E0AC4
:1058B00002E01F4890ED030A1D4880ED030A1E48D0
:1058C00090ED030ADFED170AB4EEE00AF1EE10FAEC
:1058D00002D89FED140A0FE0174890ED030ADFEDA0
:1058E000120AB4EEE00AF1EE10FA02DD9FED0E0AA4
:1058F00002E0114890ED030A0F4880ED030A51B011
:10590000BDEC108B05B070BD33336542E80000205C
:105910000000484378080020500100209C08002027
:10592000640100200000FAC30000FA435D8A2B3CAA
:105930003008002028010020540800203C010020ED
:105940003333E5424A0600200000484230B52DEDD1
:10595000088B87B00546F0EE40AAB0EE60BA8E48DC
:1059600090ED050A3AEEC00A8DED050A90ED060AA3
:105970003BEE400A8DED060A9DED050ADFED870A34
:1059800020EE200A8DED050A9DED060ADFED840A62
:1059900020EE200A8DED060A90ED0B0A8DED030A2C
:1059A00090ED0A0A8DED040A9DED030ADFED7D0AF4
:1059B00020EE200A8DED030A9DED040ADFED790A41
:1059C00020EE200A8DED040A9DED040A8DED010AFA
:1059D0009DED030AB1EE400A8DED020A90ED0C0A2E
:1059E000F0EE408A7048C0ED018A9FED6E0A28EE05
:1059F000800AF0EE408A9DED010ADDED050A20EEF9
:105A0000200ADDED020A9DED061A00EE810AB5EED0
:105A1000C00AF1EE10FA01DB012401E04FF0FF347F
:105A200061490C74DDED050A60EEA00A9DED061AD1
:105A3000DDED061A41EE210AB0EE600A01F090FE9B
:105A4000B0EE408A584880ED008A28EE880AB5EE0C
:105A5000C00AF1EE10FA02D19FED540A05E068EE9B
:105A6000880AB7EE001A81EE200ADDED050A9DEDE9
:105A7000031A60EE810A9DED061ADDED041A41EE6F
:105A8000210A60EE209AF7EE000A49EEE90AB0EE2C
:105A9000600A01F065FEB0EE40AAF0EE690AB0EED1
:105AA0004A0A01F02FFBDFED420A20EE200A3E48B1
:105AB00080ED020AB5EEC08AF1EE10FA02D19FED38
:105AC0003B0A03E0F7EE000A80EE880AF0EE000AD7
:105AD00068EEA00A60EEA80A60EE8A0A20EE209A1C
