:020000040800F2
:1000000080A8002029030008292A00082F1C0008C6
:10001000252A0008F50800089B540008000000008D
:10002000000000000000000000000000690200085D
:10003000311A000800000000C5020008AD490008A0
:100040004303000843030008430300084303000878
:100050004303000843030008430300084303000868
:100060004303000843030008430300084303000858
:100070004303000843030008430300084303000848
:100080004303000843030008430300084303000838
:100090004303000843030008430300084303000828
:1000A000430300084303000843030008E94D000828
:1000B0004303000843030008430300084303000808
:1000C00043030008430300084303000843030008F8
:1000D00043030008E951000843030008595200088F
:1000E00043030008430300084303000843030008D8
:1000F00043030008430300084303000843030008C8
:1001000043030008430300084303000843030008B7
:1001100043030008BD5100084303000843030008DF
:100120004303000843030008430300084303000897
:100130004303000843030008430300084303000887
:100140004303000843030008430300084303000877
:100150004303000843030008430300084303000867
:100160004303000843030008430300084303000857
:100170004303000843030008430300084303000847
:10018000430300084303000800F002F800F05CF8A5
:100190000AA090E8000C82448344AAF10107DA45E2
:1001A00001D100F051F8AFF2090EBAE80F0013F0D8
:1001B000010F18BFFB1A43F00103184758870000CE
:1001C000788700000A444FF0000C10F8013B13F050
:1001D000070408BF10F8014B1D1108BF10F8015BA0
:1001E000641E05D010F8016B641E01F8016BF9D193
:1001F00013F0080F1EBF10F8014BAD1C0C1B09D1EA
:100200006D1E58BF01F801CBFAD505E014F8016B5B
:1002100001F8016B6D1EF9D59142D6D370470000ED
:100220000023002400250026103A28BF78C1FBD8FF
:10023000520728BF30C148BF0B6070471FB508F098
:100240005CF91FBD10B510BD00F05BF91146FFF75A
:10025000F5FF05F08DFA00F079F903B4FFF7F2FF2E
:1002600003BC05F01CF900002C4B19680868B0E8C5
:10027000F04F80F30988BFF36F8F4FF0000080F3D9
:10028000118870470000000008480068006880F38B
:1002900008884FF0000080F3148862B661B6BFF39F
:1002A0004F8FBFF36F8F00DF00BF00BF08ED00E08E
:1002B000DFF80C00016841F470010160704700BF75
:1002C00088ED00E0EFF30980BFF36F8F134B1A68DE
:1002D0001EF0100F08BF20ED108A20E9F04F1060CB
:1002E00009B44FF0500080F31188BFF34F8FBFF374
:1002F0006F8F06F057FD4FF0000080F3118809BCA6
:1003000019680868B0E8F04F1EF0100F08BFB0EC95
:10031000108A80F30988BFF36F8F7047C8050020EB
:10032000EFF30580704700000948804709480047FF
:10033000FEE7FEE7FEE7FEE7FEE7FEE7FEE7FEE795
:10034000FEE7FEE704480549054A064B70470000F2
:10035000CD490008890100088086002080A800207F
:1003600080880020808800207047032A40F2308077
:1003700010F0030C00F0158011F8013BBCF1020FE6
:10038000624498BF11F801CB00F8013B38BF11F867
:10039000013BA2F1040298BF00F801CB38BF00F87E
:1003A000013B11F0030300F05880083AC0F00880C8
:1003B00051F8043B083A51F804CBA0E80810F5E7DF
:1003C000121D5CBF51F8043B40F8043BAFF30080C2
:1003D000D20724BF11F8013B11F801CB48BF11F837
:1003E000012B24BF00F8013B00F801CB48BF00F807
:1003F000012B704702F0FF0343EA032242EA024264
:1004000000F05FB84FF0000200B5134694469646E0
:10041000203922BFA0E80C50A0E80C50B1F1200117
:10042000BFF4F7AF090728BFA0E80C5048BF0CC0C5
:100430005DF804EB890028BF40F8042B08BF704723
:1004400048BF20F8022B11F0804F18BF00F8012B95
:100450007047704770477047704710B5203AC0F03A
:100460000B80B1E81850203AA0E81850B1E81850B5
:10047000A0E81850BFF4F5AF5FEA027C24BFB1E8F2
:100480001850A0E8185044BF18C918C0BDE8104063
:100490005FEA827C24BF51F8043B40F8043B08BF6C
:1004A0007047D20728BF31F8023B48BF11F8012B33
:1004B00028BF20F8023B48BF00F8012B70474FF0DF
:1004C00000020429C0F0128010F0030C3FF49CAF2E
:1004D000CCF1040CBCF1020F18BF00F8012BA8BF2F
:1004E00020F8022BA1EB0C01FFF78EBF5FEAC17C65
:1004F00024BF00F8012B00F8012B48BF00F8012BA6
:100500007047754600F02CF8AE4605006946534624
:1005100020F00700854618B020B5FFF713FFBDE8AF
:1005200020404FF000064FF000074FF000084FF05A
:10053000000B21F00701AC46ACE8C009ACE8C009EB
:10054000ACE8C009ACE8C0098D46704710B5044658
:10055000AFF300802046BDE81040FFF77EBE0000EC
:10056000004870471C86002010B52DED048B9AB012
:10057000F0EE408AB0EE609AB0EE418A0446002266
:1005800001A98548006806F0AFFE9DED180AB0EE9F
:10059000401A2246DFED811A81498248F0EE490A6D
:1005A000B0EE680A05F0A4FA9DED170AB0EE401A05
:1005B0002246DFED7A1A7C497C48F0EE480AB0EE1C
:1005C000680A05F095FA764890ED030ADFED780A9F
:1005D000B4EEE00AF1EE10FA02D89FED750A0FE0D2
:1005E0006F4890ED030ADFED730AB4EEE00AF1EE16
:1005F00010FA02DD9FED6F0A02E0694890ED030AF0
:10060000674880ED030A684890ED030ADFED680A49
:10061000B4EEE00AF1EE10FA02D89FED650A0FE0A1
:10062000614890ED030ADFED630AB4EEE00AF1EEF3
:1006300010FA02DD9FED5F0A02E05B4890ED030ACD
:10064000594880ED030A564890ED030ADFED5A0A37
:1006500020EE200A80ED030A534890ED030ADFEDF7
:10066000560A20EE200A80ED030A9DED060AB0EE40
:10067000401A4B4890ED030AF0EE400A2246F7EE8E
:10068000001A4E494E48B0EE680A05F031FA9DED69
:10069000050AB0EE401A444890ED030AF0EE400A15
:1006A0002246F7EE001A47494748B0EE680A05F0BF
:1006B0001FFA424890ED030ADFED440A60EE200A7B
:1006C0004348B0F9120000EE100AB8EEC00A20EE5E
:1006D000800ADFED400A80EE201A384880ED031AC8
:1006E000384890ED030ADFED390A60EE200A3848F9
:1006F000B0F9140000EE100AB8EEC00A20EE800A2D
:10070000DFED340A80EE201A2E4880ED031A2B48C4
:1007100090ED030ADFED260AB4EEE00AF1EE10FADE
:1007200002D89FED230A0FE0244890ED030ADFED85
:10073000210AB4EEE00AF1EE10FA02DD9FED1D0A87
:1007400002E01E4890ED030A1C4880ED030A1D4894
:1007500090ED030ADFED160AB4EEE00AF1EE10FAAE
:1007600002D89FED130A0FE0164890ED030ADFED63
:10077000110AB4EEE00AF1EE10FA02DD9FED0D0A67
:1007800002E0104890ED030A0E4880ED030A1AB00B
:10079000BDEC048B10BD0000A80000200000484301
:1007A000B007002038010020D40700204C010020B1
:1007B0000000FAC30000FA435D8A2B3C6807002062
:1007C000100100208C070020240100203333E54273
:1007D000820500200000484200B599B00022694619
:1007E0003D48006806F080FD9FED3C0A3C4880EDE6
:1007F000000A9FED3A0A80ED020A9FED380A80ED6B
:10080000030A9FED360A80ED040A9FED340A80ED5D
:10081000010A9FED320A334880ED000A9FED2F0A4E
:1008200080ED020A9FED2D0A80ED030A9FED2B0A51
:1008300080ED040A9FED290A80ED010A9FED270A49
:10084000294880ED000A9FED250A80ED020A9FED00
:10085000230A80ED030A9FED210A80ED040A9FED33
:100860001F0A80ED010A9FED1D0A204880ED000A55
:100870009FED1A0A80ED020A9FED180A80ED030A27
:100880009FED160A80ED040A9FED140A80ED010A1F
:100890009DED000A164880ED000A9DED010A80EDED
:1008A000010A9DED020A80ED020A9DED030A80ED2A
:1008B000030A9FED0A0A80ED0C0A9FED080A80EDFD
:1008C0000D0A9FED060A80ED0E0A9FED040A80EDE9
:1008D0000F0A19B000BD0000A800002000000000B1
:1008E000B0070020D4070020680700208C070020F4
:1008F000D000002000BFFEE72DE9F04105460E467E
:10090000174600F003F9A02000F0CAF8384600F0BE
:10091000C7F800F0FBF8A12000F0C2F8002405E0C1
:10092000012000F08FF82855601CC4B2B442F7DBF8
:1009300000F00AF9BDE8F08170B505460C4600F0FC
:10094000E5F8A02000F0ACF8204600F0A9F8284611
:1009500000F0A6F800F0F8F870BD2DE9F04105466A
:100960000E461746002409E03A19D1B2285DFFF778
:10097000E3FF052004F0D0FD601CC4B2B442F3DBF9
:10098000BDE8F08110B580210C4801F043F900F07A
:100990006FFB4FF48071094801F03CF9022004F02C
:1009A000C7FD8021054801F037F9052004F0C0FD9E
:1009B0008021024801F02EF910BD0000000802401D
:1009C0001CB50121042002F035F94FF4C0700090ED
:1009D00001208DF8040003208DF8050000208DF81B
:1009E000060001208DF807006946064801F09EF8D0
:1009F0008021044801F010F94FF48071014801F0A2
:100A00000BF91CBD0008024010B580210C4801F014
:100A100001F900F02DFB4FF48071094801F0FCF85A
:100A2000022004F085FD8021054801F0F5F805203D
:100A300004F07EFD8021024801F0ECF810BD0000BA
:100A40000008024070B50546002400F0F9FA0026BF
:100A500019E08021114801F0DDF8022004F068FD62
:100A600080210E4801F0D8F86006040E4FF4807122
:100A70000A4801F0C6F808B1601CC4B2012004F0B5
:100A800057FD701CC6B2082EE3DB15B9FFF7BCFF9B
:100A900001E0FFF777FF204670BD0000000802402C
:100AA00070B5044600F0E4FA8021174801F0B2F86E
:100AB000002523E004F08000002805DD4FF480715C
:100AC000114801F0A9F804E04FF480710E4801F0DC
:100AD000A1F86006040E022004F02AFD80210A48D5
:100AE00001F09AF8022004F023FD8021064801F06D
:100AF00091F8022004F01CFD681CC5B2082DD9DB5A
:100B000000F040F870BD00000008024010B500F091
:100B1000AFFA4FF480710B4801F07EF8802109484C
:100B200001F07AF8052004F003FD4FF480710548C8
:100B300001F070F8062004F0FBFC8021014801F070
:100B400069F810BD0008024010B500F091FA80214C
:100B50000B4801F05FF84FF48071094801F05AF832
:100B60008021074801F058F8062004F0E1FC4FF41A
:100B70008071034801F050F8062004F0D9FC10BD44
:100B80000008024010B5002400F05AFA4FF48071BA
:100B9000114801F041F8012004F0CAFC80210E4800
:100BA00001F03AF8012004F0C3FC07E0601CC4B275
:100BB000FA2C03DDFFF7C8FF012010BD4FF4807150
:100BC000054801F01EF80028F0D18021024801F00C
:100BD00021F80020F1E700000008024008B580215C
:100BE0006B2004F0B2FD0A2004F096FC01216B207A
:100BF00004F0ABFD0A2004F08FFC6A460121752049
:100C000004F090FD9DF80000122801D0002008BDDE
:100C10000321682004F099FD0A2004F07DFC0121E5
:100C20006A2004F092FD0A2004F076FC4021702036
:100C300004F08BFD0A2004F06FFC00216C2004F00E
:100C400084FD0A2004F068FC0021192004F07DFDD9
:100C50000A2004F061FC04211A2004F076FD0A2029
:100C600004F05AFC18211B2004F06FFD0A2004F048
:100C700053FC10211C2004F068FD0A2004F04CFCF9
:100C800004211D2004F061FD0A2004F045FC002130
:100C90001E2004F05AFD0A2004F03EFC002123200F
:100CA00004F053FD0A2004F037FC0021372004F043
:100CB0004CFD0A2004F030FC0021382004F045FDF2
:100CC0000A2004F029FC064A0121752004F02AFDBF
:100CD00003480078122801D1002098E7012096E708
:100CE0008101002010B5044622460E213B2004F06D
:100CF00019FD10BD1CB50121042001F09BFF4FF42C
:100D00000050009001208DF8040003208DF80500AC
:100D100000208DF8060001208DF807006946024882
:100D200000F004FF1CBD00000008024010B504469E
:100D3000012C04D14103054800F06CFF04E04FF49E
:100D40000051024800F068FF10BD0000000802409A
:100D500000B58BB001A800F061FF08A804F024FAE8
:100D600003A804F0CCF90121062001F073FF012152
:100D7000022001F05FFF4FF47470019002208DF8A3
:100D8000080003208DF8090000208DF80A000120DA
:100D90008DF80B0001A94C4800F0C8FE0222042186
:100DA000494800F00BFF02220621474800F006FFE9
:100DB00002220721444800F001FF02220821424894
:100DC00000F0FCFE022209213F4800F0F7FE44F645
:100DD000206009905320ADF820000020ADF82800D5
:100DE000ADF8220008A9394804F09CF944F62060C7
:100DF00009905320ADF820000020ADF82800ADF890
:100E0000220008A9324804F08DF96020ADF80C00EA
:100E10000020ADF818000120ADF80E0040F2DC50C3
:100E2000059003A92A4804F01FF80821284804F077
:100E300059F80120ADF80E004FF47A70059003A91F
:100E4000234804F059F80821214804F0A7F80120AC
:100E5000ADF80E0040F2DC50059003A91C4804F0E8
:100E6000ABF808211A4804F0F7F80120ADF80E009D
:100E700040F2DC50059003A9154804F0F7F808216A
:100E8000134804F02FF90120ADF80E0040F2DC50B9
:100E9000059003A90D4803F0E7FF08210B4804F073
:100EA00021F801210A4803F0C1FF0121084803F09D
:100EB000CCFF0121054803F0B9FF0121034803F0ED
:100EC000C4FF0BB000BD000000040240000400405D
:100ED000000800402DE9F04704460D4616461F461F
:100EE00054484089204404B252488089284405B2BD
:100EF0005048C089304406B24E48008A384407B290
:100F00004C48808808B1604204B24A48C08808B1A1
:100F1000684205B24748008908B1784207B214F523
:100F2000FA7F01DC444806E0B4F5FA7F02DD4FF4B5
:100F3000FA7000E02046044615F5FA7F01DC3E48D1
:100F400006E0B5F5FA7F02DD4FF4FA7000E02846BE
:100F5000054616F5FA7F01DC374806E0B6F5FA7F5C
:100F600002DD4FF4FA7000E03046064617F5FA7FCE
:100F700001DC314806E0B7F5FA7F02DD4FF4FA7084
:100F800000E0384607462B48408BB8BB281910F5BF
:100F9000FA7F01DC284807E02819B0F5FA7F02DD66
:100FA0004FF4FA7000E028190FFA80F8281B10F5AA
:100FB000FA7F01DC204807E0281BB0F5FA7F02DD4C
:100FC0004FF4FA7000E0281B0FFA80F908F2DC50A9
:100FD00081B21A4804F0A3F809F2DC5081B2174834
:100FE00004F09BF806F2DC5081B2144804F093F848
:100FF00040F2DC51114804F08CF818E0FFE704F2ED
:10100000DC5081B20D4804F08AF804F2DC5081B261
:101010000A4804F082F806F2DC5081B2074804F076
:101020007AF805F2DC5081B2044804F072F8BDE8A9
:10103000F0870000820500200CFEFFFF0008004042
:101040001CB54FF48070009000208DF80400032040
:101050008DF8050000208DF8060001208DF80700AE
:101060006946024800F062FD1CBD00000008024015
:101070001CB54FF48070009001208DF8040003200F
:101080008DF8050000208DF8060001208DF807007E
:101090006946024800F04AFD1CBD000000080240FD
:1010A00000B587B00121084601F0C4FD02208DF88B
:1010B000180003208DF8190000208DF81A00012077
:1010C0008DF81B002020059005A92E4800F02EFD6C
:1010D0008020059005A92B4800F028FD40200590B0
:1010E00005A9284800F022FD05221146254800F0F8
:1010F00065FD05220621234800F060FD0522072139
:10110000204800F05BFD01208DF8180010200590AC
:1011100005A91C4800F00AFD10211A4800F07CFDCA
:10112000194803F03FFA0121080301F0B3FD002143
:10113000154803F02BFA0020ADF800004FF4827040
:10114000ADF802000220ADF806000120ADF808005D
:101150000020ADF804004FF40070ADF80A00002044
:10116000ADF80C00ADF80E000720ADF81000694690
:10117000054803F07DFA0121034803F007FA07B0A0
:1011800000BD0000000002400030014070B5044680
:10119000002507E0681C80B205464FF6FF718842C3
:1011A00000D105E00221104803F054FA0028F1D0E4
:1011B00000BF47F6FF7521460B4803F057FA07E0DA
:1011C000681C80B205464FF6FF71884200D105E0E9
:1011D0000121054803F03EFA0028F1D000BF024883
:1011E00003F041FAC0B270BD0030014070B5054651
:1011F0000E46002400BF05E00020FFF7C7FF28557A
:10120000601C84B2B442F7DB70BD000010B588B03A
:1012100004460121080501F01DFD0121042001F013
:1012200009FD0121082001F005FD35208DF80C0095
:1012300000208DF80D008DF80E0001208DF80F00B4
:1012400003A801F0F3FB08220C21264800F0B6FCAD
:1012500008220221244800F0B1FC4FF48050019094
:1012600002208DF808008DF8090000208DF80A0092
:1012700001208DF80B0001A91A4800F057FC04204A
:10128000019002208DF808008DF8090001208DF8EA
:101290000A0000208DF80B0001A9134800F046FC5D
:1012A00004940020ADF814004FF40050ADF816007F
:1012B000C010ADF818000020ADF81C000420ADF8F7
:1012C0001A0004A9094804F079F8012240F22551D6
:1012D000064804F04EF80121044804F014F808B060
:1012E00010BD000000080240000C02400050004009
:1012F00010B58AB004460121102001F0CBFC012179
:10130000084601F097FC25208DF80C0000208DF890
:101310000D008DF80E0001208DF80F0003A801F0DC
:1013200085FB4FF40070019002208DF808008DF8C5
:10133000090000208DF80A0001208DF80B0001A99A
:10134000254800F0F3FB4FF48060019002208DF8F7
:1013500008008DF8090001208DF80A0000208DF8A2
:101360000B0001A91C4800F0E1FB072209211A48E3
:1013700000F024FC07220A21174800F01FFC069405
:101380000020ADF81C00ADF81E00ADF82000ADF84F
:1013900024000C20ADF822000020ADF81000ADF8BC
:1013A00012004FF40070ADF814000020ADF81600E4
:1013B00006A90A4804F002F804A9084803F093FFBC
:1013C000012240F22551054803F0D3FF01210348D3
:1013D00003F099FF0AB010BD000002400010014068
:1013E00070B505460E4600240AE0295D0B480278D8
:1013F0000078401C094B187009488154601CC4B225
:10140000B442F2DB0748808900F0800028B901224D
:1014100040F22771034803F0ACFF70BD7D0100204E
:10142000900800200010014030B593B0054600241C
:10143000AB222146641C0BA8425411222146641C95
:101440004254FF222146641C4254FE48425D21461C
:10145000641C0BA84254082D7ED2DFE805F004C4BA
:10146000FEFDFCFBFAF90D222046611CCCB20BA953
:101470000A5400222046611CCCB20BA90A54F2483F
:1014800090ED070ADFEDF10A20EE200ABDEEC00A5A
:1014900010EE100A00B20A909DF828202046611C28
:1014A000CCB20BA90A549DF829202046611CCCB26D
:1014B0000BA90A54E44890ED080ADFEDE40A20EE97
:1014C000200ABDEEC00A10EE100A00B20A909DF884
:1014D00028202046611CCCB20BA90A549DF8292073
:1014E0002046611CCCB20BA90A54D74890ED090ADA
:1014F000DFEDD60A20EE200ABDEEC00A10EE100A7B
:1015000000B20A909DF828202046611CCCB20BA99D
:101510000A549DF829202046611CCCB20BA90A541C
:10152000C94890ED040ADFEDC90A20EE200ABDEE9D
:10153000C00A10EE100A00B20A909DF8282020463A
:10154000611CCCB20BA90A549DF829202046611CCD
:10155000CCB20BA90A5400E04FE2BB4890ED050A5B
:10156000DFEDBA0A20EE200ABDEEC00A10EE100A26
:1015700000B20A909DF828202046611CCCB20BA92D
:101580000A549DF829202046611CCCB20BA90A54AC
:10159000AD4890ED060ADFEDAD0A20EE200ABDEE63
:1015A000C00A10EE100A00B20A909DF828202046CA
:1015B000611CCCB20BA90A549DF829202046611C5D
:1015C000CCB20BA90A5401222046611CCCB20BA953
:1015D0000A5421460BA801F0BBF8A01CC1B20BA80D
:1015E000FFF7FEFE09E207222046611CCCB20BA9E0
:1015F0000A5400222046611CCCB20BA90A5492481E
:1016000090ED170ADFED910A20EE200ABDEEC00A28
:1016100010EE100A00B20A909DF828202046611CA6
:10162000CCB20BA90A549DF829202046611CCCB2EB
:101630000BA90A54844890ED160ADFED840A20EEC7
:10164000200ABDEEC00A10EE100A00B20A9005E0B2
:101650003FE13DE1C5E0C3E0C1E038E09DF828206E
:101660002046611CCCB20BA90A549DF829202046C3
:10167000611CCCB20BA90A54734890ED180ADFED37
:10168000730A20EE200ABDEEC00A10EE100A00B266
:101690000A909DF828202046611CCCB20BA90A5460
:1016A0009DF829202046611CCCB20BA90A540022C7
:1016B0002046611CCCB20BA90A5421460BA801F0AC
:1016C00047F8A01CC1B20BA8FFF78AFE95E10922DA
:1016D0002046611CCCB20BA90A5400222046611C92
:1016E000CCB20BA90A54584890ED000ADFED580A15
:1016F00020EE200ABDEEC00A10EE100A00B20A90D9
:101700009DF828202046611CCCB20BA90A549DF8F4
:1017100029202046611CCCB20BA90A544A4890EDFE
:10172000010ADFED4B0A20EE200ABDEEC00A10EEE2
:10173000100A00B20A909DF828202046611CCCB205
:101740000BA90A549DF829202046611CCCB20BA994
:101750000A543D4890ED020ADFED3D0A20EE200AD2
:10176000BDEEC00A10EE100A00B20A909DF82820C3
:101770002046611CCCB20BA90A549DF829202046B2
:10178000611CCCB20BA90A542F4890ED030ADFED7F
:10179000300A20EE200ABDEEC00A10EE100A00B298
:1017A0000A909DF828202046611CCCB20BA90A544F
:1017B0009DF829202146601CC4B20BA84254002287
:1017C0002046611CCCB20BA90A5421460BA800F09C
:1017D000BFFFA01CC1B20BA8FFF702FE0DE10CE198
:1017E0000BE1002206A91B48006805F07DFD0822D8
:1017F0002046611CCCB20BA90A5400222046611C71
:10180000CCB20BA90A54BDF81A0000F2DC5080B229
:1018100009909DF824202046611CCCB20BA90A54E3
:101820009DF825202046611CCCB20BA90A54BDF8B6
:101830001C0000F2DC5080B209909DF82420204664
:10184000611C09E066010020440000200000C8423D
:1018500000401C4660010020CCB20BA90A549DF840
:1018600025202046611CCCB20BA90A54BDF81E00ED
:1018700000F2DC5080B209909DF824202046611CC3
:10188000CCB20BA90A549DF825202046611CCCB28D
:101890000BA90A54BDF8200000F2DC5080B2099078
:1018A0009DF824202046611CCCB20BA90A549DF857
:1018B00025202046611CCCB20BA90A5421460BA856
:1018C00000F046FFA01CC1B20BA8FFF789FD94E011
:1018D00093E0002201A94A48006805F005FD0C22AA
:1018E0002046611CCCB20BA90A5400222046611C80
:1018F000CCB20BA90A54BDF8040000F2DC5000B2CF
:101900000A909DF828202046611CCCB20BA90A54ED
:101910009DF829202046611CCCB20BA90A54BDF8C1
:10192000060000F2DC5000B20A909DF82820204604
:10193000611CCCB20BA90A549DF829202046611CD9
:10194000CCB20BA90A54BDF8080000F2DC5000B27A
:101950000A909DF828202046611CCCB20BA90A549D
:101960009DF829202046611CCCB20BA90A54BDF871
:101970000A0000F2DC5000B20A909DF828202046B0
:10198000611CCCB20BA90A549DF829202046611C89
:10199000CCB20BA90A54BDF80C0000F2DC5000B226
:1019A0000A909DF828202046611CCCB20BA90A544D
:1019B0009DF829202046611CCCB20BA90A54BDF821
:1019C0000E0000F2DC5000B20A909DF8282020465C
:1019D000611CCCB20BA90A549DF829202046611C39
:1019E000CCB20BA90A5421460BA800F0B1FEA01CF2
:1019F000C1B20BA8FFF7F4FC00BF00BF13B030BDAD
:101A0000B400002014200949487014210748C1710E
:101A10004173C821C17441761421C177C82180F86F
:101A20002510142180F82B107047000002080020B8
:101A30007047000010B504462748B0F93A00B0F5E9
:101A4000967F03DD0020254908700CE02248B0F99C
:101A50003A0010F1C80F03DD01202049087002E0B0
:101A600002201E4908701D4800781D4909788842E7
:101A700005D0FEF7B1FE19480078194908701648DC
:101A800090F85200002802DD012014490870124825
:101A9000B0F9360010F5C87F03DD01200F4948700A
:101AA00002E000200D4948700C48007830B1012850
:101AB00007D0022809D003280CD10AE000F090FFDB
:101AC00008E0204602F0ECFE04E0204602F064FE4E
:101AD00000E000BF00BF10BDE8060020F8070020AE
:101AE0006501002010B50E48007880B901200C492E
:101AF000087000220A2105F069FA0A4908600023EB
:101B00001A4609490748006805F002FB06E002236F
:101B1000002205490348006805F0FAFA10BD0000EC
:101B20006401002060010020F8070020F0B50A469B
:101B300000210023002400BF3DE0012505FA01F348
:101B4000156805EA03049C4234D105684F0003265A
:101B5000BE40B543056015794E00B5400668354373
:101B600005601579012D02D01579022D16D18568F1
:101B70004F000326BE40B543856055794E00B54001
:101B8000866835438560456801268E40B5434560CB
:101B9000456896798E40B6B235434560C5684F00BA
:101BA0000326BE40B543C560D5794E00B540C66832
:101BB0003543C560491C1029BFD3F0BDF0B50023E3
:101BC00000244D07ED0E02FA05F3CE1000F12005BA
:101BD00055F826504E07F70E0F26BE40B543CF10DE
:101BE00000F1200646F82750CE1000F1200555F8E8
:101BF000265045EA0304CE1000F1200545F82640A2
:101C0000F0BD0246002013690B400BB1012000E03B
:101C10000020704741837047018370474FF6FF7182
:101C200001600021017141718171C171704700BF74
:101C3000FEE7000010B52DED0E8B8AB0F0EE408A65
:101C4000FE48D0ED070A60EEA00A90ED081AD0ED2C
:101C5000081A41EE210A90ED091AD0ED091A41EE59
:101C6000210AB0EE600A03F01BFFB0EE409AB5EE19
:101C7000C09AF1EE10FA02D19FEDF10A03E0F7EEFF
:101C8000000A80EE890AB0EE40EAEC4890ED070ABF
:101C900020EE090A8DED070A90ED080A20EE090AE8
:101CA0008DED080A90ED090A20EE090A8DED090A6A
:101CB00090ED000AD0ED010A60EE209A90ED000A46
:101CC000D0ED020A20EE20AA90ED010A60EE00AAF3
:101CD00090ED010AD0ED030A20EE20BA90ED020A41
:101CE00060EE00BA90ED020AD0ED030A20EE20CAA1
:101CF00090ED030A60EE00CA90ED010AD0ED020AF1
:101D000020EE20DA90ED000AD0ED030A60EE20DA32
:101D1000B0EE000A2BEE800AF0EE000A00EEAC0AEC
:101D2000F7EE000A30EEC00A80ED0D0AB0EE000AB0
:101D30002DEE000AF0EE000A00EEED0A80ED0E0A2C
:101D4000B0EE000A2BEE000AF0EE000A00EE8A0A5E
:101D500080ED0F0AB0EE000A2DEE000AF0EE000A48
:101D600000EEAD0A80ED100AB0EE000A2AEE800AFD
:101D7000F0EE000A00EEAC0AF7EE000A30EEC00A00
:101D800080ED110AB0EE000A2CEE000AF0EE000A17
:101D900000EEE90A80ED120AB0EE000A2BEE000A0E
:101DA000F0EE000A00EECA0AA64880ED000AA34839
:101DB00080ED130AB0EE000A2CEE000AF0EE000AE5
:101DC00000EEA90A9F4880ED010A9C4880ED140AA4
:101DD000B0EE000A2AEE800AF0EE000A00EEAB0A2E
:101DE000F7EE000A30EEC00A964880ED020A9348EA
:101DF00080ED150A9DED080A9248D0ED020A20EE0A
:101E0000200AD0ED010A9DED091A00EEC10A8DED00
:101E1000040A9DED070AD0ED020A20EE200AD0ED5B
:101E2000000A9DED091A10EE810A8DED050A9DED5F
:101E3000080AD0ED000A20EE200AD0ED010A9DED3F
:101E4000071A10EE810A8DED060A002449E09FED85
:101E50007E0AB4EEC0EAF1EE10FA06DCB2EE020A37
:101E6000B4EEC0EAF1EE10FA07D29FED750A8DEDDF
:101E7000060A8DED050A8DED040A744800EB840016
:101E800090ED000A04A800EB8400D0ED000A9FED5D
:101E9000701AF4EEC10AF1EE10FA02D8DFED6C0A06
:101EA00013E004A800EB8400D0ED000A9FED691A4E
:101EB000F4EEC10AF1EE10FA02DDDFED660A04E08D
:101EC00004A800EB8400D0ED000A60EEA80A9FEDA4
:101ED000621A00EE810A5D4800EB840080ED000A82
:101EE000641C032CB3DB9DED040A5848D0ED000AB6
:101EF00070EE200A514890ED040A9FED581A00EE4A
:101F0000810A20EE280AF0EE000A80EE201A8DEDFC
:101F1000011A9DED050A4D48D0ED010A70EE200A28
:101F2000464890ED050A9FED4D1A00EE810A20EE1D
:101F3000280AF0EE000A80EE201A8DED021A9DEDBF
:101F4000060A4248D0ED020A70EE200A3B4890EDA6
:101F5000060A9FED421A00EE810A20EE280AF0EEF2
:101F6000000A80EE201A8DED031A90ED000AD0EDE4
:101F7000010A9DED011A00EEC10AD0ED020A9DEDA5
:101F8000021A00EEC10AD0ED030A9DED031A00EE1D
:101F9000C10A80ED000A90ED010AD0ED000A9DED26
:101FA000011A00EE810AD0ED020A9DED031A00EE3F
:101FB000810AD0ED030A9DED021A00EEC10A80ED00
:101FC000010A90ED000ADDED020A20EE200AD0EDB4
:101FD000010A9DED031A00EEC10AD0ED020A30EEAF
:101FE000200AD0ED030A9DED011A00EE810A80ED72
:101FF000020A90ED000ADDED030A20EE200AD0ED82
:10200000010A9DED021A00EE810AD0ED020A9DED53
:10201000011A00EEC10AD0ED030A30EE200A80ED6D
:10202000030AD0ED000A60EEA00A90ED011AD0ED8F
:10203000011A41EE210A90ED021A11E0440000203D
:1020400000000000580600209A99294164060020EB
:10205000CDCCCCBDCDCCCC3D0AD7233CCDCC4C3E59
:10206000D0ED021A41EE210A90ED031AD0ED031AC9
:1020700041EE210AB0EE600A03F012FDB0EE408A94
:102080001248D0ED000AB0EE480A20EE800A80ED3A
:10209000000AD0ED010AB0EE480A20EE800A80ED79
:1020A000010AD0ED020AB0EE480A20EE800A80ED67
:1020B000020AD0ED030AB0EE480A20EE800A80ED55
:1020C000030A0AB0BDEC0E8B10BD000044000020D6
:1020D00010B50E48007880B901200C490870002224
:1020E000642104F073FF0A49086000231A46094975
:1020F0000748006805F00CF806E0022300220549B5
:102100000348006805F004F810BD0000B00000208E
:10211000A8000020440000201FB56846FEF7E2FD3D
:102120009DF801009DF8001040EA012000B2CB4963
:10213000C8809DF803009DF8021040EA012040424B
:1021400000B2C64908819DF805009DF8041040EAD8
:102150000120404200B2C14948819DF809009DF824
:10216000081040EA012000B2BC4908809DF80B002D
:102170009DF80A1040EA0120404200B2B749488069
:102180009DF80D009DF80C1040EA0120404200B27D
:10219000B24988809DF807009DF8061040EA0120AA
:1021A00000B2AE4988850846B0F9000000EE100A7A
:1021B000B8EEC00A0846D0ED050A30EE600AA8481D
:1021C00080ED0C0A0846B0F9020000EE100AB8EEE5
:1021D000C00A0846D0ED060A30EE600AA04880ED3D
:1021E0000D0A0846B0F9040000EE100AB8EEC00A65
:1021F0000846D0ED070A30EE600A994880ED0E0AD5
:102200000846B0F9060000EE100AB8EEC00A08460B
:10221000D0ED080A30EE600ADFED920A20EE200AC7
:10222000914880ED0C0A0846B0F9080000EE100A4B
:10223000B8EEC00A0846D0ED090A30EE600ADFEDBC
:102240008B0A20EE200A884880ED0D0A0846B0F976
:102250000A0000EE100AB8EEC00A0846D0ED0A0ADD
:1022600030EE600ADFED820A20EE200A7E4880ED23
:102270000E0A0320A5E000EB4001794A02EB810140
:1022800091ED000ADFED7B0A20EE200A411C01EBF4
:10229000410102EB8101D1ED000A9FED771A00EEBA
:1022A000810A00EB400102EB810181ED000A00EBA5
:1022B000400102EB810191ED010ADFED6E0A20EE93
:1022C000200A411C01EB410102EB8101D1ED010A21
:1022D0009FED691A00EE810A00EB400102EB8101DB
:1022E00081ED010A00EB400102EB810191ED020A50
:1022F000DFED600A20EE200A411C01EB410102EBF8
:102300008101D1ED020A9FED5C1A00EE810A00EB1B
:10231000400102EB810181ED020A00EB4001524ACB
:1023200002EB810191ED000ADFED520A20EE200A56
:10233000411C01EB410102EB8101D1ED000A9FED4F
:102340004E1A00EE810A00EB400102EB810181EDA3
:10235000000A00EB400102EB810191ED010ADFED83
:10236000450A20EE200A411C01EB410102EB8101EC
:10237000D1ED010A9FED401A00EE810A00EB400109
:1023800002EB810181ED010A00EB400102EB8101CA
:1023900091ED020ADFED370A20EE200A411C01EB25
:1023A000410102EB8101D1ED020A9FED331A00EEEB
:1023B000810A00EB400102EB810181ED020A411E1E
:1023C00048B20028BFF657AF254890ED000ADFED70
:1023D0002B0A20EE200ADFED2A0A20EE200A2948E7
:1023E00080ED040A1E4890ED010ADFED240A20EE7C
:1023F000200ADFED230A20EE200A224880ED050A9C
:10240000174890ED020ADFED1D0A20EE200ADFEDED
:102410001C0A20EE200A1B4880ED060A124890EDA7
:10242000000ADFED190A20EE200A164880ED070A9F
:102430000D4890ED010ADFED140A20EE200A114844
:1024400080ED080A084890ED020ADFED0F0A20EE41
:10245000200A0C4880ED090A1FBD0000140000206E
:1024600070060020DFC17F3FAC060020F3CC7F3F29
:10247000E624803F14AE473FAE47613EE2007A3D1E
:102480004DF38E3C440000206FF51C3B10B500F06E
:10249000B5F800F0EDF84FF47A7003F03DF810BD98
:1024A00010B52DED028B4C48D0ED130A90ED131AA8
:1024B000B7EE000A00EEC10AB5EEC00AF1EE10FA5E
:1024C00002D89FED460A1BE04348D0ED130A90ED79
:1024D000131AB7EE000A00EEC10AF7EE000AB4EED6
:1024E000E00AF1EE10FA02DDB7EE000A08E03A4821
:1024F000D0ED130A90ED131AB7EE000A00EEC10AF0
:10250000374880ED000A374890ED020ADFED360AC1
:10251000B4EEE00AF1EE10FA08DC90ED020ADFED0D
:10252000330AB4EEE00AF1EE10FA51D23048B0F9B5
:10253000000000EE100AB8EEC00ADFED2E0A80EEB1
:10254000208A254890ED151AF0EE410A90ED141AF4
:10255000B0EE410A02F0F8FFDFED270A10EE208A04
:102560001D4880ED168A2248B0F9020000EE100ADC
:10257000B8EEC00ADFED1F0AC0EE208A184890EDC1
:10258000000A03F083FAB0EE408A1348D0ED130A34
:10259000B0EE600AF0EE480A02F0D6FFB1EE400A53
:1025A000DFED150A50EE208A0B48C0ED178A90ED3A
:1025B0000D1AF0EE410A90ED101AB0EE410A02F049
:1025C000C3FFDFED0D0A20EE200A034880ED180A54
:1025D000BDEC028B10BD0000440000200000000094
:1025E000AC00002058060020CDCC4C3DCDCC4CBDDD
:1025F000820500200000C84233336542B7EE000A6E
:10260000194A82ED000A9FED190A82ED010A9FED39
:10261000170A82ED020A9FED150A82ED030A9FED6B
:10262000130A82ED070A9FED110A82ED080A9FED59
:102630000F0A82ED090A002013E000210DE09FED52
:102640000B0A00EB4003084A343202EB830202EB30
:10265000810282ED000A4A1CD1B20329EFDB421C41
:10266000D0B20328E9DB70474400002000000000DE
:102670002DE9FF410024002500269FED320A324853
:1026800080ED050A9FED2F0A80ED060A9FED2D0AC9
:1026900080ED070A002730E06846FEF723FB9DF82F
:1026A00009009DF8081040EA012000B22649088080
:1026B0009DF80B009DF80A1040EA0120404200B24C
:1026C000214948809DF80D009DF80C1040EA01203A
:1026D000404200B21C4988800846B0F9000004441A
:1026E0000846B0F9020005440846B0F90400064463
:1026F000022002F011FF781C87B2C82FCCDB00EE5D
:10270000104AB8EEC00ADFED110A80EE201A0E481A
:1027100080ED051A00EE105AB8EEC00ADFED0B0A84
:1027200080EE201A80ED061A00EE106AB8EEC00A9C
:10273000DFED060A80EE201A80ED071A002004B0B3
:10274000BDE8F081000000001400002000004843B4
:1027500070B500220023002400BF06E0855C1D4404
:10276000EBB2E518ECB2551CEAB28A42F6DB0D4634
:102770004E1CF1B243550D464E1CF1B2445570BD8E
:1027800070B506464FF0FF35002413E0B5F1FF3F6A
:102790000ED104EB44002B4911F81000012807D199
:1027A000002004EB4401274A02F8110065B203E05F
:1027B000601CC4B2052CE9DB00BFE8B202F03AF9B4
:1027C0004FF0FF35002436E004EB44001E4911F8B9
:1027D000100020BB04EB440001EB40008078304443
:1027E00004EB4401184A02EB4101887004EB4400F9
:1027F000114601EB4000807804EB440102EB4101FB
:102800004978884215DB002004EB440102EB4101CA
:102810008870012004EB440102F8110009E0B5F1D1
:10282000FF3F06D1002004EB4401074A02F81100E3
:1028300065B2601CC4B2082CC6DBE8B2FEF7F4FD3A
:1028400070BD0000320800200208002070B52DED98
:10285000028B05462248C078E02827D1204880799D
:1028600018B901201F49887437E01D488079012874
:1028700002D11C49087030E019488079022808D13B
:102880000120184988711648B0F807101548418191
:1028900023E01348807903281FD1012011490873D0
:1028A0000F48B0F807100F48018216E00C48C078B6
:1028B000E12812D101200B4908760948818909488D
:1028C00081830748C48890ED020AB0EE408AE0B2E6
:1028D000B0EE480A00F0F0F800BFBDEC028B70BD0E
:1028E000500800203208002070B5044639480078AE
:1028F00070B9AB2C08D1374801780078401C354AB4
:1029000010703548445464E000203249087060E09B
:1029100030480078032810D1E02C01D0E12C08D1F8
:102920002C4801780078401C2A4A10702A484454E8
:102930004FE00020274908704BE026480078042823
:102940000AD1244801780078401C224A107022489D
:102950004454224804703CE01E4801781F48007827
:10296000C01D81422DD11B4801780078401C194AB6
:1029700010701948445400250026002007E016492D
:10298000095C2944CDB27119CEB2411CC8B21349B9
:102990000978891D8842F2DB0F4910480078801DB4
:1029A000085CA84209D10D480078C01D085CB042FF
:1029B00003D10A480078FFF749FF00200549087055
:1029C00007E0044801780078401C024A1070024871
:1029D000445470BD73010020500800207401002091
:1029E00010B50E48408E0E4948800C48818E0C4828
:1029F00081800A48C18E0A48C1800848018F084872
:102A000001810446B4F90830B4F90620B4F9041081
:102A1000B4F90200FEF75EFA10BD0000E8060020DF
:102A2000F807002000BFFEE77047000070B50021E6
:102A300000230F22C4781CB3174C246804F4E0640C
:102A4000C4F5E064C4F30721C1F10404E3B20A4110
:102A500044789C40E1B28478144021430C07210E55
:102A60000E4C05786155047804F01F050124AC4034
:102A700005786D11AD0005F1E025C5F8004109E0CC
:102A8000047804F01F050124AC40054D067876114A
:102A900045F8264070BD00000CED00E000E400E0C9
:102AA00080E100E002490143024A116070470000E2
:102AB0000000FA050CED00E025490978172905DA30
:102AC00023490978491C224A117005E00021204A57
:102AD000117001211F4A11701F4931F9101000EEC9
:102AE000901AF8EEE00AF4EE400AF1EE10FA00D186
:102AF000704700EB400101EBC001184A02EB810175
:102B0000B1F9021000EE901AF8EEE00AF4EEC00AF5
:102B1000F1EE10FA0EDC00EB400101EBC00132F9DE
:102B2000211000EE901AF8EEE00AF4EEC00AF1EE81
:102B300010FA00D2DCE7FDEEC00A10EE901A09B2DE
:102B4000054A22F810100121054A117000BFCFE795
:102B5000C4050020C3050020820500208E0100204E
:102B6000C205002070B50025002240210B48FDF76A
:102B7000C3FE002405E00948005D2844C5B2601C7E
:102B8000C4B23F2CF7DB054890F83F00A84204D1BF
:102B90002E2202490248FDF7E8FB70BD900A002092
:102BA0008205002070B500252E220B490B48FDF749
:102BB000DCFB002405E00948005D2844C5B2601C28
:102BC000C4B23F2CF7DB054880F83F50002240217B
:102BD000FDF7C3FE70BD000082050020900A0020B2
:102BE00010B504461048007801281BD10F48007822
:102BF00018B900200C49087014E00D480088B0F5A1
:102C0000FA7F05DA0A48008820440949088009E06B
:102C1000002007490880FFF7C5FF0020024908701F
:102C20000249087010BD0000C3050020C205002045
:102C3000C605002029B1064A12680243044B1A60F7
:102C400004E0034A12688243014B1A607047000097
:102C50003038024029B1064A12680243044B1A6018
:102C600004E0034A12688243014B1A607047000077
:102C70004038024029B1064A12680243044B1A60E8
:102C800004E0034A12688243014B1A607047000057
:102C90002038024029B1064A12680243044B1A60E8
:102CA00004E0034A12688243014B1A607047000037
:102CB0004438024029B1064A12680243044B1A60A4
:102CC00004E0034A12688243014B1A607047000017
:102CD00024380240F0B500210022002402250026FD
:102CE0000223324F3F6807F00C0121B1042905D0BF
:102CF000082937D105E02E4F076036E02D4F0760D9
:102D000033E02A4F3F1F3F68C7F38056274F3F1FCE
:102D10003F6807F03F036EB1264FB7FBF3F7DFF8CC
:102D20008CC0ACF1040CDCF800C0CCF3881C07FBB1
:102D30000CF40CE01E4FB7FBF3F7DFF870C0ACF1FA
:102D4000040CDCF800C0CCF3881C07FB0CF4174F14
:102D50003F1F3F68C7F301477F1C7D00B4FBF5F7B9
:102D6000076002E0124F076000BF00BF0F4F3F68CF
:102D700007F0F0010909104F7A5C0768D7404760F7
:102D80000A4F3F6807F4E051890A0B4F7A5C4768A5
:102D9000D7408760054F3F6807F46041490B064FF5
:102DA0007A5C4768D740C760F0BD00000838024031
:102DB0000024F40000127A004806002010B50E48E6
:102DC000007880B901200C4908700022202104F00D
:102DD000FDF80A49086000231A46094907480068B7
:102DE00004F096F906E00223002205490348006832
:102DF00004F08EF910BD0000BA000020B4000020DD
:102E00001A07002010B50248FEF700FA10BD0000B6
:102E1000A086010000B50346184600F0B9F900F09D
:102E20009BF900BD00B5034641F28830834203D9C7
:102E300000200F49087019E0B3F5487F16D940F615
:102E40009800834212D20A480078082800DD00BDAD
:102E50000848074A127820F812300548007800F038
:102E60000BF803480078401C0149087000BFEEE7EA
:102E7000CC000020080700200021024A22F8101090
:102E8000704700003C07002000B500224AE02A48B5
:102E900030F91200A0F57A7000EE100AB8EEC00A00
:102EA000DFED260A20EE200ABDEEC00A10EE100A61
:102EB00001B22148323020F8121030F9120010F51A
:102EC000FA7F01DC1E480DE01B48323030F9120059
:102ED000B0F5FA7F02DD4FF4FA7003E016483230A5
:102EE00030F912001449323121F81200022A17D1A8
:102EF000084630F9120000F5FA7000EE100AB8EE3C
:102F0000C00ADFED100A20EE200ABDEEC00A10EE66
:102F1000100AA0F5FA7001B20748323020F81210FA
:102F2000501CC2B2082AB2DB0020034981F85200CB
:102F300000F042F900BD0000E80600202FDD243F2C
:102F40000CFEFFFF9A99193F18B504467DA0006852
:102F500000907D4801780078401C7B4A10707B48C7
:102F600044541046007819287ED118201146087064
:102F7000764800780F2878D17448007E38B17348BD
:102F8000017E734A12781DF802008142F3D10020BD
:102F90006D4908706D4840786C49897801F00701E7
:102FA00040EA01206B4908806848C0788006400DDF
:102FB0006649897840EAE10066494880634840797B
:102FC000C007400D6149097940EA81005F49C9782D
:102FD00040EAA1105F4988805C4880790007400D75
:102FE0005A49497940EA61005A49C8805748C0792E
:102FF0004006400D5549897940EA2110554908811C
:103000005248407A8007400D5049097A40EA410011
:103010004E49C97940EAE1104E4948814B48807ACF
:10302000C006400D4949497A40EAA10049498881D2
:103030004648C07AC0004549897A40EA611045494E
:10304000C8814248007B4149497B01F0070140EAC1
:103050000120404908823D48807B8006400D3B4965
:10306000497B40EAE10001E06AE05FE039494882DB
:103070003648007CC007400D3449C97B40EA8100D6
:103080003249897B40EAA110324988822F48407C2E
:103090000007400D2D49097C40EA61002D49C88296
:1030A0002A48807C4006400D2849497C40EA21108E
:1030B000284908832548007D8007400D2349C97CA5
:1030C00040EA41002149897C40EAE11021494883D6
:1030D0001E48407DC006400D1C49097D40EAA10004
:1030E0001C4988831948807DC0001849497D40EA01
:1030F00061101849C8831548C07D81F83000144814
:103100000078401C124908700878C11700EB9171D3
:103110008910A0EB81010E4A11700E4890F8300022
:1031200000F0080060B9FFF7AFFE09E0002305E0FA
:103130000649581C085CC854581CC3B2182BF7DB4E
:1031400018BD000004142434C40000204C070020E3
:10315000C5000020E80600200C4991F85210002913
:1031600013DD00200FE0022806D14FF60C6207495C
:10317000323121F8102004E000220449323121F8D4
:103180001020411CC8B20828EDDB7047E80600207B
:1031900007490988B1F5FA6F05DA0549098801443C
:1031A000034A118003E00121024A82F8521070475D
:1031B000B8000020E8060020002001490880704780
:1031C000B800002071B52DED040B2DED108BCBB0A8
:1031D000F0EE60EAB0EE41FA054640213AA8FDF76C
:1031E00011F9002208A9FE48006804F07DF8FD48A6
:1031F00090ED000A80ED080A90ED010A80ED090AC1
:1032000090ED020A80ED0A0A90ED030A80ED0B0AA8
:1032100090ED090AB1EE400A80ED090A90ED0A0A24
:10322000B1EE400A80ED0A0A90ED0B0AB1EE400AB9
:1032300080ED0B0A9DED080AD0ED080A20EE200A69
:103240008DED3A0A9DED080AD0ED090A20EE200A1C
:103250008DED3B0A9DED080AD0ED0A0A20EE200A0A
:103260008DED3C0A9DED080AD0ED0B0A20EE200AF8
:103270008DED3D0A9DED090AD0ED080A20EE200AE9
:103280008DED3E0A9DED090AD0ED090A20EE200AD7
:103290008DED3F0A9DED090AD0ED0A0A20EE200AC5
:1032A0008DED400A9DED090AD0ED0B0A20EE200AB3
:1032B0008DED410A9DED0A0AD0ED080A20EE200AA4
:1032C0008DED420A9DED0A0AD0ED090A20EE200A92
:1032D0008DED430A9DED0A0AD0ED0A0A20EE200A80
:1032E0008DED440A9DED0A0AD0ED0B0A20EE200A6E
:1032F0008DED450A9DED0B0AD0ED080A20EE200A5F
:103300008DED460A9DED0B0AD0ED090A20EE200A4C
:103310008DED470A9DED0B0AD0ED0A0A20EE200A3A
:103320008DED480A9DED0B0AD0ED0B0A20EE200A28
:103330008DED490A9DED3A0ADDED3F0A30EE600A57
:10334000DDED440A30EE600ADDED490A30EE600A38
:10335000F0EE409A9DED3E0ADDED3B0A30EE200A8C
:10336000DDED450A30EE200ADDED480A30EE600A58
:10337000F0EE408A9DED420ADDED3C0A30EE200A77
:10338000DDED470A30EE200ADDED410A30EE600A3D
:10339000B0EE408A9DED460ADDED3D0A30EE200A92
:1033A000DDED400A30EE200ADDED430A30EE600A22
:1033B000B0EE409A28EE080A8DED370A29EE090A88
:1033C0008DED330A28EE880A8DED350A29EE890A3B
:1033D0008DED340A9DED371AF0EE001A61EE211AD8
:1033E0009DED331AB0EE002A42EE011AB7EE001A34
:1033F00031EE611AF0EE410A9DED351AF0EE001A39
:1034000061EE211A9DED341AB0EE002A42EE011A47
:10341000B0EE610A02F098F8DFED730A20EE200AA0
:103420008DED210A9DED210AF0EE000A80EE201AB2
:103430008DED211A9DED210ADFED6C0A20EE200AA8
:10344000DFED6B0A80EE201A8DED211A219804F031
:10345000E3FFCDE906019DED060B02F075FAF0EEF3
:10346000409A9FED640AF0EE408A9FED620AB0EE4A
:10347000408A219804F0D0FFCDE904019DED040BB2
:1034800002F0CAFA8DED060B9DED060B51EC100B08
:1034900004F05EFC09EE100A524890ED000A20EE9E
:1034A000290A8DED3A0A90ED010A20EE290A8DEDE8
:1034B0003B0A90ED020A20EE290A8DED3C0A90EDC0
:1034C000030A20EE290A8DED3D0A90ED000A20EE58
:1034D000280A8DED3E0A90ED010A20EE280A8DEDB6
:1034E0003F0A90ED020A20EE280A8DED400A90ED89
:1034F000030A20EE280A8DED410A90ED000A20EE25
:10350000080A8DED420A90ED010A20EE080A8DEDC1
:10351000430A90ED020A20EE080A8DED440A90ED70
:10352000030A20EE080A8DED450A90ED000A20EE10
:10353000090A8DED460A90ED010A20EE090A8DED8B
:10354000470A90ED020A20EE090A8DED480A90ED37
:10355000030A20EE090A8DED490A9DED3A0ADDEDD8
:103560003F0A30EE600ADDED440A30EE600ADDED20
:10357000490A30EE600A80ED000A9DED3E0ADDED5D
:103580003B0A30EE200ADDED450A30EE200ADDED83
:10359000480A30EE600A80ED010A9DED420ADDED39
:1035A0003C0A30EE200ADDED470A30EE200ADDED60
:1035B000410A30EE600A80ED020A9DED460ADDED1B
:1035C0003D0A30EE200ADDED400A30EE200ADDED46
:1035D000430A30EE600A80ED030AD0ED0C0A0BE0DE
:1035E000A8000020D000002033336542DB0F4940A3
:1035F000000034430000000090ED0C0A3EEEC00ACB
:10360000BBEE0E1AB4EEC10AF1EE10FA02D8BBEE10
:103610000E0A13E0FE4890ED0C0A3EEEC00AB3EE2F
:103620000E1AB4EEC10AF1EE10FA02DDB3EE0E0A84
:1036300004E0F74890ED0C0A3EEEC00A30EE800A36
:10364000F34880ED0C0AD0ED0D0A90ED0D0AB1EEB5
:103650004F1A31EE400ABBEE0E1AB4EEC10AF1EE7B
:1036600010FA02D8BBEE0E0A17E0E94890ED0D0AF9
:10367000B1EE4F1A31EE400AB3EE0E1AB4EEC10AA3
:10368000F1EE10FA02DDB3EE0E0A06E0E04890ED2E
:103690000D0AB1EE4F1A31EE400A30EE800ADC48D6
:1036A00080ED0D0AD0ED0C0A9DED5B0A20EE800A3C
:1036B000F0EE40BAD0ED0D0A9DED5B0A20EE800AD7
:1036C000B0EE40CAB0EE000ACBEE800AF0EE60BA6F
:1036D000B0EE000ACCEE000AB0EE60CA1FED3D0A63
:1036E0002BEE800A5FED3E0A80EE201AF0EE41BA22
:1036F0001FED420A2CEE000A5FED430A80EE201A0D
:10370000B0EE41CA1BEE900A04F086FECDE9060138
:103710009DED060B02F018F9F0EE40FA1CEE100ACF
:1037200004F07AFECDE906019DED060B02F00CF9DE
:103730002FEE800A8DED3A0A1CEE100A04F06CFEA2
:10374000CDE900019DED000B02F066F98DED040B53
:103750001BEE900A04F060FECDE900019DED000B28
:1037600002F0F2F810EE106A304604F055FECDE992
:1037700002019DED040B53EC102B9DED020B51EC5F
:10378000100B04F01FFCCDE906019DED060B51EC7A
:10379000100B04F0DDFA3B901FED6A0A8DED3C0A38
:1037A0001FED6C0A8DED3D0A1FED6E0A8DED3E0A90
:1037B0001FED700A8DED3F0A1FED720A8DED400A74
:1037C0001FED740A8DED410A1CEE100A04F024FE70
:1037D000CDE900019DED000B02F0B6F810EE106A85
:1037E000304604F019FECDE904011BEE900A04F006
:1037F00013FECDE900019DED000B02F00DF98DEDFA
:10380000020B9DED040B53EC102B9DED020B51ECC4
:10381000100B04F0D7FBCDE906019DED060B51EC32
:10382000100B04F095FA42901CEE100A04F0F4FD1F
:10383000CDE900019DED000B02F0EEF88DED040BDB
:103840001BEE900A04F0E8FDCDE900019DED000BB0
:1038500002F0E2F88DED020B9DED040B53EC102B02
:103860009DED020B51EC100B04F0ACFBCDE9060111
:103870009DED060B51EC100B04F06AFA3AA9486270
:103880001FEDA40A8DED440A1FEDA60A8DED450A31
:103890001FEDA80A8DED460A1FEDAA0A8DED470A15
:1038A0001FEDAC0A8DED480A1FEDAE0A8DED490AF9
:1038B0009DED3A0ADDED3F0A30EE600ADDED440A87
:1038C00030EE600ADDED490A30EE600AF0EE409A13
:1038D0009DED3E0ADDED3B0A30EE200ADDED450AA6
:1038E00030EE200ADDED480A30EE600AF0EE408A44
:1038F0009DED420ADDED3C0A30EE200ADDED470A7F
:1039000030EE200ADDED410A30EE600AB0EE408A6A
:103910009DED460ADDED3D0A30EE200ADDED400A60
:1039200030EE200ADDED430A30EE600AB0EE409A38
:1039300028EEA80A8DED380A28EE080A8DED370A20
:1039400069EEA80ACDED390A29EE88AA68EE89AA9F
:1039500028EE090A8DED360A3AEE8A0AF0EE000AE0
:1039600020EE200A8DED290A9DED360ADDED390A9B
:1039700030EE200AF0EE000A20EE200A8DED2A0A31
:103980009DED380AF0EE000A60EE200A9DED370A40
:10399000B0EE001A41EE000AB7EE000A30EE600AFF
:1039A0008DED2B0A002427E09DED290A04EB44014C
:1039B00015A800EB8100D0ED000A20EE200ADDED15
:1039C0002A0A04EB440115A800EB810090ED011ACE
:1039D00000EE810ADDED2B0A04EB440115A800EB93
:1039E000810090ED021A00EE810A2CA800EB840001
:1039F00080ED000A601CC4B2032CD5DB9DED170AD4
:103A00008DED2F0A9DED1A0A8DED300A02E00000BF
:103A1000D00000209DED1D0A8DED310A9DED300A8C
:103A2000DDED2E0A20EE200ADDED310A9DED2D1A86
:103A300000EEC10A8DED260A9DED310ADDED2C0A5E
:103A400020EE200ADDED2F0A9DED2E1A00EEC10AB0
:103A50008DED270A9DED2F0ADDED2D0A20EE200ABF
:103A6000DDED300A9DED2C1A00EEC10A8DED280A1D
:103A7000DDED260A60EEA00A9DED271ADDED271A7E
:103A800041EE210A9DED281ADDED281A41EE210AAA
:103A9000B0EE600A02F004F88DED250ADDED260A8D
:103AA0009DED250A20EE800A8DED260ADDED270A20
:103AB0009DED250A20EE800A8DED270ADDED280A0E
:103AC0009DED250A20EE800A8DED280A9DED2F0A36
:103AD000DDED2C0A30EE200A8DED2F0A9DED300A27
:103AE000DDED2D0A30EE200A8DED300A9DED310A14
:103AF000DDED2E0A30EE200A8DED310A9DED2F0A04
:103B0000F0EE000A80EE201A8DED2F1A9DED300A9E
:103B1000F0EE000A80EE201A8DED301A9DED310A8C
:103B2000F0EE000A80EE201A8DED311ADDED2F0A3D
:103B300060EEA00A9DED301ADDED301A41EE210A4B
:103B40009DED311ADDED311A41EE210AB0EE600A29
:103B500001F09CFF8DED240ADDED2C0A60EEA00A39
:103B60009DED2D1ADDED2D1A41EE210A9DED2E1A47
:103B7000DDED2E1A41EE210AB0EE600A01F086FF5B
:103B80008DED230A9DED310ADDED2E0A20EE201A7F
:103B90009DED240ADDED230A20EE200AC1EE000A85
:103BA0009DED2F0A9DED2C1A20EE010A9DED301A95
:103BB000DDED2D1A01EE210A30EE80BAF7EE000A93
:103BC0004BEE4B0AB0EE600A01F060FF8DED220A69
:103BD000F0EE4B9ADDED260A9DED220A20EE800ADA
:103BE000F0EE408ADDED270A9DED220A20EE800AE4
:103BF000B0EE408ADDED280A9DED220A20EE800A13
:103C0000B0EE409AFE4890ED000A20EE290A8DEDB4
:103C10003A0A90ED010A20EE290A8DED3B0A90ED5B
:103C2000020A20EE290A8DED3C0A90ED030A20EEEF
:103C3000290A8DED3D0A90ED000A20EE280A8DED4F
:103C40003E0A90ED010A20EE280A8DED3F0A90ED24
:103C5000020A20EE280A8DED400A90ED030A20EEBC
:103C6000280A8DED410A90ED000A20EE080A8DED3C
:103C7000420A90ED010A20EE080A8DED430A90ED0C
:103C8000020A20EE080A8DED440A90ED030A20EEA8
:103C9000080A8DED450A90ED000A20EE090A8DED27
:103CA000460A90ED010A20EE090A8DED470A90EDD3
:103CB000020A20EE090A8DED480A90ED030A20EE73
:103CC000090A8DED490A9DED3A0ADDED3F0A30EE15
:103CD000600ADDED440A30EE600ADDED490A30EE9F
:103CE000600A80ED000A9DED3E0ADDED3B0A30EEF4
:103CF000200ADDED450A30EE200ADDED480A30EEFF
:103D0000600A80ED010A9DED420ADDED3C0A30EECD
:103D1000200ADDED470A30EE200ADDED410A30EEE3
:103D2000600A80ED020A9DED460ADDED3D0A30EEA7
:103D3000200ADDED400A30EE200ADDED430A30EEC8
:103D4000600A80ED030A9DED200AB1EE400ADFED26
:103D5000AD0A20EE200ADFEDAC0A80EE201A11EE4B
:103D6000106A304604F058FBCDE906019DED060BC4
:103D700001F0EAFDF0EE409A9FEDA40AF0EE408AD1
:103D80009FEDA20AB0EE408A9DED200AF1EE400AB6
:103D90009FED9C0A20EE800ADFED9B0A80EE201A40
:103DA00011EE106A304604F037FBCDE904019DEDB9
:103DB000040B01F031FE8DED060B9DED060B51EC71
:103DC000100B03F0C5FF09EE100A8D4890ED000AB4
:103DD00020EE290A8DED3A0A90ED010A20EE290A1B
:103DE0008DED3B0A90ED020A20EE290A8DED3C0A8A
:103DF00090ED030A20EE290A8DED3D0A90ED000AB0
:103E000020EE280A8DED3E0A90ED010A20EE280AE8
:103E10008DED3F0A90ED020A20EE280A8DED400A52
:103E200090ED030A20EE280A8DED410A90ED000A7C
:103E300020EE080A8DED420A90ED010A20EE080AF4
:103E40008DED430A90ED020A20EE080A8DED440A3A
:103E500090ED030A20EE080A8DED450A90ED000A68
:103E600020EE090A8DED460A90ED010A20EE090ABE
:103E70008DED470A90ED020A20EE090A8DED480A01
:103E800090ED030A20EE090A8DED490A9DED3A0AEC
:103E9000DDED3F0A30EE600ADDED440A30EE600AE7
:103EA000DDED490A70EE60CA9DED3E0ADDED3B0A8C
:103EB00030EE200ADDED450A30EE200ADDED480A3D
:103EC00030EE60DA9DED420ADDED3C0A30EE200A6C
:103ED000DDED470A30EE200ADDED410A70EE60DAD2
:103EE0009DED460ADDED3D0A30EE200ADDED400A8B
:103EF00030EE200ADDED430A30EE60EA9DED080A5F
:103F000020EE290A8DED3A0A9DED090A20EE290AD4
:103F10008DED3B0A9DED0A0A20EE290A8DED3C0A43
:103F20009DED0B0A20EE290A8DED3D0A9DED080A54
:103F300020EE280A8DED3E0A9DED090A20EE280AA2
:103F40008DED3F0A9DED0A0A20EE280A8DED400A0C
:103F50009DED0B0A20EE280A8DED410A9DED080A21
:103F600020EE080A8DED420A9DED090A20EE080AAE
:103F70008DED430A9DED0A0A20EE080A8DED440AF4
:103F80009DED0B0A20EE080A8DED450A9DED080A0D
:103F900020EE090A8DED460A9DED090A20EE090A78
:103FA0008DED470A9DED0A0A20EE090A8DED480ABB
:103FB0009DED0B0A20EE090A8DED490A9DED3A0AA6
:103FC000DDED3F0A30EE600ADDED440A30EE600AB6
:103FD000DDED490A30EE600A8DED080A9DED3E0ADE
:103FE000DDED3B0A30EE200ADDED450A30EE200A19
:103FF000DDED480A30EE600A8DED090A08E00000A8
:10400000D0000020DB0F49400000B4430000000056
:104010009DED420ADDED3C0A30EE200ADDED470A57
:1040200030EE200ADDED410A30EE600A8DED0A0A1D
:104030009DED460ADDED3D0A30EE200ADDED400A39
:1040400030EE200ADDED430A30EE600A8DED0B0AFA
:104050009DED090AB1EE400A8DED090A9DED0A0AAF
:10406000B1EE400A8DED0A0A9DED0B0AB1EE400A51
:104070008DED0B0A9DED080A20EE2C0A8DED3A0A13
:104080009DED090A20EE2C0A8DED3B0A9DED0A0AF2
:1040900020EE2C0A8DED3C0A9DED0B0A20EE2C0A39
:1040A0008DED3D0A9DED080A20EE0D0A8DED3E0ACC
:1040B0009DED090A20EE0D0A8DED3F0A9DED0A0ADD
:1040C00020EE0D0A8DED400A9DED0B0A20EE0D0A43
:1040D0008DED410A9DED080A20EE2D0A8DED420A74
:1040E0009DED090A20EE2D0A8DED430A9DED0A0A89
:1040F00020EE2D0A8DED440A9DED0B0A20EE2D0ACF
:104100008DED450A9DED080A20EE0E0A8DED460A5A
:104110009DED090A20EE0E0A8DED470A9DED0A0A73
:1041200020EE0E0A8DED480A9DED0B0A20EE0E0AD8
:104130008DED490A9DED3A0ADDED3F0A30EE600A49
:10414000DDED440A30EE600ADDED490A30EE600A2A
:1041500080ED040A9DED3E0ADDED3B0A30EE200ABB
:10416000DDED450A30EE200ADDED480A30EE600A4A
:1041700080ED050A9DED420ADDED3C0A30EE200A95
:10418000DDED470A30EE200ADDED410A30EE600A2F
:1041900080ED060A9DED460ADDED3D0A30EE200A6F
:1041A000DDED400A30EE200ADDED430A30EE600A14
:1041B00080ED070A90ED040AD0ED050A20EE200AF2
:1041C0008DED390A90ED040AD0ED060A20EE200AA2
:1041D000B0EE40AA90ED050A20EE000A8DED380AF7
:1041E00090ED050AD0ED070A20EE200AF0EE40AA75
:1041F00090ED060A20EE000A8DED370A90ED060AD2
:10420000D0ED070A20EE200A8DED360AB0EE000A46
:104210006AEE800AB0EE000A40EE4A0AB0EE000AEA
:104220002AEE800AB0EE001A01EE4A0AB7EE001A32
:1042300000EEC01AB5EEC01AF1EE10FA02D81FED6A
:104240008D0A31E0B0EE000A6AEE800AB0EE000A94
:1042500040EE4A0AB0EE000A2AEE800AB0EE001ADA
:1042600001EE4A0AB7EE001A00EEC01AB7EE000AD5
:10427000B4EEC01AF1EE10FA02DDB7EE000A13E058
:10428000B0EE000A2AEE801AB0EE000A00EE4A1ADA
:10429000B0EE000A6AEE800AB0EE000A40EE4A0A6A
:1042A000B7EE000A01EE600A8DED320A9DED381A74
:1042B000F0EE001A61EE211A9DED371AB0EE002AD9
:1042C00042EE011AB7EE001A31EE611AF0EE410A21
:1042D0009DED361AF0EE001A61EE211A9DED391AA5
:1042E000B0EE002A42EE011AB0EE610A01F02CF99C
:1042F000DFED950A20EE200A944880ED0E0A9DED30
:10430000320A01F0C3FBF0EE40FAF0EE000A6AEE6A
:10431000A00AB0EE001A41EE4A0AB0EE600AF0EED2
:104320006F0A01F011F9B1EE400ADFED870A20EEC5
:10433000200A864880ED0F0A90ED0F0AF0EE400A41
:104340002A46DFED831A834983481FEDD01A9DED7D
:104350005B0A01F0CDFB7D4890ED0E0AF0EE400ABD
:104360002A46DFED7B1A7D497D481FEDD81A9DED69
:104370005B0A01F0BDFB774890ED030ADFED790A97
:10438000B4EEE00AF1EE10FA02D89FED760A0FE0E3
:10439000704890ED030ADFED740AB4EEE00AF1EE26
:1043A00010FA02DD9FED700A02E06A4890ED030A00
:1043B000684880ED030A694890ED030ADFED690A59
:1043C000B4EEE00AF1EE10FA02D89FED660A0FE0B3
:1043D000624890ED030ADFED640AB4EEE00AF1EE04
:1043E00010FA02DD9FED600A02E05C4890ED030ADE
:1043F0005A4880ED030A574890ED030ADFED5B0A47
:1044000020EE200A80ED030A544890ED030ADFED08
:10441000570A20EE200A80ED030A9DED0D0AB0EE4A
:10442000401A4C4890ED030AF0EE400A2A46F7EE97
:10443000001A4F494F489DED5B0A01F059FB9DED75
:104440000C0AB0EE401A454890ED030AF0EE400A1F
:104450002A46F7EE001A484948489DED5B0A01F0EC
:1044600047FB434890ED030ADFED450A60EE200A62
:104470004448B0F9160000EE100AB8EEC00A20EE6B
:10448000800ADFED410A80EE201A394880ED031AD8
:10449000394890ED030ADFED3A0A60EE200A394808
:1044A000B0F9180000EE100AB8EEC00A20EE800A3B
:1044B000DFED350A80EE201A2F4880ED031A2C48D4
:1044C00090ED030ADFED270AB4EEE00AF1EE10FAF0
:1044D00002D89FED240A0FE0254890ED030ADFED96
:1044E000220AB4EEE00AF1EE10FA02DD9FED1E0A98
:1044F00002E01F4890ED030A1D4880ED030A1E48A4
:1045000090ED030ADFED170AB4EEE00AF1EE10FABF
:1045100002D89FED140A0FE0174890ED030ADFED73
:10452000120AB4EEE00AF1EE10FA02DD9FED0E0A77
:1045300002E0114890ED030A0F4880ED030A4BB0EA
:10454000BDEC108B05B070BD33336542D000002048
:1045500000004843B007002038010020D4070020A5
:104560004C0100200000FAC30000FA435D8A2B3C96
:1045700068070020100100208C0700202401002083
:104580003333E542820500200000484221B1028811
:1045900042F04002028004E002884FF6BF731A40E6
:1045A0000280704710B504462448844208D1012196
:1045B0008014FEF77FFB0021A014FEF77BFB3CE09C
:1045C0001F48844208D101210014FEF753FB00214B
:1045D0002014FEF74FFB30E01A48844208D1012135
:1045E000C013FEF747FB0021E013FEF743FB24E076
:1045F0001548844208D101214014FEF75BFB0021DD
:104600006014FEF757FB18E01048844209D10121DD
:104610000805FEF74FFB00214FF48010FEF74AFB20
:104620000BE00B48844208D101214805FEF742FB0C
:1046300000214FF40010FEF73DFB10BD003001409B
:1046400000380040003C0040003401400050014070
:10465000005401400246002013890B400BB1012099
:1046600000E00020704701468889704781817047CB
:1046700010B50022028802F441520B884C88234373
:104680008C882343CC8823430C8923434C892343C0
:104690008C892343CC8923431A430280838B4FF2B6
:1046A000FF74234083830B8A038210BD0CB5002066
:1046B000019000903448006840F48030324908602E
:1046C00000BF3148006800F4003000900198401CA1
:1046D0000190009818B90198B0F5A04FF1D12A487F
:1046E000006800F4003010B10120009001E00020CB
:1046F00000900098012846D123484030006840F0DF
:1047000080502149403108602048006840F4404012
:104710001E4908601C48083000681B4908310860C1
:104720000846006840F4004008600846006840F40D
:10473000A05008601648091F0860081F006840F074
:104740008070091F086000BF0F48006800F000700B
:104750000028F9D040F205700E4908600A48083078
:10476000006820F003000849083108600846006826
:1047700040F00200086000BF03480830006800F005
:104780000C000828F8D10CBD003802400070004031
:1047900008544007003C024070B52DED028B0446E2
:1047A0003748B0F9320000EE900AF8EEE00AB0EEB9
:1047B000600AB3EE041ADFED330A01F011F99FED40
:1047C000321AC0EE010A3148B0F9200000EE100A9A
:1047D000B8EEC00A20EE800AB0EE408A2848B0F950
:1047E000340000EE900AF8EEE00AB0EE600AB3EE94
:1047F000041ADFED240A01F0F3F89FED231AC0EE4E
:10480000010A2248B0F9220000EE100AB8EEC00AF0
:1048100020EE800AF0EE408A1D494878B0EE681A12
:10482000F0EE480A9FED1B0AFEF7CCFC1A4890ED0B
:10483000030ABDEEC00A10EE100A00B21449488007
:10484000164890ED030ABDEEC00A10EE100A01B240
:104850000F4881800A48C18E0D48C1800848018FE9
:104860000B4801810546B5F90830B5F90620B5F9C0
:104870000410B5F90200FCF72DFBBDEC028B70BDF6
:10488000E8060020000000000000FA438205002036
:10489000F80700200AD7A33C680700208C070020F7
:1048A00070B52DED028B04462F48B0F9320000EEB2
:1048B000100AB8EEC00A9FED2D1AC0EE010A2C486E
:1048C000B0F91C0000EE100AB8EEC00A20EE800A13
:1048D000B0EE408A2448B0F9340000EE100AB8EE79
:1048E000C00A9FED221AC0EE010A2148B0F91E004D
:1048F00000EE100AB8EEC00A20EE800AF0EE408A00
:104900001C494878B0EE681AF0EE480A9FED1A0A82
:10491000FBF72AFE194890ED030ABDEEC00A10EE1F
:10492000100A00B213494880154890ED030ABDEE05
:10493000C00A10EE100A01B20E4881800A48C18EEA
:104940000C48C1800848018F0A4801810546B5F925
:104950000830B5F90620B5F90410B5F90200FCF7E6
:10496000B9FABDEC028B70BDE80600200000FA43E6
:1049700082050020F80700200AD7A33C6807002022
:104980008C070020042808D14FF0E021096941F08C
:1049900004014FF0E022116107E04FF0E0210969C6
:1049A00021F004014FF0E0221161704710B5054875
:1049B0000068401C034908600348007808B102F011
:1049C000EBFA10BD880100208C01002010B51548BD
:1049D000006840F47000134908601348006840F014
:1049E00001001149086000200F49083108600E4895
:1049F00000680E4908400C4908600D48091D086010
:104A0000081F006820F48020091F08600020064964
:104A10000C310860FFF74AFE4FF000600149803911
:104A2000086010BD88ED00E000380240FFFFF6FE90
:104A30001030002430B593B005460024AB22214647
:104A4000641C03A8425411222146641C4254FF22D4
:104A50002146641C4254E048425D2146641C03A880
:104A60004254052D2FD2DFE805F0032F7DF5F40029
:104A700003222046611CCCB203A90A54002220461E
:104A8000611CCCB203A90A5401222046611CCCB29D
:104A900003A90A54172002909DF808202046611CA3
:104AA000CCB203A90A549DF809202046611CCCB25F
:104AB00003A90A54214603A8FDF74AFEA01CC1B26F
:104AC00003A8FCF78DFC83E106222046611CCCB2D2
:104AD00003A90A5400222046611CCCB203A90A543F
:104AE000BE48408901909DF804202046611CCCB24C
:104AF00003A90A549DF805202046611CCCB203A9E5
:104B00000A54B748BDF8041030F9110000EE100A3D
:104B1000B8EEC00A8DED000A9DF800202046611C09
:104B2000CCB203A90A549DF801202046611CCCB2E6
:104B300003A90A549DF802202046611CCCB203A9A7
:104B40000A549DF803202046611CCCB203A90A54E4
:104B5000214603A8FDF7FCFDA01CC1B203A8FCF789
:104B60003FFC35E132222046611CCCB203A90A5435
:104B700000222046611CCCB203A90A549748008A3F
:104B800001909DF804202046611CCCB203A90A5470
:104B90009DF805202046611CCCB203A90A54BDF83B
:104BA000040000EB400101EBC0008E4901EB8000E6
:104BB000B0F9020000EE100AB8EEC00A8DED000A4E
:104BC0009DF800202046611CCCB203A90A549DF830
:104BD00001202046611CCCB203A90A549DF8022092
:104BE0002046611CCCB203A90A549DF8032020463C
:104BF000611CCCB203A90A54BDF8040000EB4001CB
:104C000001EBC000774931F9200000EE100AB8EE40
:104C1000C00A8DED000A9DF800202046611CCCB230
:104C200003A90A549DF801202046611CCCB203A9B7
:104C30000A549DF802202046611CCCB203A90A54F4
:104C40009DF803202046611CCCB203A90A54002021
:104C500013E090E033E0BDF8041001EB410202EBF9
:104C6000C101604A02EB8101091D0B5C2146621CF7
:104C7000D4B203AA5354411CC8B21428EBDB002061
:104C800011E0BDF8041001EB410202EBC101554AED
:104C900002EB810118310B5C2146621CD4B203AADD
:104CA0005354411CC8B21428EBDB214603A8FDF77E
:104CB0004FFDA01CC1B203A8FCF792FB88E00922BB
:104CC0002046611CCCB203A90A5400222146601C74
:104CD000C4B203A8425411222046611CCCB203A9DD
:104CE0000A54002002909DF808202046611CCCB296
:104CF00003A90A549DF809202046611CCCB203A9DF
:104D00000A54002002909DF808202046611CCCB275
:104D100003A90A549DF809202046611CCCB203A9BE
:104D20000A54002002909DF808202046611CCCB255
:104D300003A90A549DF809202046611CCCB203A99E
:104D40000A54002002909DF808202046611CCCB235
:104D500003A90A549DF809202046611CCCB203A97E
:104D60000A54214603A8FDF7F3FCA01CC1B203A816
:104D7000FCF736FB2CE003222146601CC4B203A8DA
:104D8000425400222146601CC4B203A84254E122CE
:104D90002046611CCCB203A90A541048808B0190B4
:104DA0009DF804202046611CCCB203A90A549DF84A
:104DB00005202046611CCCB203A90A54214603A851
:104DC000FDF7C6FCA01CC1B203A8FCF709FB00BF9D
:104DD00000BF13B030BD00006E010020320800207B
:104DE000820500208E01002070B50E4800F039F8D1
:104DF00004460D480068A04206D94FF6FF702044D3
:104E000009490968451A02E007480068251A06485A
:104E100004602846FEF706F80221024800F012F866
:104E200070BD000000000140C800002021B10288D0
:104E300042F08002028004E002884FF67F731A403D
:104E400002807047CA430282704721B1028842F053
:104E50000102028004E002884FF6FE731A400280CD
:104E600070470146486B704770B50024002200234C
:104E7000058C4FF6FE7635400584028C8388048BC2
:104E80004FF68F752C40B51E2C400D882C43751E97
:104E90002A408D892A434D882A43104DA84202D0CA
:104EA0000F4DA84213D14FF6F7752A40CD892A43FA
:104EB0004FF6FB752A408D882A434FF6FF652B403D
:104EC0004FF6FF552B400D8A2B434D8A2B43838091
:104ED00004838D684563028470BD000000000140BA
:104EE000000401400A460021018B4FF6F773194078
:104EF000114301837047000070B500240022002395
:104F0000058C4FF6EF7635400584028C8388048B40
:104F100048F6FF752C404FF6FF452C400D884FF6A4
:104F2000FF7606EA05252C434FF6DF752A408D896A
:104F300006EA05152A434D8806EA05152A43154D4C
:104F4000A84202D0144DA8421DD14FF67F752A40C9
:104F5000CD894FF6FF7606EA05152A434FF6BF7551
:104F60002A408D8806EA05152A434FF6FF352B4067
:104F70004FF2FF752B400D8A06EA85052B434D8ABB
:104F800006EA85052B43838004838D68856302844C
:104F900070BD000000000140000401400A460021ED
:104FA000018B4FF2FF7319404FF6FF7303EA0223A0
:104FB000194301837047000070B5002400220023CC
:104FC000058C4FF6FF6635400584028C8388848B00
:104FD0004FF68F752C404FF6FC752C400D882C43F6
:104FE0004FF6FF552A408D894FF6FF7606EA0525D4
:104FF0002A434D8806EA05252A43154DA84202D0CA
:10500000144DA8421DD14FF2FF752A40CD894FF6AD
:10501000FF7606EA05252A434FF6FF352A408D889C
:1050200006EA05252A434EF6FF752B404DF6FF751F
:105030002B400D8A06EA05152B434D8A06EA051515
:105040002B43838084838D68C563028470BD000018
:1050500000000140000401400A460021818B4FF608
:10506000F7731940114381837047000070B5002227
:1050700000230024058C4EF6FF7635400584038C12
:105080008488828B48F6FF752A404FF6FF452A40F8
:105090000D884FF6FF7606EA05252A434DF6FF7583
:1050A0002B408D8906EA05352B434D8806EA0535E8
:1050B0002B430A4DA84202D0094DA84208D14BF615
:1050C000FF752C400D8A4FF6FF7606EA85152C43B6
:1050D000848082838D680564038470BD0000014074
:1050E000000401400A460021818B4FF2FF731940F2
:1050F0004FF6FF7303EA02231943818370470021AF
:1051000001804180818081608181C18101824182F1
:1051100070474163704781637047C16370470164A2
:105120007047000000220288184B98420ED0184B9E
:1051300098420BD0B0F1804F08D0164B984205D062
:10514000154B984202D0154B984204D14FF68F73FD
:105150001A404B881A43124B984207D0114B984281
:1051600004D04FF6FF431A400B891A4302804B6864
:10517000C3620B880385054B984202D0044B9842CA
:1051800001D18B7A0386012383827047000001409E
:10519000000401400004004000080040000C0040F2
:1051A00000100040001400404FF0FF31416000212A
:1051B00001800181418081727047000010B540F28A
:1051C0002551084800F0ABF858B140F22551054888
:1051D00000F07AF8034800F05BF9C4B22046FDF70E
:1051E000B3FE10BD0050004010B540F225511648E6
:1051F00000F095F858B140F22551134800F064F8DA
:10520000114800F045F9C4B22046FDF76DFB40F2AD
:1052100027710D4800F083F8A8B10C480178007898
:10522000401C0A4A10700A48405C074988801046B2
:10523000007808490978884205D10348808920F020
:1052400080000149888110BD001001407C010020D0
:10525000900800207D01002010B540F2255116482D
:1052600000F05DF840B140F22551134800F02CF8F1
:10527000114800F00DF9C4B240F227710E4800F059
:105280004EF8C0B10D4801780078401C0B4A1070F0
:105290000B48405C0849091D088010460078094900
:1052A0000978884207D104480C30008820F080003B
:1052B00001490C31088010BD004800407F010020EA
:1052C000900900208001002010B50022002340F644
:1052D0006A14A14200D100BF0A1201249440A3B273
:1052E000DC43048010BD10B502460020108A20F473
:1052F00070600B884C8823438C882343CC882343DD
:105300001843108210BD21B1828942F4005282817B
:1053100004E082894DF6FF731A408281704770B5B0
:105320000246002400230025002040F66A16B14200
:1053300000D100BFC1F3421501F01F03012606FA98
:1053400003F3012D02D19689334006E0022D02D1EC
:10535000168A334001E0968A33400C12012606FA81
:1053600004F41688344013B10CB1012000E0002091
:1053700070BDF0B50346002400260025002040F64D
:105380006A17B94200D100BF1846C1F3421401F0B8
:105390001F06012707FA06F5012C01D10C3004E0A5
:1053A000022C01D1103000E014301AB107682F43ED
:1053B000076002E00768AF430760F0BD2DE9FF47D3
:1053C00005460E460024A14600BFA046B08900B1A4
:1053D00000BF2C8A24F44054F08804432C82AC890A
:1053E00041F20C608443B0883189084371890843D5
:1053F0000443AC81AC8A24F44074B0890443AC8289
:105400006846FDF767FC2048854202D01F48854268
:1054100002D1DDF80C9001E0DDF80890A88900F4D5
:10542000004040B109EBC90000EB091031684900A8
:10543000B0FBF1F707E009EBC90000EB0910316898
:105440008900B0FBF1F76420B7FBF0F004012009FC
:10545000642101FB1078A88900F4004040B132209B
:1054600000EBC800B0FBF1F000F00700044308E0D7
:10547000322000EB08106421B0FBF1F000F00F00C7
:1054800004432C81BDE8FF87001001400014014057
:1054900001468888C0F30800704700BFFEE700BFE0
:1054A000704700001CB50020012103464A02CDE9E7
:1054B00000100DA10F4802F0CBF800201F21034679
:1054C0004FF40062CDE900100BA10E4802F0C0F8C5
:1054D00000201E2103464FF40062CDE900100AA10E
:1054E0000C4802F0B5F81CBD7461736B5F3230304C
:1054F0006D730000156900087461736B5F316D7323
:1055000000000000DD6800087461736B5F32306D6D
:105510007300000031690008044A116800BF034AA3
:105520001268521A8242FAD37047000088010020A4
:1055300030B5044600F0C6F8054600BF00F0C2F8DA
:10554000401BA042FAD330BD00B5B0EE403AB0EEF9
:10555000602AB5EEC03AF1EE10FA07D1B5EEC02AD6
:10556000F1EE10FA02D19FED501A99E0B0EE430A25
:1055700000F0DCF9F0EE403AB0EE420A00F0D6F965
:10558000F0EE402AF4EEE23AF1EE10FA02D283EEA7
:10559000A24A01E082EEA34A9FED440AB4EEC04A5B
:1055A000F1EE10FA02D2F0EE441A2DE0DFED400ADF
:1055B000B6EE000A14EE200AF0EE404ABDEEE40A10
:1055C00010EE100A00EE100AB8EEC00A34EEC00A5F
:1055D000F0EE404A374901EB800191ED000AF0EE10
:1055E000401A344A411C02EB810191ED000A114638
:1055F00001EB8001D1ED000A70EE600AB0EE610AA5
:1056000000EEA40AF0EE401AF4EEE32AF1EE10FAEE
:1056100020DDB5EEC02AF1EE10FA0ADBB5EEC03A95
:10562000F1EE10FA02DBB0EE611A39E0B1EE611A68
:1056300036E09FED211AB5EEC03AF1EE10FA04DB28
:1056400031EE610AB0EE401A2AE031EEC10AB0EE46
:10565000401A25E0B5EEC03AF1EE10FA10DB9FEDEE
:10566000171AB5EEC02AF1EE10FA04DB31EE610A2A
:10567000B0EE401A14E031EE210AB0EE401A0FE00D
:105680009FED0F1AB5EEC02AF1EE10FA04DB31EEF1
:10569000210AB0EE401A03E031EE610AB0EE401A82
:1056A000B0EE410A00BD0000000000008180803B98
:1056B0000000804310850008DB0F4940DB0FC93F25
:1056C000DB0FC9BF00BF0E4A11684FF0E0225269DC
:1056D0004FF0E0239B69D21A4FF47A735A434FF08C
:1056E000E0235B69B2FBF3F201EB4103C3EBC113AF
:1056F00002EBC300024A12689142E4D170470000F5
:105700008801002010B5044624B110210448FCF79C
:1057100081FA03E010210248FCF77EFA10BD000078
:105720000000024070B504460E4615460120FFF702
:10573000E9FF44F08000FBF729FD31462846FBF7DE
:1057400055FD0020FFF7DEFF70BD70B505460C4625
:105750000120FFF7D7FF2846FBF718FD0646204635
:10576000FBF714FD0020FFF7CDFF304670BD0000B1
:105770004FF44070FDF796F901F068F8FBF7BAFABC
:105780004FF46140FBF7B4FDFDF73CFBFBF788FCF1
:10579000FBF716F9FBF7DCFAFBF720FAFCF776FECD
:1057A000FCF730F9FDF7DEF90120FBF7BFFA4FF403
:1057B0007A70FFF7B1FE0020FBF7B8FAC820FFF7B8
:1057C000ABFE012003490870FFF76CFE01F094FA6C
:1057D00000BFFEE78C01002010B52DED0A8BB0EE66
:1057E000409AF0EE609A9FED450B53EC102B51EC74
:1057F000190B02F0ABFB18D29FED420B53EC102BB0
:1058000051EC190B02F0DEFB41EC1B0B9FED3F0B43
:1058100053EC102B02F0CEFA41EC1A0B53EC192B7F
:1058200002F0D0FB41EC180B17E09FED360B53EC68
:10583000102B51EC190B02F0C5FB41EC1B0B9FED3B
:10584000330B53EC102B02F0F1FC41EC1A0B53EC30
:10585000192B02F0B7FB41EC180B9FED280B53EC12
:10586000102B51EC180B02F071FB20D29FED290B8D
:1058700053EC102B51EC180B02F09CFA41EC1C0B72
:105880009FED260B53EC102B02F09CFB41EC1B0B05
:105890009FED200B53EC102B02F08CFA41EC1A0B0D
:1058A00053EC182B02F08EFB41EC180B1FE09FED20
:1058B000190B53EC102B51EC180B02F0C3FC41EC0C
:1058C0001C0B9FED180B53EC102B02F07BFB41ECF3
:1058D0001B0B9FED100B53EC102B02F06BFA41ECFD
:1058E0001A0B53EC182B02F06DFB41EC180BB0EEC9
:1058F000480AF0EE680ABDEC0A8B10BD00000000FB
:1059000000000000000000602FF0D93F00000060A0
:10591000305FF43F000000000000F03F000000C0D6
:10592000CCCCCCBF000000C0CCCCCC3FF0EE400AC9
:10593000F5EEC00AF1EE10FA02DBB0EE600A704735
:10594000B1EE600AFBE7000010B52DED088BB0EE5C
:10595000408AF0EE608A01249FED1D0B53EC102B62
:1059600051EC180B02F026FA41EC180B9FED1A0BC4
:1059700053EC102B51EC180B02F022FC0AD8A41E99
:105980009FED150B53EC102B51EC180B02F05AFC49
:1059900041EC180B204602F0C1FA41EC1A0BB0EEB4
:1059A000480AF0EE680A00F037F8B0EE40BAF0EEC0
:1059B00060BA53EC1A2B51EC1B0B02F003FB41ECC9
:1059C000190B02F0C5F900EE100ABDEC088B10BDF2
:1059D000F1D4C853FB21F93FF1D4C853FB2109404E
:1059E000F0EE401AF4EEE01AF1EE10FA09DD31EEB5
:1059F000C10AB4EEE00AF1EE10FA0BD2B0EE600A82
:105A000008E031EE810AB4EEE00AF1EE10FA01DDB1
:105A1000B0EE600A7047000010B52DED068BB0EEB9
:105A2000408AF0EE608A01249FED160B53EC102B98
:105A300051EC180B02F0C4FB0AD89FED120B53EC8B
:105A4000102B51EC180B02F0FDFB41EC180BA41EBF
:105A5000204602F063FA41EC190BB0EE480AF0EE72
:105A6000680AFFF7B9FEB0EE40AAF0EE60AA53EC68
:105A7000192B51EC1A0B02F0A5FA41EC100BBDECFE
:105A8000068B10BDF1D4C853FB21094000B5F0EEE0
:105A9000402AB0EE620A00F003F820EE220A00BDB0
:105AA000F0EE400AF6EE001A60EEA11AB0EE611AAE
:105AB000B0EE600A10EE100A0C49A1EB600000EE97
:105AC000100A21EE002AF7EE081A42EE401A61EEA3
:105AD000801AB0EE610A21EE002AF7EE081A42EEB3
