:020000040800F2
:10000000707B002029030008B91E0008BD120008FB
:10001000B51E0008E108000837390008000000009C
:10002000000000000000000000000000690200085D
:100030001911000800000000C5020008F531000891
:100040004303000843030008430300084303000878
:100050004303000843030008430300084303000868
:100060004303000843030008430300084303000858
:100070004303000843030008430300084303000848
:100080004303000843030008430300084303000838
:100090004303000843030008430300084303000828
:1000A00043030008430300084303000881320008AB
:1000B0004303000843030008430300084303000808
:1000C00043030008430300084303000843030008F8
:1000D000430300088136000843030008F536000892
:1000E00043030008430300084303000843030008D8
:1000F00043030008430300084303000843030008C8
:1001000043030008430300084303000843030008B7
:100110004303000855360008430300084303000862
:100120004303000843030008430300084303000897
:100130004303000843030008430300084303000887
:100140004303000843030008430300084303000877
:100150004303000843030008430300084303000867
:100160004303000843030008430300084303000857
:100170004303000843030008430300084303000847
:10018000430300084303000800F002F800F05CF8A5
:100190000AA090E8000C82448344AAF10107DA45E2
:1001A00001D100F051F8AFF2090EBAE80F0013F0D8
:1001B000010F18BFFB1A43F001031847886B0000BA
:1001C000A86B00000A444FF0000C10F8013B13F03C
:1001D000070408BF10F8014B1D1108BF10F8015BA0
:1001E000641E05D010F8016B641E01F8016BF9D193
:1001F00013F0080F1EBF10F8014BAD1C0C1B09D1EA
:100200006D1E58BF01F801CBFAD505E014F8016B5B
:1002100001F8016B6D1EF9D59142D6D370470000ED
:100220000023002400250026103A28BF78C1FBD8FF
:10023000520728BF30C148BF0B6070471FB506F09A
:1002400074FB1FBD10B510BD00F05BF91146FFF740
:10025000F5FF03F0AFFC00F079F903B4FFF7F2FF0C
:1002600003BC03F06AFB00002C4B19680868B0E877
:10027000F04F80F30988BFF36F8F4FF0000080F3D9
:10028000118870470000000008480068006880F38B
:1002900008884FF0000080F3148862B661B6BFF39F
:1002A0004F8FBFF36F8F00DF00BF00BF08ED00E08E
:1002B000DFF80C00016841F470010160704700BF75
:1002C00088ED00E0EFF30980BFF36F8F134B1A68DE
:1002D0001EF0100F08BF20ED108A20E9F04F1060CB
:1002E00009B44FF0500080F31188BFF34F8FBFF374
:1002F0006F8F04F06FFF4FF0000080F3118809BC8E
:1003000019680868B0E8F04F1EF0100F08BFB0EC95
:10031000108A80F30988BFF36F8F70479001002027
:10032000EFF30580704700000948804709480047FF
:10033000FEE7FEE7FEE7FEE7FEE7FEE7FEE7FEE795
:10034000FEE7FEE704480549054A064B70470000F2
:10035000193200088901000870590020707B0020C4
:10036000705B0020705B00207047032A40F23080F1
:1003700010F0030C00F0158011F8013BBCF1020FE6
:10038000624498BF11F801CB00F8013B38BF11F867
:10039000013BA2F1040298BF00F801CB38BF00F87E
:1003A000013B11F0030300F02580083AC0F00880FB
:1003B00051F8043B083A51F804CBA0E80810F5E7DF
:1003C000121D5CBF51F8043B40F8043BAFF30080C2
:1003D000D20724BF11F8013B11F801CB48BF11F837
:1003E000012B24BF00F8013B00F801CB48BF00F807
:1003F000012B704710B5203AC0F00B80B1E81850BF
:10040000203AA0E81850B1E81850A0E81850BFF4FE
:10041000F5AF5FEA027C24BFB1E81850A0E818509D
:1004200044BF18C918C0BDE810405FEA827C24BFF1
:1004300051F8043B40F8043B08BF7047D20728BF7F
:1004400031F8023B48BF11F8012B28BF20F8023BCE
:1004500048BF00F8012B704702F0FF0343EA032274
:1004600042EA024200F02DB84FF0000200B51346F8
:1004700094469646203922BFA0E80C50A0E80C50C4
:10048000B1F12001BFF4F7AF090728BFA0E80C5075
:1004900048BF0CC05DF804EB890028BF40F8042B6E
:1004A00008BF704748BF20F8022B11F0804F18BFDB
:1004B00000F8012B704770477047704770474FF046
:1004C00000020429C0F0128010F0030C3FF4CEAFFC
:1004D000CCF1040CBCF1020F18BF00F8012BA8BF2F
:1004E00020F8022BA1EB0C01FFF7C0BF5FEAC17C33
:1004F00024BF00F8012B00F8012B48BF00F8012BA6
:100500007047754600F02CF8AE4605006946534624
:1005100020F00700854618B020B5FFF713FFBDE8AF
:1005200020404FF000064FF000074FF000084FF05A
:10053000000B21F00701AC46ACE8C009ACE8C009EB
:10054000ACE8C009ACE8C0098D46704710B5044658
:10055000AFF300802046BDE81040FFF77EBE0000EC
:10056000004870470C59002010B52DED048B9AB04F
:10057000F0EE408AB0EE609AB0EE418A0446002266
:1005800001A98448006805F0C7F89DED180AB0EE8F
:10059000401A2246DFED801A80498148F0EE490A70
:1005A000B0EE680A03F0C2FC9DED170AB0EE401AE7
:1005B0002246DFED791A7B497B48F0EE480AB0EE1F
:1005C000680A03F0B3FC754890ED030ADFED770A83
:1005D000B4EEE00AF1EE10FA02D89FED740A0FE0D3
:1005E0006E4890ED030ADFED720AB4EEE00AF1EE18
:1005F00010FA02DD9FED6E0A02E0684890ED030AF2
:10060000664880ED030A674890ED030ADFED670A4C
:10061000B4EEE00AF1EE10FA02D89FED640A0FE0A2
:10062000604890ED030ADFED620AB4EEE00AF1EEF5
:1006300010FA02DD9FED5E0A02E05A4890ED030ACF
:10064000584880ED030A554890ED030ADFED590A3A
:1006500020EE200A80ED030A524890ED030ADFEDF8
:10066000550A20EE200A80ED030A9DED060AB0EE41
:10067000401A4A4890ED030AF0EE400A2246F7EE8F
:10068000001A4D494D48B0EE680A03F04FFC9DED4D
:10069000050AB0EE401A434890ED030AF0EE400A16
:1006A0002246F7EE001A46494648B0EE680A03F0C3
:1006B0003DFC414890ED030ADFED430A60EE200A5D
:1006C0004248007D00EE100AB8EE400A20EE800A93
:1006D000DFED3F0A80EE201A374880ED031A3848D4
:1006E00090ED030ADFED380A60EE200A3748407DBE
:1006F00000EE100AB8EE400A20EE800ADFED340A60
:1007000080EE201A2E4880ED031A2B4890ED030A44
:10071000DFED260AB4EEE00AF1EE10FA02D89FED02
:10072000230A0FE0244890ED030ADFED210AB4EE1E
:10073000E00AF1EE10FA02DD9FED1D0A02E01E480C
:1007400090ED030A1C4880ED030A1D4890ED030A52
:10075000DFED160AB4EEE00AF1EE10FA02D89FEDD2
:10076000130A0FE0164890ED030ADFED110AB4EE0C
:10077000E00AF1EE10FA02DD9FED0D0A02E01048EA
:1007800090ED030A0E4880ED030A1AB0BDEC048B0D
:1007900010BD0000A800002000004843780300209E
:1007A000240100209C030020380100200000FAC32F
:1007B0000000FA435D8A2B3C30030020FC0000203F
:1007C00054030020100100203333E5425C01002077
:1007D0000000484200B599B00022694639480068D7
:1007E00004F09AFF9FED380A384880ED000A9FED2B
:1007F000360A80ED020A9FED340A80ED030A9FED70
:10080000320A80ED040A9FED300A80ED010A9FED67
:100810002E0A2F4880ED000A9FED2B0A80ED020A78
:100820009FED290A80ED030A9FED270A80ED040A57
:100830009FED250A80ED010A9FED230A254880EDF2
:10084000000A9FED210A80ED020A9FED1F0A80ED4C
:10085000030A9FED1D0A80ED040A9FED1B0A80ED3F
:10086000010A9FED190A1C4880ED000A9FED160A47
:1008700080ED020A9FED140A80ED030A9FED120A33
:1008800080ED040A9FED100A80ED010A9DED000A3B
:10089000124880ED000A9DED010A80ED010A9DEDF0
:1008A000020A80ED020A9DED030A80ED030A9FED26
:1008B000060A80ED080A9FED040A80ED090A19B0C6
:1008C00000BD0000A8000020000000007803002008
:1008D0009C0300203003002054030020CC000020A3
:1008E00000BFFEE71CB50121042001F02DFB4FF4F1
:1008F000C070009001208DF8040003208DF80500E1
:1009000000208DF8060001208DF807006946064892
:1009100000F05CFC8021044800F0C5FC4FF48071BD
:10092000014800F0C0FC1CBD0008024008B5802151
:100930006B2003F02CF90A2003F03CF801216B2016
:1009400003F025F90A2003F035F86A4601217520E5
:1009500003F00AF99DF80000122801D0002008BD1C
:100960000321682003F013F90A2003F023F8012182
:100970006A2003F00CF90A2003F01CF840217020D3
:1009800003F005F90A2003F015F800216C2003F0AC
:10099000FEF80A2003F00EF80021192003F0F7F802
:1009A0000A2003F007F804211A2003F0F0F80A20C7
:1009B00003F000F818211B2003F0E9F80A2002F0E8
:1009C000F9FF10211C2003F0E2F80A2002F0F2FFE8
:1009D00004211D2003F0DBF80A2002F0EBFF0021C8
:1009E0001E2003F0D4F80A2002F0E4FF00212320A7
:1009F00003F0CDF80A2002F0DDFF0021372003F0DC
:100A0000C6F80A2002F0D6FF0021382003F0BFF814
:100A10000A2002F0CFFF064A0121752003F0A4F856
:100A200003480078122801D1002098E7012096E7BA
:100A30005901002010B5044622460E213B2003F048
:100A400093F810BD1CB50121042001F07DFA4FF48C
:100A50000050009001208DF8040003208DF805005F
:100A600000208DF8060001208DF807006946024835
:100A700000F0ACFB1CBD00000008024010B50446AD
:100A8000012C04D14103054800F00BFC04E04FF4B5
:100A90000051024800F007FC10BD000000080240B1
:100AA00000B58BB001A800F000FC08A802F0C8FD5A
:100AB00003A802F070FD0121062001F055FA012182
:100AC000022001F041FA4FF47470019002208DF879
:100AD000080003208DF8090000208DF80A0001208D
:100AE0008DF80B0001A94C4800F070FB0222042194
:100AF000494800F0B3FB02220621474800F0AEFB54
:100B000002220721444800F0A9FB022208214248A2
:100B100000F0A4FB022209213F4800F09FFB44F6AD
:100B2000206009905320ADF820000020ADF8280087
:100B3000ADF8220008A9394802F040FD44F62060D3
:100B400009905320ADF820000020ADF82800ADF842
:100B5000220008A9324802F031FD6020ADF80C00F7
:100B60000020ADF818000120ADF80E0040F2DC5076
:100B7000059003A92A4802F0C3FB0821284802F087
:100B8000FDFB0120ADF80E004FF47A70059003A92B
:100B9000234802F0FDFB0821214802F04BFC012014
:100BA000ADF80E0040F2DC50059003A91C4802F09D
:100BB0004FFC08211A4802F09BFC0120ADF80E0002
:100BC00040F2DC50059003A9154802F09BFC082177
:100BD000134802F0D3FC0120ADF80E0040F2DC50C7
:100BE000059003A90D4802F08BFB08210B4802F089
:100BF000C5FB01210A4802F065FB0121084802F00B
:100C000070FB0121054802F05DFB0121034802F061
:100C100068FB0BB000BD000000040240000400406F
:100C2000000800402DE9F04704460D4616461F46D1
:100C300054488089204404B25248C089284405B2EF
:100C40005048008A304406B24E48408A384407B2C1
:100C50004C48007A08B1604204B24A48407A08B170
:100C6000684205B24748807A08B1784207B214F565
:100C7000FA7F01DC444806E0B4F5FA7F02DD4FF468
:100C8000FA7000E02046044615F5FA7F01DC3E4884
:100C900006E0B5F5FA7F02DD4FF4FA7000E0284671
:100CA000054616F5FA7F01DC374806E0B6F5FA7F0F
:100CB00002DD4FF4FA7000E03046064617F5FA7F81
:100CC00001DC314806E0B7F5FA7F02DD4FF4FA7037
:100CD00000E0384607462B48007EB8BB281910F5BF
:100CE000FA7F01DC284807E02819B0F5FA7F02DD19
:100CF0004FF4FA7000E028190FFA80F8281B10F55D
:100D0000FA7F01DC204807E0281BB0F5FA7F02DDFE
:100D10004FF4FA7000E0281B0FFA80F908F2DC505B
:100D200081B21A4802F047FC09F2DC5081B2174840
:100D300002F03FFC06F2DC5081B2144802F037FCAE
:100D400040F2DC51114802F030FC18E0FFE704F2F9
:100D5000DC5081B20D4802F02EFC04F2DC5081B26E
:100D60000A4802F026FC06F2DC5081B2074802F085
:100D70001EFC05F2DC5081B2044802F016FCBDE80E
:100D8000F08700005C0100200CFEFFFF000800401F
:100D900000B587B00121084601F0D6F802208DF891
:100DA000180003208DF8190000208DF81A0001208A
:100DB0008DF81B002020059005A92E4800F006FAAA
:100DC0008020059005A92B4800F000FA40200590EE
:100DD00005A9284800F0FAF905221146254800F037
:100DE0003DFA05220621234800F038FA05220721A2
:100DF000204800F033FA01208DF8180010200590EB
:100E000005A91C4800F0E2F910211A4800F04BFA3D
:100E1000194802F00FF80121080301F0C5F800217C
:100E2000154801F0FBFF0020ADF800004FF4827080
:100E3000ADF802000220ADF806000120ADF8080070
:100E40000020ADF804004FF40070ADF80A00002057
:100E5000ADF80C00ADF80E000720ADF810006946A3
:100E6000054802F04DF80121034801F0D7FF07B013
:100E700000BD0000000002400030014070B5044693
:100E8000002507E0681C80B205464FF6FF718842D6
:100E900000D105E00221104802F024F80028F1D02A
:100EA00000BF47F6FF7521460B4802F027F807E020
:100EB000681C80B205464FF6FF71884200D105E0FC
:100EC0000121054802F00EF80028F1D000BF0248C9
:100ED00002F011F8C0B270BD0030014070B5054697
:100EE0000E46002400BF05E00020FFF7C7FF28558D
:100EF000601C84B2B442F7DB70BD000010B588B04E
:100F000004460121080501F02FF80121042001F019
:100F10001BF80121082001F017F835208DF80C008E
:100F200000208DF80D008DF80E0001208DF80F00C7
:100F300003A800F0C3FF08220C21264800F08EF918
:100F400008220221244800F089F94FF480500190D2
:100F500002208DF808008DF8090000208DF80A00A5
:100F600001208DF80B0001A91A4800F02FF9042088
:100F7000019002208DF808008DF8090001208DF8FD
:100F80000A0000208DF80B0001A9134800F01EF99B
:100F900004940020ADF814004FF40050ADF8160092
:100FA000C010ADF818000020ADF81C000420ADF80A
:100FB0001A0004A9094802F04FFC012240F2255111
:100FC000064802F024FC0121044802F0EAFB08B0C4
:100FD00010BD000000080240000C0240005000401C
:100FE00010B58AB004460121102000F0DDFF012178
:100FF000084600F0A9FF25208DF80C0000208DF890
:101000000D008DF80E0001208DF80F0003A800F0F0
:1010100055FF4FF40070019002208DF808008DF804
:10102000090000208DF80A0001208DF80B0001A9AD
:10103000254800F0CBF84FF48060019002208DF835
:1010400008008DF8090001208DF80A0000208DF8B5
:101050000B0001A91C4800F0B9F8072209211A4821
:1010600000F0FCF807220A21174800F0F7F8069470
:101070000020ADF81C00ADF81E00ADF82000ADF862
:1010800024000C20ADF822000020ADF81000ADF8CF
:1010900012004FF40070ADF814000020ADF81600F7
:1010A00006A90A4802F0D8FB04A9084802F069FB27
:1010B000012240F22551054802F0A9FB0121034815
:1010C00002F06FFB0AB010BD0000024000100140AA
:1010D00070B505460E4600240AE0295D0B480278EB
:1010E0000078401C094B187009488154601CC4B238
:1010F000B442F2DB0748808900F0800028B9012261
:1011000040F22771034802F082FB70BD55010020B8
:10111000C0030020001001407047000010B50446D5
:101120002748B0F93A00B0F5967F03DD0020254945
:1011300008700CE02248B0F93A0010F1C80F03DD46
:1011400001202049087002E002201E4908701D4855
:1011500000781D490978884205D0FFF73BFB194804
:10116000007819490870164890F85200002802DDEE
:101170000120144908701248B0F9360010F5C87FF4
:1011800003DD01200F49487002E000200D4948703E
:101190000C48007830B1012807D0022809D0032874
:1011A0000CD10AE000F076FE08E0204601F0AEFF28
:1011B00004E0204601F038FF00E000BF00BF10BD92
:1011C000B00200204C0100204E010020F0B50A467C
:1011D00000210023002400BF3DE0012505FA01F3B2
:1011E000156805EA03049C4234D105684F000326C4
:1011F000BE40B543056015794E00B54006683543DD
:1012000005601579012D02D01579022D16D185685A
:101210004F000326BE40B543856055794E00B5406A
:10122000866835438560456801268E40B543456034
:10123000456896798E40B6B235434560C5684F0023
:101240000326BE40B543C560D5794E00B540C6689B
:101250003543C560491C1029BFD3F0BDF0B500234C
:1012600000244D07ED0E02FA05F3CE1000F1200523
:1012700055F826504E07F70E0F26BE40B543CF1047
:1012800000F1200646F82750CE1000F1200555F851
:10129000265045EA0304CE1000F1200545F826400B
:1012A000F0BD41837047018370474FF6FF710160C5
:1012B0000021017141718171C171704700BFFEE76A
:1012C00010B52DED0E8B8AB0F0EE408AFE48D0EDC1
:1012D000070A60EEA00A90ED081AD0ED081A41EE58
:1012E000210A90ED091AD0ED091A41EE210AB0EE5B
:1012F000600A02F0F3FDB0EE409AB5EEC09AF1EE4E
:1013000010FA02D19FEDF10A03E0F7EE000A80EE39
:10131000890AB0EE40EAEC4890ED070A20EE090A8F
:101320008DED070A90ED080A20EE090A8DED080AF6
:1013300090ED090A20EE090A8DED090A90ED000AE8
:10134000D0ED010A60EE209A90ED000AD0ED020A7D
:1013500020EE20AA90ED010A60EE00AA90ED010AAD
:10136000D0ED030A20EE20BA90ED020A60EE00BA3A
:1013700090ED020AD0ED030A20EE20CA90ED030A98
:1013800060EE00CA90ED010AD0ED020A20EE20DAEC
:1013900090ED000AD0ED030A60EE20DAB0EE000A0C
:1013A0002BEE800AF0EE000A00EEAC0AF7EE000A1F
:1013B00030EEC00A80ED0D0AB0EE000A2DEE000AF4
:1013C000F0EE000A00EEED0A80ED0E0AB0EE000A23
:1013D0002BEE000AF0EE000A00EE8A0A80ED0F0AFA
:1013E000B0EE000A2DEE000AF0EE000A00EEAD0AA3
:1013F00080ED100AB0EE000A2AEE800AF0EE000A34
:1014000000EEAC0AF7EE000A30EEC00A80ED110AD9
:10141000B0EE000A2CEE000AF0EE000A00EEE90A37
:1014200080ED120AB0EE000A2BEE000AF0EE000A80
:1014300000EECA0AA64880ED000AA34880ED130A10
:10144000B0EE000A2CEE000AF0EE000A00EEA90A47
:101450009F4880ED010A9C4880ED140AB0EE000A16
:101460002AEE800AF0EE000A00EEAB0AF7EE000A60
:1014700030EEC00A964880ED020A934880ED150AC6
:101480009DED080A9248D0ED020A20EE200AD0ED28
:10149000010A9DED091A00EEC10A8DED040A9DEDC9
:1014A000070AD0ED020A20EE200AD0ED000A9DEDD9
:1014B000091A10EE810A8DED050A9DED080AD0ED9E
:1014C000000A20EE200AD0ED010A9DED071A10EE69
:1014D000810A8DED060A002449E09FED7E0AB4EEF4
:1014E000C0EAF1EE10FA06DCB2EE020AB4EEC0EA8F
:1014F000F1EE10FA07D29FED750A8DED060A8DED1B
:10150000050A8DED040A744800EB840090ED000A92
:1015100004A800EB8400D0ED000A9FED701AF4EEF1
:10152000C10AF1EE10FA02D8DFED6C0A13E004A84C
:1015300000EB8400D0ED000A9FED691AF4EEC10AB9
:10154000F1EE10FA02DDDFED660A04E004A800EB1C
:101550008400D0ED000A60EEA80A9FED621A00EE4A
:10156000810A5D4800EB840080ED000A641C032CB6
:10157000B3DB9DED040A5848D0ED000A70EE200A56
:10158000514890ED040A9FED581A00EE810A20EEB2
:10159000280AF0EE000A80EE201A8DED011A9DED6A
:1015A000050A4D48D0ED010A70EE200A464890ED3C
:1015B000050A9FED4D1A00EE810A20EE280AF0EE92
:1015C000000A80EE201A8DED021A9DED060A4248AF
:1015D000D0ED020A70EE200A3B4890ED060A9FED1E
:1015E000421A00EE810A20EE280AF0EE000A80EE90
:1015F000201A8DED031A90ED000AD0ED010A9DED41
:10160000011A00EEC10AD0ED020A9DED021A00EEA9
:10161000C10AD0ED030A9DED031A00EEC10A80ED68
:10162000000A90ED010AD0ED000A9DED011A00EECE
:10163000810AD0ED020A9DED031A00EE810AD0ED79
:10164000030A9DED021A00EEC10A80ED010A90ED39
:10165000000ADDED020A20EE200AD0ED010A9DED20
:10166000031A00EEC10AD0ED020A30EE200AD0EDD6
:10167000030A9DED011A00EE810A80ED020A90ED49
:10168000000ADDED030A20EE200AD0ED010A9DEDEF
:10169000021A00EE810AD0ED020A9DED011A00EE59
:1016A000C10AD0ED030A30EE200A80ED030AD0ED26
:1016B000000A60EEA00A90ED011AD0ED011A41EE89
:1016C000210A90ED021A11E0440000200000000001
:1016D000200200209A9929412C020020CDCCCCBDBB
:1016E000CDCCCC3D0AD7233CCDCC4C3ED0ED021A1C
:1016F00041EE210A90ED031AD0ED031A41EE210AC2
:10170000B0EE600A02F0EAFBB0EE408A1248D0ED7B
:10171000000AB0EE480A20EE800A80ED000AD0ED03
:10172000010AB0EE480A20EE800A80ED010AD0EDF1
:10173000020AB0EE480A20EE800A80ED020AD0EDDF
:10174000030AB0EE480A20EE800A80ED030A0AB0D0
:10175000BDEC0E8B10BD00004400002010B50E48FB
:10176000007880B901200C4908700022642103F040
:1017700045FE0A49086000231A46094907480068DF
:1017800003F0DEFE06E0022300220549034800685C
:1017900003F0D6FE10BD0000B0000020A80000201D
:1017A000440000201FB56846FFF744F99DF801008A
:1017B0009DF8001040EA012000B2CB49C8809DF896
:1017C00003009DF8021040EA0120404200B2C649E1
:1017D00008819DF805009DF8041040EA0120404270
:1017E00000B2C14948819DF809009DF8081040EAFF
:1017F000012000B2BC4908809DF80B009DF80A103A
:1018000040EA0120404200B2B74948809DF80D00EF
:101810009DF80C1040EA0120404200B2B249888095
:101820009DF807009DF8061040EA012000B2AE497D
:1018300088850846B0F9000000EE100AB8EEC00A2C
:101840000846D0ED050A30EE600AA84880ED0C0A83
:101850000846B0F9020000EE100AB8EEC00A0846C9
:10186000D0ED060A30EE600AA04880ED0D0A084669
:10187000B0F9040000EE100AB8EEC00A0846D0ED38
:10188000070A30EE600A994880ED0E0A0846B0F962
:10189000060000EE100AB8EEC00A0846D0ED080AAD
:1018A00030EE600ADFED920A20EE200A914880EDCA
:1018B0000C0A0846B0F9080000EE100AB8EEC00A9B
:1018C0000846D0ED090A30EE600ADFED8B0A20EE03
:1018D000200A884880ED0D0A0846B0F90A0000EE9B
:1018E000100AB8EEC00A0846D0ED0A0A30EE600AC7
:1018F000DFED820A20EE200A7E4880ED0E0A0320EA
:10190000A5E000EB4001794A02EB810191ED000A6C
:10191000DFED7B0A20EE200A411C01EB410102EBC6
:101920008101D1ED000A9FED771A00EE810A00EBEC
:10193000400102EB810181ED000A00EB400102EB66
:10194000810191ED010ADFED6E0A20EE200A411CB3
:1019500001EB410102EB8101D1ED010A9FED691A12
:1019600000EE810A00EB400102EB810181ED010AEA
:1019700000EB400102EB810191ED020ADFED600A0C
:1019800020EE200A411C01EB410102EB8101D1ED67
:10199000020A9FED5C1A00EE810A00EB400102EBA7
:1019A000810181ED020A00EB4001524A02EB810104
:1019B00091ED000ADFED520A20EE200A411C01EBF6
:1019C000410102EB8101D1ED000A9FED4E1A00EEBC
:1019D000810A00EB400102EB810181ED000A00EB7E
:1019E000400102EB810191ED010ADFED450A20EE95
:1019F000200A411C01EB410102EB8101D1ED010AFA
:101A00009FED401A00EE810A00EB400102EB8101DC
:101A100081ED010A00EB400102EB810191ED020A28
:101A2000DFED370A20EE200A411C01EB410102EBF9
:101A30008101D1ED020A9FED331A00EE810A00EB1D
:101A4000400102EB810181ED020A411E48B20028EB
:101A5000BFF657AF254890ED000ADFED2B0A20EEC8
:101A6000200ADFED2A0A20EE200A294880ED040A28
:101A70001E4890ED010ADFED240A20EE200ADFED7A
:101A8000230A20EE200A224880ED050A174890ED2F
:101A9000020ADFED1D0A20EE200ADFED1C0A20EE0F
:101AA000200A1B4880ED060A124890ED000ADFED7F
:101AB000190A20EE200A164880ED070A0D4890ED1D
:101AC000010ADFED140A20EE200A114880ED080A11
:101AD000084890ED020ADFED0F0A20EE200A0C48BC
:101AE00080ED090A1FBD000014000020380200200C
:101AF000DFC17F3F74020020F3CC7F3FE624803FAC
:101B000014AE473FAE47613EE2007A3D4DF38E3C56
:101B1000440000206FF51C3B10B500F09BF800F06E
:101B2000D3F84FF47A7001F045FF10BD10B52DEDDC
:101B3000028B4148D0ED130A90ED131AB7EE000A5C
:101B400000EEC10AB5EEC00AF1EE10FA02D89FED20
:101B50003B0A1BE03848D0ED130A90ED131AB7EE9C
:101B6000000A00EEC10AF7EE000AB4EEE00AF1EE58
:101B700010FA02DDB7EE000A08E02F48D0ED130A94
:101B800090ED131AB7EE000A00EEC10A2C4880ED62
:101B9000000A2C4890ED020ADFED2B0AB4EEE00AB1
:101BA000F1EE10FA08DC90ED020ADFED280AB4EE3F
:101BB000E00AF1EE10FA3BD21F4890ED151AF0EE54
:101BC000410A90ED141AB0EE410A01F0FFFEDFED7C
:101BD000200A20EE200A184880ED160A184890EDD9
:101BE000000A02F071F9B0EE408A1348D0ED130AF2
:101BF000B0EE600AF0EE480A01F0E8FEB1EE400AED
:101C0000DFED130A20EE200A0B4880ED170A90ED55
:101C10000D1AF0EE410A90ED101AB0EE410A01F0F3
:101C2000D5FEDFED0B0A20EE200A034880ED180AEE
:101C3000BDEC028B10BD000044000020000000003D
:101C4000AC00002020020020CDCC4C3DCDCC4CBDC2
:101C500033336542B7EE000A194A82ED000A9FED60
:101C6000190A82ED010A9FED170A82ED020A9FED23
:101C7000150A82ED030A9FED130A82ED070A9FED14
:101C8000110A82ED080A9FED0F0A82ED090A002071
:101C900013E000210DE09FED0B0A00EB4003084A22
:101CA000343202EB830202EB810282ED000A4A1C0D
:101CB000D1B20329EFDB421CD0B20328E9DB704725
:101CC00044000020000000002DE9FF410024002511
:101CD00000269FED320A324880ED050A9FED2F0A5B
:101CE00080ED060A9FED2D0A80ED070A002730E0FF
:101CF0006846FEF79FFE9DF809009DF8081040EA2F
:101D0000012000B2264908809DF80B009DF80A10BA
:101D100040EA0120404200B2214948809DF80D0070
:101D20009DF80C1040EA0120404200B21C49888016
:101D30000846B0F9000004440846B0F90200054422
:101D40000846B0F904000644022001F033FE781C76
:101D500087B2C82FCCDB00EE104AB8EEC00ADFED28
:101D6000110A80EE201A0E4880ED051A00EE105A76
:101D7000B8EEC00ADFED0B0A80EE201A80ED061ADD
:101D800000EE106AB8EEC00ADFED060A80EE201AF7
:101D900080ED071A002004B0BDE8F08100000000CB
:101DA000140000200000484310B5A6B030222BA13B
:101DB00001A8FEF71FFB01AC00220DA93348006803
:101DC00003F0AAFC9DED230A84ED000A9DED240A90
:101DD00084ED010A9DED250A84ED020A9DED110AAC
:101DE00084ED030A9DED120A84ED040A9DED130AA9
:101DF00084ED050A2648B0F9320000EE100AB8EE6C
:101E0000C00A84ED060A2248B0F9340000EE100A38
:101E1000B8EEC00A84ED070A1D48B0F9360000EE9E
:101E2000100AB8EEC00A84ED080A1948B0F9380063
:101E300000EE100AB8EEC00A84ED090A1448B0F9A1
:101E40003A0000EE100AB8EEC00A84ED0A0A30210A
:101E500001A8FFF73DF926B010BD0000000000000A
:101E60000000000000000000000000000000000072
:101E70000000000000000000000000000000000062
:101E800000000000000000000000807FA80000208B
:101E9000B002002010B5064CB4F93830B4F9362041
:101EA000B4F93410B4F93200FEF7BCFE10BD0000E6
:101EB000B002002000BFFEE77047000070B50021AF
:101EC00000230F22C4781CB3174C246804F4E06488
:101ED000C4F5E064C4F30721C1F10404E3B20A418C
:101EE00044789C40E1B28478144021430C07210ED1
:101EF0000E4C05786155047804F01F050124AC40B0
:101F000005786D11AD0005F1E025C5F8004109E047
:101F1000047804F01F050124AC40054D06787611C5
:101F200045F8264070BD00000CED00E000E400E044
:101F300080E100E002490143024A1160704700005D
:101F40000000FA050CED00E029B1064A12680243D0
:101F5000044B1A6004E0034A12688243014B1A6082
:101F6000704700003038024029B1064A1268024327
:101F7000044B1A6004E0034A12688243014B1A6062
:101F8000704700004038024029B1064A12680243F7
:101F9000044B1A6004E0034A12688243014B1A6042
:101FA000704700002038024029B1064A12680243F7
:101FB000044B1A6004E0034A12688243014B1A6022
:101FC000704700004438024029B1064A12680243B3
:101FD000044B1A6004E0034A12688243014B1A6002
:101FE0007047000024380240F0B500210022002490
:101FF000022500260223324F3F6807F00C0121B171
:10200000042905D0082937D105E02E4F076036E0B6
:102010002D4F076033E02A4F3F1F3F68C7F38056BC
:10202000274F3F1F3F6807F03F036EB1264FB7FBB6
:10203000F3F7DFF88CC0ACF1040CDCF800C0CCF393
:10204000881C07FB0CF40CE01E4FB7FBF3F7DFF81E
:1020500070C0ACF1040CDCF800C0CCF3881C07FBAA
:102060000CF4174F3F1F3F68C7F301477F1C7D00EB
:10207000B4FBF5F7076002E0124F076000BF00BF36
:102080000F4F3F6807F0F0010909104F7A5C0768AD
:10209000D74047600A4F3F6807F4E051890A0B4F69
:1020A0007A5C4768D7408760054F3F6807F4604116
:1020B000490B064F7A5C4768D740C760F0BD000007
:1020C000083802400024F40000127A0010020020B8
:1020D00010B50248FEF712FF10BD0000A0860100F7
:1020E00000B50346184600F0B9F900F09BF900BDB1
:1020F00000B5034641F28830834203D900200F49DE
:10210000087019E0B3F5487F16D940F6980083426D
:1021100012D20A480078082800DD00BD0848074AA6
:10212000127820F812300548007800F00BF80348C8
:102130000078401C0149087000BFEEE7C80000208D
:10214000D00200200021024A22F81010704700003F
:102150000403002000B500224AE02A4830F91200AA
:10216000A0F57A7000EE100AB8EEC00ADFED260A7C
:1021700020EE200ABDEEC00A10EE100A01B221487E
:10218000323020F8121030F9120010F5FA7F01DC1D
:102190001E480DE01B48323030F91200B0F5FA7FCE
:1021A00002DD4FF4FA7003E01648323030F91200C5
:1021B0001449323121F81200022A17D1084630F9A9
:1021C000120000F5FA7000EE100AB8EEC00ADFED5A
:1021D000100A20EE200ABDEEC00A10EE100AA0F58B
:1021E000FA7001B20748323020F81210501CC2B207
:1021F000082AB2DB0020034981F8520000F042F9BE
:1022000000BD0000B00200202FDD243F0CFEFFFFC8
:102210009A99193F18B504467DA0006800907D4842
:1022200001780078401C7B4A10707B48445410466B
:10223000007819287ED11820114608707648007859
:102240000F2878D17448007E38B17348017E734AF4
:1022500012781DF802008142F3D100206D49087008
:102260006D4840786C49897801F0070140EA012007
:102270006B4908806848C0788006400D66498978B7
:1022800040EAE1006649488063484079C007400D54
:102290006149097940EA81005F49C97840EAA110A3
:1022A0005F4988805C4880790007400D5A49497928
:1022B00040EA61005A49C8805748C0794006400D3D
:1022C0005549897940EA2110554908815248407A98
:1022D0008007400D5049097A40EA41004E49C979CA
:1022E00040EAE1104E4948814B48807AC006400DD3
:1022F0004949497A40EAA100494988814648C07A5B
:10230000C0004549897A40EA61104549C881424880
:10231000007B4149497B01F0070140EA0120404927
:1023200008823D48807B8006400D3B49497B40EA5E
:10233000E10001E06AE05FE0394948823648007C0C
:10234000C007400D3449C97B40EA81003249897B8E
:1023500040EAA110324988822F48407C0007400D96
:102360002D49097C40EA61002D49C8822A48807CB9
:102370004006400D2849497C40EA2110284908833D
:102380002548007D8007400D2349C97C40EA410073
:102390002149897C40EAE110214948831E48407D5B
:1023A000C006400D1C49097D40EAA1001C498883F4
:1023B0001948807DC0001849497D40EA61101849DC
:1023C000C8831548C07D81F8300014480078401C4F
:1023D000124908700878C11700EB91718910A0EBC1
:1023E00081010E4A11700E4890F8300000F008008C
:1023F00060B9FFF7AFFE09E0002305E00649581C6D
:10240000085CC854581CC3B2182BF7DB18BD000079
:1024100004142434C000002014030020C100002054
:10242000B00200200C4991F85210002913DD002061
:102430000FE0022806D14FF60C620749323121F82D
:10244000102004E000220449323121F81020411C00
:10245000C8B20828EDDB7047B002002007490988A0
:10246000B1F5FA6F05DA054909880144034A11807C
:1024700003E00121024A82F852107047B4000020A4
:10248000B00200200020014908807047B4000020FD
:1024900030B52DED108BB3B0B0EE40DAB0EE60CABF
:1024A000F0EE41CA0446402122A8FDF7DDFF0022DC
:1024B00008A9FE48006803F02FF9FD48D0ED080A8E
:1024C00090ED080A3CEE400ABBEE0E1AB4EEC10ACB
:1024D000F1EE10FA02D8BBEE0E0A13E0F44890EDCC
:1024E000080A3CEE400AB3EE0E1AB4EEC10AF1EE51
:1024F00010FA02DDB3EE0E0A04E0ED4890ED080A92
:102500003CEE400A30EE800AE94880ED080AD0ED42
:10251000090A90ED090A3CEEC00ABBEE0E1AB4EEB1
:10252000C10AF1EE10FA02D8BBEE0E0A13E0E04841
:1025300090ED090A3CEEC00AB3EE0E1AB4EEC10AE1
:10254000F1EE10FA02DDB3EE0E0A04E0D84890ED89
:10255000090A3CEEC00A30EE800AD54880ED090A2F
:1025600090ED080A20EE0D0AB0EE409A90ED090AAF
:1025700020EE0D0AF0EE409AB0EE000AC9EE000A15
:10258000B0EE609AB0EE000AC9EE800AF0EE609AF2
:102590009FEDC80A29EE000ADFEDC70A80EE201A77
:1025A000B0EE419A9FEDC30A29EE800ADFEDC20A20
:1025B00080EE201AF0EE419A19EE100A04F044F968
:1025C000CDE906019DED060B01F0DCFBF0EE40FAD3
:1025D00019EE900A04F038F9CDE906019DED060BDD
:1025E00001F0D0FB2FEE800A8DED220A19EE900A41
:1025F00004F02AF9CDE900019DED000B01F02AFC61
:102600008DED040B19EE100A04F01EF9CDE900015E
:102610009DED000B01F0B6FB10EE105A284604F0B9
:1026200013F9CDE902019DED040B53EC102B9DED48
:10263000020B51EC100B03F0DDFECDE906019DED20
:10264000060B51EC100B03F09BFD239019EE900A42
:1026500004F0FAF8CDE900019DED000B01F092FBCA
:1026600010EE105A284604F0EFF8CDE9040119EEF7
:10267000100A04F0E9F8CDE900019DED000B01F02E
:10268000E9FB8DED020B9DED040B53EC102B9DED42
:10269000020B51EC100B03F0ADFECDE906019DEDF0
:1026A000060B51EC100B03F06BFD2A9019EE900A0B
:1026B00004F0CAF8CDE900019DED000B01F0CAFB62
:1026C0008DED040B19EE100A04F0BEF8CDE90001FF
:1026D0009DED000B01F0BEFB8DED020B9DED040B9B
:1026E00053EC102B9DED020B51EC100B03F082FE0E
:1026F000CDE906019DED060B51EC100B03F040FDFA
:1027000022A948629DED220ADDED270A30EE600A1B
:10271000DDED2C0A30EE600ADDED310A30EE60AA04
:102720009DED260ADDED230A30EE200ADDED2D0AAF
:1027300030EE200ADDED300A70EE60AA9DED2A0A27
:10274000DDED240A30EE200ADDED2F0A30EE200AFE
:10275000DDED290A30EE60BA9DED2E0ADDED250A89
:1027600030EE200ADDED280A30EE200ADDED2B0ADE
:1027700070EE60BA4E4890ED000A20EE0A0A8DED28
:10278000220A90ED010A20EE0A0A8DED230A90ED4F
:10279000020A20EE0A0A8DED240A90ED030A20EECB
:1027A0000A0A8DED250A90ED000A20EE2A0A8DED29
:1027B000260A90ED010A20EE2A0A8DED270A90EDF7
:1027C000020A20EE2A0A8DED280A90ED030A20EE77
:1027D0002A0A8DED290A90ED000A20EE0B0A8DEDF4
:1027E0002A0A90ED010A20EE0B0A8DED2B0A90EDDE
:1027F000020A20EE0B0A8DED2C0A90ED030A20EE62
:102800000B0A8DED2D0A90ED000A20EE2B0A8DEDBE
:102810002E0A90ED010A20EE2B0A8DED2F0A90ED85
:10282000020A20EE2B0A8DED300A90ED030A20EE0D
:102830002B0A8DED310A9DED220ADDED270A30EEDF
:10284000600ADDED2C0A30EE600ADDED310A30EE73
:10285000600A80ED000A9DED260ADDED230A30EEC8
:10286000200ADDED2D0A30EE200ADDED300A30EED3
:10287000600A80ED010A9DED2A0ADDED240A30EEA2
:10288000200ADDED2F0A30EE200ADDED290A30EEB8
:10289000600A80ED020A9DED2E0ADDED250A30EE7C
:1028A000200ADDED280A30EE200A07E0A80000200B
:1028B000CC000020DB0F494000003443DDED2B0A43
:1028C00030EE600A80ED030A9DED090AB1EE400A80
:1028D0008DED090A9DED0A0AB1EE400A8DED0A0A56
:1028E0009DED0B0AB1EE400A8DED0B0A90ED000A4A
:1028F000DDED080A20EE200A8DED220A90ED000A97
:10290000DDED090A20EE200A8DED230A90ED000A84
:10291000DDED0A0A20EE200A8DED240A90ED000A72
:10292000DDED0B0A20EE200A8DED250A90ED010A5F
:10293000DDED080A20EE200A8DED260A90ED010A51
:10294000DDED090A20EE200A8DED270A90ED010A3F
:10295000DDED0A0A20EE200A8DED280A90ED010A2D
:10296000DDED0B0A20EE200A8DED290A90ED020A1A
:10297000DDED080A20EE200A8DED2A0A90ED020A0C
:10298000DDED090A20EE200A8DED2B0A90ED020AFA
:10299000DDED0A0A20EE200A8DED2C0A90ED020AE8
:1029A000DDED0B0A20EE200A8DED2D0A90ED030AD5
:1029B000DDED080A20EE200A8DED2E0A90ED030AC7
:1029C000DDED090A20EE200A8DED2F0A90ED030AB5
:1029D000DDED0A0A20EE200A8DED300A90ED030AA3
:1029E000DDED0B0A20EE200A8DED310A9DED220A65
:1029F000DDED270A30EE600ADDED2C0A30EE600ACC
:102A0000DDED310A30EE600A80ED040A9DED260A04
:102A1000DDED230A30EE200ADDED2D0A30EE200A2E
:102A2000DDED300A30EE600A80ED050A9DED2A0AE0
:102A3000DDED240A30EE200ADDED2F0A30EE200A0B
:102A4000DDED290A30EE600A80ED060A9DED2E0AC2
:102A5000DDED250A30EE200ADDED280A30EE200AF1
:102A6000DDED2B0A30EE600A80ED070A90ED040AD6
:102A7000D0ED050A60EE20DA90ED040AD0ED060AEA
:102A800020EE208A90ED050A20EE00EA90ED050A7E
:102A9000D0ED070A60EE208A90ED060A60EE00EAAB
:102AA00090ED060AD0ED070A20EE20FAB0EE000AFB
:102AB00028EE800AF0EE000A00EEC80AF0EE000AE6
:102AC00068EEA00AB0EE001A41EE480AB7EE001A0E
:102AD00000EE601AB5EEC01AF1EE10FA02D89FEDC2
:102AE000BD0A31E0B0EE000A68EE800AB0EE000ADE
:102AF00040EE480AB0EE000A28EE800AB0EE001A56
:102B000001EE480AB7EE001A00EEC01AB7EE000A4E
:102B1000B4EEC01AF1EE10FA02DDB7EE000A13E0CF
:102B2000B0EE000A28EE801AB0EE000A00EE481A55
:102B3000B0EE000A68EE800AB0EE000A40EE480AE5
:102B4000B7EE000A01EE600A8DED210AB0EE001A20
:102B50002EEE011AF0EE001A01EEAE1AF7EE001A90
:102B600031EEC11AF0EE410AB0EE001A2FEE011A52
:102B7000F0EE001A01EEAD1AB0EE410A00F026FFA9
:102B8000DFED950A20EE200A944880ED0A0A9DEDBB
:102B9000210A01F099F9F0EE40FAF0EE000A68EE31
:102BA000A00AB0EE001A41EE480AB0EE600AF0EE5C
:102BB0006F0A00F00BFFB1EE400ADFED870A20EE4E
:102BC000200A864880ED0B0A90ED0B0AF0EE400AD1
:102BD0002246DFED831A834983489FED7E1AB0EECB
:102BE0004D0A01F0A3F97D4890ED0A0AF0EE400A83
:102BF0002246DFED7B1A7D497D489FED761AB0EEC7
:102C00004D0A01F093F9774890ED030ADFED790A58
:102C1000B4EEE00AF1EE10FA02D89FED760A0FE06A
:102C2000704890ED030ADFED740AB4EEE00AF1EEAD
:102C300010FA02DD9FED700A02E06A4890ED030A87
:102C4000684880ED030A694890ED030ADFED690AE0
:102C5000B4EEE00AF1EE10FA02D89FED660A0FE03A
:102C6000624890ED030ADFED640AB4EEE00AF1EE8B
:102C700010FA02DD9FED600A02E05C4890ED030A65
:102C80005A4880ED030A574890ED030ADFED5B0ACE
:102C900020EE200A80ED030A544890ED030ADFED90
:102CA000570A20EE200A80ED030A9DED0D0AB0EED2
:102CB000401A4C4890ED030AF0EE400A2246F7EE27
:102CC000001A4F494F48B0EE4D0A01F02FF99DED23
:102CD0000C0AB0EE401A454890ED030AF0EE400AA7
:102CE0002246F7EE001A48494848B0EE4D0A01F076
:102CF0001DF9434890ED030ADFED450A60EE200A16
:102D00004448007D00EE100AB8EE400A20EE800A2A
:102D1000DFED410A80EE201A394880ED031A3A4867
:102D200090ED030ADFED3A0A60EE200A3948407D53
:102D300000EE100AB8EE400A20EE800ADFED360AF7
:102D400080EE201A304880ED031A2D4890ED030ADA
:102D5000DFED280AB4EEE00AF1EE10FA02D89FED9A
:102D6000250A0FE0264890ED030ADFED230AB4EEB2
:102D7000E00AF1EE10FA02DD9FED1F0A02E02048A2
:102D800090ED030A1E4880ED030A1F4890ED030AE8
:102D9000DFED180AB4EEE00AF1EE10FA02D89FED6A
:102DA000150A0FE0184890ED030ADFED130AB4EEA0
:102DB000E00AF1EE10FA02DD9FED0F0A02E0124880
:102DC00090ED030A104880ED030A33B0BDEC108B80
:102DD00030BD00000000000033336542CC0000200D
:102DE0000000484378030020240100209C030020B9
:102DF000380100200000FAC30000FA435D8A2B3C32
:102E000030030020FC0000205403002010010020AB
:102E10003333E5425C0100200000484221B10288C2
:102E200042F04002028004E002884FF6BF731A406D
:102E30000280704710B504462448844208D101211D
:102E40008014FFF7C1F80021A014FFF7BDF83CE0A3
:102E50001F48844208D101210014FFF795F8002192
:102E60002014FFF791F830E01A48844208D101217C
:102E7000C013FFF789F80021E013FFF785F824E07D
:102E80001548844208D101214014FFF79DF8002124
:102E90006014FFF799F818E01048844209D1012125
:102EA0000805FFF791F800214FF48010FFF78CF828
:102EB0000BE00B48844208D101214805FFF784F854
:102EC00000214FF40010FFF77FF810BD00300140E3
:102ED00000380040003C00400034014000500140F8
:102EE000005401400246002013890B400BB1012021
:102EF00000E0002070470146888970478181704753
:102F000010B50022028802F441520B884C882343FA
:102F10008C882343CC8823430C8923434C89234347
:102F20008C892343CC8923431A430280838B4FF23D
:102F3000FF74234083830B8A038210BD0CB50020ED
:102F4000019000903448006840F4803032490860B5
:102F500000BF3148006800F4003000900198401C28
:102F60000190009818B90198B0F5A04FF1D12A4806
:102F7000006800F4003010B10120009001E0002052
:102F800000900098012846D123484030006840F066
:102F900080502149403108602048006840F440409A
:102FA0001E4908601C48083000681B490831086049
:102FB0000846006840F4004008600846006840F495
:102FC000A05008601648091F0860081F006840F0FC
:102FD0008070091F086000BF0F48006800F0007093
:102FE0000028F9D040F205700E4908600A48083000
:102FF000006820F0030008490831086008460068AE
:1030000040F00200086000BF03480830006800F08C
:103010000C000828F8D10CBD0038024000700040B8
:1030200008544007003C024070B52DED028B044669
:103030002E48B0F9320000EE900AF8EEE00AB0EE49
:10304000600AB3EE041ADFED2A0A00F0E7FE9FEDF6
:10305000291AC0EE010A2848808B00EE100AB8EE4B
:10306000400A20EE800AB0EE408A2048B0F93400D1
:1030700000EE900AF8EEE00AB0EE600AB3EE041A31
:10308000DFED1B0A00F0CAFE9FED1A1AC0EE010A1E
:103090001948C08B00EE100AB8EE400A20EE800AF4
:1030A000F0EE408A15494878B0EE681AF0EE480A0A
:1030B0009FED130AFFF7ECF90C4DB5F93830B5F96F
:1030C0003620104D95ED030ABDEEC00A10EE105AE1
:1030D00029B20D4D95ED030ABDEEC00A10EE105A4F
:1030E00028B2FDF79FFDBDEC028B70BDB002002041
:1030F000000000000000FA435C0100204C010020A9
:103100000AD7A33C540300203003002070B52DEDF6
:10311000028B04462648B0F9320000EE100AB8EEE1
:10312000C00A9FED241AC0EE010A2348407E00EE3B
:10313000100AB8EE400A20EE800AB0EE408A1C4821
:10314000B0F9340000EE100AB8EEC00A9FED191A6B
:10315000C0EE010A1848807E00EE100AB8EE400A60
:1031600020EE800AF0EE408A14494878B0EE681AE2
:10317000F0EE480A9FED120AFDF7F6F90C4DB5F98D
:103180003830B5F936200F4D95ED030ABDEEC00A73
:1031900010EE105A29B20C4D95ED030ABDEEC00A8F
:1031A00010EE105A28B2FDF73DFDBDEC028B70BD4C
:1031B000B00200200000FA435C0100204C01002016
:1031C0000AD7A33C5403002030030020042808D170
:1031D0004FF0E021096941F004014FF0E022116154
:1031E00007E04FF0E021096921F004014FF0E022EF
:1031F0001161704710B50648007810B102F0E4F88C
:1032000004E004480068401C0249086010BD00004A
:103210008C0100208801002010B51548006840F49A
:103220007000134908601348006840F0010011491C
:10323000086000200F49083108600E4800680E49F8
:1032400008400C4908600D48091D0860081F006807
:1032500020F48020091F0860002006490C31086016
:10326000FFF76CFE4FF0006001498039086010BD27
:1032700088ED00E000380240FFFFF6FE1030002429
:1032800070B50E4800F039F804460D480068A042B9
:1032900006D94FF6FF70204409490968451A02E033
:1032A00007480068251A064804602846FEF720FFF4
:1032B0000221024800F012F870BD00000000014039
:1032C000C400002021B1028842F08002028004E0A4
:1032D00002884FF67F731A4002807047CA43028209
:1032E000704721B1028842F00102028004E00288A6
:1032F0004FF6FE731A40028070470146486B7047D4
:1033000070B5002400220023058C4FF6FE76354070
:103310000584028C8388048B4FF68F752C40B51E74
:103320002C400D882C43751E2A408D892A434D88D8
:103330002A43104DA84202D00F4DA84213D14FF698
:10334000F7752A40CD892A434FF6FB752A408D88B0
:103350002A434FF6FF652B404FF6FF552B400D8A51
:103360002B434D8A2B43838004838D6845630284FD
:1033700070BD000000000140000401400A46002129
:10338000018B4FF6F773194011430183704700001A
:1033900070B5002400220023058C4FF6EF763540EF
:1033A0000584028C8388048B48F6FF752C404FF609
:1033B000FF452C400D884FF6FF7606EA05252C4385
:1033C0004FF6DF752A408D8906EA05152A434D8898
:1033D00006EA05152A43154DA84202D0144DA8420D
:1033E0001DD14FF67F752A40CD894FF6FF7606EA4C
:1033F00005152A434FF6BF752A408D8806EA051544
:103400002A434FF6FF352B404FF2FF752B400D8AB4
:1034100006EA85052B434D8A06EA85052B43838002
:1034200004838D688563028470BD00000000014044
:10343000000401400A460021018B4FF2FF7319403E
:103440004FF6FF7303EA022319430183704700001C
:1034500070B5002400220023058C4FF6FF6635402E
:103460000584028C8388848B4FF68F752C404FF631
:10347000FC752C400D882C434FF6FF552A408D8952
:103480004FF6FF7606EA05252A434D8806EA05250C
:103490002A43154DA84202D0144DA8421DD14FF227
:1034A000FF752A40CD894FF6FF7606EA05252A43A7
:1034B0004FF6FF352A408D8806EA05252A434EF649
:1034C000FF752B404DF6FF752B400D8A06EA05155A
:1034D0002B434D8A06EA05152B43838084838D6830
:1034E000C563028470BD000000000140000401407B
:1034F0000A460021818B4FF6F773194011438183EF
:103500007047000070B5002200230024058C4EF6A1
:10351000FF7635400584038C8488828B48F6FF75DE
:103520002A404FF6FF452A400D884FF6FF7606EAFF
:1035300005252A434DF6FF752B408D8906EA053592
:103540002B434D8806EA05352B430A4DA84202D08D
:10355000094DA84208D14BF6FF752C400D8A4FF655
:10356000FF7606EA85152C43848082838D68056486
:10357000038470BD00000140000401400A460021A0
:10358000818B4FF2FF7319404FF6FF7303EA02235A
:1035900019438183704700210180418081808160CF
:1035A0008181C1810182418270474163704781639B
:1035B0007047C163704701647047000000220288B1
:1035C000184B98420ED0184B98420BD0B0F1804F58
:1035D00008D0164B984205D0154B984202D0154B97
:1035E000984204D14FF68F731A404B881A43124BFE
:1035F000984207D0114B984204D04FF6FF431A402F
:103600000B891A4302804B68C3620B880385054B04
:10361000984202D0044B984201D18B7A0386012351
:103620008382704700000140000401400004004014
:1036300000080040000C0040001000400014004052
:103640004FF0FF3141600021018001814180817292
:103650007047000010B540F22551084800F0ADF861
:1036600058B140F22551054800F07CF8034800F0BD
:103670005DF9C4B22046FEF7CDFD10BD00500040FC
:1036800010B540F22551164800F097F850B140F2BD
:103690002551134800F066F8114800F047F9C4B20C
:1036A0001048047040F227710D4800F086F8A8B168
:1036B0000D4801780078401C0B4A10700B48405CA4
:1036C000074988801046007809490978884205D161
:1036D0000348808920F080000149888110BD0000E6
:1036E000001001405601002054010020C0030020BA
:1036F0005501002010B540F22551164800F05DF844
:1037000040B140F22551134800F02CF8114800F068
:103710000DF9C4B240F227710E4800F04EF8C0B166
:103720000D4801780078401C0B4A10700B48405C33
:103730000849091D0880104600780949097888421F
:1037400007D104480C30008820F0800001490C317A
:10375000088010BD0048004057010020C004002030
:103760005801002010B50022002340F66A14A1423F
:1037700000D100BF0A1201249440A3B2DC430480AC
:1037800010BD10B502460020108A20F470600B882E
:103790004C8823438C882343CC88234318431082CE
:1037A00010BD21B1828942F40052828104E08289F5
:1037B0004DF6FF731A408281704770B502460024AF
:1037C00000230025002040F66A16B14200D100BF58
:1037D000C1F3421501F01F03012606FA03F3012D80
:1037E00002D19689334006E0022D02D1168A334079
:1037F00001E0968A33400C12012606FA04F416887A
:10380000344013B10CB1012000E0002070BDF0B5D0
:103810000346002400260025002040F66A17B9421E
:1038200000D100BF1846C1F3421401F01F06012762
:1038300007FA06F5012C01D10C3004E0022C01D16D
:10384000103000E014301AB107682F43076002E01F
:103850000768AF430760F0BD2DE9FF4705460E46F8
:103860000024A14600BFA046B08900B100BF2C8A49
:1038700024F44054F08804432C82AC8941F20C605B
:103880008443B08831890843718908430443AC817B
:10389000AC8A24F44074B0890443AC826846FEF7D5
:1038A000A3FB2048854202D01F48854202D1DDF8A3
:1038B0000C9001E0DDF80890A88900F4004040B1C8
:1038C00009EBC90000EB091031684900B0FBF1F7C2
:1038D00007E009EBC90000EB091031688900B0FB73
:1038E000F1F76420B7FBF0F004012009642101FB2B
:1038F0001078A88900F4004040B1322000EBC800E5
:10390000B0FBF1F000F00700044308E0322000EBC8
:1039100008106421B0FBF1F000F00F0004432C818B
:10392000BDE8FF870010014000140140014688886F
:10393000C0F30800704700BFFEE700BF70470000FB
:103940001CB50020012103464A02CDE900100DA15B
:103950000F4802F095F800201F2103464FF4006243
:10396000CDE900100BA10E4802F08AF800201E21BC
:1039700003464FF48062CDE900100AA10C4802F022
:103980007FF81CBD7461736B5F3230306D73000063
:10399000494D00087461736B5F316D730000000066
:1039A0001D4D00087461736B5F32306D7300000051
:1039B000654D0008044A116800BF034A1268521A94
:1039C0008242FAD3704700008801002000B5B0EEB3
:1039D000403AB0EE602AB5EEC03AF1EE10FA07D1E7
:1039E000B5EEC02AF1EE10FA02D19FED501A99E01F
:1039F000B0EE430A00F0B8F9F0EE403AB0EE420AF9
:103A000000F0B2F9F0EE402AF4EEE23AF1EE10FAEC
:103A100002D283EEA24A01E082EEA34A9FED440A5D
:103A2000B4EEC04AF1EE10FA02D2F0EE441A2DE0E4
:103A3000DFED400AB6EE000A14EE200AF0EE404A2E
:103A4000BDEEE40A10EE100A00EE100AB8EEC00A4D
:103A500034EEC00AF0EE404A374901EB800191EDA7
:103A6000000AF0EE401A344A411C02EB810191ED4C
:103A7000000A114601EB8001D1ED000A70EE600AE8
:103A8000B0EE610A00EEA40AF0EE401AF4EEE32A6A
:103A9000F1EE10FA20DDB5EEC02AF1EE10FA0ADBE5
:103AA000B5EEC03AF1EE10FA02DBB0EE611A39E081
:103AB000B1EE611A36E09FED211AB5EEC03AF1EE93
:103AC00010FA04DB31EE610AB0EE401A2AE031EE62
:103AD000C10AB0EE401A25E0B5EEC03AF1EE10FA98
:103AE00010DB9FED171AB5EEC02AF1EE10FA04DBD9
:103AF00031EE610AB0EE401A14E031EE210AB0EE68
:103B0000401A0FE09FED0F1AB5EEC02AF1EE10FA41
:103B100004DB31EE210AB0EE401A03E031EE610A17
:103B2000B0EE401AB0EE410A00BD000000000000F7
:103B30008180803B0000804340690008DB0F4940E2
:103B4000DB0FC93FDB0FC9BF10B5044624B11021FC
:103B50000448FDF7A6FB03E010210248FDF7A3FB94
:103B600010BD00000000024070B504460E46154628
:103B70000120FFF7E9FF44F08000FDF77FF93146AF
:103B80002846FDF7ABF90020FFF7DEFF70BD70B5EA
:103B900005460C460120FFF7D7FF2846FDF76EF9D2
:103BA00006462046FDF76AF90020FFF7CDFF3046B4
:103BB00070BD00004FF44070FEF7BCF901F066F8EC
:103BC000FCF740FF4FF46140FDF70AFAFEF780FA78
:103BD000FDF7DEF8FCF786FEFCF762FFFCF7A6FEB9
:103BE000FDF79AFF0120FCF749FF4FF47A70FFF7C9
:103BF000E1FE0020FCF742FFC820FFF7DBFE0120BA
:103C000003490870FFF79CFE01F08EFA00BFFEE743
:103C10008C01002010B52DED0A8BB0EE409AF0EE2D
:103C2000609A9FED450B53EC102B51EC190B02F0F1
:103C3000A5FB18D29FED420B53EC102B51EC190B46
:103C400002F0D8FB41EC1B0B9FED3F0B53EC102B0C
:103C500002F0C8FA41EC1A0B53EC192B02F0CAFB24
:103C600041EC180B17E09FED360B53EC102B51EC89
:103C7000190B02F0BFFB41EC1B0B9FED330B53EC18
:103C8000102B02F0EBFC41EC1A0B53EC192B02F059
:103C9000B1FB41EC180B9FED280B53EC102B51ECB2
:103CA000180B02F06BFB20D29FED290B53EC102B6D
:103CB00051EC180B02F096FA41EC1C0B9FED260B11
:103CC00053EC102B02F096FB41EC1B0B9FED200BED
:103CD00053EC102B02F086FA41EC1A0B53EC182B24
:103CE00002F088FB41EC180B1FE09FED190B53EC21
:103CF000102B51EC180B02F0BDFC41EC1C0B9FED9E
:103D0000180B53EC102B02F075FB41EC1B0B9FEDD5
:103D1000100B53EC102B02F065FA41EC1A0B53EC2C
:103D2000182B02F067FB41EC180BB0EE480AF0EEDE
:103D3000680ABDEC0A8B10BD000000000000000006
:103D4000000000602FF0D93F00000060305FF43FBA
:103D5000000000000000F03F000000C0CCCCCCBF51
:103D6000000000C0CCCCCC3FF0EE400AF5EEC00A1B
:103D7000F1EE10FA02DBB0EE600A7047B1EE600AB5
:103D8000FBE7000010B52DED088BB0EE408AF0EE99
:103D9000608A01249FED1D0B53EC102B51EC180B86
:103DA00002F020FA41EC180B9FED1A0B53EC102B8C
:103DB00051EC180B02F01CFC0AD8A41E9FED150B49
:103DC00053EC102B51EC180B02F054FC41EC180B87
:103DD000204602F0BBFA41EC1A0BB0EE480AF0EEB6
:103DE000680A00F037F8B0EE40BAF0EE60BA53EC73
:103DF0001A2B51EC1B0B02F0FDFA41EC190B02F0EF
:103E0000BFF900EE100ABDEC088B10BDF1D4C85309
:103E1000FB21F93FF1D4C853FB210940F0EE401AD1
:103E2000F4EEE01AF1EE10FA09DD31EEC10AB4EE5B
:103E3000E00AF1EE10FA0BD2B0EE600A08E031EEC3
:103E4000810AB4EEE00AF1EE10FA01DDB0EE600A8C
:103E50007047000010B52DED068BB0EE408AF0EEF5
:103E6000608A01249FED160B53EC102B51EC180BBC
:103E700002F0BEFB0AD89FED120B53EC102B51EC55
:103E8000180B02F0F7FB41EC180BA41E204602F0C1
:103E90005DFA41EC190BB0EE480AF0EE680AFFF744
:103EA000B9FEB0EE40AAF0EE60AA53EC192B51EC2B
:103EB0001A0B02F09FFA41EC100BBDEC068B10BD03
:103EC000F1D4C853FB21094000B5F0EE402AB0EE12
:103ED000620A00F003F820EE220A00BDF0EE400A6C
:103EE000F6EE001A60EEA11AB0EE611AB0EE600AAA
:103EF00010EE100A0C49A1EB600000EE100A21EE52
:103F0000002AF7EE081A42EE401A61EE801AB0EE6F
:103F1000610A21EE002AF7EE081A42EE401A61EE1D
:103F2000801AB0EE610A7047DF59375FB0EE402A61
:103F3000B5EEC02AF1EE10FA02D1DFED404A03E0FF
:103F4000B7EE005AC5EE024AF0EE643AD1ED014AEE
:103F500074EEC14A24EEA34AD1ED004A74EEE04A61
:103F600024EEA33A90ED035AF0EE604A43EE054A80
:103F7000D0ED045AB0EE415A04EE255A34EEC50A8B
:103F8000D1ED024A74EEC04A64EEA32AD1ED044A90
:103F900090ED025A25EE005A45EE024AC1ED044A60
:103FA000D1ED044AB1EE615AF4EEC54AF1EE10FAD1
:103FB00002D8F1EE614A0BE0D1ED044AF4EEE14A99
:103FC000F1EE10FA02DDF0EE614A01E0D1ED044AB3
:103FD00005EE102AB8EE455A64EE854AC1ED044A52
:103FE000D0ED004A64EE804A90ED015A42EE854AD7
:103FF00091ED045AD0ED025A45EE254AC1ED034A2F
:10400000D0ED004A64EE804AC1ED054AD0ED014A88
:1040100064EEA24AC1ED064AD0ED034A64EE834A3B
:10402000C1ED074AD0ED044A64EE844AC1ED084A66
:1040300081ED020AC1ED000A704700000000000097
:104040002DE9F04105460E462648076826480068D7
:10405000001D00F099FE50B92348006890F82C101C
:104060000120884021490968814320480160681C7B
:10407000D8B9D6B11E4948681B49096888601A49F1
:1040800082680968CA6018490968091D8268516018
:1040900015490968091D8160154A134909684A6173
:1040A00011460968491C11601AE07C190E48006825
:1040B0004460BC4207D20C480168091D0D480068E5
:1040C00000F086FE0CE008480168091D0A480068F7
:1040D00000F07EFE09480068844201D2074804606F
:1040E000BDE8F081A401002090010020A80100207B
:1040F000D00800209801002094010020C001002079
:1041000010B5044600F07EFE31480068401C30497E
:1041100008603048006840B92E48046008460068CE
:1041200001280DD100F004FA0AE02B48006838B9E4
:1041300028480068C06AE16A884201D825480460BE
:1041400026480068401C25490860084600686064ED
:1041500094F82C100120884021490968084320491F
:104160000860E16A01EB81011E4A02EB81014868A7
:10417000A0608268E260211D826851608160E16A0E
:1041800001EB8101174A02EB81026261E16A01EBF6
:104190008101144A52F82110491CE26A02EB8202A2
:1041A000104B43F8221000F057FE0B48006868B12E
:1041B00008480068C06AE16A884207D24FF0805020
:1041C00009490860BFF34F8FBFF36F8F10BD000028
:1041D000A001002090010020AC010020BC010020C3
:1041E000A80100200006002004ED00E010B500F05A
:1041F00009FE10480068D0B90F4800F0D9FD0F48FB
:1042000000F0D6FD0C480E4908600C480D490860C6
:1042100000221021052001F0F1F806490860084647
:10422000006820B108A10348006800F099FE00F082
:1042300013FE10BDD8010020E4080020F80800207B
:10424000D0010020D4010020546D72510000000004
:1042500010B516E000F0D6FD0C48C068C468201DFB
:1042600000F092FD0A480068401E094908600948AC
:104270000068401E0749086000F0EEFD204600F08F
:104280005FF8044800680028E4D110BDBC08002095
:10429000A00100209C01002070B504460D46206C52
:1042A00070B1216CE0680144E160D4E902108842F9
:1042B00001D32168E1602846226CE168FCF755F8DB
:1042C00070BD2DE9F04104460F4615464FF0000839
:1042D000A66B206C48B9206800282CD1A06801F09A
:1042E0005FFD80460020A06025E07DB93946226C44
:1042F0006068FCF73AF8216C606808446060D4E9B3
:104300000101884217D32068606014E03946226CAE
:10431000E068FCF72AF8216CE068411AE160216846
:10432000E068884203D2216CA068411AE160022D46
:1043300001D106B1761E701CA0634046BDE8F08135
:1043400010B50446206B00F0A5FD204600F0A2FD4C
:1043500010BD00000146084A126812680AB901221D
:1043600000E000220A600A6822B9034A1268D26893
:10437000106800E000207047D001002030B54FF4F5
:10438000A043174800F007042CB1C01D20F007001F
:10439000134C041B1B1B0246124C22600024114DBF
:1043A0006C60D018083820F007000F4C2060002403
:1043B0000D4D2D686C600C4D2D682C601146441A13
:1043C0004C60094C24680C60084D4C682C60084D0A
:1043D0004C682C604FF00044064D2C6030BD00004E
:1043E0000C090020E4010020EC010020F401002071
:1043F000F00100200002002000BFFFF729FF06485F
:1044000000680128F9D94FF0805004490860BFF3D3
:104410004F8FBFF36F8FF0E70006002004ED00E040
:104420002DE9F04106460D4617469846069C0DB903
:10443000246000E02760E66325640121204601F046
:1044400011F884F850800020A064BDE8F0812DE9C7
:10445000F05F82460F4690469B460A9E0C9C4FEAB0
:104460008801A522206BFBF7F7FFA8F10100216B63
:1044700001EB800929F0070909F0070008B90120BC
:1044800000E0002050B900BF502080F31188BFF336
:104490004F8FBFF36F8F00BF00BFFEE787B10025CE
:1044A00007E0795D04F134004155785D00B902E020
:1044B0006D1C102DF5D300BF00214320015502E0F3
:1044C000002084F83400202E01D2012000E00020DA
:1044D00050B900BF502080F31188BFF34F8FBFF356
:1044E0006F8F00BF00BFFEE7202E00D31F26E662BD
:1044F000E66400202065201D00F067FC04F1180030
:1045000000F063FC2461C6F12000A0616462002019
:10451000606584F858005A465146484600F0A0FBB2
:1045200020600B9808B10B980460BDE8F09F000074
:1045300010B5002407E004EB84010F4A02EB810070
:1045400000F036FC641C202CF5D30C4800F030FC45
:104550000B4800F02DFC0B4800F02AFC0A4800F044
:1045600027FC0A4800F024FC044809490860044874
:104570000849086010BD00000006002080080020E7
:1045800094080020A8080020BC080020D0080020C3
:10459000940100209801002010B50146164800E063
:1045A000006803688B42FBD30246436813448B4286
:1045B00004D143684C682344436001460A464B6873
:1045C00013440468A34211D10C4C03682468A3422D
:1045D00008D04B680468646823444B6003681B6818
:1045E0000B6005E0054B1B680B6001E003680B6086
:1045F000884200D0016010BDE4010020EC010020E1
:104600002DE9F04104460D4616461F464FF00008BE
:1046100065602461B5420CD8F01BA169884202D3C1
:104620004FF0010811E0211D0948006800F0D0FB9F
:104630000BE0BE4204D2BD4202D34FF0010804E0B9
:10464000211D0448006800F0C3FB4046BDE8F0812E
:10465000D4010020D001002070B5054600F0D2FB47
:10466000A86B08B9012400E0002400F0F5FB204607
:1046700070BD70B5054600F0C5FBA86BE96B8842BC
:1046800001D1012400E0002400F0E6FB204670BDCB
:10469000F1B50098846C002654B900BF502080F317
:1046A0001188BFF34F8FBFF36F8F00BF00BFFEE7CE
:1046B000A06BE16B884201D2012000E0002050B9DC
:1046C00000BF502080F31188BFF34F8FBFF36F8F6F
:1046D00000BF00BFFEE7A06BE16B88422CD294F9CB
:1046E0004550002269462046FFF7EBFD0646681C50
:1046F00060B9606A08B9012000E00020D8B904F16F
:10470000240001F0C5FBB0B1012614E07F2D01D0DB
:10471000012000E0002050B900BF502080F3118834
:10472000BFF34F8FBFF36F8F00BF00BFFEE7681C62
:1047300040B284F8450000BF3046F8BD70B505466C
:104740000E460E480068C068C468201D00F01CFBBF
:1047500094F8280000F0040028B13246294620468B
:1047600000F0EEF805E094F8280000F0FE0084F870
:1047700028002046216A884770BD0000D001002033
:1047800070B586B094E00298002811DA03AE56B9ED
:1047900000BF502080F31188BFF34F8FBFF36F8F9E
:1047A00000BF00BFFEE7D6E90020B168904700BF18
:1047B000029800287CDB049C606908B9012000E0B5
:1047C000002010B9201D00F0DFFA01A800F0E4F885
:1047D000054602980A2869D2DFE800F06805072E2E
:1047E000365806082F3700BF00BF00BF94F82800D6
:1047F00040F0010084F828000398A269811803465C
:104800002A462046FFF7FCFEA8B194F8280000F0E5
:10481000040038B10398A26981182A46204600F0A6
:104820008FF805E094F8280000F0FE0084F82800D6
:104830002046216A88473AE000BF94F8280000F03B
:10484000FE0084F8280032E000BF94F8280040F011
:10485000010084F828000398A061A06908B1012034
:1048600000E0002050B900BF502080F31188BFF352
:104870004F8FBFF36F8F00BF00BFFEE7A0694119E4
:104880002B462A462046FFF7BBFE10E094F828008E
:1048900000F0020018B9204600F0FCFA05E094F898
:1048A000280000F0FE0084F8280000E000BF00BFF0
:1048B000002202A90448006800F0E6FF00287FF407
:1048C00062AF06B070BD0000D8010020F8B5054603
:1048D0000C4600F077FC684600F05EF8064600984B
:1048E00020BB44B9B54206D801F062FB31462846E8
:1048F000FFF724FF1CE03CB10E480068006808B9CF
:10490000012000E000200446A91B22460A48006856
:1049100000F056FB01F04CFB50B94FF080500749B6
:104920000860BFF34F8FBFF36F8F01E001F040FBD2
:10493000F8BD0000D4010020D801002004ED00E003
:1049400070B504460D46164604E0A06905442046AD
:10495000216A8847A06941192B4632462046FFF755
:104960004FFE0028F1D170BD09480068006808B901
:10497000012000E0002020B14FF0FF300549086021
:1049800005E003480068C068006802490860704795
:1049900094010020C001002070B5044601F01CF90C
:1049A000054607480068854204D200F00BF8012054
:1049B000206001E00020206001480560284670BDAD
:1049C000E001002070B508E00D480068C068046888
:1049D0004FF0FF312046FFF7B1FE0948006800683C
:1049E00008B9012000E000200028EDD00448056847
:1049F00004480068024908600248056070BD000074
:104A0000D0010020D40100200E480068401C08B9E5
:104A1000012000E0002050B900BF502080F3118831
:104A2000BFF34F8FBFF36F8F00BF00BFFEE700BF24
:104A3000502080F31188BFF34F8FBFF36F8F00BFFB
:104A400000BFFEE70402002008B500BF6846FFF77C
:104A500081FC044620460099FFF738FFFFF790FEDF
:104A6000F4E770B5044600F0CDF994F9455019E02B
:104A7000A06C30B12046FFF70BFE88B100F000FBC0
:104A80000EE0606A08B9012000E0002038B904F1A6
:104A9000240001F0FDF918B100F0F2FA00E003E0A3
:104AA000681E45B2002DE3DC00BFFF2084F84500FE
:104AB00000F0D2F900F0A6F994F9445010E0206912
:104AC00008B9012000E0002048B904F1100001F00D
:104AD000DFF908B100F0D4FA681E45B200E001E049
:104AE000002DECDC00BFFF2084F8440000F0B4F996
:104AF00070BD00002DE9F04104464FF0000800F0C1
:104B000061FB5148006808B9FFF738FC4F4800685E
:104B1000204000287ED13CB304F10800A04223D9F4
:104B2000083404F0070000B304F00700C0F10800E7
:104B30002044A04216D904F00700C0F10800044444
:104B400004F0070008B9012000E0002068B900BFA8
:104B5000502080F31188BFF34F8FBFF36F8F00BFDA
:104B600000BFFEE7002400E00024002C54D03848A9
:104B70000068844250D8374E3046056801E02E4622
:104B80002D686868A04202D228680028F7D12E4814
:104B90000068854240D0306800F10808286830601D
:104BA0006868001B102819D92F1907F0070008B9E9
:104BB000012000E0002050B900BF502080F3118890
:104BC000BFF34F8FBFF36F8F00BF00BFFEE7686872
:104BD000001B78606C603846FFF7DEFC1C49686893
:104BE0000968081A1A490860084600681A490968DD
:104BF000884203D21648006817490860134968685C
:104C00000968084368600020286014480068401C58
:104C1000124900E000E0086001F0CAF908F007005E
:104C200008B9012000E0002050B900BF502080F3F7
:104C30001188BFF34F8FBFF36F8F00BF00BFFEE738
:104C40004046BDE8F0810000EC0100200002002099
:104C5000F0010020E4010020F4010020F801002010
:104C6000001F4FF080730360001F21F001030360F9
:104C7000001F054B036014380260001F6FF0020331
:104C80000360203870470000094A000870B51D48CD
:104C900000681D49B0FBF1F01C4908700846007817
:104CA00000EB4001C1EBC0104FF6FF7101EAC000FC
:104CB0001749088008460188481EB0F1807F00D35C
:104CC0001BE0481E4FF0E022506150170F220028D1
:104CD00007DA13071D0E0F4B00F00F04241F1D559C
:104CE00003E013071C0E0C4B1C5400BF00204FF0B8
:104CF000E02290610720106100BF6FF00400FEF712
:104D000065FA70BD0000002000127A0084010020C6
:104D10008601002018ED00E000E400E008B500F096
:104D20005BFF00900DE0FCF73DFD9FED060AFCF7F0
:104D3000C7FAFCF7FBFEFCF711FD0121684600F005
:104D4000CFFEF0E76F12833A0BE00120FBF796FEEF
:104D5000C82000F05BF90020FBF790FEC82000F0AF
:104D600055F9F2E708B500F037FF00900BE014208A
:104D7000FDF7B6F9FDF718F81420FCF7CFF9142168
:104D8000684600F0ADFEF2E701460A69D1E901305C
:104D90009860D1E9010358605068884201D1886861
:104DA0005060002008611068401E10601068704755
:104DB00000F1080141604FF0FF31816000F108010E
:104DC000C1600161002101607047002101617047ED
:104DD00010B502460B685C1C0CB9106907E002F1C3
:104DE000080000E04068446824689C42FAD944689E
:104DF0004C604C68A160886041600A611468641C62
:104E0000146010BD00BF502080F31188BFF34F8F96
:104E1000BFF36F8F00BF0E480068401C0C4908604C
:104E200008460068012812D10A480068C0B208B9D3
:104E3000012000E0002050B900BF502080F311880D
:104E4000BFF34F8FBFF36F8F00BF00BFFEE7704708
:104E50000402002004ED00E00D48006850B900BFD6
:104E6000502080F31188BFF34F8FBFF36F8F00BFC7
:104E700000BFFEE706480068401E05490860084676
:104E8000006820B9002080F3118800BF00BF704780
:104E90000402002070B506463546002E44D0083D79
:104EA0002C46224960680968084008B1012000E0EA
:104EB000002050B900BF502080F31188BFF34F8FFE
:104EC000BFF36F8F00BF00BFFEE7206808B9012065
:104ED00000E0002050B900BF502080F31188BFF3DC
:104EE0004F8FBFF36F8F00BF00BFFEE70F496068B1
:104EF00009680840C0B12068B0B90C496068096809
:104F00008843606000F05EF90949606809680844F8
:104F1000074908602046FFF73FFB06480068401C31
:104F20000449086001F044F870BD00000002002050
:104F3000F0010020FC01002000204FF0E02108617A
:104F40008861064800684FF47A71B0FBF1F0401EAA
:104F50004FF0E02148610720086170470000002001
:104F600030B502460B4652B900BF502484F3118875
:104F7000BFF34F8FBFF36F8F00BF00BFFEE700216D
:104F8000BBB1002012E00D4C04EBC00464689442F5
:104F900003D10A4C04EBC0010AE031B9074C54F8C4
:104FA000304014B9054C04EBC001401C0828EAD37A
:104FB00000BF09B10B604A6030BD0000C005002091
:104FC0002DE9F04105460E4617462C46FFF71AFF1D
:104FD00094F94400401C10B9002084F8440094F96E
:104FE0004500401C10B9002084F84500FFF734FF4D
:104FF000A06B28B93A46314604F1240000F062F86B
:105000002046FFF72EFDBDE8F081000070B5044694
:105010000025D4B11248006808B9012000E0002042
:1050200050B900BF502080F31188BFF34F8FBFF3FA
:105030006F8F00BF00BFFEE700F0C4F800212046DC
:10504000FEF7FEFF00F0B4FF05463DB94FF080507B
:1050500004490860BFF34F8FBFF36F8F70BD00002E
:10506000CC01002004ED00E0034909680160034918
:105070000968416070470000B8010020A4010020C9
:105080000120014908607047B401002070B5044652
:105090000D4654B900BF502080F31188BFF34F8FE5
:1050A000BFF36F8F00BF00BFFEE7054801681831EE
:1050B0002046FFF78DFE01212846FEF7C1FF70BD97
:1050C0009001002070B504460E46154654B900BF45
:1050D000502080F31188BFF34F8FBFF36F8F00BF55
:1050E00000BFFEE760680F490968C8610D49826822
:1050F00009680A620B4909681831826851600949D8
:10510000096818318160074909688C622168491C67
:1051100021600DB14FF0FF3629463046FEF790FF73
:1051200070BD0000900100201CB51E4800210B46F8
:105130008222CDE900101CA11D4800F0A1FC04460C
:10514000012C02D100F0F0FF0446012C15D100BF64
:10515000502080F31188BFF34F8FBFF36F8F00BFD4
:105160004FF0FF3013490860012013490860002008
:105170001249086000F074F810E0601C08B10120CA
:1051800000E0002050B900BF502080F31188BFF329
:105190004F8FBFF36F8F00BF00BFFEE70848006866
:1051A0001CBD0000C401002049444C450000000023
:1051B000F9430008C0010020AC010020A401002038
:1051C000C801002002480068401C0149086070477F
:1051D000CC0100201D48006818B101201C4908605E
:1051E00032E000201A4908601A480068B0FA80F0DE
:1051F000C0F11F0101EB8100174A52F8200008B1ED
:10520000012000E0002050B900BF502080F3118839
:10521000BFF34F8FBFF36F8F00BF00BFFEE701EBFF
:1052200081020D4B03EB820042685268426000F13C
:1052300008024368934202D1426852684260426861
:10524000D268064B1A6000BF70470000CC010020F6
:10525000B4010020A80100200006002090010020D9
:105260001CB5524800685249884201D0012000E034
:10527000002050B900BF502080F31188BFF34F8F3A
:10528000BFF36F8F00BF00BFFEE748480068484982
:10529000491E884201D0012000E0002050B900BF23
:1052A000502080F31188BFF34F8FBFF36F8F00BF83
:1052B00000BFFEE73F49084600780190FF200A46FC
:1052C00010700846007800909DF8000000F0F00093
:1052D0009DF80020904201D1012000E0002050B94B
:1052E00000BF502080F31188BFF34F8FBFF36F8F43
:1052F00000BF00BFFEE79DF8000000F050002E4AFE
:10530000107007202D4A106009E02C480068401EEC
:105310002A4A10609DF800004006000E00909DF89B
:10532000000000F080008028EFD024480068C0F121
:105330000700042801D1012000E0002050B900BF7F
:10534000502080F31188BFF34F8FBFF36F8F00BFE2
:1053500000BFFEE7194800680002184A10601046B6
:10536000008800F4E0601060124A019810700F4845
:105370002030006840F470000C4920310860084675
:10538000006840F070400860FFF7D6FD00200C492F
:105390000860FAF78DFF0B48006840F0404009496B
:1053A0000860FAF771FF00201CBD000000ED00E06E
:1053B00071C20F4100E400E0080200200C0200204E
:1053C0000402002034EF00E010B500BF502080F34D
:1053D0001188BFF34F8FBFF36F8F00BF00F002FC47
:1053E00018B14FF080500449086000BF002080F3DE
:1053F000118800BF10BD000004ED00E02DE9F84366
:1054000005460E4617460024E5B1601EB0FBF5F0D8
:10541000B04217D305FB06F010F1550F12D805FB6B
:1054200006F808F15400FFF765FB0446B4B1A14645
:1054300009F154093B464A46314628460094FEF796
:10544000EFFF0BE054B900BF502080F31188BFF389
:105450004F8FBFF36F8F00BF00BFFEE72046BDE850
:10546000F88300002DE9F04105460E4601272C4641
:1054700054B900BF502080F31188BFF34F8FBFF3A2
:105480006F8F00BF00BFFEE7002C42D0E06B00280A
:105490003FD04FF0FF31E06BB1FBF0F0216C884260
:1054A00037D3FFF7AFFCD4E90F12206801FB0200ED
:1054B000A0600020A06320686060E06B401E226C4A
:1054C000216800FB0211E160FF2084F8440084F8A9
:1054D00045009EB9206908B9012000E00020A8B964
:1054E00004F1100000F0D4FC80B14FF0805013495B
:1054F0000860BFF34F8FBFF36F8F07E004F1100018
:10550000FFF756FC04F12400FFF752FCFFF7A4FC60
:1055100000E000270FB1012000E0002050B900BFDB
:10552000502080F31188BFF34F8FBFF36F8F00BF00
:1055300000BFFEE73846BDE8F081000004ED00E062
:105540002DE9FF4782B0064688461D464FF0000908
:10555000344654B900BF502080F31188BFF34F8FF9
:10556000BFF36F8F00BF00BFFEE7B8F1000F01D19E
:10557000206C08B9012000E0002050B900BF502085
:1055800080F31188BFF34F8FBFF36F8F00BF00BF51
:10559000FEE7022D02D1E06B012801D1012000E0DD
:1055A000002050B900BF502080F31188BFF34F8F07
:1055B000BFF36F8F00BF00BFFEE700F0FDFA08B930
:1055C000049808B9012000E0002050B900BF502025
:1055D00080F31188BFF34F8FBFF36F8F00BF00BF01
:1055E000FEE700BFFFF70EFCA06BE16B884201D322
:1055F000022D3ED1D4F838A02A4641462046FEF777
:1056000060FE0746A06C88B1022D02D1BAF1000FEE
:1056100029D12046FFF73CF828B34FF080503D4990
:105620000860BFF34F8FBFF36F8F1CE0606A08B94B
:10563000012000E0002068B904F1240000F028FCFB
:1056400088B14FF0805033490860BFF34F8FBFF3EC
:105650006F8F08E03FB14FF080502E490860BFF3D4
:105660004F8FBFF36F8FFFF7F7FB012006B0BDE848
:10567000F087049818B9FFF7EFFB0020F6E7B9F1BF
:10568000000F04D16846FFF7EFFC4FF00109FFF768
:10569000E3FBFFF797FDFFF7B5FB94F94400401CCF
:1056A00010B9002084F8440094F94500401C10B95A
:1056B000002084F84500FFF7CFFB04A9684600F0FE
:1056C00097F9F8B92046FEF7D4FFA8B104F110000D
:1056D0000499FFF7DBFC2046FFF7C3F900F068FCF4
:1056E00000287FF47FAF4FF080500A490860BFF375
:1056F0004F8FBFF36F8F75E72046FFF7B2F900F0C9
:1057000057FC6FE72046FFF7ACF900F051FC002092
:10571000ACE7000004ED00E02DE9F74382B0054658
:105720000E464FF000082C4654B900BF502080F3BD
:105730001188BFF34F8FBFF36F8F00BF00BFFEE72D
:105740000EB9206C08B9012000E0002050B900BF5C
:10575000502080F31188BFF34F8FBFF36F8F00BFCE
:1057600000BFFEE700F028FA08B9049808B9012044
:1057700000E0002050B900BF502080F31188BFF333
:105780004F8FBFF36F8F00BF00BFFEE700BFFFF773
:1057900039FBD4F83890B9F1000F1ED0E7683146D4
:1057A0002046FEF779FDE760606A08B9012000E055
:1057B000002060B904F1240000F06AFB38B14FF01A
:1057C000805030490860BFF34F8FBFF36F8FFFF7F2
:1057D00043FB012005B0BDE8F083049818B9FFF73A
:1057E0003BFB0020F6E7B8F1000F04D16846FFF755
:1057F0003BFC4FF00108FFF72FFBFFF7E3FCFFF73F
:1058000001FB94F94400401C10B9002084F84400C6
:1058100094F94500401C10B9002084F84500FFF7BA
:105820001BFB04A9684600F0E3F8F0B92046FEF738
:1058300013FFA0B104F124000499FFF727FC2046D0
:10584000FFF70FF900F0B4FB0028A0D14FF0805013
:105850000C490860BFF34F8FBFF36F8F97E7204667
:10586000FFF7FFF800F0A4FB91E72046FFF7F9F8F7
:1058700000F09EFB2046FEF7EFFE002887D00020B8
:10588000A8E7000004ED00E02DE9F74183B00546EC
:105890000E464FF000082C4654B900BF502080F34C
:1058A0001188BFF34F8FBFF36F8F00BF00BFFEE7BC
:1058B0000EB9206C08B9012000E0002050B900BFEB
:1058C000502080F31188BFF34F8FBFF36F8F00BF5D
:1058D00000BFFEE700F070F908B9059808B901208B
:1058E00000E0002050B900BF502080F31188BFF3C2
:1058F0004F8FBFF36F8F00BF00BFFEE700BFFFF702
:1059000081FAA76BF7B131462046FEF7C5FC781E39
:10591000A063206908B9012000E0002060B904F10B
:10592000100000F0B5FA38B14FF080502F490860F0
:10593000BFF34F8FBFF36F8FFFF78EFA012006B0D2
:10594000BDE8F081059818B9FFF786FA0020F6E760
:10595000B8F1000F04D101A8FFF786FB4FF0010852
:10596000FFF77AFAFFF72EFCFFF74CFA94F94400A0
:10597000401C10B9002084F8440094F94500401CF4
:1059800010B9002084F84500FFF766FA05A901A8C0
:1059900000F02EF8F0B92046FEF75EFEA0B104F14B
:1059A00024000599FFF772FB2046FFF75AF800F034
:1059B000FFFA0028A3D14FF080500C490860BFF3D4
:1059C0004F8FBFF36F8F9AE72046FFF74AF800F03A
:1059D000EFFA94E72046FFF744F800F0E9FA204692
:1059E000FEF73AFE00288AD00020A8E704ED00E088
:1059F00070B505460C4655B900BF502080F311889C
:105A0000BFF34F8FBFF36F8F00BF00BFFEE754B9E6
:105A100000BF502080F31188BFF34F8FBFF36F8F0B
:105A200000BF00BFFEE7FFF7EDF9134802686868A2
:105A3000131A2068401C08B9002619E00F4928688D
:105A40000968884206D06868904203D80126002081
:105A500020600DE02068984207D92068C01A2060B5
:105A60002846FFF701FB002602E000202060012607
:105A7000FFF7F2F9304670BDA4010020B801002004
:105A80002DE9FF4F85B0804689461746DDE912AB08
:105A9000B800FFF72FF8064656B15C20FFF72AF84A
:105AA00004460CB1266304E03046FFF7F3F900E04A
:105AB00000247CB10020CDE900ABCDE902403A469C
:105AC00049464046089BFEF7C2FC2046FEF718FBFD
:105AD000012501E04FF0FF35284609B0BDE8F08F01
