:020000040800F2
:10000000307A002009030008FD160008210B0008C3
:10001000F916000849050008C72200080000000082
:10002000000000000000000000000000490200087D
:10003000410A000800000000A5020008091F00088E
:1000400023030008230300082303000823030008F8
:1000500023030008230300082303000823030008E8
:1000600023030008230300082303000823030008D8
:1000700023030008230300082303000823030008C8
:1000800023030008230300082303000823030008B8
:1000900023030008230300082303000823030008A8
:1000A000230300082303000823030008951F00080A
:1000B0002303000823030008230300082303000888
:1000C0002303000823030008230300082303000878
:1000D00023030008112000082303000885200008DE
:1000E0002303000823030008230300082303000858
:1000F0002303000823030008230300082303000848
:100100002303000823030008230300082303000837
:1001100023030008E51F0008230300082303000849
:100120002303000823030008230300082303000817
:100130002303000823030008230300082303000807
:1001400023030008230300082303000823030008F7
:1001500023030008230300082303000823030008E7
:1001600023030008230300082303000823030008D7
:1001700023030008230300082303000823030008C7
:10018000230300082303000800F002F800F04CF8F5
:100190000AA090E8000C82448344AAF10107DA45E2
:1001A00001D100F041F8AFF2090EBAE80F0013F0E8
:1001B000010F18BFFB1A43F001031847AC490000B8
:1001C000CC4900000A4410F8014B14F00F0508BF99
:1001D00010F8015B240908BF10F8014B6D1E05D013
:1001E00010F8013B6D1E01F8013BF9D1641E03D0EC
:1001F000641E01F8015BFBD19142E4D3704700001B
:100200000023002400250026103A28BF78C1FBD81F
:10021000520728BF30C148BF0B6070471FB504F0BC
:100220009BFA1FBD10B510BD00F05BF91146FFF73A
:10023000F5FF02F087F900F079F903B4FFF7F2FF58
:1002400003BC02F042F800002C4B19680868B0E8C3
:10025000F04F80F30988BFF36F8F4FF0000080F3F9
:10026000118870470000000008480068006880F3AB
:1002700008884FF0000080F3148862B661B6BFF3BF
:100280004F8FBFF36F8F00DF00BF00BF08ED00E0AE
:10029000DFF80C00016841F470010160704700BF95
:1002A00088ED00E0EFF30980BFF36F8F134B1A68FE
:1002B0001EF0100F08BF20ED108A20E9F04F1060EB
:1002C00009B44FF0500080F31188BFF34F8FBFF394
:1002D0006F8F03F06BFA4FF0000080F3118809BCB8
:1002E00019680868B0E8F04F1EF0100F08BFB0ECB6
:1002F000108A80F30988BFF36F8F7047E4000020F5
:10030000EFF305807047000009488047094800471F
:10031000FEE7FEE7FEE7FEE7FEE7FEE7FEE7FEE7B5
:10032000FEE7FEE704480549054A064B7047000012
:100330002D1F00088901000830580020307A002065
:10034000305A0020305A00207047032A40F2308093
:1003500010F0030C00F0158011F8013BBCF1020F06
:10036000624498BF11F801CB00F8013B38BF11F887
:10037000013BA2F1040298BF00F801CB38BF00F89E
:10038000013B11F0030300F02580083AC0F008801B
:1003900051F8043B083A51F804CBA0E80810F5E7FF
:1003A000121D5CBF51F8043B40F8043BAFF30080E2
:1003B000D20724BF11F8013B11F801CB48BF11F857
:1003C000012B24BF00F8013B00F801CB48BF00F827
:1003D000012B704710B5203AC0F00B80B1E81850DF
:1003E000203AA0E81850B1E81850A0E81850BFF41F
:1003F000F5AF5FEA027C24BFB1E81850A0E81850BE
:1004000044BF18C918C0BDE810405FEA827C24BF11
:1004100051F8043B40F8043B08BF7047D20728BF9F
:1004200031F8023B48BF11F8012B28BF20F8023BEE
:1004300048BF00F8012B704702F0FF0343EA032294
:1004400042EA024200F02DB84FF0000200B5134618
:1004500094469646203922BFA0E80C50A0E80C50E4
:10046000B1F12001BFF4F7AF090728BFA0E80C5095
:1004700048BF0CC05DF804EB890028BF40F8042B8E
:1004800008BF704748BF20F8022B11F0804F18BFFB
:1004900000F8012B704770477047704770474FF066
:1004A00000020429C0F0128010F0030C3FF4CEAF1C
:1004B000CCF1040CBCF1020F18BF00F8012BA8BF4F
:1004C00020F8022BA1EB0C01FFF7C0BF5FEAC17C53
:1004D00024BF00F8012B00F8012B48BF00F8012BC6
:1004E0007047754600F02CF8AE4605006946534645
:1004F00020F00700854618B020B5FFF713FFBDE8D0
:1005000020404FF000064FF000074FF000084FF07A
:10051000000B21F00701AC46ACE8C009ACE8C0090B
:10052000ACE8C009ACE8C0098D46704710B5044678
:10053000AFF300802046BDE81040FFF77EBE00000C
:1005400000487047D057002000BFFEE708B5802163
:100550006B2001F0E4FF0A2001F0F4FE01216B2082
:1005600001F0DDFF0A2001F0EDFE6A460121752051
:1005700001F0C2FF9DF80000122801D0002008BD44
:100580000321682001F0CBFF0A2001F0DBFE0121EE
:100590006A2001F0C4FF0A2001F0D4FE402170203F
:1005A00001F0BDFF0A2001F0CDFE00216C2001F01A
:1005B000B6FF0A2001F0C6FE0021192001F0AFFFAE
:1005C0000A2001F0BFFE04211A2001F0A8FF0A2032
:1005D00001F0B8FE18211B2001F0A1FF0A2001F054
:1005E000B1FE10211C2001F09AFF0A2001F0AAFEA2
:1005F00004211D2001F093FF0A2001F0A3FE002139
:100600001E2001F08CFF0A2001F09CFE0021232017
:1006100001F085FF0A2001F095FE0021372001F04E
:100620007EFF0A2001F08EFE0021382001F077FFC6
:100630000A2001F087FE064A0121752001F05CFFC7
:1006400003480078122801D1002098E7012096E79E
:10065000D500002010B5044622460E213B2001F0B3
:100660004BFF10BD1CB50121042001F08FF84FF4A1
:100670000050009001208DF8040003208DF8050043
:1006800000208DF8060001208DF807006946024819
:1006900000F0D7F91CBD00000008024010B5044668
:1006A000012C04D14103054800F036FA04E04FF470
:1006B0000051024800F032FA10BD0000000802406C
:1006C00000B587B00121084601F060F802208DF8DE
:1006D000180003208DF8190000208DF81A00012061
:1006E0008DF81B002020059005A92E4800F0A9F9DF
:1006F0008020059005A92B4800F0A3F94020059023
:1007000005A9284800F09DF905221146254800F06A
:10071000E0F905220621234800F0DBF90522072134
:10072000204800F0D6F901208DF81800102005901F
:1007300005A91C4800F085F910211A4800F0EEF9CF
:10074000194801F0D3FA0121080301F04FF8002104
:10075000154801F0BFFA0020ADF800004FF4827098
:10076000ADF802000220ADF806000120ADF8080047
:100770000020ADF804004FF40070ADF80A0000202E
:10078000ADF80C00ADF80E000720ADF8100069467A
:10079000054801F011FB0121034801F09BFA07B065
:1007A00000BD0000000002400030014070B504466A
:1007B000002507E0681C80B205464FF6FF718842AD
:1007C00000D105E00221104801F0E8FA0028F1D03C
:1007D00000BF47F6FF7521460B4801F0EBFA07E032
:1007E000681C80B205464FF6FF71884200D105E0D3
:1007F0000121054801F0D2FA0028F1D000BF0248DB
:1008000001F0D5FAC0B270BD0030014070B50546A8
:100810000E46002400BF05E00020FFF7C7FF285563
:10082000601C84B2B442F7DB70BD000010B588B024
:1008300004460121080500F0B9FF0121042000F061
:10084000A5FF0121082000F0A1FF35208DF80C0044
:1008500000208DF80D008DF80E0001208DF80F009E
:1008600003A800F04DFF08220C21244800F031F9C4
:1008700008220221224800F02CF94FF48050019008
:1008800002208DF808008DF8090000208DF80A007C
:1008900001208DF80B0001A9184800F0D2F80420BF
:1008A000019002208DF808008DF8090001208DF8D4
:1008B0000A0000208DF80B0001A9114800F0C1F8D2
:1008C00004940020ADF81400ADF81600ADF818003F
:1008D000ADF81C000C20ADF81A0004A9094801F07D
:1008E00083FC012240F22551064801F058FC012109
:1008F000044801F01EFC08B010BD000000080240D2
:10090000000C02400050004010B58AB0044601219E
:10091000102000F06BFF0121084600F037FF252072
:100920008DF80C0000208DF80D008DF80E000120D0
:100930008DF80F0003A800F0E3FE4FF40070019063
:1009400002208DF808008DF8090000208DF80A00BB
:1009500001208DF80B0001A9254800F072F84FF432
:100960008060019002208DF808008DF809000120B8
:100970008DF80A0000208DF80B0001A91C4800F03A
:1009800060F8072209211A4800F0A3F807220A217B
:10099000174800F09EF806940020ADF81C00ADF852
:1009A0001E00ADF82000ADF824000C20ADF82200A8
:1009B0000020ADF81000ADF812004FF40070ADF853
:1009C00014000020ADF8160006A90A4801F00CFC3E
:1009D00004A9084801F09DFB012240F22551054879
:1009E00001F0DDFB0121034801F0A3FB0AB010BDBB
:1009F000000002400010014070B505460E4600247C
:100A00000AE0295D0B4802780078401C094B1870F9
:100A100009488154601CC4B2B442F2DB07488089A3
:100A200000F0800028B9012240F22771034801F04C
:100A3000B6FB70BDD10000208102002000100140F3
:100A40007047F0B50A4600210023002400BF3DE0B6
:100A5000012505FA01F3156805EA03049C4234D127
:100A600005684F000326BE40B543056015794E006A
:100A7000B5400668354305601579012D02D015791A
:100A8000022D16D185684F000326BE40B543856010
:100A900055794E00B5408668354385604568012626
:100AA0008E40B5434560456896798E40B6B2354371
:100AB0004560C5684F000326BE40B543C560D57983
:100AC0004E00B540C6683543C560491C1029BFD3E8
:100AD000F0BDF0B5002300244D07ED0E02FA05F33A
:100AE000CE1000F1200555F826504E07F70E0F26C0
:100AF000BE40B543CF1000F1200646F82750CE1077
:100B000000F1200555F8265045EA0304CE1000F107
:100B1000200545F82640F0BD4183704701837047AA
:100B200000BFFEE710B52DED0E8B8AB0F0EE408AC7
:100B3000FE48D0ED070A60EEA00A90ED081AD0ED4D
:100B4000081A41EE210A90ED091AD0ED091A41EE7A
:100B5000210AB0EE600A01F039FDB0EE409AB5EE20
:100B6000C09AF1EE10FA02D19FEDF10A03E0F7EE20
:100B7000000A80EE890AB0EE40EAEC4890ED070AE0
:100B800020EE090A8DED070A90ED080A20EE090A09
:100B90008DED080A90ED090A20EE090A8DED090A8B
:100BA00090ED000AD0ED010A60EE209A90ED000A67
:100BB000D0ED020A20EE20AA90ED010A60EE00AA14
:100BC00090ED010AD0ED030A20EE20BA90ED020A62
:100BD00060EE00BA90ED020AD0ED030A20EE20CAC2
:100BE00090ED030A60EE00CA90ED010AD0ED020A12
:100BF00020EE20DA90ED000AD0ED030A60EE20DA54
:100C0000B0EE000A2BEE800AF0EE000A00EEAC0A0D
:100C1000F7EE000A30EEC00A80ED0D0AB0EE000AD1
:100C20002DEE000AF0EE000A00EEED0A80ED0E0A4D
:100C3000B0EE000A2BEE000AF0EE000A00EE8A0A7F
:100C400080ED0F0AB0EE000A2DEE000AF0EE000A69
:100C500000EEAD0A80ED100AB0EE000A2AEE800A1E
:100C6000F0EE000A00EEAC0AF7EE000A30EEC00A21
:100C700080ED110AB0EE000A2CEE000AF0EE000A38
:100C800000EEE90A80ED120AB0EE000A2BEE000A2F
:100C9000F0EE000A00EECA0AA64880ED000AA3485A
:100CA00080ED130AB0EE000A2CEE000AF0EE000A06
:100CB00000EEA90A9F4880ED010A9C4880ED140AC5
:100CC000B0EE000A2AEE800AF0EE000A00EEAB0A4F
:100CD000F7EE000A30EEC00A964880ED020A93480B
:100CE00080ED150A9DED080A9248D0ED020A20EE2B
:100CF000200AD0ED010A9DED091A00EEC10A8DED22
:100D0000040A9DED070AD0ED020A20EE200AD0ED7C
:100D1000000A9DED091A10EE810A8DED050A9DED80
:100D2000080AD0ED000A20EE200AD0ED010A9DED60
:100D3000071A10EE810A8DED060A002449E09FEDA6
:100D40007E0AB4EEC0EAF1EE10FA06DCB2EE020A58
:100D5000B4EEC0EAF1EE10FA07D29FED750A8DED00
:100D6000060A8DED050A8DED040A744800EB840037
:100D700090ED000A04A800EB8400D0ED000A9FED7E
:100D8000701AF4EEC10AF1EE10FA02D8DFED6C0A27
:100D900013E004A800EB8400D0ED000A9FED691A6F
:100DA000F4EEC10AF1EE10FA02DDDFED660A04E0AE
:100DB00004A800EB8400D0ED000A60EEA80A9FEDC5
:100DC000621A00EE810A5D4800EB840080ED000AA3
:100DD000641C032CB3DB9DED040A5848D0ED000AD7
:100DE00070EE200A514890ED040A9FED581A00EE6B
:100DF000810A20EE280AF0EE000A80EE201A8DED1E
:100E0000011A9DED050A4D48D0ED010A70EE200A49
:100E1000464890ED050A9FED4D1A00EE810A20EE3E
:100E2000280AF0EE000A80EE201A8DED021A9DEDE0
:100E3000060A4248D0ED020A70EE200A3B4890EDC7
:100E4000060A9FED421A00EE810A20EE280AF0EE13
:100E5000000A80EE201A8DED031A90ED000AD0ED05
:100E6000010A9DED011A00EEC10AD0ED020A9DEDC6
:100E7000021A00EEC10AD0ED030A9DED031A00EE3E
:100E8000C10A80ED000A90ED010AD0ED000A9DED47
:100E9000011A00EE810AD0ED020A9DED031A00EE60
:100EA000810AD0ED030A9DED021A00EEC10A80ED21
:100EB000010A90ED000ADDED020A20EE200AD0EDD5
:100EC000010A9DED031A00EEC10AD0ED020A30EED0
:100ED000200AD0ED030A9DED011A00EE810A80ED93
:100EE000020A90ED000ADDED030A20EE200AD0EDA3
:100EF000010A9DED021A00EE810AD0ED020A9DED75
:100F0000011A00EEC10AD0ED030A30EE200A80ED8E
:100F1000030AD0ED000A60EEA00A90ED011AD0EDB0
:100F2000011A41EE210A90ED021A11E0440000205E
:100F300000000000740100209A99294180010020DE
:100F4000CDCCCCBDCDCCCC3D0AD7233CCDCC4C3E7A
:100F5000D0ED021A41EE210A90ED031AD0ED031AEA
:100F600041EE210AB0EE600A01F030FBB0EE408A9B
:100F70001248D0ED000AB0EE480A20EE800A80ED5B
:100F8000000AD0ED010AB0EE480A20EE800A80ED9A
:100F9000010AD0ED020AB0EE480A20EE800A80ED88
:100FA000020AD0ED030AB0EE480A20EE800A80ED76
:100FB000030A0AB0BDEC0E8B10BD000044000020F7
:100FC00010B50E48007880B901200C490870002245
:100FD000642102F0FFFC0A49086000231A4609490F
:100FE0000748006802F098FD06E002230022054948
:100FF0000348006802F090FD10BD0000B000002022
:10100000A8000020440000201FB56846FFF722FB1F
:101010009DF801009DF8001040EA012000B2CB4984
:10102000C8809DF803009DF8021040EA012040426C
:1010300000B2C64908819DF805009DF8041040EAF9
:101040000120404200B2C14948819DF809009DF845
:10105000081040EA012000B2BC4908809DF80B004E
:101060009DF80A1040EA0120404200B2B74948808A
:101070009DF80D009DF80C1040EA0120404200B29E
:10108000B24988809DF807009DF8061040EA0120CB
:1010900000B2AE4988850846B0F9000000EE100A9B
:1010A000B8EEC00A0846D0ED050A30EE600AA8483E
:1010B00080ED0C0A0846B0F9020000EE100AB8EE06
:1010C000C00A0846D0ED060A30EE600AA04880ED5E
:1010D0000D0A0846B0F9040000EE100AB8EEC00A86
:1010E0000846D0ED070A30EE600A994880ED0E0AF6
:1010F0000846B0F9060000EE100AB8EEC00A08462D
:10110000D0ED080A30EE600ADFED920A20EE200AE8
:10111000914880ED0C0A0846B0F9080000EE100A6C
:10112000B8EEC00A0846D0ED090A30EE600ADFEDDD
:101130008B0A20EE200A884880ED0D0A0846B0F997
:101140000A0000EE100AB8EEC00A0846D0ED0A0AFE
:1011500030EE600ADFED820A20EE200A7E4880ED44
:101160000E0A0320A5E000EB4001794A02EB810161
:1011700091ED000ADFED7B0A20EE200A411C01EB15
:10118000410102EB8101D1ED000A9FED771A00EEDB
:10119000810A00EB400102EB810181ED000A00EBC6
:1011A000400102EB810191ED010ADFED6E0A20EEB4
:1011B000200A411C01EB410102EB8101D1ED010A42
:1011C0009FED691A00EE810A00EB400102EB8101FC
:1011D00081ED010A00EB400102EB810191ED020A71
:1011E000DFED600A20EE200A411C01EB410102EB19
:1011F0008101D1ED020A9FED5C1A00EE810A00EB3D
:10120000400102EB810181ED020A00EB4001524AEC
:1012100002EB810191ED000ADFED520A20EE200A77
:10122000411C01EB410102EB8101D1ED000A9FED70
:101230004E1A00EE810A00EB400102EB810181EDC4
:10124000000A00EB400102EB810191ED010ADFEDA4
:10125000450A20EE200A411C01EB410102EB81010D
:10126000D1ED010A9FED401A00EE810A00EB40012A
:1012700002EB810181ED010A00EB400102EB8101EB
:1012800091ED020ADFED370A20EE200A411C01EB46
:10129000410102EB8101D1ED020A9FED331A00EE0C
:1012A000810A00EB400102EB810181ED020A411E3F
:1012B00048B20028BFF657AF254890ED000ADFED91
:1012C0002B0A20EE200ADFED2A0A20EE200A294808
:1012D00080ED040A1E4890ED010ADFED240A20EE9D
:1012E000200ADFED230A20EE200A224880ED050ABD
:1012F000174890ED020ADFED1D0A20EE200ADFED0F
:101300001C0A20EE200A1B4880ED060A124890EDC8
:10131000000ADFED190A20EE200A164880ED070AC0
:101320000D4890ED010ADFED140A20EE200A114865
:1013300080ED080A084890ED020ADFED0F0A20EE62
:10134000200A0C4880ED090A1FBD0000140000208F
:101350008C010020DFC17F3FC8010020F3CC7F3F1C
:10136000E624803F14AE473FAE47613EE2007A3D3F
:101370004DF38E3C440000206FF51C3B10B500F08F
:101380009BF800F0D3F84FF47A7000F0DBFF10BD4B
:1013900010B52DED028B4148D0ED130A90ED131AD4
:1013A000B7EE000A00EEC10AB5EEC00AF1EE10FA7F
:1013B00002D89FED3B0A1BE03848D0ED130A90EDB0
:1013C000131AB7EE000A00EEC10AF7EE000AB4EEF7
:1013D000E00AF1EE10FA02DDB7EE000A08E02F484D
:1013E000D0ED130A90ED131AB7EE000A00EEC10A11
:1013F0002C4880ED000A2C4890ED020ADFED2B0A04
:10140000B4EEE00AF1EE10FA08DC90ED020ADFED2E
:10141000280AB4EEE00AF1EE10FA3BD21F4890ED34
:10142000151AF0EE410A90ED141AB0EE410A00F0E0
:1014300095FFDFED200A20EE200A184880ED160AFD
:10144000184890ED000A01F0B6F8B0EE408A134853
:10145000D0ED130AB0EE600AF0EE480A00F07EFF0D
:10146000B1EE400ADFED130A20EE200A0B4880EDB2
:10147000170A90ED0D1AF0EE410A90ED101AB0EE39
:10148000410A00F06BFFDFED0B0A20EE200A034853
:1014900080ED180ABDEC028B10BD00004400002056
:1014A00000000000AC00002074010020CDCC4C3DB9
:1014B000CDCC4CBD33336542B7EE000A194A82EDFC
:1014C000000A9FED190A82ED010A9FED170A82EDCD
:1014D000020A9FED150A82ED030A9FED130A82EDC1
:1014E000070A9FED110A82ED080A9FED0F0A82EDAF
:1014F000090A002013E000210DE09FED0B0A00EB2C
:101500004003084A343202EB830202EB810282ED8F
:10151000000A4A1CD1B20329EFDB421CD0B20328D7
:10152000E9DB704744000020000000002DE9FF4186
:101530000024002500269FED320A324880ED050A7E
:101540009FED2F0A80ED060A9FED2D0A80ED070A18
:10155000002730E06846FFF77DF89DF809009DF808
:10156000081040EA012000B2264908809DF80B00CF
:101570009DF80A1040EA0120404200B2214948800B
:101580009DF80D009DF80C1040EA0120404200B289
:101590001C4988800846B0F9000004440846B0F9A8
:1015A000020005440846B0F904000644022000F099
:1015B000C9FE781C87B2C82FCCDB00EE104AB8EE0B
:1015C000C00ADFED110A80EE201A0E4880ED051AE0
:1015D00000EE105AB8EEC00ADFED0B0A80EE201ABA
:1015E00080ED061A00EE106AB8EEC00ADFED060ABA
:1015F00080EE201A80ED071A002004B0BDE8F081CB
:1016000000000000140000200000484310B5A6B000
:1016100030222BA101A8FEF7DDFE01AC00220DA9AE
:101620003348006802F064FB9DED230A84ED000A54
:101630009DED240A84ED010A9DED250A84ED020A40
:101640009DED110A84ED030A9DED120A84ED040A52
:101650009DED130A84ED050A2648B0F9320000EE2C
:10166000100AB8EEC00A84ED060A2248B0F9340028
:1016700000EE100AB8EEC00A84ED070A1D48B0F962
:10168000360000EE100AB8EEC00A84ED080A1948C8
:10169000B0F9380000EE100AB8EEC00A84ED090A6D
:1016A0001448B0F93A0000EE100AB8EEC00A84ED12
:1016B0000A0A302101A8FFF79FF926B010BD0000EB
:1016C000000000000000000000000000000000001A
:1016D000000000000000000000000000000000000A
:1016E0000000000000000000000000000000807FFB
:1016F000A80000200402002000BFFEE770470000A1
:1017000070B5002100230F22C4781CB3174C246845
:1017100004F4E064C4F5E064C4F30721C1F10404F7
:10172000E3B20A4144789C40E1B2847814402143FA
:101730000C07210E0E4C05786155047804F01F0546
:101740000124AC4005786D11AD0005F1E025C5F828
:10175000004109E0047804F01F050124AC40054D68
:101760000678761145F8264070BD00000CED00E0CB
:1017700000E400E080E100E002490143024A116018
:10178000704700000000FA050CED00E029B1064AA0
:1017900012680243044B1A6004E0034A1268824351
:1017A000014B1A60704700003038024029B1064AE8
:1017B00012680243044B1A6004E0034A1268824331
:1017C000014B1A60704700004038024029B1064AB8
:1017D00012680243044B1A6004E0034A1268824311
:1017E000014B1A60704700002038024029B1064AB8
:1017F00012680243044B1A6004E0034A12688243F1
:10180000014B1A60704700004438024029B1064A73
:1018100012680243044B1A6004E0034A12688243D0
:10182000014B1A607047000024380240F0B50021D7
:1018300000220024022500260223324F3F6807F0D1
:101840000C0121B1042905D0082937D105E02E4F1C
:10185000076036E02D4F076033E02A4F3F1F3F6897
:10186000C7F38056274F3F1F3F6807F03F036EB115
:10187000264FB7FBF3F7DFF88CC0ACF1040CDCF8B3
:1018800000C0CCF3881C07FB0CF40CE01E4FB7FB28
:10189000F3F7DFF870C0ACF1040CDCF800C0CCF357
:1018A000881C07FB0CF4174F3F1F3F68C7F3014725
:1018B0007F1C7D00B4FBF5F7076002E0124F076064
:1018C00000BF00BF0F4F3F6807F0F0010909104F3C
:1018D0007A5C0768D74047600A4F3F6807F4E051D9
:1018E000890A0B4F7A5C4768D7408760054F3F688D
:1018F00007F46041490B064F7A5C4768D740C760E0
:10190000F0BD0000083802400024F40000127A0004
:101910006401002010B50248FEF788FF10BD0000EA
:10192000A086010000B50346184600F0B9F900F0A2
:101930009BF900BD00B5034641F28830834203D9CC
:1019400000200F49087019E0B3F5487F16D940F61A
:101950009800834212D20A480078082800DD00BDB2
:101960000848074A127820F812300548007800F03D
:101970000BF803480078401C0149087000BFEEE7EF
:10198000C8000020240200200021024A22F8101082
:10199000704700005802002000B500224BE02A48A2
:1019A00030F91200A0F57A7000EE100AB8EEC00A05
:1019B000DFED260A20EE200ABDEEC00A10EE100A66
:1019C00001B22148323020F81210022A16D130F923
:1019D000120000F5FA7000EE100AB8EEC00ADFED52
:1019E0001C0A20EE200ABDEEC00A10EE100AA0F577
:1019F000FA7001B21448323020F812101248323016
:101A000030F9120010F5FA7F01DC12480DE00E48A3
:101A1000323030F91200B0F5FA7F02DD4FF4FA707F
:101A200003E00948323030F912000749323121F819
:101A30001200501CC2B2082AB1DB0020024981F812
:101A4000520000F041F900BD040200202FDD243FC8
:101A50009A99193F0CFEFFFF18B504467DA0006857
:101A600000907D4801780078401C7B4A10707B48CC
:101A700044541046007819287ED118201146087069
:101A8000764800780F2878D17448007E38B17348C2
:101A9000017E734A12781DF802008142F3D10020C2
:101AA0006D4908706D4840786C49897801F00701EC
:101AB00040EA01206B4908806848C0788006400DE4
:101AC0006649897840EAE100664948806348407980
:101AD000C007400D6149097940EA81005F49C97832
:101AE00040EAA1105F4988805C4880790007400D7A
:101AF0005A49497940EA61005A49C8805748C07933
:101B00004006400D5549897940EA21105549088120
:101B10005248407A8007400D5049097A40EA410016
:101B20004E49C97940EAE1104E4948814B48807AD4
:101B3000C006400D4949497A40EAA10049498881D7
:101B40004648C07AC0004549897A40EA6110454953
:101B5000C8814248007B4149497B01F0070140EAC6
:101B60000120404908823D48807B8006400D3B496A
:101B7000497B40EAE10001E06AE05FE039494882E0
:101B80003648007CC007400D3449C97B40EA8100DB
:101B90003249897B40EAA110324988822F48407C33
:101BA0000007400D2D49097C40EA61002D49C8829B
:101BB0002A48807C4006400D2849497C40EA211093
:101BC000284908832548007D8007400D2349C97CAA
:101BD00040EA41002149897C40EAE11021494883DB
:101BE0001E48407DC006400D1C49097D40EAA10009
:101BF0001C4988831948807DC0001849497D40EA06
:101C000061101849C8831548C07D81F83000144818
:101C10000078401C124908700878C11700EB9171D8
:101C20008910A0EB81010E4A11700E4890F8300027
:101C300000F0080060B9FFF7AFFE09E0002305E0FF
:101C40000649581C085CC854581CC3B2182BF7DB53
:101C500018BD000004142434C000002068020020D5
:101C6000C1000020040200200C4991F85210002904
:101C700013DD00200FE0022806D14FF60C62074961
:101C8000323121F8102004E000220449323121F8D9
:101C90001020411CC8B20828EDDB70470402002068
:101CA00007490988B1F5FA7F05DA05490988014431
:101CB000034A118003E00121024A82F85210704762
:101CC000B400002004020020002001490880704771
:101CD000B400002021B1028842F04002028004E0FA
:101CE00002884FF6BF731A400280704710B5044651
:101CF0002448844208D101218014FFF787FD002188
:101D0000A014FFF783FD3CE01F48844208D1012165
:101D10000014FFF75BFD00212014FFF757FD30E0B2
:101D20001A48844208D10121C013FFF74FFD00215A
:101D3000E013FFF74BFD24E01548844208D1012150
:101D40004014FFF763FD00216014FFF75FFD18E00A
:101D50001048844209D101210805FFF757FD0021F1
:101D60004FF48010FFF752FD0BE00B48844208D17E
:101D700001214805FFF74AFD00214FF40010FFF74D
:101D800045FD10BD0030014000380040003C0040DF
:101D90000034014000500140005401400246002040
:101DA00013890B400BB1012000E000207047014671
:101DB000888970478181704710B50022028802F43B
:101DC00041520B884C8823438C882343CC8823437F
:101DD0000C8923434C8923438C892343CC89234397
:101DE0001A430280838B4FF2FF74234083830B8A54
:101DF000038210BD0CB500200190009034480068AB
:101E000040F480303249086000BF3148006800F477
:101E1000003000900198401C0190009818B901987A
:101E2000B0F5A04FF1D12A48006800F4003010B19D
:101E30000120009001E0002000900098012846D188
:101E400023484030006840F080502149403108600C
:101E50002048006840F440401E4908601C48083093
:101E600000681B49083108600846006840F40040DB
:101E700008600846006840F4A05008601648091F32
:101E80000860081F006840F08070091F086000BFEC
:101E90000F48006800F000700028F9D040F205708B
:101EA0000E4908600A480830006820F0030008491D
:101EB000083108600846006840F00200086000BF72
:101EC00003480830006800F00C000828F8D10CBD69
:101ED000003802400070004008544007003C0240B7
:101EE000042808D14FF0E021096941F004014FF0C6
:101EF000E022116107E04FF0E021096921F00401BF
:101F00004FF0E0221161704710B50648007810B11B
:101F100001F046FD04E004480068401C02490860E6
:101F200010BD0000E0000020DC00002010B51548C6
:101F3000006840F47000134908601348006840F0DE
:101F400001001149086000200F49083108600E485F
:101F500000680E4908400C4908600D48091D0860DA
:101F6000081F006820F48020091F0860002006492F
:101F70000C310860FFF73EFF4FF0006001498039E7
:101F8000086010BD88ED00E000380240FFFFF6FE5B
:101F90001030002470B50E4800F021F804460D48BA
:101FA0000068A04206D94FF6FF702044094909682D
:101FB000451A02E007480068251A064804602846CA
:101FC000FFF7B8FC0221024800F006F870BD0000DF
:101FD00000000140C4000020CA430282704701464D
:101FE000486B704710B540F22551084800F0ADF835
:101FF00058B140F22551054800F07CF8034800F044
:102000005DF9C4B22046FFF727FD10BD0050004027
:1020100010B540F22551164800F097F850B140F243
:102020002551134800F066F8114800F047F9C4B292
:102030001048047040F227710D4800F086F8A8B1EE
:102040000D4801780078401C0B4A10700B48405C2A
:10205000074988801046007809490978884205D1E7
:102060000348808920F080000149888110BD00006C
:1020700000100140D2000020D0000020810200208A
:10208000D100002010B540F22551164800F05DF84F
:1020900040B140F22551134800F02CF8114800F0EF
:1020A0000DF9C4B240F227710E4800F04EF8C0B1ED
:1020B0000D4801780078401C0B4A10700B48405CBA
:1020C0000849091D088010460078094909788842A6
:1020D00007D104480C30008820F0800001490C3101
:1020E000088010BD00480040D3000020810300207C
:1020F000D400002010B50022002340F66A14A1424B
:1021000000D100BF0A1201249440A3B2DC43048032
:1021100010BD10B502460020108A20F470600B88B4
:102120004C8823438C882343CC8823431843108254
:1021300010BD21B1828942F40052828104E082897B
:102140004DF6FF731A408281704770B50246002435
:1021500000230025002040F66A16B14200D100BFDE
:10216000C1F3421501F01F03012606FA03F3012D06
:1021700002D19689334006E0022D02D1168A3340FF
:1021800001E0968A33400C12012606FA04F4168800
:10219000344013B10CB1012000E0002070BDF0B557
:1021A0000346002400260025002040F66A17B942A5
:1021B00000D100BF1846C1F3421401F01F060127E9
:1021C00007FA06F5012C01D10C3004E0022C01D1F4
:1021D000103000E014301AB107682F43076002E0A6
:1021E0000768AF430760F0BD2DE9FF4705460E467F
:1021F0000024A14600BFA046B08900B100BF2C8AD0
:1022000024F44054F08804432C82AC8941F20C60E1
:102210008443B08831890843718908430443AC8101
:10222000AC8A24F44074B0890443AC826846FFF75A
:10223000FDFA2048854202D01F48854202D1DDF8D0
:102240000C9001E0DDF80890A88900F4004040B14E
:1022500009EBC90000EB091031684900B0FBF1F748
:1022600007E009EBC90000EB091031688900B0FBF9
:10227000F1F76420B7FBF0F004012009642101FBB1
:102280001078A88900F4004040B1322000EBC8006B
:10229000B0FBF1F000F00700044308E0322000EB4F
:1022A00008106421B0FBF1F000F00F0004432C8112
:1022B000BDE8FF87001001400014014001468888F6
:1022C000C0F30800704700BFFEE700BF7047000082
:1022D0001CB50020012103464A02CDE900100DA1E2
:1022E0000F4801F0B9FE00201F2103464FF40062A1
:1022F000CDE900100BA10E4801F0AEFE00201E211A
:1023000003464FF48062CDE900100AA10C4801F0A9
:10231000A3FE1CBD7461736B5F3230306D730000BF
:10232000253300087461736B5F316D73000000002A
:10233000F93200087461736B5F32306D7300000016
:1023400041330008044A116800BF034A1268521A58
:102350008242FAD370470000DC00002000B5B0EEE6
:10236000403AB0EE602AB5EEC03AF1EE10FA07D16D
:10237000B5EEC02AF1EE10FA02D19FED501A99E0A5
:10238000B0EE430A00F00AF9F0EE403AB0EE420A2D
:1023900000F004F9F0EE402AF4EEE23AF1EE10FA21
:1023A00002D283EEA24A01E082EEA34A9FED440AE4
:1023B000B4EEC04AF1EE10FA02D2F0EE441A2DE06B
:1023C000DFED400AB6EE000A14EE200AF0EE404AB5
:1023D000BDEEE40A10EE100A00EE100AB8EEC00AD4
:1023E00034EEC00AF0EE404A374901EB800191ED2E
:1023F000000AF0EE401A344A411C02EB810191EDD3
:10240000000A114601EB8001D1ED000A70EE600A6E
:10241000B0EE610A00EEA40AF0EE401AF4EEE32AF0
:10242000F1EE10FA20DDB5EEC02AF1EE10FA0ADB6B
:10243000B5EEC03AF1EE10FA02DBB0EE611A39E007
:10244000B1EE611A36E09FED211AB5EEC03AF1EE19
:1024500010FA04DB31EE610AB0EE401A2AE031EEE8
:10246000C10AB0EE401A25E0B5EEC03AF1EE10FA1E
:1024700010DB9FED171AB5EEC02AF1EE10FA04DB5F
:1024800031EE610AB0EE401A14E031EE210AB0EEEE
:10249000401A0FE09FED0F1AB5EEC02AF1EE10FAC8
:1024A00004DB31EE210AB0EE401A03E031EE610A9E
:1024B000B0EE401AB0EE410A00BD0000000000007E
:1024C0008180803B0000804364470008DB0F494067
:1024D000DB0FC93FDB0FC9BF10B5044624B1102183
:1024E0000448FEF719FB03E010210248FEF716FB33
:1024F00010BD00000000024070B504460E461546AF
:102500000120FFF7E9FF44F08000FEF74FF9314664
:102510002846FEF77BF90020FFF7DEFF70BD70B59F
:1025200005460C460120FFF7D7FF2846FEF73EF987
:1025300006462046FEF73AF90020FFF7CDFF304669
:1025400070BD00004FF44070FFF716F900F08CFEEC
:10255000FEF788F84FF46140FEF7D6F9FFF7DAF995
:10256000FEF7AEF8FDF7F2FFFEF708FF0120FEF7D9
:1025700095F84FF47A70FFF7E5FE0020FEF78EF82D
:10258000C820FFF7DFFE012003490870FFF7A0FE17
:1025900001F0B6F800BFFEE7E0000020F0EE400AD0
:1025A000F5EEC00AF1EE10FA02DBB0EE600A7047F9
:1025B000B1EE600AFBE700B5F0EE402AB0EE620A29
:1025C00000F004F820EE220A00BD0000F0EE400A00
:1025D000F6EE001A60EEA11AB0EE611AB0EE600AD3
:1025E00010EE100A0C49A1EB600000EE100A21EE7B
:1025F000002AF7EE081A42EE401A61EE801AB0EE99
:10260000610A21EE002AF7EE081A42EE401A61EE46
:10261000801AB0EE610A7047DF59375F2DE9F0414B
:1026200005460E462648076826480068001D00F04B
:1026300096FE50B92348006890F82C10012088407D
:1026400021490968814320480160681CD8B9D6B186
:102650001E4948681B49096888601A4982680968E8
:10266000CA6018490968091D8268516015490968DE
:10267000091D8160154A134909684A6111460968B4
:10268000491C11601AE07C190E4800684460BC4285
:1026900007D20C480168091D0D48006800F083FE50
:1026A0000CE008480168091D0A48006800F07BFE3C
:1026B00009480068844201D207480460BDE8F081FF
:1026C000F8000020E4000020FC0000209407002017
:1026D000EC000020E80000201401002010B50446A2
:1026E00000F07CFE31480068401C304908603048EA
:1026F000006840B92E4804600846006801280DD1E2
:1027000000F004FA0AE02B48006838B9284800684D
:10271000C06AE16A884201D82548046026480068FA
:10272000401C2549086008460068606494F82C1035
:102730000120884021490968084320490860E16A6E
:1027400001EB81011E4A02EB81014868A0608268AA
:10275000E260211D826851608160E16A01EB8101C4
:10276000174A02EB81026261E16A01EB8101144ABE
:1027700052F82110491CE26A02EB8202104B43F826
:10278000221000F055FE0B48006868B10848006848
:10279000C06AE16A884207D24FF080500949086058
:1027A000BFF34F8FBFF36F8F10BD0000F400002008
:1027B000E40000200001002010010020FC000020A7
:1027C000C404002004ED00E010B500F007FE10483E
:1027D0000068D0B90F4800F0D6FD0F4800F0D3FDD7
:1027E0000C480E4908600C480D4908600022102171
:1027F000052001F0EFF8064908600846006820B19E
:1028000008A10348006800F097FE00F011FE10BD1B
:102810002C010020A8070020BC0700202401002074
:1028200028010020546D72510000000010B516E020
:1028300000F0D4FD0C48C068C468201D00F08FFD76
:102840000A480068401E0949086009480068401E9F
:102850000749086000F0ECFD204600F05FF80448EE
:1028600000680028E4D110BD80070020F40000209B
:10287000F000002070B504460D46206C70B1216C4C
:10288000E0680144E160D4E90210884201D3216884
:10289000E1602846226CE168FDF757FD70BD2DE927
:1028A000F04104460F4615464FF00008A66B206C19
:1028B00048B9206800282CD1A06801F05DFD804651
:1028C0000020A06025E07DB93946226C6068FDF7E4
:1028D0003CFD216C606808446060D4E901018842D5
:1028E00017D32068606014E03946226CE068FDF779
:1028F0002CFD216CE068411AE1602168E0688842A3
:1029000003D2216CA068411AE160022D01D106B109
:10291000761E701CA0634046BDE8F08110B50446E9
:10292000206B00F0A3FD204600F0A0FD10BD0000CC
:102930000146084A126812680AB9012200E0002222
:102940000A600A6822B9034A1268D268106800E077
:10295000002070472401002030B54FF4A0431748F1
:1029600000F007042CB1C01D20F00700134C041B1D
:102970001B1B0246124C22600024114D6C60D018C3
:10298000083820F007000F4C206000240D4D2D6802
:102990006C600C4D2D682C601146441A4C60094C3B
:1029A00024680C60084D4C682C60084D4C682C6005
:1029B0004FF00044064D2C6030BD0000D0070020D1
:1029C000380100204001002048010020440100207F
:1029D0005401002000BFFFF729FF064800680128C6
:1029E000F9D94FF0805004490860BFF34F8FBFF30F
:1029F0006F8FF0E7C404002004ED00E02DE9F04102
:102A000006460D4617469846069C0DB9246000E020
:102A10002760E66325640121204601F00FF884F861
:102A200050800020A064BDE8F0812DE9F05F82466F
:102A30000F4690469B460A9E0C9C4FEA8801A522B1
:102A4000206BFDF7F9FCA8F10100216B01EB800977
:102A500029F0070909F0070008B9012000E000206B
:102A600050B900BF502080F31188BFF34F8FBFF3E0
:102A70006F8F00BF00BFFEE787B1002507E0795DDB
:102A800004F134004155785D00B902E06D1C102D51
:102A9000F5D300BF00214320015502E0002084F857
:102AA0003400202E01D2012000E0002050B900BFE8
:102AB000502080F31188BFF34F8FBFF36F8F00BF9B
:102AC00000BFFEE7202E00D31F26E662E66400204A
:102AD0002065201D00F064FC04F1180000F060FC8B
:102AE0002461C6F12000A06164620020606584F862
:102AF00058005A465146484600F0A0FB20600B980B
:102B000008B10B980460BDE8F09F000010B50024E8
:102B100007E004EB84010F4A02EB810000F033FC74
:102B2000641C202CF5D30C4800F02DFC0B4800F061
:102B30002AFC0B4800F027FC0A4800F024FC0A4855
:102B400000F021FC0448094908600448084908606D
:102B500010BD0000C40400204407002058070020D6
:102B60006C0700208007002094070020E800002068
:102B7000EC00002010B50146164800E0006803682C
:102B80008B42FBD30246436813448B4204D1436813
:102B90004C682344436001460A464B68134404686A
:102BA000A34211D10C4C03682468A34208D04B689F
:102BB0000468646823444B6003681B680B6005E08D
:102BC000054B1B680B6001E003680B60884200D076
:102BD000016010BD38010020400100202DE9F041C6
:102BE00004460D4616461F464FF0000865602461F6
:102BF000B5420CD8F01BA169884202D34FF00108FE
:102C000011E0211D0948006800F0CDFB0BE0BE4239
:102C100004D2BD4202D34FF0010804E0211D044854
:102C2000006800F0C0FB4046BDE8F08128010020AC
:102C30002401002070B5054600F0D0FBA86B08B950
:102C4000012400E0002400F0F3FB204670BD70B5C5
:102C5000054600F0C3FBA86BE96B884201D1012453
:102C600000E0002400F0E4FB204670BDF1B50098C0
:102C7000846C002654B900BF502080F31188BFF344
:102C80004F8FBFF36F8F00BF00BFFEE7A06BE16BFC
:102C9000884201D2012000E0002050B900BF50203E
:102CA00080F31188BFF34F8FBFF36F8F00BF00BF5A
:102CB000FEE7A06BE16B88422CD294F945500022CC
:102CC00069462046FFF7EBFD0646681C60B9606A5E
:102CD00008B9012000E00020D8B904F1240001F077
:102CE000C3FBB0B1012614E07F2D01D0012000E02C
:102CF000002050B900BF502080F31188BFF34F8FE0
:102D0000BFF36F8F00BF00BFFEE7681C40B284F8BE
:102D1000450000BF3046F8BD70B505460E460E486A
:102D20000068C068C468201D00F019FB94F82800F2
:102D300000F0040028B132462946204600F0EEF8A3
:102D400005E094F8280000F0FE0084F828002046F2
:102D5000216A884770BD00002401002070B586B04C
:102D600094E00298002811DA03AE56B900BF502053
:102D700080F31188BFF34F8FBFF36F8F00BF00BF89
:102D8000FEE7D6E90020B168904700BF029800280E
:102D90007CDB049C606908B9012000E0002010B9C8
:102DA000201D00F0DCFA01A800F0E4F805460298C6
:102DB0000A2869D2DFE800F06805072E36580608B1
:102DC0002F3700BF00BF00BF94F8280040F001007B
:102DD00084F828000398A269811803462A462046F1
:102DE000FFF7FCFEA8B194F8280000F0040038B109
:102DF0000398A26981182A46204600F08FF805E062
:102E000094F8280000F0FE0084F828002046216A8B
:102E100088473AE000BF94F8280000F0FE0084F8EC
:102E2000280032E000BF94F8280040F0010084F848
:102E300028000398A061A06908B1012000E00020EB
:102E400050B900BF502080F31188BFF34F8FBFF3FC
:102E50006F8F00BF00BFFEE7A06941192B462A46CD
:102E60002046FFF7BBFE10E094F8280000F00200B7
:102E700018B9204600F0FAFA05E094F8280000F0AE
:102E8000FE0084F8280000E000BF00BF002202A975
:102E90000448006800F0E4FF00287FF462AF06B049
:102EA00070BD00002C010020F8B505460C4600F06E
:102EB00075FC684600F05EF80646009820BB44B9F1
:102EC000B54206D801F060FB31462846FFF724FFE3
:102ED0001CE03CB10E480068006808B9012000E021
:102EE00000200446A91B22460A48006800F054FB53
:102EF00001F04AFB50B94FF0805007490860BFF31A
:102F00004F8FBFF36F8F01E001F03EFBF8BD000073
:102F1000280100202C01002004ED00E070B50446DB
:102F20000D46164604E0A06905442046216A8847FC
:102F3000A06941192B4632462046FFF74FFE002874
:102F4000F1D170BD09480068006808B9012000E0AF
:102F5000002020B14FF0FF300549086005E003482C
:102F60000068C0680068024908607047E8000020F7
:102F70001401002070B5044601F01AF9054607480F
:102F80000068854204D200F00BF80120206001E0C7
:102F90000020206001480560284670BD34010020F3
:102FA00070B508E00D480068C06804684FF0FF3154
:102FB0002046FFF7B1FE09480068006808B9012003
:102FC00000E000200028EDD00448056804480068AF
:102FD000024908600248056070BD0000240100201D
:102FE000280100200E480068401C08B9012000E0BC
:102FF000002050B900BF502080F31188BFF34F8FDD
:10300000BFF36F8F00BF00BFFEE700BF502080F30B
:103010001188BFF34F8FBFF36F8F00BF00BFFEE774
:103020005801002008B500BF6846FFF781FC044640
:1030300020460099FFF738FFFFF790FEF4E770B5E0
:10304000044600F0CBF994F9455019E0A06C30B17A
:103050002046FFF70BFE88B100F0FEFA0EE0606A32
:1030600008B9012000E0002038B904F1240001F083
:10307000FBF918B100F0F0FA00E003E0681E45B279
:10308000002DE3DC00BFFF2084F8450000F0D0F9FC
:1030900000F0A4F994F9445010E0206908B9012027
:1030A00000E0002048B904F1100001F0DDF908B19A
:1030B00000F0D2FA681E45B200E001E0002DECDC21
:1030C00000BFFF2084F8440000F0B2F970BD00009A
:1030D0002DE9F04104464FF0000800F05FFB514835
:1030E000006808B9FFF738FC4F4800682040002806
:1030F0007ED13CB304F10800A04223D9083404F087
:10310000070000B304F00700C0F108002044A0420B
:1031100016D904F00700C0F10800044404F00700C9
:1031200008B9012000E0002068B900BF502080F3FA
:103130001188BFF34F8FBFF36F8F00BF00BFFEE753
:10314000002400E00024002C54D038480068844259
:1031500050D8374E3046056801E02E462D68686825
:10316000A04202D228680028F7D12E480068854284
:1031700040D0306800F10808286830606868001B9B
:10318000102819D92F1907F0070008B9012000E00D
:10319000002050B900BF502080F31188BFF34F8F3B
:1031A000BFF36F8F00BF00BFFEE76868001B786049
:1031B0006C603846FFF7DEFC1C4968680968081A2D
:1031C0001A490860084600681A490968884203D20B
:1031D0001648006817490860134968680968084379
:1031E00068600020286014480068401C124900E014
:1031F00000E0086001F0C8F908F0070008B90120F4
:1032000000E0002050B900BF502080F31188BFF3C8
:103210004F8FBFF36F8F00BF00BFFEE74046BDE892
:10322000F0810000400100205401002044010020F2
:1032300038010020480100204C010020001F4FF001
:1032400080730360001F21F001030360001F054B22
:10325000036014380260001F6FF00203036020381F
:1032600070470000E52F000870B51D4800681D4933
:10327000B0FBF1F01C4908700846007800EB4001F3
:10328000C1EBC0104FF6FF7101EAC000174908807A
:1032900008460188481EB0F1807F00D31BE0481E1D
:1032A0004FF0E022506150170F22002807DA130771
:1032B0001D0E0F4B00F00F04241F1D5503E01307D4
:1032C0001C0E0C4B1C5400BF00204FF0E0229061FC
:1032D0000720106100BF6FF00400FEF701FE70BD13
:1032E0000000002000127A00D8000020DA00002040
:1032F00018ED00E000E400E008B500F059FF009090
:103300000DE0FDF781FE9FED060AFDF70BFCFEF7D1
:103310003FF8FDF755FE0121684600F0CDFEF0E7CD
:103320006F12833A0BE00120FDF7B8F9C82000F0D6
:1033300059F90020FDF7B2F9C82000F053F9F2E77F
:1033400008B500F035FF009008E01420FEF7EAFA17
:10335000FEF75CF91421684600F0AEFEF5E7014681
:103360000A69D1E901309860D1E9010358605068D9
:10337000884201D188685060002008611068401EB2
:1033800010601068704700F1080141604FF0FF3194
:10339000816000F10801C160016100210160704796
:1033A00000210161704710B502460B685C1C0CB926
:1033B000106907E002F1080000E0406844682468F2
:1033C0009C42FAD944684C604C68A16088604160B6
:1033D0000A611468641C146010BD000000BF502016
:1033E00080F31188BFF34F8FBFF36F8F00BF0E487C
:1033F0000068401C0C49086008460068012812D18A
:103400000A480068C0B208B9012000E0002050B9A5
:1034100000BF502080F31188BFF34F8FBFF36F8F31
:1034200000BF00BFFEE770475801002004ED00E038
:103430000D48006850B900BF502080F31188BFF3D9
:103440004F8FBFF36F8F00BF00BFFEE706480068D5
:10345000401E054908600846006820B9002080F336
:10346000118800BF00BF70475801002070B50646A4
:103470003546002E44D0083D2C4622496068096834
:10348000084008B1012000E0002050B900BF5020E2
:1034900080F31188BFF34F8FBFF36F8F00BF00BF62
:1034A000FEE7206808B9012000E0002050B900BF05
:1034B000502080F31188BFF34F8FBFF36F8F00BF91
:1034C00000BFFEE70F49606809680840C0B1206886
:1034D000B0B90C49606809688843606000F05EF923
:1034E0000949606809680844074908602046FFF7F1
:1034F00041FB06480068401C0449086001F044F89C
:1035000070BD000054010020440100205001002043
:1035100000204FF0E02108618861064800684FF400
:103520007A71B0FBF1F0401E4FF0E02148610720B6
:10353000086170470000002030B502460B4652B9C2
:1035400000BF502484F31188BFF34F8FBFF36F8FF8
:1035500000BF00BFFEE70021BBB1002012E00D4C10
:1035600004EBC0046468944203D10A4C04EBC0012C
:103570000AE031B9074C54F8304014B9054C04EB5B
:10358000C001401C0828EAD300BF09B10B604A60A3
:1035900030BD0000840400202DE9F04105460E46B0
:1035A00017462C46FFF71AFF94F94400401C10B947
:1035B000002084F8440094F94500401C10B9002014
:1035C00084F84500FFF734FFA06B28B93A4631462E
:1035D00004F1240000F062F82046FFF730FDBDE85A
:1035E000F081000070B504460025D4B1124800688F
:1035F00008B9012000E0002050B900BF502080F33E
:103600001188BFF34F8FBFF36F8F00BF00BFFEE77E
:1036100000F0C4F800212046FFF700F800F0B4FFE6
:1036200005463DB94FF0805004490860BFF34F8F05
:10363000BFF36F8F70BD00002001002004ED00E09B
:103640000349096801600349096841607047000047
:103650000C010020F800002001200149086070479B
:103660000801002070B504460D4654B900BF502033
:1036700080F31188BFF34F8FBFF36F8F00BF00BF80
:10368000FEE70548016818312046FFF78CFE01214E
:103690002846FEF7C3FF70BDE400002070B5044665
:1036A0000E46154654B900BF502080F31188BFF371
:1036B0004F8FBFF36F8F00BF00BFFEE760680F49F9
:1036C0000968C8610D49826809680A620B4909687E
:1036D00018318268516009490968183181600749C9
:1036E00009688C622168491C21600DB14FF0FF36DA
:1036F00029463046FEF792FF70BD0000E40000202E
:103700001CB51E4800210B468222CDE900101CA1E9
:103710001D4800F0A1FC0446012C02D100F0F0FF8E
:103720000446012C15D100BF502080F31188BFF34F
:103730004F8FBFF36F8F00BF4FF0FF30134908600A
:1037400001201349086000201249086000F074F855
:1037500010E0601C08B1012000E0002050B900BF5B
:10376000502080F31188BFF34F8FBFF36F8F00BFDE
:1037700000BFFEE7084800681CBD000018010020DB
:1037800049444C4500000000D529000814010020E0
:1037900000010020F80000201C0100200248006801
:1037A000401C014908607047200100201D48006846
:1037B00018B101201C49086032E000201A49086055
:1037C0001A480068B0FA80F0C0F11F0101EB8100D7
:1037D000174A52F8200008B1012000E0002050B93B
:1037E00000BF502080F31188BFF34F8FBFF36F8F5E
:1037F00000BF00BFFEE701EB81020D4B03EB82002F
:1038000042685268426000F108024368934202D164
:103810004268526842604268D268064B1A6000BF34
:10382000704700002001002008010020FC0000205B
:10383000C4040020E40000201CB55248006852492E
:10384000884201D0012000E0002050B900BF502084
:1038500080F31188BFF34F8FBFF36F8F00BF00BF9E
:10386000FEE7484800684849491E884201D00120C7
:1038700000E0002050B900BF502080F31188BFF352
:103880004F8FBFF36F8F00BF00BFFEE73F49084671
:1038900000780190FF200A461070084600780090DA
:1038A0009DF8000000F0F0009DF80020904201D14A
:1038B000012000E0002050B900BF502080F31188A3
:1038C000BFF34F8FBFF36F8F00BF00BFFEE79DF8C0
:1038D000000000F050002E4A107007202D4A1060A2
:1038E00009E02C480068401E2A4A10609DF800003C
:1038F0004006000E00909DF8000000F08000802837
:10390000EFD024480068C0F10700042801D101204D
:1039100000E0002050B900BF502080F31188BFF3B1
:103920004F8FBFF36F8F00BF00BFFEE719480068DD
:103930000002184A10601046008800F4E060106031
:10394000124A019810700F482030006840F470004F
:103950000C49203108600846006840F0704008605B
:10396000FFF7D6FD00200C490860FCF791FC0B48DE
:10397000006840F0404009490860FCF775FC0020F1
:103980001CBD000000ED00E071C20F4100E400E04A
:103990005C010020600100205801002034EF00E0AD
:1039A00010B500BF502080F31188BFF34F8FBFF3D5
:1039B0006F8F00BF00F002FC18B14FF08050044937
:1039C000086000BF002080F3118800BF10BD000018
:1039D00004ED00E02DE9F84305460E4617460024A5
:1039E000E5B1601EB0FBF5F0B04217D305FB06F061
:1039F00010F1550F12D805FB06F808F15400FFF737
:103A000067FB0446B4B1A14609F154093B464A4656
:103A1000314628460094FEF7F1FF0BE054B900BF91
:103A2000502080F31188BFF34F8FBFF36F8F00BF1B
:103A300000BFFEE72046BDE8F88300002DE9F04115
:103A400005460E4601272C4654B900BF502080F38E
:103A50001188BFF34F8FBFF36F8F00BF00BFFEE72A
:103A6000002C42D0E06B00283FD04FF0FF31E06BDC
:103A7000B1FBF0F0216C884237D3FFF7AFFCD4E9FB
:103A80000F12206801FB0200A0600020A0632068E4
:103A90006060E06B401E226C216800FB0211E16057
:103AA000FF2084F8440084F845009EB9206908B9D5
:103AB000012000E00020A8B904F1100000F0D4FCBF
:103AC00080B14FF0805013490860BFF34F8FBFF3B0
:103AD0006F8F07E004F11000FFF755FC04F124009C
:103AE000FFF751FCFFF7A4FC00E000270FB1012015
:103AF00000E0002050B900BF502080F31188BFF3D0
:103B00004F8FBFF36F8F00BF00BFFEE73846BDE8A1
:103B1000F081000004ED00E02DE9FF4782B0064689
:103B200088461D464FF00009344654B900BF502066
:103B300080F31188BFF34F8FBFF36F8F00BF00BFBB
:103B4000FEE7B8F1000F01D1206C08B9012000E0B8
:103B5000002050B900BF502080F31188BFF34F8F71
:103B6000BFF36F8F00BF00BFFEE7022D02D1E06BF5
:103B7000012801D1012000E0002050B900BF5020F1
:103B800080F31188BFF34F8FBFF36F8F00BF00BF6B
:103B9000FEE700F0FDFA08B9049808B9012000E03A
:103BA000002050B900BF502080F31188BFF34F8F21
:103BB000BFF36F8F00BF00BFFEE700BFFFF70EFC33
:103BC000A06BE16B884201D3022D3ED1D4F838A01E
:103BD0002A4641462046FEF762FE0746A06C88B1A1
:103BE000022D02D1BAF1000F29D12046FFF73EF88D
:103BF00028B34FF080503D490860BFF34F8FBFF3AB
:103C00006F8F1CE0606A08B9012000E0002068B9ED
:103C100004F1240000F028FC88B14FF080503349B3
:103C20000860BFF34F8FBFF36F8F08E03FB14FF0D5
:103C300080502E490860BFF34F8FBFF36F8FFFF79F
:103C4000F7FB012006B0BDE8F087049818B9FFF72C
:103C5000EFFB0020F6E7B9F1000F04D16846FFF74B
:103C6000EFFC4FF00109FFF7E3FBFFF797FDFFF7CC
:103C7000B5FB94F94400401C10B9002084F84400BE
:103C800094F94500401C10B9002084F84500FFF766
:103C9000CFFB04A9684600F097F9F8B92046FEF773
:103CA000D6FFA8B104F110000499FFF7DBFC204611
:103CB000FFF7C5F900F068FC00287FF47FAF4FF0F4
:103CC00080500A490860BFF34F8FBFF36F8F75E7CD
:103CD0002046FFF7B4F900F057FC6FE72046FFF7E6
:103CE000AEF900F051FC0020ACE7000004ED00E06C
:103CF0002DE9F74382B005460E464FF000082C46EA
:103D000054B900BF502080F31188BFF34F8FBFF329
:103D10006F8F00BF00BFFEE70EB9206C08B901200D
:103D200000E0002050B900BF502080F31188BFF39D
:103D30004F8FBFF36F8F00BF00BFFEE700F028FA80
:103D400008B9049808B9012000E0002050B900BF6C
:103D5000502080F31188BFF34F8FBFF36F8F00BFE8
:103D600000BFFEE700BFFFF739FBD4F83890B9F188
:103D7000000F1ED0E76831462046FEF77BFDE76066
:103D8000606A08B9012000E0002060B904F1240055
:103D900000F06AFB38B14FF0805030490860BFF343
:103DA0004F8FBFF36F8FFFF743FB012005B0BDE8D6
:103DB000F083049818B9FFF73BFB0020F6E7B8F151
:103DC000000F04D16846FFF73BFC4FF00108FFF7F6
:103DD0002FFBFFF7E3FCFFF701FB94F94400401CC5
:103DE00010B9002084F8440094F94500401C10B933
:103DF000002084F84500FFF71BFB04A9684600F08B
:103E0000E3F8F0B92046FEF715FFA0B104F1240055
:103E10000499FFF727FC2046FFF711F900F0B4FBE7
:103E20000028A0D14FF080500C490860BFF34F8F9D
:103E3000BFF36F8F97E72046FFF701F900F0A4FB6F
:103E400091E72046FFF7FBF800F09EFB2046FEF7C7
:103E5000F1FE002887D00020A8E7000004ED00E074
:103E60002DE9F74183B005460E464FF000082C4679
:103E700054B900BF502080F31188BFF34F8FBFF3B8
:103E80006F8F00BF00BFFEE70EB9206C08B901209C
:103E900000E0002050B900BF502080F31188BFF32C
:103EA0004F8FBFF36F8F00BF00BFFEE700F070F9C8
:103EB00008B9059808B9012000E0002050B900BFFA
:103EC000502080F31188BFF34F8FBFF36F8F00BF77
:103ED00000BFFEE700BFFFF781FAA76BF7B13146DD
:103EE0002046FEF7C7FC781EA063206908B90120B0
:103EF00000E0002060B904F1100000F0B5FA38B11C
:103F00004FF080502F490860BFF34F8FBFF36F8F82
:103F1000FFF78EFA012006B0BDE8F081059818B9C8
:103F2000FFF786FA0020F6E7B8F1000F04D101A8E8
:103F3000FFF786FB4FF00108FFF77AFAFFF72EFC38
:103F4000FFF74CFA94F94400401C10B9002084F8A3
:103F5000440094F94500401C10B9002084F8450045
:103F6000FFF766FA05A901A800F02EF8F0B920467F
:103F7000FEF760FEA0B104F124000599FFF772FB83
:103F80002046FFF75CF800F0FFFA0028A3D14FF0BD
:103F900080500C490860BFF34F8FBFF36F8F9AE7D3
:103FA0002046FFF74CF800F0EFFA94E72046FFF7C1
:103FB00046F800F0E9FA2046FEF73CFE00288AD0D9
:103FC0000020A8E704ED00E070B505460C4655B9A1
:103FD00000BF502080F31188BFF34F8FBFF36F8F66
:103FE00000BF00BFFEE754B900BF502080F3118826
:103FF000BFF34F8FBFF36F8F00BF00BFFEE7FFF728
:10400000EDF9134802686868131A2068401C08B963
:10401000002619E00F4928680968884206D06868B8
:10402000904203D80126002020600DE020689842CD
:1040300007D92068C01A20602846FFF701FB002638
:1040400002E0002020600126FFF7F2F9304670BD43
:10405000F80000200C0100202DE9FF4F85B08046BC
:1040600089461746DDE912ABB800FFF731F806467E
:1040700056B15C20FFF72CF804460CB1266304E02F
:104080003046FFF7F3F900E000247CB10020CDE9D1
:1040900000ABCDE902403A4649464046089BFEF750
:1040A000C4FC2046FEF71AFB012501E04FF0FF3566
:1040B000284609B0BDE8F08F2DE9F04704460F46C9
:1040C0004FF0000954B900BF502080F31188BFF3AE
:1040D0004F8FBFF36F8F00BF00BFFEE70FB101200E
:1040E00000E0002050B900BF502080F31188BFF3DA
:1040F0004F8FBFF36F8F00BF00BFFEE721480068FE
:1041000008B9012000E0002050B900BF502080F322
:104110001188BFF34F8FBFF36F8F00BF00BFFEE763
:10412000FFF73CFB184806682068C5192068B042B4
:1041300007D92068A8420BD9B54209D94FF0010927
:1041400006E02068A84201D8B54201D94FF0010924
:104150002560B9F1000F03D0A81B0021FEF75EFA1D
:1041600000F012FA8046B8F1000F07D14FF08050EE
:1041700006490860BFF34F8FBFF36F8F4846BDE815
:10418000F087000020010020F800002004ED00E08E
:104190000549096809B9012005E00449096809B918
:1041A000022000E0002070470001002020010020D4
:1041B0000149086870470000F80000202DE9F0412F
:1041C0004FF000086148006800287DD16048006811
:1041D000451C5F48056015BB5E480068006808B96B
:1041E000012000E0002050B900BF502080F311886A
:1041F000BFF34F8FBFF36F8F00BF00BFFEE755487F
:104200000768554800685349086053480760534899
:104210000068401C51490860FEF794FE00BF5048FA
:104220000068854277D300BF4A480068006808B933
:10423000012000E0002020B14FF0FF304849086025
:1042400068E044480068C068C4686668B54202D245
:10425000434806605EE06069D4E902128A60D4E9EE
:1042600002214A60211D42688A4201D1E168416011
:10427000002262610168491E0160A06A98B1A06ACB
:10428000D4E907128A60D4E907214A6004F11801D1
:1042900042688A4201D1216A41600022A26201681B
:1042A000491E016000BF94F82C10012088402D4960
:1042B000096808432B490860E16A01EB81012A4A39
:1042C00002EB8101486800E037E0A0608268E260AC
:1042D000211D826851608160E16A01EB8101224AFF
:1042E00002EB81026261E16A01EB81011E4A52F830
:1042F0002110491CE26A02EB82021B4B43F8221098
:104300001A49E06A0968C96A88428DD34FF00108EA
:104310008AE700E000BF15480068C06A00EB800033
:10432000114951F82000012801D94FF00108104827
:10433000006808B14FF0010804E00E480068401C16
:104340000C4908604046BDE8F081000020010020D3
:10435000F8000020E8000020EC0000200C01002004
:1043600014010020FC000020C4040020E400002010
:10437000080100200401002070B505462C460026E7
:10438000002D68D035480068844201D1012000E04A
:10439000002050B900BF502080F31188BFF34F8F29
:1043A000BFF36F8F00BF00BFFEE7206D50B900BFA5
:1043B000502080F31188BFF34F8FBFF36F8F00BF82
:1043C00000BFFEE7206D401E2065E16CE06A884278
:1043D00041D0206D00283ED1201DFEF7C0FF40B91E
:1043E00094F82C10012088401D49096881431C481D
:1043F0000160E06CE062E06AC0F12000A06194F826
:104400002C100120884016490968084314490860A7
:10441000E16A01EB8101134A02EB81014868A06067
:104420008268E260211D826851608160E16A01EB6F
:1044300081010C4A02EB81026261E16A01EB8101B8
:10444000084A52F82110491CE26A02EB8202054B2D
:1044500043F822100126304670BD0000E400002021
:10446000FC000020C404002070B50346D868C16871
:1044700051B900BF502080F31188BFF34F8FBFF3B5
:104480006F8F00BF00BFFEE7886AD1E90745A560CE
:10449000D1E90754656001F118044568A54201D1CE
:1044A0000C6A446000258D620468641E0460304814
:1044B000006800283DD14869D1E90245A560D1E9ED
:1044C000025465600C1D4568A54201D1CC6844606A
:1044D00000254D610468641E046091F82C400120A1
:1044E000A040244C24682043224C2060CC6A04EB7A
:1044F0008404214D05EB8404606888608568CD6084
:104500000C1D85686C608460CC6A04EB84041A4DD1
:1045100005EB84054D61CC6A04EB8404164D55F817
:104520002440641CCD6A05EB8505134E46F82540F2
:1045300010E0124C6068C86185680D6201F11804D2
:1045400085686C6084600D4D8D622C462468641C07
:104550002C6000BF0A4CC86A2468E46AA04204D9EF
:1045600001220120074C206000E00022104670BDAF
:1045700020010020FC000020C40400206C07002063
:10458000E40000200801002070B5002400265348F4
:10459000006850B900BF502080F31188BFF34F8FDF
:1045A000BFF36F8F00BF00BFFEE7FEF717FF4B485A
:1045B0000068401E494908600846006800287DD10F
:1045C00047480068002879D05BE04648C068C46866
:1045D000A06AD4E907128A60D4E907214A6004F18D
:1045E000180142688A4201D1216A41600022A26218
:1045F0000168491E01606069D4E902128A60D4E949
:1046000002214A60211D42688A4201D1E16841606D
:10461000002262610168491E016094F82C1001209B
:1046200088403149096808432F490860E16A01EB75
:1046300081012E4A02EB81014868A0608268E26035
:10464000211D826851608160E16A01EB8101274A86
:1046500002EB81026261E16A01EB8101234A52F8B7
:104660002110491CE26A02EB8202204B43F822101F
:104670001F49E06A0968C96A884202D301201D49BE
:1046800008601848006808B9012000E000200028F0
:104690009BD00CB1FEF756FC1748056865B100BF0A
:1046A000FFF78CFD10B10120124908606D1E002D2E
:1046B000F6D10020104908600E4800E009E00068CB
:1046C00038B1012630070D490860BFF34F8FBFF3A3
:1046D0006F8FFEF7ADFE304670BD00002001002058
:1046E000F40000206C070020FC000020C40400201F
:1046F000E4000020080100200401002004ED00E097
:104700001CB50024FEF760F80E48006858B10E484A
:104710001F2100234FF48272CDE900100BA10D4838
:10472000FFF79AFC044654B900BF502080F311886B
:10473000BFF34F8FBFF36F8F00BF00BFFEE7204670
:104740001CBD00002C01002030010020546D72209F
:1047500053766300253000084FF04070E1EE100AF8
:1047600070470000000000005680803BD37F003C73
:1047700077BE403CCF7D803C5B9BA03CA6B7C03C55
:104780006ED2E03CB775003D3581103D918B203DE8
:10479000AB94303D609C403D92A2503D25A7603DCA
:1047A000F1A9703D6F55803DE354883D4753903DDE
:1047B0008C50983D9F4CA03D7247A83DF740B03DBE
:1047C0001B39B83DD22FC03D0C25C83DB218D03D95
:1047D000C60AD83D2DFBDF3DD9E9E73DB0D6EF3D18
:1047E000BEC1F73DDBAAFF3D04C9033E95BB073EB2
:1047F00020AD0B3E979D0F3EF58C133E397B173E47
:1048000056681B3E3E541F3EF83E233E7728273E07
:10481000B4102B3EA1F72E3E45DD323E93C1363E0D
:104820007DA43A3E0A863E3E2766423ED844463E36
:1048300012224A3EC7FD4D3EFED7513EAFB0553E17
:10484000C687593E4B5D5D3E3731613E7C03653E18
:104850001AD4683E0AA36C3E4770703EC83B743E53
:104860008805783E86CD7B3EB5937F3E0EAC813E7B
:10487000538D833EAE6D853E164D873E8D2B893E12
:104880000F098B3E99E58C3E2BC18E3EC19B903E1D
:104890005475923EE94D943E7B25963E07FC973E2B
:1048A0008BD1993E02A69B3E6F799D3ECD4B9F3E9C
:1048B0001C1DA13E57EDA23E7FBCA43E8D8AA63EA4
:1048C0008457A83E6223AA3E23EEAB3EC2B7AD3E5C
:1048D0004580AF3EA447B13EE20DB33EF9D2B43EAF
:1048E000E996B63EB159B83E4F1BBA3EC2DBBB3E5D
:1048F000079BBD3E1E59BF3E0416C13EBCD1C23E01
:104900003F8CC43E8E45C63EA4FDC73E89B4C93E19
:10491000336ACB3EA41ECD3EDAD1CE3ED583D03E07
:104920009434D23E18E4D33E5A92D53E603FD73EEF
:1049300021EBD83EA395DA3EE33EDC3EE1E6DD3EE8
:104940009A8DDF3E0D33E13E3AD7E23E227AE43ED5
:10495000C51BE63E1BBCE73E2F5BE93EF7F8EA3E8F
:104960007695EC3EA930EE3E93CAEF3E3563F13EBC
:1049700086FAF23E8F90F43E4925F63EB9B8F73EEE
:10498000DA4AF93EAFDBFA3E386BFC3E71F9FD3E88
:104990005A86FF3EFC88003F234E013FA212023F91
:1049A0007BD6023FAC99033F365C043F171E053FA0
:1049B00051DF053FE39F063FCE5F073F121F083FD1
:1049C000ADDD083FA29B093FEF580A3F94150B3F0E
:1049D00093D10B3FE98C0C3F9A470D3FA2010E3F4C
:1049E00003BB0E3FBF730F3FD32B103F41E3103F7C
:1049F000089A113F2A50123FA405133F79BA133F7A
:104A0000A86E143F3322153F18D5153F5787163F20
:104A1000F138173FE7E9173F389A183FE749193F40
:104A2000EFF8193F55A71A3F18551B3F37021C3F97
:104A3000B3AE1C3F8E5A1D3FC4051E3F5AB01E3FE9
:104A40004E5A1F3FA103203F52AC203F6354213FE9
:104A5000D3FB213FA4A2223FD548233F67EE233F4B
:104A60005A93243FAD37253F63DB253F7A7E263FAF
:104A7000F420273FD2C2273F1364283FB704293FC1
:104A8000BFA4293F2C442A3FFEE22A3F33812B3F1B
:104A9000D11E2C3FD2BB2C3F3C582D3F0CF42D3F58
:104AA000438F2E3FE1292F3FE9C32F3F595D303F10
:104AB00033F6303F758E313F2126323F39BD323FCC
:104AC000BB53333FA9E9333F027F343FC713353F20
:104AD000F9A7353F993B363FA6CE363F2161373F98
:104AE0000BF3373F6484383F2E15393F65A5393FB6
:104AF0000F353A3F2AC43A3FB4523B3FB3E03B3F05
:104B0000226E3C3F06FB3C3F5D873D3F26133E3F08
:104B1000679E3E3F1A293F3F44B33F3FE43C403F3E
:104B2000F9C5403F864E413F89D6413F065E423F30
:104B3000FAE4423F676B433F4FF1433FB076443F57
:104B40008CFB443FE27F453FB403463F0187463F2D
:104B5000CB09473F138C473FD70D483F198F483F3C
:104B6000DD0F493FDD0F493F884B00080000002062
:104B700074010000C4010008C04B0008740100204B
:104B8000BC7800000002000895007A030A092101A0
:104B9000020304060708097D26530BC27651B3426F
:104BA00095652B4203D5803F023C1FD5AAAAAAAA2D
:104BB0001D010203040102030406070809000000A6
:040000050800018965
:00000001FF
